{
	"contracts/artifacts/Portfolio.sol": {
		"Portfolio": {
			"abi": [
				{
					"inputs": [],
					"stateMutability": "nonpayable",
					"type": "constructor"
				},
				{
					"inputs": [],
					"name": "allEducationDetails",
					"outputs": [
						{
							"components": [
								{
									"internalType": "uint256",
									"name": "id",
									"type": "uint256"
								},
								{
									"internalType": "string",
									"name": "date",
									"type": "string"
								},
								{
									"internalType": "string",
									"name": "degree",
									"type": "string"
								},
								{
									"internalType": "string",
									"name": "knowledgeAcquired",
									"type": "string"
								},
								{
									"internalType": "string",
									"name": "instutionName",
									"type": "string"
								}
							],
							"internalType": "struct Portfolio.Education[3]",
							"name": "",
							"type": "tuple[3]"
						}
					],
					"stateMutability": "view",
					"type": "function"
				},
				{
					"inputs": [],
					"name": "allProjects",
					"outputs": [
						{
							"components": [
								{
									"internalType": "uint256",
									"name": "id",
									"type": "uint256"
								},
								{
									"internalType": "string",
									"name": "name",
									"type": "string"
								},
								{
									"internalType": "string",
									"name": "description",
									"type": "string"
								},
								{
									"internalType": "string",
									"name": "image",
									"type": "string"
								},
								{
									"internalType": "string",
									"name": "githubLink",
									"type": "string"
								}
							],
							"internalType": "struct Portfolio.Project[3]",
							"name": "",
							"type": "tuple[3]"
						}
					],
					"stateMutability": "view",
					"type": "function"
				},
				{
					"inputs": [
						{
							"internalType": "string",
							"name": "_description",
							"type": "string"
						}
					],
					"name": "changeDescription",
					"outputs": [],
					"stateMutability": "nonpayable",
					"type": "function"
				},
				{
					"inputs": [
						{
							"internalType": "string",
							"name": "_date",
							"type": "string"
						},
						{
							"internalType": "string",
							"name": "_degree",
							"type": "string"
						},
						{
							"internalType": "string",
							"name": "_knowledgeAcquired",
							"type": "string"
						},
						{
							"internalType": "string",
							"name": "_instutionName",
							"type": "string"
						},
						{
							"internalType": "uint256",
							"name": "_educationDetailCount",
							"type": "uint256"
						}
					],
					"name": "changeEducation",
					"outputs": [],
					"stateMutability": "nonpayable",
					"type": "function"
				},
				{
					"inputs": [
						{
							"internalType": "string",
							"name": "_imageLink",
							"type": "string"
						}
					],
					"name": "changeImageLink",
					"outputs": [],
					"stateMutability": "nonpayable",
					"type": "function"
				},
				{
					"inputs": [
						{
							"internalType": "string",
							"name": "_name",
							"type": "string"
						},
						{
							"internalType": "string",
							"name": "_description",
							"type": "string"
						},
						{
							"internalType": "string",
							"name": "_image",
							"type": "string"
						},
						{
							"internalType": "string",
							"name": "_githubLink",
							"type": "string"
						},
						{
							"internalType": "uint256",
							"name": "_projectCount",
							"type": "uint256"
						}
					],
					"name": "changeProject",
					"outputs": [],
					"stateMutability": "nonpayable",
					"type": "function"
				},
				{
					"inputs": [
						{
							"internalType": "string",
							"name": "_resumeLink",
							"type": "string"
						}
					],
					"name": "changeResumeLink",
					"outputs": [],
					"stateMutability": "nonpayable",
					"type": "function"
				},
				{
					"inputs": [],
					"name": "description",
					"outputs": [
						{
							"internalType": "string",
							"name": "",
							"type": "string"
						}
					],
					"stateMutability": "view",
					"type": "function"
				},
				{
					"inputs": [],
					"name": "donate",
					"outputs": [],
					"stateMutability": "payable",
					"type": "function"
				},
				{
					"inputs": [
						{
							"internalType": "uint256",
							"name": "",
							"type": "uint256"
						}
					],
					"name": "educationDetails",
					"outputs": [
						{
							"internalType": "uint256",
							"name": "id",
							"type": "uint256"
						},
						{
							"internalType": "string",
							"name": "date",
							"type": "string"
						},
						{
							"internalType": "string",
							"name": "degree",
							"type": "string"
						},
						{
							"internalType": "string",
							"name": "knowledgeAcquired",
							"type": "string"
						},
						{
							"internalType": "string",
							"name": "instutionName",
							"type": "string"
						}
					],
					"stateMutability": "view",
					"type": "function"
				},
				{
					"inputs": [],
					"name": "imageLink",
					"outputs": [
						{
							"internalType": "string",
							"name": "",
							"type": "string"
						}
					],
					"stateMutability": "view",
					"type": "function"
				},
				{
					"inputs": [
						{
							"internalType": "string",
							"name": "_date",
							"type": "string"
						},
						{
							"internalType": "string",
							"name": "_degree",
							"type": "string"
						},
						{
							"internalType": "string",
							"name": "_knowledgeAcquired",
							"type": "string"
						},
						{
							"internalType": "string",
							"name": "_instutionName",
							"type": "string"
						}
					],
					"name": "insertEducation",
					"outputs": [],
					"stateMutability": "nonpayable",
					"type": "function"
				},
				{
					"inputs": [
						{
							"internalType": "string",
							"name": "_name",
							"type": "string"
						},
						{
							"internalType": "string",
							"name": "_description",
							"type": "string"
						},
						{
							"internalType": "string",
							"name": "_image",
							"type": "string"
						},
						{
							"internalType": "string",
							"name": "_githubLink",
							"type": "string"
						}
					],
					"name": "insertProject",
					"outputs": [],
					"stateMutability": "nonpayable",
					"type": "function"
				},
				{
					"inputs": [
						{
							"internalType": "uint256",
							"name": "",
							"type": "uint256"
						}
					],
					"name": "projects",
					"outputs": [
						{
							"internalType": "uint256",
							"name": "id",
							"type": "uint256"
						},
						{
							"internalType": "string",
							"name": "name",
							"type": "string"
						},
						{
							"internalType": "string",
							"name": "description",
							"type": "string"
						},
						{
							"internalType": "string",
							"name": "image",
							"type": "string"
						},
						{
							"internalType": "string",
							"name": "githubLink",
							"type": "string"
						}
					],
					"stateMutability": "view",
					"type": "function"
				},
				{
					"inputs": [],
					"name": "resumeLink",
					"outputs": [
						{
							"internalType": "string",
							"name": "",
							"type": "string"
						}
					],
					"stateMutability": "view",
					"type": "function"
				}
			],
			"devdoc": {
				"kind": "dev",
				"methods": {},
				"version": 1
			},
			"evm": {
				"assembly": "    /* \"contracts/artifacts/Portfolio.sol\":72:3264  contract Portfolio{... */\n  mstore(0x40, 0x80)\n    /* \"contracts/artifacts/Portfolio.sol\":487:559  string public imageLink=\"QmNVn57VNAzG1GURePB8TFJCb6p2L5Jzs69musbpU3tNXU\" */\n  mload(0x40)\n  dup1\n  0x60\n  add\n  0x40\n  mstore\n  dup1\n  0x2e\n  dup2\n  mstore\n  0x20\n  add\n  data_c6c8731200eed530a55b210a27447293d0b1678eb23cca27ff13560340d6aa95\n  0x2e\n  swap2\n  codecopy\n  0x1f\n  swap1\n  dup2\n  tag_1\n  swap2\n  swap1\n  tag_2\n  jump\t// in\ntag_1:\n  pop\n    /* \"contracts/artifacts/Portfolio.sol\":564:665  string public description=\"over 1 months of practical experience with a good knowledge in blockchain\" */\n  mload(0x40)\n  dup1\n  0x80\n  add\n  0x40\n  mstore\n  dup1\n  0x49\n  dup2\n  mstore\n  0x20\n  add\n  data_37aeeed936492a6a366ed7cf9001de78877dc6f6e98d417eb088231cd7e2e7e8\n  0x49\n  swap2\n  codecopy\n  0x20\n  swap1\n  dup2\n  tag_3\n  swap2\n  swap1\n  tag_2\n  jump\t// in\ntag_3:\n  pop\n    /* \"contracts/artifacts/Portfolio.sol\":670:743  string public resumeLink=\"Qme7xVCaRnwUcBVHyaKhsGsG4QFog2SDMN3fHLWCTvwAKz\" */\n  mload(0x40)\n  dup1\n  0x60\n  add\n  0x40\n  mstore\n  dup1\n  0x2e\n  dup2\n  mstore\n  0x20\n  add\n  data_abbc65d9db0a082e24d2c26402a8006cc9f1d2f3a901aa324431b370f8d1a013\n  0x2e\n  swap2\n  codecopy\n  0x21\n  swap1\n  dup2\n  tag_4\n  swap2\n  swap1\n  tag_2\n  jump\t// in\ntag_4:\n  pop\n    /* \"contracts/artifacts/Portfolio.sol\":869:924  constructor(){... */\n  callvalue\n  dup1\n  iszero\n  tag_5\n  jumpi\n  0x00\n  dup1\n  revert\ntag_5:\n  pop\n    /* \"contracts/artifacts/Portfolio.sol\":908:918  msg.sender */\n  caller\n    /* \"contracts/artifacts/Portfolio.sol\":889:907  portfolioAuthority */\n  0x1e\n  0x00\n    /* \"contracts/artifacts/Portfolio.sol\":889:918  portfolioAuthority=msg.sender */\n  0x0100\n  exp\n  dup2\n  sload\n  dup2\n  0xffffffffffffffffffffffffffffffffffffffff\n  mul\n  not\n  and\n  swap1\n  dup4\n  0xffffffffffffffffffffffffffffffffffffffff\n  and\n  mul\n  or\n  swap1\n  sstore\n  pop\n    /* \"contracts/artifacts/Portfolio.sol\":72:3264  contract Portfolio{... */\n  jump(tag_8)\n    /* \"#utility.yul\":7:106   */\ntag_9:\n    /* \"#utility.yul\":59:65   */\n  0x00\n    /* \"#utility.yul\":93:98   */\n  dup2\n    /* \"#utility.yul\":87:99   */\n  mload\n    /* \"#utility.yul\":77:99   */\n  swap1\n  pop\n    /* \"#utility.yul\":7:106   */\n  swap2\n  swap1\n  pop\n  jump\t// out\n    /* \"#utility.yul\":112:292   */\ntag_10:\n    /* \"#utility.yul\":160:237   */\n  0x4e487b7100000000000000000000000000000000000000000000000000000000\n    /* \"#utility.yul\":157:158   */\n  0x00\n    /* \"#utility.yul\":150:238   */\n  mstore\n    /* \"#utility.yul\":257:261   */\n  0x41\n    /* \"#utility.yul\":254:255   */\n  0x04\n    /* \"#utility.yul\":247:262   */\n  mstore\n    /* \"#utility.yul\":281:285   */\n  0x24\n    /* \"#utility.yul\":278:279   */\n  0x00\n    /* \"#utility.yul\":271:286   */\n  revert\n    /* \"#utility.yul\":298:478   */\ntag_11:\n    /* \"#utility.yul\":346:423   */\n  0x4e487b7100000000000000000000000000000000000000000000000000000000\n    /* \"#utility.yul\":343:344   */\n  0x00\n    /* \"#utility.yul\":336:424   */\n  mstore\n    /* \"#utility.yul\":443:447   */\n  0x22\n    /* \"#utility.yul\":440:441   */\n  0x04\n    /* \"#utility.yul\":433:448   */\n  mstore\n    /* \"#utility.yul\":467:471   */\n  0x24\n    /* \"#utility.yul\":464:465   */\n  0x00\n    /* \"#utility.yul\":457:472   */\n  revert\n    /* \"#utility.yul\":484:804   */\ntag_12:\n    /* \"#utility.yul\":528:534   */\n  0x00\n    /* \"#utility.yul\":565:566   */\n  0x02\n    /* \"#utility.yul\":559:563   */\n  dup3\n    /* \"#utility.yul\":555:567   */\n  div\n    /* \"#utility.yul\":545:567   */\n  swap1\n  pop\n    /* \"#utility.yul\":612:613   */\n  0x01\n    /* \"#utility.yul\":606:610   */\n  dup3\n    /* \"#utility.yul\":602:614   */\n  and\n    /* \"#utility.yul\":633:651   */\n  dup1\n    /* \"#utility.yul\":623:704   */\n  tag_34\n  jumpi\n    /* \"#utility.yul\":689:693   */\n  0x7f\n    /* \"#utility.yul\":681:687   */\n  dup3\n    /* \"#utility.yul\":677:694   */\n  and\n    /* \"#utility.yul\":667:694   */\n  swap2\n  pop\n    /* \"#utility.yul\":623:704   */\ntag_34:\n    /* \"#utility.yul\":751:753   */\n  0x20\n    /* \"#utility.yul\":743:749   */\n  dup3\n    /* \"#utility.yul\":740:754   */\n  lt\n    /* \"#utility.yul\":720:738   */\n  dup2\n    /* \"#utility.yul\":717:755   */\n  sub\n    /* \"#utility.yul\":714:798   */\n  tag_35\n  jumpi\n    /* \"#utility.yul\":770:788   */\n  tag_36\n  tag_11\n  jump\t// in\ntag_36:\n    /* \"#utility.yul\":714:798   */\ntag_35:\n    /* \"#utility.yul\":535:804   */\n  pop\n    /* \"#utility.yul\":484:804   */\n  swap2\n  swap1\n  pop\n  jump\t// out\n    /* \"#utility.yul\":810:951   */\ntag_13:\n    /* \"#utility.yul\":859:863   */\n  0x00\n    /* \"#utility.yul\":882:885   */\n  dup2\n    /* \"#utility.yul\":874:885   */\n  swap1\n  pop\n    /* \"#utility.yul\":905:908   */\n  dup2\n    /* \"#utility.yul\":902:903   */\n  0x00\n    /* \"#utility.yul\":895:909   */\n  mstore\n    /* \"#utility.yul\":939:943   */\n  0x20\n    /* \"#utility.yul\":936:937   */\n  0x00\n    /* \"#utility.yul\":926:944   */\n  keccak256\n    /* \"#utility.yul\":918:944   */\n  swap1\n  pop\n    /* \"#utility.yul\":810:951   */\n  swap2\n  swap1\n  pop\n  jump\t// out\n    /* \"#utility.yul\":957:1050   */\ntag_14:\n    /* \"#utility.yul\":994:1000   */\n  0x00\n    /* \"#utility.yul\":1041:1043   */\n  0x20\n    /* \"#utility.yul\":1036:1038   */\n  0x1f\n    /* \"#utility.yul\":1029:1034   */\n  dup4\n    /* \"#utility.yul\":1025:1039   */\n  add\n    /* \"#utility.yul\":1021:1044   */\n  div\n    /* \"#utility.yul\":1011:1044   */\n  swap1\n  pop\n    /* \"#utility.yul\":957:1050   */\n  swap2\n  swap1\n  pop\n  jump\t// out\n    /* \"#utility.yul\":1056:1163   */\ntag_15:\n    /* \"#utility.yul\":1100:1108   */\n  0x00\n    /* \"#utility.yul\":1150:1155   */\n  dup3\n    /* \"#utility.yul\":1144:1148   */\n  dup3\n    /* \"#utility.yul\":1140:1156   */\n  shl\n    /* \"#utility.yul\":1119:1156   */\n  swap1\n  pop\n    /* \"#utility.yul\":1056:1163   */\n  swap3\n  swap2\n  pop\n  pop\n  jump\t// out\n    /* \"#utility.yul\":1169:1562   */\ntag_16:\n    /* \"#utility.yul\":1238:1244   */\n  0x00\n    /* \"#utility.yul\":1288:1289   */\n  0x08\n    /* \"#utility.yul\":1276:1286   */\n  dup4\n    /* \"#utility.yul\":1272:1290   */\n  mul\n    /* \"#utility.yul\":1311:1408   */\n  tag_41\n    /* \"#utility.yul\":1341:1407   */\n  0xffffffffffffffffffffffffffffffffffffffffffffffffffffffffffffffff\n    /* \"#utility.yul\":1330:1339   */\n  dup3\n    /* \"#utility.yul\":1311:1408   */\n  tag_15\n  jump\t// in\ntag_41:\n    /* \"#utility.yul\":1429:1468   */\n  tag_42\n    /* \"#utility.yul\":1459:1467   */\n  dup7\n    /* \"#utility.yul\":1448:1457   */\n  dup4\n    /* \"#utility.yul\":1429:1468   */\n  tag_15\n  jump\t// in\ntag_42:\n    /* \"#utility.yul\":1417:1468   */\n  swap6\n  pop\n    /* \"#utility.yul\":1501:1505   */\n  dup1\n    /* \"#utility.yul\":1497:1506   */\n  not\n    /* \"#utility.yul\":1490:1495   */\n  dup5\n    /* \"#utility.yul\":1486:1507   */\n  and\n    /* \"#utility.yul\":1477:1507   */\n  swap4\n  pop\n    /* \"#utility.yul\":1550:1554   */\n  dup1\n    /* \"#utility.yul\":1540:1548   */\n  dup7\n    /* \"#utility.yul\":1536:1555   */\n  and\n    /* \"#utility.yul\":1529:1534   */\n  dup5\n    /* \"#utility.yul\":1526:1556   */\n  or\n    /* \"#utility.yul\":1516:1556   */\n  swap3\n  pop\n    /* \"#utility.yul\":1245:1562   */\n  pop\n  pop\n    /* \"#utility.yul\":1169:1562   */\n  swap4\n  swap3\n  pop\n  pop\n  pop\n  jump\t// out\n    /* \"#utility.yul\":1568:1645   */\ntag_17:\n    /* \"#utility.yul\":1605:1612   */\n  0x00\n    /* \"#utility.yul\":1634:1639   */\n  dup2\n    /* \"#utility.yul\":1623:1639   */\n  swap1\n  pop\n    /* \"#utility.yul\":1568:1645   */\n  swap2\n  swap1\n  pop\n  jump\t// out\n    /* \"#utility.yul\":1651:1711   */\ntag_18:\n    /* \"#utility.yul\":1679:1682   */\n  0x00\n    /* \"#utility.yul\":1700:1705   */\n  dup2\n    /* \"#utility.yul\":1693:1705   */\n  swap1\n  pop\n    /* \"#utility.yul\":1651:1711   */\n  swap2\n  swap1\n  pop\n  jump\t// out\n    /* \"#utility.yul\":1717:1859   */\ntag_19:\n    /* \"#utility.yul\":1767:1776   */\n  0x00\n    /* \"#utility.yul\":1800:1853   */\n  tag_46\n    /* \"#utility.yul\":1818:1852   */\n  tag_47\n    /* \"#utility.yul\":1827:1851   */\n  tag_48\n    /* \"#utility.yul\":1845:1850   */\n  dup5\n    /* \"#utility.yul\":1827:1851   */\n  tag_17\n  jump\t// in\ntag_48:\n    /* \"#utility.yul\":1818:1852   */\n  tag_18\n  jump\t// in\ntag_47:\n    /* \"#utility.yul\":1800:1853   */\n  tag_17\n  jump\t// in\ntag_46:\n    /* \"#utility.yul\":1787:1853   */\n  swap1\n  pop\n    /* \"#utility.yul\":1717:1859   */\n  swap2\n  swap1\n  pop\n  jump\t// out\n    /* \"#utility.yul\":1865:1940   */\ntag_20:\n    /* \"#utility.yul\":1908:1911   */\n  0x00\n    /* \"#utility.yul\":1929:1934   */\n  dup2\n    /* \"#utility.yul\":1922:1934   */\n  swap1\n  pop\n    /* \"#utility.yul\":1865:1940   */\n  swap2\n  swap1\n  pop\n  jump\t// out\n    /* \"#utility.yul\":1946:2215   */\ntag_21:\n    /* \"#utility.yul\":2056:2095   */\n  tag_51\n    /* \"#utility.yul\":2087:2094   */\n  dup4\n    /* \"#utility.yul\":2056:2095   */\n  tag_19\n  jump\t// in\ntag_51:\n    /* \"#utility.yul\":2117:2208   */\n  tag_52\n    /* \"#utility.yul\":2166:2207   */\n  tag_53\n    /* \"#utility.yul\":2190:2206   */\n  dup3\n    /* \"#utility.yul\":2166:2207   */\n  tag_20\n  jump\t// in\ntag_53:\n    /* \"#utility.yul\":2158:2164   */\n  dup5\n    /* \"#utility.yul\":2151:2155   */\n  dup5\n    /* \"#utility.yul\":2145:2156   */\n  sload\n    /* \"#utility.yul\":2117:2208   */\n  tag_16\n  jump\t// in\ntag_52:\n    /* \"#utility.yul\":2111:2115   */\n  dup3\n    /* \"#utility.yul\":2104:2209   */\n  sstore\n    /* \"#utility.yul\":2022:2215   */\n  pop\n    /* \"#utility.yul\":1946:2215   */\n  pop\n  pop\n  pop\n  jump\t// out\n    /* \"#utility.yul\":2221:2294   */\ntag_22:\n    /* \"#utility.yul\":2266:2269   */\n  0x00\n    /* \"#utility.yul\":2221:2294   */\n  swap1\n  jump\t// out\n    /* \"#utility.yul\":2300:2489   */\ntag_23:\n    /* \"#utility.yul\":2377:2409   */\n  tag_56\n  tag_22\n  jump\t// in\ntag_56:\n    /* \"#utility.yul\":2418:2483   */\n  tag_57\n    /* \"#utility.yul\":2476:2482   */\n  dup2\n    /* \"#utility.yul\":2468:2474   */\n  dup5\n    /* \"#utility.yul\":2462:2466   */\n  dup5\n    /* \"#utility.yul\":2418:2483   */\n  tag_21\n  jump\t// in\ntag_57:\n    /* \"#utility.yul\":2353:2489   */\n  pop\n    /* \"#utility.yul\":2300:2489   */\n  pop\n  pop\n  jump\t// out\n    /* \"#utility.yul\":2495:2681   */\ntag_24:\n    /* \"#utility.yul\":2555:2675   */\ntag_59:\n    /* \"#utility.yul\":2572:2575   */\n  dup2\n    /* \"#utility.yul\":2565:2570   */\n  dup2\n    /* \"#utility.yul\":2562:2576   */\n  lt\n    /* \"#utility.yul\":2555:2675   */\n  iszero\n  tag_61\n  jumpi\n    /* \"#utility.yul\":2626:2665   */\n  tag_62\n    /* \"#utility.yul\":2663:2664   */\n  0x00\n    /* \"#utility.yul\":2656:2661   */\n  dup3\n    /* \"#utility.yul\":2626:2665   */\n  tag_23\n  jump\t// in\ntag_62:\n    /* \"#utility.yul\":2599:2600   */\n  0x01\n    /* \"#utility.yul\":2592:2597   */\n  dup2\n    /* \"#utility.yul\":2588:2601   */\n  add\n    /* \"#utility.yul\":2579:2601   */\n  swap1\n  pop\n    /* \"#utility.yul\":2555:2675   */\n  jump(tag_59)\ntag_61:\n    /* \"#utility.yul\":2495:2681   */\n  pop\n  pop\n  jump\t// out\n    /* \"#utility.yul\":2687:3230   */\ntag_25:\n    /* \"#utility.yul\":2788:2790   */\n  0x1f\n    /* \"#utility.yul\":2783:2786   */\n  dup3\n    /* \"#utility.yul\":2780:2791   */\n  gt\n    /* \"#utility.yul\":2777:3223   */\n  iszero\n  tag_64\n  jumpi\n    /* \"#utility.yul\":2822:2860   */\n  tag_65\n    /* \"#utility.yul\":2854:2859   */\n  dup2\n    /* \"#utility.yul\":2822:2860   */\n  tag_13\n  jump\t// in\ntag_65:\n    /* \"#utility.yul\":2906:2935   */\n  tag_66\n    /* \"#utility.yul\":2924:2934   */\n  dup5\n    /* \"#utility.yul\":2906:2935   */\n  tag_14\n  jump\t// in\ntag_66:\n    /* \"#utility.yul\":2896:2904   */\n  dup2\n    /* \"#utility.yul\":2892:2936   */\n  add\n    /* \"#utility.yul\":3089:3091   */\n  0x20\n    /* \"#utility.yul\":3077:3087   */\n  dup6\n    /* \"#utility.yul\":3074:3092   */\n  lt\n    /* \"#utility.yul\":3071:3120   */\n  iszero\n  tag_67\n  jumpi\n    /* \"#utility.yul\":3110:3118   */\n  dup2\n    /* \"#utility.yul\":3095:3118   */\n  swap1\n  pop\n    /* \"#utility.yul\":3071:3120   */\ntag_67:\n    /* \"#utility.yul\":3133:3213   */\n  tag_68\n    /* \"#utility.yul\":3189:3211   */\n  tag_69\n    /* \"#utility.yul\":3207:3210   */\n  dup6\n    /* \"#utility.yul\":3189:3211   */\n  tag_14\n  jump\t// in\ntag_69:\n    /* \"#utility.yul\":3179:3187   */\n  dup4\n    /* \"#utility.yul\":3175:3212   */\n  add\n    /* \"#utility.yul\":3162:3173   */\n  dup3\n    /* \"#utility.yul\":3133:3213   */\n  tag_24\n  jump\t// in\ntag_68:\n    /* \"#utility.yul\":2792:3223   */\n  pop\n  pop\n    /* \"#utility.yul\":2777:3223   */\ntag_64:\n    /* \"#utility.yul\":2687:3230   */\n  pop\n  pop\n  pop\n  jump\t// out\n    /* \"#utility.yul\":3236:3353   */\ntag_26:\n    /* \"#utility.yul\":3290:3298   */\n  0x00\n    /* \"#utility.yul\":3340:3345   */\n  dup3\n    /* \"#utility.yul\":3334:3338   */\n  dup3\n    /* \"#utility.yul\":3330:3346   */\n  shr\n    /* \"#utility.yul\":3309:3346   */\n  swap1\n  pop\n    /* \"#utility.yul\":3236:3353   */\n  swap3\n  swap2\n  pop\n  pop\n  jump\t// out\n    /* \"#utility.yul\":3359:3528   */\ntag_27:\n    /* \"#utility.yul\":3403:3409   */\n  0x00\n    /* \"#utility.yul\":3436:3487   */\n  tag_72\n    /* \"#utility.yul\":3484:3485   */\n  0x00\n    /* \"#utility.yul\":3480:3486   */\n  not\n    /* \"#utility.yul\":3472:3477   */\n  dup5\n    /* \"#utility.yul\":3469:3470   */\n  0x08\n    /* \"#utility.yul\":3465:3478   */\n  mul\n    /* \"#utility.yul\":3436:3487   */\n  tag_26\n  jump\t// in\ntag_72:\n    /* \"#utility.yul\":3432:3488   */\n  not\n    /* \"#utility.yul\":3517:3521   */\n  dup1\n    /* \"#utility.yul\":3511:3515   */\n  dup4\n    /* \"#utility.yul\":3507:3522   */\n  and\n    /* \"#utility.yul\":3497:3522   */\n  swap2\n  pop\n    /* \"#utility.yul\":3410:3528   */\n  pop\n    /* \"#utility.yul\":3359:3528   */\n  swap3\n  swap2\n  pop\n  pop\n  jump\t// out\n    /* \"#utility.yul\":3533:3828   */\ntag_28:\n    /* \"#utility.yul\":3609:3613   */\n  0x00\n    /* \"#utility.yul\":3755:3784   */\n  tag_74\n    /* \"#utility.yul\":3780:3783   */\n  dup4\n    /* \"#utility.yul\":3774:3778   */\n  dup4\n    /* \"#utility.yul\":3755:3784   */\n  tag_27\n  jump\t// in\ntag_74:\n    /* \"#utility.yul\":3747:3784   */\n  swap2\n  pop\n    /* \"#utility.yul\":3817:3820   */\n  dup3\n    /* \"#utility.yul\":3814:3815   */\n  0x02\n    /* \"#utility.yul\":3810:3821   */\n  mul\n    /* \"#utility.yul\":3804:3808   */\n  dup3\n    /* \"#utility.yul\":3801:3822   */\n  or\n    /* \"#utility.yul\":3793:3822   */\n  swap1\n  pop\n    /* \"#utility.yul\":3533:3828   */\n  swap3\n  swap2\n  pop\n  pop\n  jump\t// out\n    /* \"#utility.yul\":3833:5228   */\ntag_2:\n    /* \"#utility.yul\":3950:3987   */\n  tag_76\n    /* \"#utility.yul\":3983:3986   */\n  dup3\n    /* \"#utility.yul\":3950:3987   */\n  tag_9\n  jump\t// in\ntag_76:\n    /* \"#utility.yul\":4052:4070   */\n  0xffffffffffffffff\n    /* \"#utility.yul\":4044:4050   */\n  dup2\n    /* \"#utility.yul\":4041:4071   */\n  gt\n    /* \"#utility.yul\":4038:4094   */\n  iszero\n  tag_77\n  jumpi\n    /* \"#utility.yul\":4074:4092   */\n  tag_78\n  tag_10\n  jump\t// in\ntag_78:\n    /* \"#utility.yul\":4038:4094   */\ntag_77:\n    /* \"#utility.yul\":4118:4156   */\n  tag_79\n    /* \"#utility.yul\":4150:4154   */\n  dup3\n    /* \"#utility.yul\":4144:4155   */\n  sload\n    /* \"#utility.yul\":4118:4156   */\n  tag_12\n  jump\t// in\ntag_79:\n    /* \"#utility.yul\":4203:4270   */\n  tag_80\n    /* \"#utility.yul\":4263:4269   */\n  dup3\n    /* \"#utility.yul\":4255:4261   */\n  dup3\n    /* \"#utility.yul\":4249:4253   */\n  dup6\n    /* \"#utility.yul\":4203:4270   */\n  tag_25\n  jump\t// in\ntag_80:\n    /* \"#utility.yul\":4297:4298   */\n  0x00\n    /* \"#utility.yul\":4321:4325   */\n  0x20\n    /* \"#utility.yul\":4308:4325   */\n  swap1\n  pop\n    /* \"#utility.yul\":4353:4355   */\n  0x1f\n    /* \"#utility.yul\":4345:4351   */\n  dup4\n    /* \"#utility.yul\":4342:4356   */\n  gt\n    /* \"#utility.yul\":4370:4371   */\n  0x01\n    /* \"#utility.yul\":4365:4983   */\n  dup2\n  eq\n  tag_82\n  jumpi\n    /* \"#utility.yul\":5027:5028   */\n  0x00\n    /* \"#utility.yul\":5044:5050   */\n  dup5\n    /* \"#utility.yul\":5041:5118   */\n  iszero\n  tag_83\n  jumpi\n    /* \"#utility.yul\":5093:5102   */\n  dup3\n    /* \"#utility.yul\":5088:5091   */\n  dup8\n    /* \"#utility.yul\":5084:5103   */\n  add\n    /* \"#utility.yul\":5078:5104   */\n  mload\n    /* \"#utility.yul\":5069:5104   */\n  swap1\n  pop\n    /* \"#utility.yul\":5041:5118   */\ntag_83:\n    /* \"#utility.yul\":5144:5211   */\n  tag_84\n    /* \"#utility.yul\":5204:5210   */\n  dup6\n    /* \"#utility.yul\":5197:5202   */\n  dup3\n    /* \"#utility.yul\":5144:5211   */\n  tag_28\n  jump\t// in\ntag_84:\n    /* \"#utility.yul\":5138:5142   */\n  dup7\n    /* \"#utility.yul\":5131:5212   */\n  sstore\n    /* \"#utility.yul\":5000:5222   */\n  pop\n    /* \"#utility.yul\":4335:5222   */\n  jump(tag_81)\n    /* \"#utility.yul\":4365:4983   */\ntag_82:\n    /* \"#utility.yul\":4417:4421   */\n  0x1f\n    /* \"#utility.yul\":4413:4422   */\n  not\n    /* \"#utility.yul\":4405:4411   */\n  dup5\n    /* \"#utility.yul\":4401:4423   */\n  and\n    /* \"#utility.yul\":4451:4488   */\n  tag_85\n    /* \"#utility.yul\":4483:4487   */\n  dup7\n    /* \"#utility.yul\":4451:4488   */\n  tag_13\n  jump\t// in\ntag_85:\n    /* \"#utility.yul\":4510:4511   */\n  0x00\n    /* \"#utility.yul\":4524:4732   */\ntag_86:\n    /* \"#utility.yul\":4538:4545   */\n  dup3\n    /* \"#utility.yul\":4535:4536   */\n  dup2\n    /* \"#utility.yul\":4532:4546   */\n  lt\n    /* \"#utility.yul\":4524:4732   */\n  iszero\n  tag_88\n  jumpi\n    /* \"#utility.yul\":4617:4626   */\n  dup5\n    /* \"#utility.yul\":4612:4615   */\n  dup10\n    /* \"#utility.yul\":4608:4627   */\n  add\n    /* \"#utility.yul\":4602:4628   */\n  mload\n    /* \"#utility.yul\":4594:4600   */\n  dup3\n    /* \"#utility.yul\":4587:4629   */\n  sstore\n    /* \"#utility.yul\":4668:4669   */\n  0x01\n    /* \"#utility.yul\":4660:4666   */\n  dup3\n    /* \"#utility.yul\":4656:4670   */\n  add\n    /* \"#utility.yul\":4646:4670   */\n  swap2\n  pop\n    /* \"#utility.yul\":4715:4717   */\n  0x20\n    /* \"#utility.yul\":4704:4713   */\n  dup6\n    /* \"#utility.yul\":4700:4718   */\n  add\n    /* \"#utility.yul\":4687:4718   */\n  swap5\n  pop\n    /* \"#utility.yul\":4561:4565   */\n  0x20\n    /* \"#utility.yul\":4558:4559   */\n  dup2\n    /* \"#utility.yul\":4554:4566   */\n  add\n    /* \"#utility.yul\":4549:4566   */\n  swap1\n  pop\n    /* \"#utility.yul\":4524:4732   */\n  jump(tag_86)\ntag_88:\n    /* \"#utility.yul\":4760:4766   */\n  dup7\n    /* \"#utility.yul\":4751:4758   */\n  dup4\n    /* \"#utility.yul\":4748:4767   */\n  lt\n    /* \"#utility.yul\":4745:4924   */\n  iszero\n  tag_89\n  jumpi\n    /* \"#utility.yul\":4818:4827   */\n  dup5\n    /* \"#utility.yul\":4813:4816   */\n  dup10\n    /* \"#utility.yul\":4809:4828   */\n  add\n    /* \"#utility.yul\":4803:4829   */\n  mload\n    /* \"#utility.yul\":4861:4909   */\n  tag_90\n    /* \"#utility.yul\":4903:4907   */\n  0x1f\n    /* \"#utility.yul\":4895:4901   */\n  dup10\n    /* \"#utility.yul\":4891:4908   */\n  and\n    /* \"#utility.yul\":4880:4889   */\n  dup3\n    /* \"#utility.yul\":4861:4909   */\n  tag_27\n  jump\t// in\ntag_90:\n    /* \"#utility.yul\":4853:4859   */\n  dup4\n    /* \"#utility.yul\":4846:4910   */\n  sstore\n    /* \"#utility.yul\":4768:4924   */\n  pop\n    /* \"#utility.yul\":4745:4924   */\ntag_89:\n    /* \"#utility.yul\":4970:4971   */\n  0x01\n    /* \"#utility.yul\":4966:4967   */\n  0x02\n    /* \"#utility.yul\":4958:4964   */\n  dup9\n    /* \"#utility.yul\":4954:4968   */\n  mul\n    /* \"#utility.yul\":4950:4972   */\n  add\n    /* \"#utility.yul\":4944:4948   */\n  dup9\n    /* \"#utility.yul\":4937:4973   */\n  sstore\n    /* \"#utility.yul\":4372:4983   */\n  pop\n  pop\n  pop\n    /* \"#utility.yul\":4335:5222   */\ntag_81:\n  pop\n    /* \"#utility.yul\":3925:5228   */\n  pop\n  pop\n  pop\n    /* \"#utility.yul\":3833:5228   */\n  pop\n  pop\n  jump\t// out\n    /* \"contracts/artifacts/Portfolio.sol\":72:3264  contract Portfolio{... */\ntag_8:\n  dataSize(sub_0)\n  dup1\n  dataOffset(sub_0)\n  0x00\n  codecopy\n  0x00\n  return\nstop\ndata_37aeeed936492a6a366ed7cf9001de78877dc6f6e98d417eb088231cd7e2e7e8 6f7665722031206d6f6e746873206f662070726163746963616c20657870657269656e63652077697468206120676f6f64206b6e6f776c6564676520696e20626c6f636b636861696e\ndata_abbc65d9db0a082e24d2c26402a8006cc9f1d2f3a901aa324431b370f8d1a013 516d653778564361526e77556342564879614b68734773473451466f673253444d4e3366484c5743547677414b7a\ndata_c6c8731200eed530a55b210a27447293d0b1678eb23cca27ff13560340d6aa95 516d4e566e3537564e417a47314755526550423854464a43623670324c354a7a7336396d757362705533744e5855\n\nsub_0: assembly {\n        /* \"contracts/artifacts/Portfolio.sol\":72:3264  contract Portfolio{... */\n      mstore(0x40, 0x80)\n      jumpi(tag_1, lt(calldatasize, 0x04))\n      shr(0xe0, calldataload(0x00))\n      dup1\n      0x6fe8e0bd\n      gt\n      tag_17\n      jumpi\n      dup1\n      0xcaf7b759\n      gt\n      tag_18\n      jumpi\n      dup1\n      0xcaf7b759\n      eq\n      tag_13\n      jumpi\n      dup1\n      0xd3cedf11\n      eq\n      tag_14\n      jumpi\n      dup1\n      0xe6120413\n      eq\n      tag_15\n      jumpi\n      dup1\n      0xed88c68e\n      eq\n      tag_16\n      jumpi\n      jump(tag_1)\n    tag_18:\n      dup1\n      0x6fe8e0bd\n      eq\n      tag_9\n      jumpi\n      dup1\n      0x7284e416\n      eq\n      tag_10\n      jumpi\n      dup1\n      0x7aea95aa\n      eq\n      tag_11\n      jumpi\n      dup1\n      0x98f831b6\n      eq\n      tag_12\n      jumpi\n      jump(tag_1)\n    tag_17:\n      dup1\n      0x598e7f37\n      gt\n      tag_19\n      jumpi\n      dup1\n      0x598e7f37\n      eq\n      tag_5\n      jumpi\n      dup1\n      0x5b173a69\n      eq\n      tag_6\n      jumpi\n      dup1\n      0x5cea6a7c\n      eq\n      tag_7\n      jumpi\n      dup1\n      0x6426d4c3\n      eq\n      tag_8\n      jumpi\n      jump(tag_1)\n    tag_19:\n      dup1\n      0x107046bd\n      eq\n      tag_2\n      jumpi\n      dup1\n      0x2adf13b2\n      eq\n      tag_3\n      jumpi\n      dup1\n      0x5397c6ec\n      eq\n      tag_4\n      jumpi\n    tag_1:\n      0x00\n      dup1\n      revert\n        /* \"contracts/artifacts/Portfolio.sol\":382:408  Project[3] public projects */\n    tag_2:\n      callvalue\n      dup1\n      iszero\n      tag_20\n      jumpi\n      0x00\n      dup1\n      revert\n    tag_20:\n      pop\n      tag_21\n      0x04\n      dup1\n      calldatasize\n      sub\n      dup2\n      add\n      swap1\n      tag_22\n      swap2\n      swap1\n      tag_23\n      jump\t// in\n    tag_22:\n      tag_24\n      jump\t// in\n    tag_21:\n      mload(0x40)\n      tag_25\n      swap6\n      swap5\n      swap4\n      swap3\n      swap2\n      swap1\n      tag_26\n      jump\t// in\n    tag_25:\n      mload(0x40)\n      dup1\n      swap2\n      sub\n      swap1\n      return\n        /* \"contracts/artifacts/Portfolio.sol\":1807:1903  function allProjects() external view returns (Project[3] memory)  {... */\n    tag_3:\n      callvalue\n      dup1\n      iszero\n      tag_27\n      jumpi\n      0x00\n      dup1\n      revert\n    tag_27:\n      pop\n      tag_28\n      tag_29\n      jump\t// in\n    tag_28:\n      mload(0x40)\n      tag_30\n      swap2\n      swap1\n      tag_31\n      jump\t// in\n    tag_30:\n      mload(0x40)\n      dup1\n      swap2\n      sub\n      swap1\n      return\n        /* \"contracts/artifacts/Portfolio.sol\":2713:2819  function allEducationDetails() external view returns(Education[3] memory){... */\n    tag_4:\n      callvalue\n      dup1\n      iszero\n      tag_32\n      jumpi\n      0x00\n      dup1\n      revert\n    tag_32:\n      pop\n      tag_33\n      tag_34\n      jump\t// in\n    tag_33:\n      mload(0x40)\n      tag_35\n      swap2\n      swap1\n      tag_36\n      jump\t// in\n    tag_35:\n      mload(0x40)\n      dup1\n      swap2\n      sub\n      swap1\n      return\n        /* \"contracts/artifacts/Portfolio.sol\":3058:3164  function changeImageLink(string calldata _imageLink) external onlyAuthority{... */\n    tag_5:\n      callvalue\n      dup1\n      iszero\n      tag_37\n      jumpi\n      0x00\n      dup1\n      revert\n    tag_37:\n      pop\n      tag_38\n      0x04\n      dup1\n      calldatasize\n      sub\n      dup2\n      add\n      swap1\n      tag_39\n      swap2\n      swap1\n      tag_40\n      jump\t// in\n    tag_39:\n      tag_41\n      jump\t// in\n    tag_38:\n      stop\n        /* \"contracts/artifacts/Portfolio.sol\":2289:2707  function changeEducation (string calldata _date,string calldata _degree,string calldata _knowledgeAcquired,string calldata _instutionName,uint _educationDetailCount) external onlyAuthority{... */\n    tag_6:\n      callvalue\n      dup1\n      iszero\n      tag_42\n      jumpi\n      0x00\n      dup1\n      revert\n    tag_42:\n      pop\n      tag_43\n      0x04\n      dup1\n      calldatasize\n      sub\n      dup2\n      add\n      swap1\n      tag_44\n      swap2\n      swap1\n      tag_45\n      jump\t// in\n    tag_44:\n      tag_46\n      jump\t// in\n    tag_43:\n      stop\n        /* \"contracts/artifacts/Portfolio.sol\":670:743  string public resumeLink=\"Qme7xVCaRnwUcBVHyaKhsGsG4QFog2SDMN3fHLWCTvwAKz\" */\n    tag_7:\n      callvalue\n      dup1\n      iszero\n      tag_47\n      jumpi\n      0x00\n      dup1\n      revert\n    tag_47:\n      pop\n      tag_48\n      tag_49\n      jump\t// in\n    tag_48:\n      mload(0x40)\n      tag_50\n      swap2\n      swap1\n      tag_51\n      jump\t// in\n    tag_50:\n      mload(0x40)\n      dup1\n      swap2\n      sub\n      swap1\n      return\n        /* \"contracts/artifacts/Portfolio.sol\":1106:1446  function insertProject(string calldata _name, string calldata _description, string calldata _image, string calldata _githubLink) external onlyAuthority {... */\n    tag_8:\n      callvalue\n      dup1\n      iszero\n      tag_52\n      jumpi\n      0x00\n      dup1\n      revert\n    tag_52:\n      pop\n      tag_53\n      0x04\n      dup1\n      calldatasize\n      sub\n      dup2\n      add\n      swap1\n      tag_54\n      swap2\n      swap1\n      tag_55\n      jump\t// in\n    tag_54:\n      tag_56\n      jump\t// in\n    tag_53:\n      stop\n        /* \"contracts/artifacts/Portfolio.sol\":1451:1801  function changeProject(string calldata _name, string calldata _description, string calldata _image, string calldata _githubLink, uint _projectCount) external onlyAuthority {... */\n    tag_9:\n      callvalue\n      dup1\n      iszero\n      tag_57\n      jumpi\n      0x00\n      dup1\n      revert\n    tag_57:\n      pop\n      tag_58\n      0x04\n      dup1\n      calldatasize\n      sub\n      dup2\n      add\n      swap1\n      tag_59\n      swap2\n      swap1\n      tag_45\n      jump\t// in\n    tag_59:\n      tag_60\n      jump\t// in\n    tag_58:\n      stop\n        /* \"contracts/artifacts/Portfolio.sol\":564:665  string public description=\"over 1 months of practical experience with a good knowledge in blockchain\" */\n    tag_10:\n      callvalue\n      dup1\n      iszero\n      tag_61\n      jumpi\n      0x00\n      dup1\n      revert\n    tag_61:\n      pop\n      tag_62\n      tag_63\n      jump\t// in\n    tag_62:\n      mload(0x40)\n      tag_64\n      swap2\n      swap1\n      tag_51\n      jump\t// in\n    tag_64:\n      mload(0x40)\n      dup1\n      swap2\n      sub\n      swap1\n      return\n        /* \"contracts/artifacts/Portfolio.sol\":413:449  Education[3] public educationDetails */\n    tag_11:\n      callvalue\n      dup1\n      iszero\n      tag_65\n      jumpi\n      0x00\n      dup1\n      revert\n    tag_65:\n      pop\n      tag_66\n      0x04\n      dup1\n      calldatasize\n      sub\n      dup2\n      add\n      swap1\n      tag_67\n      swap2\n      swap1\n      tag_23\n      jump\t// in\n    tag_67:\n      tag_68\n      jump\t// in\n    tag_66:\n      mload(0x40)\n      tag_69\n      swap6\n      swap5\n      swap4\n      swap3\n      swap2\n      swap1\n      tag_26\n      jump\t// in\n    tag_69:\n      mload(0x40)\n      dup1\n      swap2\n      sub\n      swap1\n      return\n        /* \"contracts/artifacts/Portfolio.sol\":1909:2283  function insertEducation(string calldata _date, string calldata _degree, string calldata _knowledgeAcquired, string calldata _instutionName) external onlyAuthority{... */\n    tag_12:\n      callvalue\n      dup1\n      iszero\n      tag_70\n      jumpi\n      0x00\n      dup1\n      revert\n    tag_70:\n      pop\n      tag_71\n      0x04\n      dup1\n      calldatasize\n      sub\n      dup2\n      add\n      swap1\n      tag_72\n      swap2\n      swap1\n      tag_55\n      jump\t// in\n    tag_72:\n      tag_73\n      jump\t// in\n    tag_71:\n      stop\n        /* \"contracts/artifacts/Portfolio.sol\":487:559  string public imageLink=\"QmNVn57VNAzG1GURePB8TFJCb6p2L5Jzs69musbpU3tNXU\" */\n    tag_13:\n      callvalue\n      dup1\n      iszero\n      tag_74\n      jumpi\n      0x00\n      dup1\n      revert\n    tag_74:\n      pop\n      tag_75\n      tag_76\n      jump\t// in\n    tag_75:\n      mload(0x40)\n      tag_77\n      swap2\n      swap1\n      tag_51\n      jump\t// in\n    tag_77:\n      mload(0x40)\n      dup1\n      swap2\n      sub\n      swap1\n      return\n        /* \"contracts/artifacts/Portfolio.sol\":2943:3052  function changeResumeLink(string calldata _resumeLink) external onlyAuthority{... */\n    tag_14:\n      callvalue\n      dup1\n      iszero\n      tag_78\n      jumpi\n      0x00\n      dup1\n      revert\n    tag_78:\n      pop\n      tag_79\n      0x04\n      dup1\n      calldatasize\n      sub\n      dup2\n      add\n      swap1\n      tag_80\n      swap2\n      swap1\n      tag_40\n      jump\t// in\n    tag_80:\n      tag_81\n      jump\t// in\n    tag_79:\n      stop\n        /* \"contracts/artifacts/Portfolio.sol\":2825:2937  function changeDescription(string calldata _description) external onlyAuthority{... */\n    tag_15:\n      callvalue\n      dup1\n      iszero\n      tag_82\n      jumpi\n      0x00\n      dup1\n      revert\n    tag_82:\n      pop\n      tag_83\n      0x04\n      dup1\n      calldatasize\n      sub\n      dup2\n      add\n      swap1\n      tag_84\n      swap2\n      swap1\n      tag_40\n      jump\t// in\n    tag_84:\n      tag_85\n      jump\t// in\n    tag_83:\n      stop\n        /* \"contracts/artifacts/Portfolio.sol\":3170:3259  function donate() public payable {... */\n    tag_16:\n      tag_86\n      tag_87\n      jump\t// in\n    tag_86:\n      stop\n        /* \"contracts/artifacts/Portfolio.sol\":382:408  Project[3] public projects */\n    tag_24:\n      0x00\n      dup2\n      0x03\n      dup2\n      lt\n      tag_88\n      jumpi\n      0x00\n      dup1\n      revert\n    tag_88:\n      0x05\n      mul\n      add\n      0x00\n      swap2\n      pop\n      swap1\n      pop\n      dup1\n      0x00\n      add\n      sload\n      swap1\n      dup1\n      0x01\n      add\n      dup1\n      sload\n      tag_90\n      swap1\n      tag_91\n      jump\t// in\n    tag_90:\n      dup1\n      0x1f\n      add\n      0x20\n      dup1\n      swap2\n      div\n      mul\n      0x20\n      add\n      mload(0x40)\n      swap1\n      dup2\n      add\n      0x40\n      mstore\n      dup1\n      swap3\n      swap2\n      swap1\n      dup2\n      dup2\n      mstore\n      0x20\n      add\n      dup3\n      dup1\n      sload\n      tag_92\n      swap1\n      tag_91\n      jump\t// in\n    tag_92:\n      dup1\n      iszero\n      tag_93\n      jumpi\n      dup1\n      0x1f\n      lt\n      tag_94\n      jumpi\n      0x0100\n      dup1\n      dup4\n      sload\n      div\n      mul\n      dup4\n      mstore\n      swap2\n      0x20\n      add\n      swap2\n      jump(tag_93)\n    tag_94:\n      dup3\n      add\n      swap2\n      swap1\n      0x00\n      mstore\n      keccak256(0x00, 0x20)\n      swap1\n    tag_95:\n      dup2\n      sload\n      dup2\n      mstore\n      swap1\n      0x01\n      add\n      swap1\n      0x20\n      add\n      dup1\n      dup4\n      gt\n      tag_95\n      jumpi\n      dup3\n      swap1\n      sub\n      0x1f\n      and\n      dup3\n      add\n      swap2\n    tag_93:\n      pop\n      pop\n      pop\n      pop\n      pop\n      swap1\n      dup1\n      0x02\n      add\n      dup1\n      sload\n      tag_96\n      swap1\n      tag_91\n      jump\t// in\n    tag_96:\n      dup1\n      0x1f\n      add\n      0x20\n      dup1\n      swap2\n      div\n      mul\n      0x20\n      add\n      mload(0x40)\n      swap1\n      dup2\n      add\n      0x40\n      mstore\n      dup1\n      swap3\n      swap2\n      swap1\n      dup2\n      dup2\n      mstore\n      0x20\n      add\n      dup3\n      dup1\n      sload\n      tag_97\n      swap1\n      tag_91\n      jump\t// in\n    tag_97:\n      dup1\n      iszero\n      tag_98\n      jumpi\n      dup1\n      0x1f\n      lt\n      tag_99\n      jumpi\n      0x0100\n      dup1\n      dup4\n      sload\n      div\n      mul\n      dup4\n      mstore\n      swap2\n      0x20\n      add\n      swap2\n      jump(tag_98)\n    tag_99:\n      dup3\n      add\n      swap2\n      swap1\n      0x00\n      mstore\n      keccak256(0x00, 0x20)\n      swap1\n    tag_100:\n      dup2\n      sload\n      dup2\n      mstore\n      swap1\n      0x01\n      add\n      swap1\n      0x20\n      add\n      dup1\n      dup4\n      gt\n      tag_100\n      jumpi\n      dup3\n      swap1\n      sub\n      0x1f\n      and\n      dup3\n      add\n      swap2\n    tag_98:\n      pop\n      pop\n      pop\n      pop\n      pop\n      swap1\n      dup1\n      0x03\n      add\n      dup1\n      sload\n      tag_101\n      swap1\n      tag_91\n      jump\t// in\n    tag_101:\n      dup1\n      0x1f\n      add\n      0x20\n      dup1\n      swap2\n      div\n      mul\n      0x20\n      add\n      mload(0x40)\n      swap1\n      dup2\n      add\n      0x40\n      mstore\n      dup1\n      swap3\n      swap2\n      swap1\n      dup2\n      dup2\n      mstore\n      0x20\n      add\n      dup3\n      dup1\n      sload\n      tag_102\n      swap1\n      tag_91\n      jump\t// in\n    tag_102:\n      dup1\n      iszero\n      tag_103\n      jumpi\n      dup1\n      0x1f\n      lt\n      tag_104\n      jumpi\n      0x0100\n      dup1\n      dup4\n      sload\n      div\n      mul\n      dup4\n      mstore\n      swap2\n      0x20\n      add\n      swap2\n      jump(tag_103)\n    tag_104:\n      dup3\n      add\n      swap2\n      swap1\n      0x00\n      mstore\n      keccak256(0x00, 0x20)\n      swap1\n    tag_105:\n      dup2\n      sload\n      dup2\n      mstore\n      swap1\n      0x01\n      add\n      swap1\n      0x20\n      add\n      dup1\n      dup4\n      gt\n      tag_105\n      jumpi\n      dup3\n      swap1\n      sub\n      0x1f\n      and\n      dup3\n      add\n      swap2\n    tag_103:\n      pop\n      pop\n      pop\n      pop\n      pop\n      swap1\n      dup1\n      0x04\n      add\n      dup1\n      sload\n      tag_106\n      swap1\n      tag_91\n      jump\t// in\n    tag_106:\n      dup1\n      0x1f\n      add\n      0x20\n      dup1\n      swap2\n      div\n      mul\n      0x20\n      add\n      mload(0x40)\n      swap1\n      dup2\n      add\n      0x40\n      mstore\n      dup1\n      swap3\n      swap2\n      swap1\n      dup2\n      dup2\n      mstore\n      0x20\n      add\n      dup3\n      dup1\n      sload\n      tag_107\n      swap1\n      tag_91\n      jump\t// in\n    tag_107:\n      dup1\n      iszero\n      tag_108\n      jumpi\n      dup1\n      0x1f\n      lt\n      tag_109\n      jumpi\n      0x0100\n      dup1\n      dup4\n      sload\n      div\n      mul\n      dup4\n      mstore\n      swap2\n      0x20\n      add\n      swap2\n      jump(tag_108)\n    tag_109:\n      dup3\n      add\n      swap2\n      swap1\n      0x00\n      mstore\n      keccak256(0x00, 0x20)\n      swap1\n    tag_110:\n      dup2\n      sload\n      dup2\n      mstore\n      swap1\n      0x01\n      add\n      swap1\n      0x20\n      add\n      dup1\n      dup4\n      gt\n      tag_110\n      jumpi\n      dup3\n      swap1\n      sub\n      0x1f\n      and\n      dup3\n      add\n      swap2\n    tag_108:\n      pop\n      pop\n      pop\n      pop\n      pop\n      swap1\n      pop\n      dup6\n      jump\t// out\n        /* \"contracts/artifacts/Portfolio.sol\":1807:1903  function allProjects() external view returns (Project[3] memory)  {... */\n    tag_29:\n        /* \"contracts/artifacts/Portfolio.sol\":1853:1870  Project[3] memory */\n      tag_111\n      tag_112\n      jump\t// in\n    tag_111:\n        /* \"contracts/artifacts/Portfolio.sol\":1889:1897  projects */\n      0x00\n        /* \"contracts/artifacts/Portfolio.sol\":1882:1897  return projects */\n      0x03\n      dup1\n      0x20\n      mul\n      mload(0x40)\n      swap1\n      dup2\n      add\n      0x40\n      mstore\n      dup1\n      swap3\n      swap2\n      swap1\n      0x00\n      swap1\n    tag_114:\n      dup3\n      dup3\n      lt\n      iszero\n      tag_115\n      jumpi\n      dup4\n      dup3\n      0x05\n      mul\n      add\n      mload(0x40)\n      dup1\n      0xa0\n      add\n      0x40\n      mstore\n      swap1\n      dup2\n      0x00\n      dup3\n      add\n      sload\n      dup2\n      mstore\n      0x20\n      add\n      0x01\n      dup3\n      add\n      dup1\n      sload\n      tag_117\n      swap1\n      tag_91\n      jump\t// in\n    tag_117:\n      dup1\n      0x1f\n      add\n      0x20\n      dup1\n      swap2\n      div\n      mul\n      0x20\n      add\n      mload(0x40)\n      swap1\n      dup2\n      add\n      0x40\n      mstore\n      dup1\n      swap3\n      swap2\n      swap1\n      dup2\n      dup2\n      mstore\n      0x20\n      add\n      dup3\n      dup1\n      sload\n      tag_118\n      swap1\n      tag_91\n      jump\t// in\n    tag_118:\n      dup1\n      iszero\n      tag_119\n      jumpi\n      dup1\n      0x1f\n      lt\n      tag_120\n      jumpi\n      0x0100\n      dup1\n      dup4\n      sload\n      div\n      mul\n      dup4\n      mstore\n      swap2\n      0x20\n      add\n      swap2\n      jump(tag_119)\n    tag_120:\n      dup3\n      add\n      swap2\n      swap1\n      0x00\n      mstore\n      keccak256(0x00, 0x20)\n      swap1\n    tag_121:\n      dup2\n      sload\n      dup2\n      mstore\n      swap1\n      0x01\n      add\n      swap1\n      0x20\n      add\n      dup1\n      dup4\n      gt\n      tag_121\n      jumpi\n      dup3\n      swap1\n      sub\n      0x1f\n      and\n      dup3\n      add\n      swap2\n    tag_119:\n      pop\n      pop\n      pop\n      pop\n      pop\n      dup2\n      mstore\n      0x20\n      add\n      0x02\n      dup3\n      add\n      dup1\n      sload\n      tag_122\n      swap1\n      tag_91\n      jump\t// in\n    tag_122:\n      dup1\n      0x1f\n      add\n      0x20\n      dup1\n      swap2\n      div\n      mul\n      0x20\n      add\n      mload(0x40)\n      swap1\n      dup2\n      add\n      0x40\n      mstore\n      dup1\n      swap3\n      swap2\n      swap1\n      dup2\n      dup2\n      mstore\n      0x20\n      add\n      dup3\n      dup1\n      sload\n      tag_123\n      swap1\n      tag_91\n      jump\t// in\n    tag_123:\n      dup1\n      iszero\n      tag_124\n      jumpi\n      dup1\n      0x1f\n      lt\n      tag_125\n      jumpi\n      0x0100\n      dup1\n      dup4\n      sload\n      div\n      mul\n      dup4\n      mstore\n      swap2\n      0x20\n      add\n      swap2\n      jump(tag_124)\n    tag_125:\n      dup3\n      add\n      swap2\n      swap1\n      0x00\n      mstore\n      keccak256(0x00, 0x20)\n      swap1\n    tag_126:\n      dup2\n      sload\n      dup2\n      mstore\n      swap1\n      0x01\n      add\n      swap1\n      0x20\n      add\n      dup1\n      dup4\n      gt\n      tag_126\n      jumpi\n      dup3\n      swap1\n      sub\n      0x1f\n      and\n      dup3\n      add\n      swap2\n    tag_124:\n      pop\n      pop\n      pop\n      pop\n      pop\n      dup2\n      mstore\n      0x20\n      add\n      0x03\n      dup3\n      add\n      dup1\n      sload\n      tag_127\n      swap1\n      tag_91\n      jump\t// in\n    tag_127:\n      dup1\n      0x1f\n      add\n      0x20\n      dup1\n      swap2\n      div\n      mul\n      0x20\n      add\n      mload(0x40)\n      swap1\n      dup2\n      add\n      0x40\n      mstore\n      dup1\n      swap3\n      swap2\n      swap1\n      dup2\n      dup2\n      mstore\n      0x20\n      add\n      dup3\n      dup1\n      sload\n      tag_128\n      swap1\n      tag_91\n      jump\t// in\n    tag_128:\n      dup1\n      iszero\n      tag_129\n      jumpi\n      dup1\n      0x1f\n      lt\n      tag_130\n      jumpi\n      0x0100\n      dup1\n      dup4\n      sload\n      div\n      mul\n      dup4\n      mstore\n      swap2\n      0x20\n      add\n      swap2\n      jump(tag_129)\n    tag_130:\n      dup3\n      add\n      swap2\n      swap1\n      0x00\n      mstore\n      keccak256(0x00, 0x20)\n      swap1\n    tag_131:\n      dup2\n      sload\n      dup2\n      mstore\n      swap1\n      0x01\n      add\n      swap1\n      0x20\n      add\n      dup1\n      dup4\n      gt\n      tag_131\n      jumpi\n      dup3\n      swap1\n      sub\n      0x1f\n      and\n      dup3\n      add\n      swap2\n    tag_129:\n      pop\n      pop\n      pop\n      pop\n      pop\n      dup2\n      mstore\n      0x20\n      add\n      0x04\n      dup3\n      add\n      dup1\n      sload\n      tag_132\n      swap1\n      tag_91\n      jump\t// in\n    tag_132:\n      dup1\n      0x1f\n      add\n      0x20\n      dup1\n      swap2\n      div\n      mul\n      0x20\n      add\n      mload(0x40)\n      swap1\n      dup2\n      add\n      0x40\n      mstore\n      dup1\n      swap3\n      swap2\n      swap1\n      dup2\n      dup2\n      mstore\n      0x20\n      add\n      dup3\n      dup1\n      sload\n      tag_133\n      swap1\n      tag_91\n      jump\t// in\n    tag_133:\n      dup1\n      iszero\n      tag_134\n      jumpi\n      dup1\n      0x1f\n      lt\n      tag_135\n      jumpi\n      0x0100\n      dup1\n      dup4\n      sload\n      div\n      mul\n      dup4\n      mstore\n      swap2\n      0x20\n      add\n      swap2\n      jump(tag_134)\n    tag_135:\n      dup3\n      add\n      swap2\n      swap1\n      0x00\n      mstore\n      keccak256(0x00, 0x20)\n      swap1\n    tag_136:\n      dup2\n      sload\n      dup2\n      mstore\n      swap1\n      0x01\n      add\n      swap1\n      0x20\n      add\n      dup1\n      dup4\n      gt\n      tag_136\n      jumpi\n      dup3\n      swap1\n      sub\n      0x1f\n      and\n      dup3\n      add\n      swap2\n    tag_134:\n      pop\n      pop\n      pop\n      pop\n      pop\n      dup2\n      mstore\n      pop\n      pop\n      dup2\n      mstore\n      0x20\n      add\n      swap1\n      0x01\n      add\n      swap1\n      jump(tag_114)\n    tag_115:\n      pop\n      pop\n      pop\n      pop\n      swap1\n      pop\n        /* \"contracts/artifacts/Portfolio.sol\":1807:1903  function allProjects() external view returns (Project[3] memory)  {... */\n      swap1\n      jump\t// out\n        /* \"contracts/artifacts/Portfolio.sol\":2713:2819  function allEducationDetails() external view returns(Education[3] memory){... */\n    tag_34:\n        /* \"contracts/artifacts/Portfolio.sol\":2766:2785  Education[3] memory */\n      tag_137\n      tag_138\n      jump\t// in\n    tag_137:\n        /* \"contracts/artifacts/Portfolio.sol\":2797:2813  educationDetails */\n      0x0f\n        /* \"contracts/artifacts/Portfolio.sol\":2790:2813  return educationDetails */\n      0x03\n      dup1\n      0x20\n      mul\n      mload(0x40)\n      swap1\n      dup2\n      add\n      0x40\n      mstore\n      dup1\n      swap3\n      swap2\n      swap1\n      0x00\n      swap1\n    tag_140:\n      dup3\n      dup3\n      lt\n      iszero\n      tag_141\n      jumpi\n      dup4\n      dup3\n      0x05\n      mul\n      add\n      mload(0x40)\n      dup1\n      0xa0\n      add\n      0x40\n      mstore\n      swap1\n      dup2\n      0x00\n      dup3\n      add\n      sload\n      dup2\n      mstore\n      0x20\n      add\n      0x01\n      dup3\n      add\n      dup1\n      sload\n      tag_143\n      swap1\n      tag_91\n      jump\t// in\n    tag_143:\n      dup1\n      0x1f\n      add\n      0x20\n      dup1\n      swap2\n      div\n      mul\n      0x20\n      add\n      mload(0x40)\n      swap1\n      dup2\n      add\n      0x40\n      mstore\n      dup1\n      swap3\n      swap2\n      swap1\n      dup2\n      dup2\n      mstore\n      0x20\n      add\n      dup3\n      dup1\n      sload\n      tag_144\n      swap1\n      tag_91\n      jump\t// in\n    tag_144:\n      dup1\n      iszero\n      tag_145\n      jumpi\n      dup1\n      0x1f\n      lt\n      tag_146\n      jumpi\n      0x0100\n      dup1\n      dup4\n      sload\n      div\n      mul\n      dup4\n      mstore\n      swap2\n      0x20\n      add\n      swap2\n      jump(tag_145)\n    tag_146:\n      dup3\n      add\n      swap2\n      swap1\n      0x00\n      mstore\n      keccak256(0x00, 0x20)\n      swap1\n    tag_147:\n      dup2\n      sload\n      dup2\n      mstore\n      swap1\n      0x01\n      add\n      swap1\n      0x20\n      add\n      dup1\n      dup4\n      gt\n      tag_147\n      jumpi\n      dup3\n      swap1\n      sub\n      0x1f\n      and\n      dup3\n      add\n      swap2\n    tag_145:\n      pop\n      pop\n      pop\n      pop\n      pop\n      dup2\n      mstore\n      0x20\n      add\n      0x02\n      dup3\n      add\n      dup1\n      sload\n      tag_148\n      swap1\n      tag_91\n      jump\t// in\n    tag_148:\n      dup1\n      0x1f\n      add\n      0x20\n      dup1\n      swap2\n      div\n      mul\n      0x20\n      add\n      mload(0x40)\n      swap1\n      dup2\n      add\n      0x40\n      mstore\n      dup1\n      swap3\n      swap2\n      swap1\n      dup2\n      dup2\n      mstore\n      0x20\n      add\n      dup3\n      dup1\n      sload\n      tag_149\n      swap1\n      tag_91\n      jump\t// in\n    tag_149:\n      dup1\n      iszero\n      tag_150\n      jumpi\n      dup1\n      0x1f\n      lt\n      tag_151\n      jumpi\n      0x0100\n      dup1\n      dup4\n      sload\n      div\n      mul\n      dup4\n      mstore\n      swap2\n      0x20\n      add\n      swap2\n      jump(tag_150)\n    tag_151:\n      dup3\n      add\n      swap2\n      swap1\n      0x00\n      mstore\n      keccak256(0x00, 0x20)\n      swap1\n    tag_152:\n      dup2\n      sload\n      dup2\n      mstore\n      swap1\n      0x01\n      add\n      swap1\n      0x20\n      add\n      dup1\n      dup4\n      gt\n      tag_152\n      jumpi\n      dup3\n      swap1\n      sub\n      0x1f\n      and\n      dup3\n      add\n      swap2\n    tag_150:\n      pop\n      pop\n      pop\n      pop\n      pop\n      dup2\n      mstore\n      0x20\n      add\n      0x03\n      dup3\n      add\n      dup1\n      sload\n      tag_153\n      swap1\n      tag_91\n      jump\t// in\n    tag_153:\n      dup1\n      0x1f\n      add\n      0x20\n      dup1\n      swap2\n      div\n      mul\n      0x20\n      add\n      mload(0x40)\n      swap1\n      dup2\n      add\n      0x40\n      mstore\n      dup1\n      swap3\n      swap2\n      swap1\n      dup2\n      dup2\n      mstore\n      0x20\n      add\n      dup3\n      dup1\n      sload\n      tag_154\n      swap1\n      tag_91\n      jump\t// in\n    tag_154:\n      dup1\n      iszero\n      tag_155\n      jumpi\n      dup1\n      0x1f\n      lt\n      tag_156\n      jumpi\n      0x0100\n      dup1\n      dup4\n      sload\n      div\n      mul\n      dup4\n      mstore\n      swap2\n      0x20\n      add\n      swap2\n      jump(tag_155)\n    tag_156:\n      dup3\n      add\n      swap2\n      swap1\n      0x00\n      mstore\n      keccak256(0x00, 0x20)\n      swap1\n    tag_157:\n      dup2\n      sload\n      dup2\n      mstore\n      swap1\n      0x01\n      add\n      swap1\n      0x20\n      add\n      dup1\n      dup4\n      gt\n      tag_157\n      jumpi\n      dup3\n      swap1\n      sub\n      0x1f\n      and\n      dup3\n      add\n      swap2\n    tag_155:\n      pop\n      pop\n      pop\n      pop\n      pop\n      dup2\n      mstore\n      0x20\n      add\n      0x04\n      dup3\n      add\n      dup1\n      sload\n      tag_158\n      swap1\n      tag_91\n      jump\t// in\n    tag_158:\n      dup1\n      0x1f\n      add\n      0x20\n      dup1\n      swap2\n      div\n      mul\n      0x20\n      add\n      mload(0x40)\n      swap1\n      dup2\n      add\n      0x40\n      mstore\n      dup1\n      swap3\n      swap2\n      swap1\n      dup2\n      dup2\n      mstore\n      0x20\n      add\n      dup3\n      dup1\n      sload\n      tag_159\n      swap1\n      tag_91\n      jump\t// in\n    tag_159:\n      dup1\n      iszero\n      tag_160\n      jumpi\n      dup1\n      0x1f\n      lt\n      tag_161\n      jumpi\n      0x0100\n      dup1\n      dup4\n      sload\n      div\n      mul\n      dup4\n      mstore\n      swap2\n      0x20\n      add\n      swap2\n      jump(tag_160)\n    tag_161:\n      dup3\n      add\n      swap2\n      swap1\n      0x00\n      mstore\n      keccak256(0x00, 0x20)\n      swap1\n    tag_162:\n      dup2\n      sload\n      dup2\n      mstore\n      swap1\n      0x01\n      add\n      swap1\n      0x20\n      add\n      dup1\n      dup4\n      gt\n      tag_162\n      jumpi\n      dup3\n      swap1\n      sub\n      0x1f\n      and\n      dup3\n      add\n      swap2\n    tag_160:\n      pop\n      pop\n      pop\n      pop\n      pop\n      dup2\n      mstore\n      pop\n      pop\n      dup2\n      mstore\n      0x20\n      add\n      swap1\n      0x01\n      add\n      swap1\n      jump(tag_140)\n    tag_141:\n      pop\n      pop\n      pop\n      pop\n      swap1\n      pop\n        /* \"contracts/artifacts/Portfolio.sol\":2713:2819  function allEducationDetails() external view returns(Education[3] memory){... */\n      swap1\n      jump\t// out\n        /* \"contracts/artifacts/Portfolio.sol\":3058:3164  function changeImageLink(string calldata _imageLink) external onlyAuthority{... */\n    tag_41:\n        /* \"contracts/artifacts/Portfolio.sol\":1025:1035  msg.sender */\n      caller\n        /* \"contracts/artifacts/Portfolio.sol\":1005:1035  portfolioAuthority==msg.sender */\n      0xffffffffffffffffffffffffffffffffffffffff\n      and\n        /* \"contracts/artifacts/Portfolio.sol\":1005:1023  portfolioAuthority */\n      0x1e\n      0x00\n      swap1\n      sload\n      swap1\n      0x0100\n      exp\n      swap1\n      div\n      0xffffffffffffffffffffffffffffffffffffffff\n      and\n        /* \"contracts/artifacts/Portfolio.sol\":1005:1035  portfolioAuthority==msg.sender */\n      0xffffffffffffffffffffffffffffffffffffffff\n      and\n      eq\n        /* \"contracts/artifacts/Portfolio.sol\":997:1086  require(portfolioAuthority==msg.sender,\"You do not have an authority over this contract\") */\n      tag_164\n      jumpi\n      mload(0x40)\n      0x08c379a000000000000000000000000000000000000000000000000000000000\n      dup2\n      mstore\n      0x04\n      add\n      tag_165\n      swap1\n      tag_166\n      jump\t// in\n    tag_165:\n      mload(0x40)\n      dup1\n      swap2\n      sub\n      swap1\n      revert\n    tag_164:\n        /* \"contracts/artifacts/Portfolio.sol\":3148:3158  _imageLink */\n      dup2\n      dup2\n        /* \"contracts/artifacts/Portfolio.sol\":3138:3147  imageLink */\n      0x1f\n        /* \"contracts/artifacts/Portfolio.sol\":3138:3158  imageLink=_imageLink */\n      swap2\n      dup3\n      tag_168\n      swap3\n      swap2\n      swap1\n      tag_169\n      jump\t// in\n    tag_168:\n      pop\n        /* \"contracts/artifacts/Portfolio.sol\":3058:3164  function changeImageLink(string calldata _imageLink) external onlyAuthority{... */\n      pop\n      pop\n      jump\t// out\n        /* \"contracts/artifacts/Portfolio.sol\":2289:2707  function changeEducation (string calldata _date,string calldata _degree,string calldata _knowledgeAcquired,string calldata _instutionName,uint _educationDetailCount) external onlyAuthority{... */\n    tag_46:\n        /* \"contracts/artifacts/Portfolio.sol\":1025:1035  msg.sender */\n      caller\n        /* \"contracts/artifacts/Portfolio.sol\":1005:1035  portfolioAuthority==msg.sender */\n      0xffffffffffffffffffffffffffffffffffffffff\n      and\n        /* \"contracts/artifacts/Portfolio.sol\":1005:1023  portfolioAuthority */\n      0x1e\n      0x00\n      swap1\n      sload\n      swap1\n      0x0100\n      exp\n      swap1\n      div\n      0xffffffffffffffffffffffffffffffffffffffff\n      and\n        /* \"contracts/artifacts/Portfolio.sol\":1005:1035  portfolioAuthority==msg.sender */\n      0xffffffffffffffffffffffffffffffffffffffff\n      and\n      eq\n        /* \"contracts/artifacts/Portfolio.sol\":997:1086  require(portfolioAuthority==msg.sender,\"You do not have an authority over this contract\") */\n      tag_171\n      jumpi\n      mload(0x40)\n      0x08c379a000000000000000000000000000000000000000000000000000000000\n      dup2\n      mstore\n      0x04\n      add\n      tag_172\n      swap1\n      tag_166\n      jump\t// in\n    tag_172:\n      mload(0x40)\n      dup1\n      swap2\n      sub\n      swap1\n      revert\n    tag_171:\n        /* \"contracts/artifacts/Portfolio.sol\":2514:2515  0 */\n      0x00\n        /* \"contracts/artifacts/Portfolio.sol\":2491:2512  _educationDetailCount */\n      dup2\n        /* \"contracts/artifacts/Portfolio.sol\":2491:2515  _educationDetailCount>=0 */\n      lt\n      iszero\n        /* \"contracts/artifacts/Portfolio.sol\":2491:2542  _educationDetailCount>=0 && _educationDetailCount<3 */\n      dup1\n      iszero\n      tag_174\n      jumpi\n      pop\n        /* \"contracts/artifacts/Portfolio.sol\":2541:2542  3 */\n      0x03\n        /* \"contracts/artifacts/Portfolio.sol\":2519:2540  _educationDetailCount */\n      dup2\n        /* \"contracts/artifacts/Portfolio.sol\":2519:2542  _educationDetailCount<3 */\n      lt\n        /* \"contracts/artifacts/Portfolio.sol\":2491:2542  _educationDetailCount>=0 && _educationDetailCount<3 */\n    tag_174:\n        /* \"contracts/artifacts/Portfolio.sol\":2483:2568  require(_educationDetailCount>=0 && _educationDetailCount<3,\"Invalid educationCount\") */\n      tag_175\n      jumpi\n      mload(0x40)\n      0x08c379a000000000000000000000000000000000000000000000000000000000\n      dup2\n      mstore\n      0x04\n      add\n      tag_176\n      swap1\n      tag_177\n      jump\t// in\n    tag_176:\n      mload(0x40)\n      dup1\n      swap2\n      sub\n      swap1\n      revert\n    tag_175:\n        /* \"contracts/artifacts/Portfolio.sol\":2617:2697  Education(_educationDetailCount,_date,_degree,_knowledgeAcquired,_instutionName) */\n      mload(0x40)\n      dup1\n      0xa0\n      add\n      0x40\n      mstore\n      dup1\n        /* \"contracts/artifacts/Portfolio.sol\":2627:2648  _educationDetailCount */\n      dup3\n        /* \"contracts/artifacts/Portfolio.sol\":2617:2697  Education(_educationDetailCount,_date,_degree,_knowledgeAcquired,_instutionName) */\n      dup2\n      mstore\n      0x20\n      add\n        /* \"contracts/artifacts/Portfolio.sol\":2649:2654  _date */\n      dup11\n      dup11\n        /* \"contracts/artifacts/Portfolio.sol\":2617:2697  Education(_educationDetailCount,_date,_degree,_knowledgeAcquired,_instutionName) */\n      dup1\n      dup1\n      0x1f\n      add\n      0x20\n      dup1\n      swap2\n      div\n      mul\n      0x20\n      add\n      mload(0x40)\n      swap1\n      dup2\n      add\n      0x40\n      mstore\n      dup1\n      swap4\n      swap3\n      swap2\n      swap1\n      dup2\n      dup2\n      mstore\n      0x20\n      add\n      dup4\n      dup4\n      dup1\n      dup3\n      dup5\n      calldatacopy\n      0x00\n      dup2\n      dup5\n      add\n      mstore\n      not(0x1f)\n      0x1f\n      dup3\n      add\n      and\n      swap1\n      pop\n      dup1\n      dup4\n      add\n      swap3\n      pop\n      pop\n      pop\n      pop\n      pop\n      pop\n      pop\n      dup2\n      mstore\n      0x20\n      add\n        /* \"contracts/artifacts/Portfolio.sol\":2655:2662  _degree */\n      dup9\n      dup9\n        /* \"contracts/artifacts/Portfolio.sol\":2617:2697  Education(_educationDetailCount,_date,_degree,_knowledgeAcquired,_instutionName) */\n      dup1\n      dup1\n      0x1f\n      add\n      0x20\n      dup1\n      swap2\n      div\n      mul\n      0x20\n      add\n      mload(0x40)\n      swap1\n      dup2\n      add\n      0x40\n      mstore\n      dup1\n      swap4\n      swap3\n      swap2\n      swap1\n      dup2\n      dup2\n      mstore\n      0x20\n      add\n      dup4\n      dup4\n      dup1\n      dup3\n      dup5\n      calldatacopy\n      0x00\n      dup2\n      dup5\n      add\n      mstore\n      not(0x1f)\n      0x1f\n      dup3\n      add\n      and\n      swap1\n      pop\n      dup1\n      dup4\n      add\n      swap3\n      pop\n      pop\n      pop\n      pop\n      pop\n      pop\n      pop\n      dup2\n      mstore\n      0x20\n      add\n        /* \"contracts/artifacts/Portfolio.sol\":2663:2681  _knowledgeAcquired */\n      dup7\n      dup7\n        /* \"contracts/artifacts/Portfolio.sol\":2617:2697  Education(_educationDetailCount,_date,_degree,_knowledgeAcquired,_instutionName) */\n      dup1\n      dup1\n      0x1f\n      add\n      0x20\n      dup1\n      swap2\n      div\n      mul\n      0x20\n      add\n      mload(0x40)\n      swap1\n      dup2\n      add\n      0x40\n      mstore\n      dup1\n      swap4\n      swap3\n      swap2\n      swap1\n      dup2\n      dup2\n      mstore\n      0x20\n      add\n      dup4\n      dup4\n      dup1\n      dup3\n      dup5\n      calldatacopy\n      0x00\n      dup2\n      dup5\n      add\n      mstore\n      not(0x1f)\n      0x1f\n      dup3\n      add\n      and\n      swap1\n      pop\n      dup1\n      dup4\n      add\n      swap3\n      pop\n      pop\n      pop\n      pop\n      pop\n      pop\n      pop\n      dup2\n      mstore\n      0x20\n      add\n        /* \"contracts/artifacts/Portfolio.sol\":2682:2696  _instutionName */\n      dup5\n      dup5\n        /* \"contracts/artifacts/Portfolio.sol\":2617:2697  Education(_educationDetailCount,_date,_degree,_knowledgeAcquired,_instutionName) */\n      dup1\n      dup1\n      0x1f\n      add\n      0x20\n      dup1\n      swap2\n      div\n      mul\n      0x20\n      add\n      mload(0x40)\n      swap1\n      dup2\n      add\n      0x40\n      mstore\n      dup1\n      swap4\n      swap3\n      swap2\n      swap1\n      dup2\n      dup2\n      mstore\n      0x20\n      add\n      dup4\n      dup4\n      dup1\n      dup3\n      dup5\n      calldatacopy\n      0x00\n      dup2\n      dup5\n      add\n      mstore\n      not(0x1f)\n      0x1f\n      dup3\n      add\n      and\n      swap1\n      pop\n      dup1\n      dup4\n      add\n      swap3\n      pop\n      pop\n      pop\n      pop\n      pop\n      pop\n      pop\n      dup2\n      mstore\n      pop\n        /* \"contracts/artifacts/Portfolio.sol\":2577:2593  educationDetails */\n      0x0f\n        /* \"contracts/artifacts/Portfolio.sol\":2594:2615  _educationDetailCount */\n      dup3\n        /* \"contracts/artifacts/Portfolio.sol\":2577:2616  educationDetails[_educationDetailCount] */\n      0x03\n      dup2\n      lt\n      tag_178\n      jumpi\n      tag_179\n      tag_180\n      jump\t// in\n    tag_179:\n    tag_178:\n      0x05\n      mul\n      add\n        /* \"contracts/artifacts/Portfolio.sol\":2577:2697  educationDetails[_educationDetailCount]=Education(_educationDetailCount,_date,_degree,_knowledgeAcquired,_instutionName) */\n      0x00\n      dup3\n      add\n      mload\n      dup2\n      0x00\n      add\n      sstore\n      0x20\n      dup3\n      add\n      mload\n      dup2\n      0x01\n      add\n      swap1\n      dup2\n      tag_182\n      swap2\n      swap1\n      tag_183\n      jump\t// in\n    tag_182:\n      pop\n      0x40\n      dup3\n      add\n      mload\n      dup2\n      0x02\n      add\n      swap1\n      dup2\n      tag_184\n      swap2\n      swap1\n      tag_183\n      jump\t// in\n    tag_184:\n      pop\n      0x60\n      dup3\n      add\n      mload\n      dup2\n      0x03\n      add\n      swap1\n      dup2\n      tag_185\n      swap2\n      swap1\n      tag_183\n      jump\t// in\n    tag_185:\n      pop\n      0x80\n      dup3\n      add\n      mload\n      dup2\n      0x04\n      add\n      swap1\n      dup2\n      tag_186\n      swap2\n      swap1\n      tag_183\n      jump\t// in\n    tag_186:\n      pop\n      swap1\n      pop\n      pop\n        /* \"contracts/artifacts/Portfolio.sol\":2289:2707  function changeEducation (string calldata _date,string calldata _degree,string calldata _knowledgeAcquired,string calldata _instutionName,uint _educationDetailCount) external onlyAuthority{... */\n      pop\n      pop\n      pop\n      pop\n      pop\n      pop\n      pop\n      pop\n      pop\n      jump\t// out\n        /* \"contracts/artifacts/Portfolio.sol\":670:743  string public resumeLink=\"Qme7xVCaRnwUcBVHyaKhsGsG4QFog2SDMN3fHLWCTvwAKz\" */\n    tag_49:\n      0x21\n      dup1\n      sload\n      tag_187\n      swap1\n      tag_91\n      jump\t// in\n    tag_187:\n      dup1\n      0x1f\n      add\n      0x20\n      dup1\n      swap2\n      div\n      mul\n      0x20\n      add\n      mload(0x40)\n      swap1\n      dup2\n      add\n      0x40\n      mstore\n      dup1\n      swap3\n      swap2\n      swap1\n      dup2\n      dup2\n      mstore\n      0x20\n      add\n      dup3\n      dup1\n      sload\n      tag_188\n      swap1\n      tag_91\n      jump\t// in\n    tag_188:\n      dup1\n      iszero\n      tag_189\n      jumpi\n      dup1\n      0x1f\n      lt\n      tag_190\n      jumpi\n      0x0100\n      dup1\n      dup4\n      sload\n      div\n      mul\n      dup4\n      mstore\n      swap2\n      0x20\n      add\n      swap2\n      jump(tag_189)\n    tag_190:\n      dup3\n      add\n      swap2\n      swap1\n      0x00\n      mstore\n      keccak256(0x00, 0x20)\n      swap1\n    tag_191:\n      dup2\n      sload\n      dup2\n      mstore\n      swap1\n      0x01\n      add\n      swap1\n      0x20\n      add\n      dup1\n      dup4\n      gt\n      tag_191\n      jumpi\n      dup3\n      swap1\n      sub\n      0x1f\n      and\n      dup3\n      add\n      swap2\n    tag_189:\n      pop\n      pop\n      pop\n      pop\n      pop\n      dup2\n      jump\t// out\n        /* \"contracts/artifacts/Portfolio.sol\":1106:1446  function insertProject(string calldata _name, string calldata _description, string calldata _image, string calldata _githubLink) external onlyAuthority {... */\n    tag_56:\n        /* \"contracts/artifacts/Portfolio.sol\":1025:1035  msg.sender */\n      caller\n        /* \"contracts/artifacts/Portfolio.sol\":1005:1035  portfolioAuthority==msg.sender */\n      0xffffffffffffffffffffffffffffffffffffffff\n      and\n        /* \"contracts/artifacts/Portfolio.sol\":1005:1023  portfolioAuthority */\n      0x1e\n      0x00\n      swap1\n      sload\n      swap1\n      0x0100\n      exp\n      swap1\n      div\n      0xffffffffffffffffffffffffffffffffffffffff\n      and\n        /* \"contracts/artifacts/Portfolio.sol\":1005:1035  portfolioAuthority==msg.sender */\n      0xffffffffffffffffffffffffffffffffffffffff\n      and\n      eq\n        /* \"contracts/artifacts/Portfolio.sol\":997:1086  require(portfolioAuthority==msg.sender,\"You do not have an authority over this contract\") */\n      tag_193\n      jumpi\n      mload(0x40)\n      0x08c379a000000000000000000000000000000000000000000000000000000000\n      dup2\n      mstore\n      0x04\n      add\n      tag_194\n      swap1\n      tag_166\n      jump\t// in\n    tag_194:\n      mload(0x40)\n      dup1\n      swap2\n      sub\n      swap1\n      revert\n    tag_193:\n        /* \"contracts/artifacts/Portfolio.sol\":1290:1291  3 */\n      0x03\n        /* \"contracts/artifacts/Portfolio.sol\":1277:1289  projectCount */\n      sload(0x22)\n        /* \"contracts/artifacts/Portfolio.sol\":1277:1291  projectCount<3 */\n      lt\n        /* \"contracts/artifacts/Portfolio.sol\":1269:1319  require(projectCount<3,\"Not more than 3 projects\") */\n      tag_196\n      jumpi\n      mload(0x40)\n      0x08c379a000000000000000000000000000000000000000000000000000000000\n      dup2\n      mstore\n      0x04\n      add\n      tag_197\n      swap1\n      tag_198\n      jump\t// in\n    tag_197:\n      mload(0x40)\n      dup1\n      swap2\n      sub\n      swap1\n      revert\n    tag_196:\n        /* \"contracts/artifacts/Portfolio.sol\":1356:1415  Project(projectCount,_name,_description,_image,_githubLink) */\n      mload(0x40)\n      dup1\n      0xa0\n      add\n      0x40\n      mstore\n      dup1\n        /* \"contracts/artifacts/Portfolio.sol\":1364:1376  projectCount */\n      sload(0x22)\n        /* \"contracts/artifacts/Portfolio.sol\":1356:1415  Project(projectCount,_name,_description,_image,_githubLink) */\n      dup2\n      mstore\n      0x20\n      add\n        /* \"contracts/artifacts/Portfolio.sol\":1377:1382  _name */\n      dup10\n      dup10\n        /* \"contracts/artifacts/Portfolio.sol\":1356:1415  Project(projectCount,_name,_description,_image,_githubLink) */\n      dup1\n      dup1\n      0x1f\n      add\n      0x20\n      dup1\n      swap2\n      div\n      mul\n      0x20\n      add\n      mload(0x40)\n      swap1\n      dup2\n      add\n      0x40\n      mstore\n      dup1\n      swap4\n      swap3\n      swap2\n      swap1\n      dup2\n      dup2\n      mstore\n      0x20\n      add\n      dup4\n      dup4\n      dup1\n      dup3\n      dup5\n      calldatacopy\n      0x00\n      dup2\n      dup5\n      add\n      mstore\n      not(0x1f)\n      0x1f\n      dup3\n      add\n      and\n      swap1\n      pop\n      dup1\n      dup4\n      add\n      swap3\n      pop\n      pop\n      pop\n      pop\n      pop\n      pop\n      pop\n      dup2\n      mstore\n      0x20\n      add\n        /* \"contracts/artifacts/Portfolio.sol\":1383:1395  _description */\n      dup8\n      dup8\n        /* \"contracts/artifacts/Portfolio.sol\":1356:1415  Project(projectCount,_name,_description,_image,_githubLink) */\n      dup1\n      dup1\n      0x1f\n      add\n      0x20\n      dup1\n      swap2\n      div\n      mul\n      0x20\n      add\n      mload(0x40)\n      swap1\n      dup2\n      add\n      0x40\n      mstore\n      dup1\n      swap4\n      swap3\n      swap2\n      swap1\n      dup2\n      dup2\n      mstore\n      0x20\n      add\n      dup4\n      dup4\n      dup1\n      dup3\n      dup5\n      calldatacopy\n      0x00\n      dup2\n      dup5\n      add\n      mstore\n      not(0x1f)\n      0x1f\n      dup3\n      add\n      and\n      swap1\n      pop\n      dup1\n      dup4\n      add\n      swap3\n      pop\n      pop\n      pop\n      pop\n      pop\n      pop\n      pop\n      dup2\n      mstore\n      0x20\n      add\n        /* \"contracts/artifacts/Portfolio.sol\":1396:1402  _image */\n      dup6\n      dup6\n        /* \"contracts/artifacts/Portfolio.sol\":1356:1415  Project(projectCount,_name,_description,_image,_githubLink) */\n      dup1\n      dup1\n      0x1f\n      add\n      0x20\n      dup1\n      swap2\n      div\n      mul\n      0x20\n      add\n      mload(0x40)\n      swap1\n      dup2\n      add\n      0x40\n      mstore\n      dup1\n      swap4\n      swap3\n      swap2\n      swap1\n      dup2\n      dup2\n      mstore\n      0x20\n      add\n      dup4\n      dup4\n      dup1\n      dup3\n      dup5\n      calldatacopy\n      0x00\n      dup2\n      dup5\n      add\n      mstore\n      not(0x1f)\n      0x1f\n      dup3\n      add\n      and\n      swap1\n      pop\n      dup1\n      dup4\n      add\n      swap3\n      pop\n      pop\n      pop\n      pop\n      pop\n      pop\n      pop\n      dup2\n      mstore\n      0x20\n      add\n        /* \"contracts/artifacts/Portfolio.sol\":1403:1414  _githubLink */\n      dup4\n      dup4\n        /* \"contracts/artifacts/Portfolio.sol\":1356:1415  Project(projectCount,_name,_description,_image,_githubLink) */\n      dup1\n      dup1\n      0x1f\n      add\n      0x20\n      dup1\n      swap2\n      div\n      mul\n      0x20\n      add\n      mload(0x40)\n      swap1\n      dup2\n      add\n      0x40\n      mstore\n      dup1\n      swap4\n      swap3\n      swap2\n      swap1\n      dup2\n      dup2\n      mstore\n      0x20\n      add\n      dup4\n      dup4\n      dup1\n      dup3\n      dup5\n      calldatacopy\n      0x00\n      dup2\n      dup5\n      add\n      mstore\n      not(0x1f)\n      0x1f\n      dup3\n      add\n      and\n      swap1\n      pop\n      dup1\n      dup4\n      add\n      swap3\n      pop\n      pop\n      pop\n      pop\n      pop\n      pop\n      pop\n      dup2\n      mstore\n      pop\n        /* \"contracts/artifacts/Portfolio.sol\":1331:1339  projects */\n      0x00\n        /* \"contracts/artifacts/Portfolio.sol\":1340:1352  projectCount */\n      sload(0x22)\n        /* \"contracts/artifacts/Portfolio.sol\":1331:1353  projects[projectCount] */\n      0x03\n      dup2\n      lt\n      tag_199\n      jumpi\n      tag_200\n      tag_180\n      jump\t// in\n    tag_200:\n    tag_199:\n      0x05\n      mul\n      add\n        /* \"contracts/artifacts/Portfolio.sol\":1331:1415  projects[projectCount] = Project(projectCount,_name,_description,_image,_githubLink) */\n      0x00\n      dup3\n      add\n      mload\n      dup2\n      0x00\n      add\n      sstore\n      0x20\n      dup3\n      add\n      mload\n      dup2\n      0x01\n      add\n      swap1\n      dup2\n      tag_202\n      swap2\n      swap1\n      tag_183\n      jump\t// in\n    tag_202:\n      pop\n      0x40\n      dup3\n      add\n      mload\n      dup2\n      0x02\n      add\n      swap1\n      dup2\n      tag_203\n      swap2\n      swap1\n      tag_183\n      jump\t// in\n    tag_203:\n      pop\n      0x60\n      dup3\n      add\n      mload\n      dup2\n      0x03\n      add\n      swap1\n      dup2\n      tag_204\n      swap2\n      swap1\n      tag_183\n      jump\t// in\n    tag_204:\n      pop\n      0x80\n      dup3\n      add\n      mload\n      dup2\n      0x04\n      add\n      swap1\n      dup2\n      tag_205\n      swap2\n      swap1\n      tag_183\n      jump\t// in\n    tag_205:\n      pop\n      swap1\n      pop\n      pop\n        /* \"contracts/artifacts/Portfolio.sol\":1426:1438  projectCount */\n      0x22\n      0x00\n        /* \"contracts/artifacts/Portfolio.sol\":1426:1440  projectCount++ */\n      dup2\n      sload\n      dup1\n      swap3\n      swap2\n      swap1\n      tag_206\n      swap1\n      tag_207\n      jump\t// in\n    tag_206:\n      swap2\n      swap1\n      pop\n      sstore\n      pop\n        /* \"contracts/artifacts/Portfolio.sol\":1106:1446  function insertProject(string calldata _name, string calldata _description, string calldata _image, string calldata _githubLink) external onlyAuthority {... */\n      pop\n      pop\n      pop\n      pop\n      pop\n      pop\n      pop\n      pop\n      jump\t// out\n        /* \"contracts/artifacts/Portfolio.sol\":1451:1801  function changeProject(string calldata _name, string calldata _description, string calldata _image, string calldata _githubLink, uint _projectCount) external onlyAuthority {... */\n    tag_60:\n        /* \"contracts/artifacts/Portfolio.sol\":1025:1035  msg.sender */\n      caller\n        /* \"contracts/artifacts/Portfolio.sol\":1005:1035  portfolioAuthority==msg.sender */\n      0xffffffffffffffffffffffffffffffffffffffff\n      and\n        /* \"contracts/artifacts/Portfolio.sol\":1005:1023  portfolioAuthority */\n      0x1e\n      0x00\n      swap1\n      sload\n      swap1\n      0x0100\n      exp\n      swap1\n      div\n      0xffffffffffffffffffffffffffffffffffffffff\n      and\n        /* \"contracts/artifacts/Portfolio.sol\":1005:1035  portfolioAuthority==msg.sender */\n      0xffffffffffffffffffffffffffffffffffffffff\n      and\n      eq\n        /* \"contracts/artifacts/Portfolio.sol\":997:1086  require(portfolioAuthority==msg.sender,\"You do not have an authority over this contract\") */\n      tag_209\n      jumpi\n      mload(0x40)\n      0x08c379a000000000000000000000000000000000000000000000000000000000\n      dup2\n      mstore\n      0x04\n      add\n      tag_210\n      swap1\n      tag_166\n      jump\t// in\n    tag_210:\n      mload(0x40)\n      dup1\n      swap2\n      sub\n      swap1\n      revert\n    tag_209:\n        /* \"contracts/artifacts/Portfolio.sol\":1654:1655  0 */\n      0x00\n        /* \"contracts/artifacts/Portfolio.sol\":1639:1652  _projectCount */\n      dup2\n        /* \"contracts/artifacts/Portfolio.sol\":1639:1655  _projectCount>=0 */\n      lt\n      iszero\n        /* \"contracts/artifacts/Portfolio.sol\":1639:1674  _projectCount>=0 && _projectCount<3 */\n      dup1\n      iszero\n      tag_212\n      jumpi\n      pop\n        /* \"contracts/artifacts/Portfolio.sol\":1673:1674  3 */\n      0x03\n        /* \"contracts/artifacts/Portfolio.sol\":1659:1672  _projectCount */\n      dup2\n        /* \"contracts/artifacts/Portfolio.sol\":1659:1674  _projectCount<3 */\n      lt\n        /* \"contracts/artifacts/Portfolio.sol\":1639:1674  _projectCount>=0 && _projectCount<3 */\n    tag_212:\n        /* \"contracts/artifacts/Portfolio.sol\":1631:1698  require(_projectCount>=0 && _projectCount<3,\"Invalid ProjectCount\") */\n      tag_213\n      jumpi\n      mload(0x40)\n      0x08c379a000000000000000000000000000000000000000000000000000000000\n      dup2\n      mstore\n      0x04\n      add\n      tag_214\n      swap1\n      tag_215\n      jump\t// in\n    tag_214:\n      mload(0x40)\n      dup1\n      swap2\n      sub\n      swap1\n      revert\n    tag_213:\n        /* \"contracts/artifacts/Portfolio.sol\":1733:1793  Project(_projectCount,_name,_description,_image,_githubLink) */\n      mload(0x40)\n      dup1\n      0xa0\n      add\n      0x40\n      mstore\n      dup1\n        /* \"contracts/artifacts/Portfolio.sol\":1741:1754  _projectCount */\n      dup3\n        /* \"contracts/artifacts/Portfolio.sol\":1733:1793  Project(_projectCount,_name,_description,_image,_githubLink) */\n      dup2\n      mstore\n      0x20\n      add\n        /* \"contracts/artifacts/Portfolio.sol\":1755:1760  _name */\n      dup11\n      dup11\n        /* \"contracts/artifacts/Portfolio.sol\":1733:1793  Project(_projectCount,_name,_description,_image,_githubLink) */\n      dup1\n      dup1\n      0x1f\n      add\n      0x20\n      dup1\n      swap2\n      div\n      mul\n      0x20\n      add\n      mload(0x40)\n      swap1\n      dup2\n      add\n      0x40\n      mstore\n      dup1\n      swap4\n      swap3\n      swap2\n      swap1\n      dup2\n      dup2\n      mstore\n      0x20\n      add\n      dup4\n      dup4\n      dup1\n      dup3\n      dup5\n      calldatacopy\n      0x00\n      dup2\n      dup5\n      add\n      mstore\n      not(0x1f)\n      0x1f\n      dup3\n      add\n      and\n      swap1\n      pop\n      dup1\n      dup4\n      add\n      swap3\n      pop\n      pop\n      pop\n      pop\n      pop\n      pop\n      pop\n      dup2\n      mstore\n      0x20\n      add\n        /* \"contracts/artifacts/Portfolio.sol\":1761:1773  _description */\n      dup9\n      dup9\n        /* \"contracts/artifacts/Portfolio.sol\":1733:1793  Project(_projectCount,_name,_description,_image,_githubLink) */\n      dup1\n      dup1\n      0x1f\n      add\n      0x20\n      dup1\n      swap2\n      div\n      mul\n      0x20\n      add\n      mload(0x40)\n      swap1\n      dup2\n      add\n      0x40\n      mstore\n      dup1\n      swap4\n      swap3\n      swap2\n      swap1\n      dup2\n      dup2\n      mstore\n      0x20\n      add\n      dup4\n      dup4\n      dup1\n      dup3\n      dup5\n      calldatacopy\n      0x00\n      dup2\n      dup5\n      add\n      mstore\n      not(0x1f)\n      0x1f\n      dup3\n      add\n      and\n      swap1\n      pop\n      dup1\n      dup4\n      add\n      swap3\n      pop\n      pop\n      pop\n      pop\n      pop\n      pop\n      pop\n      dup2\n      mstore\n      0x20\n      add\n        /* \"contracts/artifacts/Portfolio.sol\":1774:1780  _image */\n      dup7\n      dup7\n        /* \"contracts/artifacts/Portfolio.sol\":1733:1793  Project(_projectCount,_name,_description,_image,_githubLink) */\n      dup1\n      dup1\n      0x1f\n      add\n      0x20\n      dup1\n      swap2\n      div\n      mul\n      0x20\n      add\n      mload(0x40)\n      swap1\n      dup2\n      add\n      0x40\n      mstore\n      dup1\n      swap4\n      swap3\n      swap2\n      swap1\n      dup2\n      dup2\n      mstore\n      0x20\n      add\n      dup4\n      dup4\n      dup1\n      dup3\n      dup5\n      calldatacopy\n      0x00\n      dup2\n      dup5\n      add\n      mstore\n      not(0x1f)\n      0x1f\n      dup3\n      add\n      and\n      swap1\n      pop\n      dup1\n      dup4\n      add\n      swap3\n      pop\n      pop\n      pop\n      pop\n      pop\n      pop\n      pop\n      dup2\n      mstore\n      0x20\n      add\n        /* \"contracts/artifacts/Portfolio.sol\":1781:1792  _githubLink */\n      dup5\n      dup5\n        /* \"contracts/artifacts/Portfolio.sol\":1733:1793  Project(_projectCount,_name,_description,_image,_githubLink) */\n      dup1\n      dup1\n      0x1f\n      add\n      0x20\n      dup1\n      swap2\n      div\n      mul\n      0x20\n      add\n      mload(0x40)\n      swap1\n      dup2\n      add\n      0x40\n      mstore\n      dup1\n      swap4\n      swap3\n      swap2\n      swap1\n      dup2\n      dup2\n      mstore\n      0x20\n      add\n      dup4\n      dup4\n      dup1\n      dup3\n      dup5\n      calldatacopy\n      0x00\n      dup2\n      dup5\n      add\n      mstore\n      not(0x1f)\n      0x1f\n      dup3\n      add\n      and\n      swap1\n      pop\n      dup1\n      dup4\n      add\n      swap3\n      pop\n      pop\n      pop\n      pop\n      pop\n      pop\n      pop\n      dup2\n      mstore\n      pop\n        /* \"contracts/artifacts/Portfolio.sol\":1707:1715  projects */\n      0x00\n        /* \"contracts/artifacts/Portfolio.sol\":1716:1729  _projectCount */\n      dup3\n        /* \"contracts/artifacts/Portfolio.sol\":1707:1730  projects[_projectCount] */\n      0x03\n      dup2\n      lt\n      tag_216\n      jumpi\n      tag_217\n      tag_180\n      jump\t// in\n    tag_217:\n    tag_216:\n      0x05\n      mul\n      add\n        /* \"contracts/artifacts/Portfolio.sol\":1707:1793  projects[_projectCount] = Project(_projectCount,_name,_description,_image,_githubLink) */\n      0x00\n      dup3\n      add\n      mload\n      dup2\n      0x00\n      add\n      sstore\n      0x20\n      dup3\n      add\n      mload\n      dup2\n      0x01\n      add\n      swap1\n      dup2\n      tag_219\n      swap2\n      swap1\n      tag_183\n      jump\t// in\n    tag_219:\n      pop\n      0x40\n      dup3\n      add\n      mload\n      dup2\n      0x02\n      add\n      swap1\n      dup2\n      tag_220\n      swap2\n      swap1\n      tag_183\n      jump\t// in\n    tag_220:\n      pop\n      0x60\n      dup3\n      add\n      mload\n      dup2\n      0x03\n      add\n      swap1\n      dup2\n      tag_221\n      swap2\n      swap1\n      tag_183\n      jump\t// in\n    tag_221:\n      pop\n      0x80\n      dup3\n      add\n      mload\n      dup2\n      0x04\n      add\n      swap1\n      dup2\n      tag_222\n      swap2\n      swap1\n      tag_183\n      jump\t// in\n    tag_222:\n      pop\n      swap1\n      pop\n      pop\n        /* \"contracts/artifacts/Portfolio.sol\":1451:1801  function changeProject(string calldata _name, string calldata _description, string calldata _image, string calldata _githubLink, uint _projectCount) external onlyAuthority {... */\n      pop\n      pop\n      pop\n      pop\n      pop\n      pop\n      pop\n      pop\n      pop\n      jump\t// out\n        /* \"contracts/artifacts/Portfolio.sol\":564:665  string public description=\"over 1 months of practical experience with a good knowledge in blockchain\" */\n    tag_63:\n      0x20\n      dup1\n      sload\n      tag_223\n      swap1\n      tag_91\n      jump\t// in\n    tag_223:\n      dup1\n      0x1f\n      add\n      0x20\n      dup1\n      swap2\n      div\n      mul\n      0x20\n      add\n      mload(0x40)\n      swap1\n      dup2\n      add\n      0x40\n      mstore\n      dup1\n      swap3\n      swap2\n      swap1\n      dup2\n      dup2\n      mstore\n      0x20\n      add\n      dup3\n      dup1\n      sload\n      tag_224\n      swap1\n      tag_91\n      jump\t// in\n    tag_224:\n      dup1\n      iszero\n      tag_225\n      jumpi\n      dup1\n      0x1f\n      lt\n      tag_226\n      jumpi\n      0x0100\n      dup1\n      dup4\n      sload\n      div\n      mul\n      dup4\n      mstore\n      swap2\n      0x20\n      add\n      swap2\n      jump(tag_225)\n    tag_226:\n      dup3\n      add\n      swap2\n      swap1\n      0x00\n      mstore\n      keccak256(0x00, 0x20)\n      swap1\n    tag_227:\n      dup2\n      sload\n      dup2\n      mstore\n      swap1\n      0x01\n      add\n      swap1\n      0x20\n      add\n      dup1\n      dup4\n      gt\n      tag_227\n      jumpi\n      dup3\n      swap1\n      sub\n      0x1f\n      and\n      dup3\n      add\n      swap2\n    tag_225:\n      pop\n      pop\n      pop\n      pop\n      pop\n      dup2\n      jump\t// out\n        /* \"contracts/artifacts/Portfolio.sol\":413:449  Education[3] public educationDetails */\n    tag_68:\n      0x0f\n      dup2\n      0x03\n      dup2\n      lt\n      tag_228\n      jumpi\n      0x00\n      dup1\n      revert\n    tag_228:\n      0x05\n      mul\n      add\n      0x00\n      swap2\n      pop\n      swap1\n      pop\n      dup1\n      0x00\n      add\n      sload\n      swap1\n      dup1\n      0x01\n      add\n      dup1\n      sload\n      tag_230\n      swap1\n      tag_91\n      jump\t// in\n    tag_230:\n      dup1\n      0x1f\n      add\n      0x20\n      dup1\n      swap2\n      div\n      mul\n      0x20\n      add\n      mload(0x40)\n      swap1\n      dup2\n      add\n      0x40\n      mstore\n      dup1\n      swap3\n      swap2\n      swap1\n      dup2\n      dup2\n      mstore\n      0x20\n      add\n      dup3\n      dup1\n      sload\n      tag_231\n      swap1\n      tag_91\n      jump\t// in\n    tag_231:\n      dup1\n      iszero\n      tag_232\n      jumpi\n      dup1\n      0x1f\n      lt\n      tag_233\n      jumpi\n      0x0100\n      dup1\n      dup4\n      sload\n      div\n      mul\n      dup4\n      mstore\n      swap2\n      0x20\n      add\n      swap2\n      jump(tag_232)\n    tag_233:\n      dup3\n      add\n      swap2\n      swap1\n      0x00\n      mstore\n      keccak256(0x00, 0x20)\n      swap1\n    tag_234:\n      dup2\n      sload\n      dup2\n      mstore\n      swap1\n      0x01\n      add\n      swap1\n      0x20\n      add\n      dup1\n      dup4\n      gt\n      tag_234\n      jumpi\n      dup3\n      swap1\n      sub\n      0x1f\n      and\n      dup3\n      add\n      swap2\n    tag_232:\n      pop\n      pop\n      pop\n      pop\n      pop\n      swap1\n      dup1\n      0x02\n      add\n      dup1\n      sload\n      tag_235\n      swap1\n      tag_91\n      jump\t// in\n    tag_235:\n      dup1\n      0x1f\n      add\n      0x20\n      dup1\n      swap2\n      div\n      mul\n      0x20\n      add\n      mload(0x40)\n      swap1\n      dup2\n      add\n      0x40\n      mstore\n      dup1\n      swap3\n      swap2\n      swap1\n      dup2\n      dup2\n      mstore\n      0x20\n      add\n      dup3\n      dup1\n      sload\n      tag_236\n      swap1\n      tag_91\n      jump\t// in\n    tag_236:\n      dup1\n      iszero\n      tag_237\n      jumpi\n      dup1\n      0x1f\n      lt\n      tag_238\n      jumpi\n      0x0100\n      dup1\n      dup4\n      sload\n      div\n      mul\n      dup4\n      mstore\n      swap2\n      0x20\n      add\n      swap2\n      jump(tag_237)\n    tag_238:\n      dup3\n      add\n      swap2\n      swap1\n      0x00\n      mstore\n      keccak256(0x00, 0x20)\n      swap1\n    tag_239:\n      dup2\n      sload\n      dup2\n      mstore\n      swap1\n      0x01\n      add\n      swap1\n      0x20\n      add\n      dup1\n      dup4\n      gt\n      tag_239\n      jumpi\n      dup3\n      swap1\n      sub\n      0x1f\n      and\n      dup3\n      add\n      swap2\n    tag_237:\n      pop\n      pop\n      pop\n      pop\n      pop\n      swap1\n      dup1\n      0x03\n      add\n      dup1\n      sload\n      tag_240\n      swap1\n      tag_91\n      jump\t// in\n    tag_240:\n      dup1\n      0x1f\n      add\n      0x20\n      dup1\n      swap2\n      div\n      mul\n      0x20\n      add\n      mload(0x40)\n      swap1\n      dup2\n      add\n      0x40\n      mstore\n      dup1\n      swap3\n      swap2\n      swap1\n      dup2\n      dup2\n      mstore\n      0x20\n      add\n      dup3\n      dup1\n      sload\n      tag_241\n      swap1\n      tag_91\n      jump\t// in\n    tag_241:\n      dup1\n      iszero\n      tag_242\n      jumpi\n      dup1\n      0x1f\n      lt\n      tag_243\n      jumpi\n      0x0100\n      dup1\n      dup4\n      sload\n      div\n      mul\n      dup4\n      mstore\n      swap2\n      0x20\n      add\n      swap2\n      jump(tag_242)\n    tag_243:\n      dup3\n      add\n      swap2\n      swap1\n      0x00\n      mstore\n      keccak256(0x00, 0x20)\n      swap1\n    tag_244:\n      dup2\n      sload\n      dup2\n      mstore\n      swap1\n      0x01\n      add\n      swap1\n      0x20\n      add\n      dup1\n      dup4\n      gt\n      tag_244\n      jumpi\n      dup3\n      swap1\n      sub\n      0x1f\n      and\n      dup3\n      add\n      swap2\n    tag_242:\n      pop\n      pop\n      pop\n      pop\n      pop\n      swap1\n      dup1\n      0x04\n      add\n      dup1\n      sload\n      tag_245\n      swap1\n      tag_91\n      jump\t// in\n    tag_245:\n      dup1\n      0x1f\n      add\n      0x20\n      dup1\n      swap2\n      div\n      mul\n      0x20\n      add\n      mload(0x40)\n      swap1\n      dup2\n      add\n      0x40\n      mstore\n      dup1\n      swap3\n      swap2\n      swap1\n      dup2\n      dup2\n      mstore\n      0x20\n      add\n      dup3\n      dup1\n      sload\n      tag_246\n      swap1\n      tag_91\n      jump\t// in\n    tag_246:\n      dup1\n      iszero\n      tag_247\n      jumpi\n      dup1\n      0x1f\n      lt\n      tag_248\n      jumpi\n      0x0100\n      dup1\n      dup4\n      sload\n      div\n      mul\n      dup4\n      mstore\n      swap2\n      0x20\n      add\n      swap2\n      jump(tag_247)\n    tag_248:\n      dup3\n      add\n      swap2\n      swap1\n      0x00\n      mstore\n      keccak256(0x00, 0x20)\n      swap1\n    tag_249:\n      dup2\n      sload\n      dup2\n      mstore\n      swap1\n      0x01\n      add\n      swap1\n      0x20\n      add\n      dup1\n      dup4\n      gt\n      tag_249\n      jumpi\n      dup3\n      swap1\n      sub\n      0x1f\n      and\n      dup3\n      add\n      swap2\n    tag_247:\n      pop\n      pop\n      pop\n      pop\n      pop\n      swap1\n      pop\n      dup6\n      jump\t// out\n        /* \"contracts/artifacts/Portfolio.sol\":1909:2283  function insertEducation(string calldata _date, string calldata _degree, string calldata _knowledgeAcquired, string calldata _instutionName) external onlyAuthority{... */\n    tag_73:\n        /* \"contracts/artifacts/Portfolio.sol\":1025:1035  msg.sender */\n      caller\n        /* \"contracts/artifacts/Portfolio.sol\":1005:1035  portfolioAuthority==msg.sender */\n      0xffffffffffffffffffffffffffffffffffffffff\n      and\n        /* \"contracts/artifacts/Portfolio.sol\":1005:1023  portfolioAuthority */\n      0x1e\n      0x00\n      swap1\n      sload\n      swap1\n      0x0100\n      exp\n      swap1\n      div\n      0xffffffffffffffffffffffffffffffffffffffff\n      and\n        /* \"contracts/artifacts/Portfolio.sol\":1005:1035  portfolioAuthority==msg.sender */\n      0xffffffffffffffffffffffffffffffffffffffff\n      and\n      eq\n        /* \"contracts/artifacts/Portfolio.sol\":997:1086  require(portfolioAuthority==msg.sender,\"You do not have an authority over this contract\") */\n      tag_251\n      jumpi\n      mload(0x40)\n      0x08c379a000000000000000000000000000000000000000000000000000000000\n      dup2\n      mstore\n      0x04\n      add\n      tag_252\n      swap1\n      tag_166\n      jump\t// in\n    tag_252:\n      mload(0x40)\n      dup1\n      swap2\n      sub\n      swap1\n      revert\n    tag_251:\n        /* \"contracts/artifacts/Portfolio.sol\":2102:2103  3 */\n      0x03\n        /* \"contracts/artifacts/Portfolio.sol\":2087:2101  educationCount */\n      sload(0x23)\n        /* \"contracts/artifacts/Portfolio.sol\":2087:2103  educationCount<3 */\n      lt\n        /* \"contracts/artifacts/Portfolio.sol\":2079:2139  require(educationCount<3,\"Only 3 education details allowed\") */\n      tag_254\n      jumpi\n      mload(0x40)\n      0x08c379a000000000000000000000000000000000000000000000000000000000\n      dup2\n      mstore\n      0x04\n      add\n      tag_255\n      swap1\n      tag_256\n      jump\t// in\n    tag_255:\n      mload(0x40)\n      dup1\n      swap2\n      sub\n      swap1\n      revert\n    tag_254:\n        /* \"contracts/artifacts/Portfolio.sol\":2180:2253  Education(educationCount,_date,_degree,_knowledgeAcquired,_instutionName) */\n      mload(0x40)\n      dup1\n      0xa0\n      add\n      0x40\n      mstore\n      dup1\n        /* \"contracts/artifacts/Portfolio.sol\":2190:2204  educationCount */\n      sload(0x23)\n        /* \"contracts/artifacts/Portfolio.sol\":2180:2253  Education(educationCount,_date,_degree,_knowledgeAcquired,_instutionName) */\n      dup2\n      mstore\n      0x20\n      add\n        /* \"contracts/artifacts/Portfolio.sol\":2205:2210  _date */\n      dup10\n      dup10\n        /* \"contracts/artifacts/Portfolio.sol\":2180:2253  Education(educationCount,_date,_degree,_knowledgeAcquired,_instutionName) */\n      dup1\n      dup1\n      0x1f\n      add\n      0x20\n      dup1\n      swap2\n      div\n      mul\n      0x20\n      add\n      mload(0x40)\n      swap1\n      dup2\n      add\n      0x40\n      mstore\n      dup1\n      swap4\n      swap3\n      swap2\n      swap1\n      dup2\n      dup2\n      mstore\n      0x20\n      add\n      dup4\n      dup4\n      dup1\n      dup3\n      dup5\n      calldatacopy\n      0x00\n      dup2\n      dup5\n      add\n      mstore\n      not(0x1f)\n      0x1f\n      dup3\n      add\n      and\n      swap1\n      pop\n      dup1\n      dup4\n      add\n      swap3\n      pop\n      pop\n      pop\n      pop\n      pop\n      pop\n      pop\n      dup2\n      mstore\n      0x20\n      add\n        /* \"contracts/artifacts/Portfolio.sol\":2211:2218  _degree */\n      dup8\n      dup8\n        /* \"contracts/artifacts/Portfolio.sol\":2180:2253  Education(educationCount,_date,_degree,_knowledgeAcquired,_instutionName) */\n      dup1\n      dup1\n      0x1f\n      add\n      0x20\n      dup1\n      swap2\n      div\n      mul\n      0x20\n      add\n      mload(0x40)\n      swap1\n      dup2\n      add\n      0x40\n      mstore\n      dup1\n      swap4\n      swap3\n      swap2\n      swap1\n      dup2\n      dup2\n      mstore\n      0x20\n      add\n      dup4\n      dup4\n      dup1\n      dup3\n      dup5\n      calldatacopy\n      0x00\n      dup2\n      dup5\n      add\n      mstore\n      not(0x1f)\n      0x1f\n      dup3\n      add\n      and\n      swap1\n      pop\n      dup1\n      dup4\n      add\n      swap3\n      pop\n      pop\n      pop\n      pop\n      pop\n      pop\n      pop\n      dup2\n      mstore\n      0x20\n      add\n        /* \"contracts/artifacts/Portfolio.sol\":2219:2237  _knowledgeAcquired */\n      dup6\n      dup6\n        /* \"contracts/artifacts/Portfolio.sol\":2180:2253  Education(educationCount,_date,_degree,_knowledgeAcquired,_instutionName) */\n      dup1\n      dup1\n      0x1f\n      add\n      0x20\n      dup1\n      swap2\n      div\n      mul\n      0x20\n      add\n      mload(0x40)\n      swap1\n      dup2\n      add\n      0x40\n      mstore\n      dup1\n      swap4\n      swap3\n      swap2\n      swap1\n      dup2\n      dup2\n      mstore\n      0x20\n      add\n      dup4\n      dup4\n      dup1\n      dup3\n      dup5\n      calldatacopy\n      0x00\n      dup2\n      dup5\n      add\n      mstore\n      not(0x1f)\n      0x1f\n      dup3\n      add\n      and\n      swap1\n      pop\n      dup1\n      dup4\n      add\n      swap3\n      pop\n      pop\n      pop\n      pop\n      pop\n      pop\n      pop\n      dup2\n      mstore\n      0x20\n      add\n        /* \"contracts/artifacts/Portfolio.sol\":2238:2252  _instutionName */\n      dup4\n      dup4\n        /* \"contracts/artifacts/Portfolio.sol\":2180:2253  Education(educationCount,_date,_degree,_knowledgeAcquired,_instutionName) */\n      dup1\n      dup1\n      0x1f\n      add\n      0x20\n      dup1\n      swap2\n      div\n      mul\n      0x20\n      add\n      mload(0x40)\n      swap1\n      dup2\n      add\n      0x40\n      mstore\n      dup1\n      swap4\n      swap3\n      swap2\n      swap1\n      dup2\n      dup2\n      mstore\n      0x20\n      add\n      dup4\n      dup4\n      dup1\n      dup3\n      dup5\n      calldatacopy\n      0x00\n      dup2\n      dup5\n      add\n      mstore\n      not(0x1f)\n      0x1f\n      dup3\n      add\n      and\n      swap1\n      pop\n      dup1\n      dup4\n      add\n      swap3\n      pop\n      pop\n      pop\n      pop\n      pop\n      pop\n      pop\n      dup2\n      mstore\n      pop\n        /* \"contracts/artifacts/Portfolio.sol\":2147:2163  educationDetails */\n      0x0f\n        /* \"contracts/artifacts/Portfolio.sol\":2164:2178  educationCount */\n      sload(0x23)\n        /* \"contracts/artifacts/Portfolio.sol\":2147:2179  educationDetails[educationCount] */\n      0x03\n      dup2\n      lt\n      tag_257\n      jumpi\n      tag_258\n      tag_180\n      jump\t// in\n    tag_258:\n    tag_257:\n      0x05\n      mul\n      add\n        /* \"contracts/artifacts/Portfolio.sol\":2147:2253  educationDetails[educationCount]=Education(educationCount,_date,_degree,_knowledgeAcquired,_instutionName) */\n      0x00\n      dup3\n      add\n      mload\n      dup2\n      0x00\n      add\n      sstore\n      0x20\n      dup3\n      add\n      mload\n      dup2\n      0x01\n      add\n      swap1\n      dup2\n      tag_260\n      swap2\n      swap1\n      tag_183\n      jump\t// in\n    tag_260:\n      pop\n      0x40\n      dup3\n      add\n      mload\n      dup2\n      0x02\n      add\n      swap1\n      dup2\n      tag_261\n      swap2\n      swap1\n      tag_183\n      jump\t// in\n    tag_261:\n      pop\n      0x60\n      dup3\n      add\n      mload\n      dup2\n      0x03\n      add\n      swap1\n      dup2\n      tag_262\n      swap2\n      swap1\n      tag_183\n      jump\t// in\n    tag_262:\n      pop\n      0x80\n      dup3\n      add\n      mload\n      dup2\n      0x04\n      add\n      swap1\n      dup2\n      tag_263\n      swap2\n      swap1\n      tag_183\n      jump\t// in\n    tag_263:\n      pop\n      swap1\n      pop\n      pop\n        /* \"contracts/artifacts/Portfolio.sol\":2261:2275  educationCount */\n      0x23\n      0x00\n        /* \"contracts/artifacts/Portfolio.sol\":2261:2277  educationCount++ */\n      dup2\n      sload\n      dup1\n      swap3\n      swap2\n      swap1\n      tag_264\n      swap1\n      tag_207\n      jump\t// in\n    tag_264:\n      swap2\n      swap1\n      pop\n      sstore\n      pop\n        /* \"contracts/artifacts/Portfolio.sol\":1909:2283  function insertEducation(string calldata _date, string calldata _degree, string calldata _knowledgeAcquired, string calldata _instutionName) external onlyAuthority{... */\n      pop\n      pop\n      pop\n      pop\n      pop\n      pop\n      pop\n      pop\n      jump\t// out\n        /* \"contracts/artifacts/Portfolio.sol\":487:559  string public imageLink=\"QmNVn57VNAzG1GURePB8TFJCb6p2L5Jzs69musbpU3tNXU\" */\n    tag_76:\n      0x1f\n      dup1\n      sload\n      tag_265\n      swap1\n      tag_91\n      jump\t// in\n    tag_265:\n      dup1\n      0x1f\n      add\n      0x20\n      dup1\n      swap2\n      div\n      mul\n      0x20\n      add\n      mload(0x40)\n      swap1\n      dup2\n      add\n      0x40\n      mstore\n      dup1\n      swap3\n      swap2\n      swap1\n      dup2\n      dup2\n      mstore\n      0x20\n      add\n      dup3\n      dup1\n      sload\n      tag_266\n      swap1\n      tag_91\n      jump\t// in\n    tag_266:\n      dup1\n      iszero\n      tag_267\n      jumpi\n      dup1\n      0x1f\n      lt\n      tag_268\n      jumpi\n      0x0100\n      dup1\n      dup4\n      sload\n      div\n      mul\n      dup4\n      mstore\n      swap2\n      0x20\n      add\n      swap2\n      jump(tag_267)\n    tag_268:\n      dup3\n      add\n      swap2\n      swap1\n      0x00\n      mstore\n      keccak256(0x00, 0x20)\n      swap1\n    tag_269:\n      dup2\n      sload\n      dup2\n      mstore\n      swap1\n      0x01\n      add\n      swap1\n      0x20\n      add\n      dup1\n      dup4\n      gt\n      tag_269\n      jumpi\n      dup3\n      swap1\n      sub\n      0x1f\n      and\n      dup3\n      add\n      swap2\n    tag_267:\n      pop\n      pop\n      pop\n      pop\n      pop\n      dup2\n      jump\t// out\n        /* \"contracts/artifacts/Portfolio.sol\":2943:3052  function changeResumeLink(string calldata _resumeLink) external onlyAuthority{... */\n    tag_81:\n        /* \"contracts/artifacts/Portfolio.sol\":1025:1035  msg.sender */\n      caller\n        /* \"contracts/artifacts/Portfolio.sol\":1005:1035  portfolioAuthority==msg.sender */\n      0xffffffffffffffffffffffffffffffffffffffff\n      and\n        /* \"contracts/artifacts/Portfolio.sol\":1005:1023  portfolioAuthority */\n      0x1e\n      0x00\n      swap1\n      sload\n      swap1\n      0x0100\n      exp\n      swap1\n      div\n      0xffffffffffffffffffffffffffffffffffffffff\n      and\n        /* \"contracts/artifacts/Portfolio.sol\":1005:1035  portfolioAuthority==msg.sender */\n      0xffffffffffffffffffffffffffffffffffffffff\n      and\n      eq\n        /* \"contracts/artifacts/Portfolio.sol\":997:1086  require(portfolioAuthority==msg.sender,\"You do not have an authority over this contract\") */\n      tag_271\n      jumpi\n      mload(0x40)\n      0x08c379a000000000000000000000000000000000000000000000000000000000\n      dup2\n      mstore\n      0x04\n      add\n      tag_272\n      swap1\n      tag_166\n      jump\t// in\n    tag_272:\n      mload(0x40)\n      dup1\n      swap2\n      sub\n      swap1\n      revert\n    tag_271:\n        /* \"contracts/artifacts/Portfolio.sol\":3035:3046  _resumeLink */\n      dup2\n      dup2\n        /* \"contracts/artifacts/Portfolio.sol\":3024:3034  resumeLink */\n      0x21\n        /* \"contracts/artifacts/Portfolio.sol\":3024:3046  resumeLink=_resumeLink */\n      swap2\n      dup3\n      tag_274\n      swap3\n      swap2\n      swap1\n      tag_169\n      jump\t// in\n    tag_274:\n      pop\n        /* \"contracts/artifacts/Portfolio.sol\":2943:3052  function changeResumeLink(string calldata _resumeLink) external onlyAuthority{... */\n      pop\n      pop\n      jump\t// out\n        /* \"contracts/artifacts/Portfolio.sol\":2825:2937  function changeDescription(string calldata _description) external onlyAuthority{... */\n    tag_85:\n        /* \"contracts/artifacts/Portfolio.sol\":1025:1035  msg.sender */\n      caller\n        /* \"contracts/artifacts/Portfolio.sol\":1005:1035  portfolioAuthority==msg.sender */\n      0xffffffffffffffffffffffffffffffffffffffff\n      and\n        /* \"contracts/artifacts/Portfolio.sol\":1005:1023  portfolioAuthority */\n      0x1e\n      0x00\n      swap1\n      sload\n      swap1\n      0x0100\n      exp\n      swap1\n      div\n      0xffffffffffffffffffffffffffffffffffffffff\n      and\n        /* \"contracts/artifacts/Portfolio.sol\":1005:1035  portfolioAuthority==msg.sender */\n      0xffffffffffffffffffffffffffffffffffffffff\n      and\n      eq\n        /* \"contracts/artifacts/Portfolio.sol\":997:1086  require(portfolioAuthority==msg.sender,\"You do not have an authority over this contract\") */\n      tag_276\n      jumpi\n      mload(0x40)\n      0x08c379a000000000000000000000000000000000000000000000000000000000\n      dup2\n      mstore\n      0x04\n      add\n      tag_277\n      swap1\n      tag_166\n      jump\t// in\n    tag_277:\n      mload(0x40)\n      dup1\n      swap2\n      sub\n      swap1\n      revert\n    tag_276:\n        /* \"contracts/artifacts/Portfolio.sol\":2919:2931  _description */\n      dup2\n      dup2\n        /* \"contracts/artifacts/Portfolio.sol\":2907:2918  description */\n      0x20\n        /* \"contracts/artifacts/Portfolio.sol\":2907:2931  description=_description */\n      swap2\n      dup3\n      tag_279\n      swap3\n      swap2\n      swap1\n      tag_169\n      jump\t// in\n    tag_279:\n      pop\n        /* \"contracts/artifacts/Portfolio.sol\":2825:2937  function changeDescription(string calldata _description) external onlyAuthority{... */\n      pop\n      pop\n      jump\t// out\n        /* \"contracts/artifacts/Portfolio.sol\":3170:3259  function donate() public payable {... */\n    tag_87:\n        /* \"contracts/artifacts/Portfolio.sol\":3214:3232  portfolioAuthority */\n      0x1e\n      0x00\n      swap1\n      sload\n      swap1\n      0x0100\n      exp\n      swap1\n      div\n      0xffffffffffffffffffffffffffffffffffffffff\n      and\n        /* \"contracts/artifacts/Portfolio.sol\":3206:3242  payable(portfolioAuthority).transfer */\n      0xffffffffffffffffffffffffffffffffffffffff\n      and\n        /* \"contracts/artifacts/Portfolio.sol\":3206:3253  payable(portfolioAuthority).transfer(msg.value) */\n      0x08fc\n        /* \"contracts/artifacts/Portfolio.sol\":3243:3252  msg.value */\n      callvalue\n        /* \"contracts/artifacts/Portfolio.sol\":3206:3253  payable(portfolioAuthority).transfer(msg.value) */\n      swap1\n      dup2\n      iszero\n      mul\n      swap1\n      mload(0x40)\n      0x00\n      mload(0x40)\n      dup1\n      dup4\n      sub\n      dup2\n      dup6\n      dup9\n      dup9\n      call\n      swap4\n      pop\n      pop\n      pop\n      pop\n      iszero\n      dup1\n      iszero\n      tag_282\n      jumpi\n      returndatasize\n      0x00\n      dup1\n      returndatacopy\n      revert(0x00, returndatasize)\n    tag_282:\n      pop\n        /* \"contracts/artifacts/Portfolio.sol\":3170:3259  function donate() public payable {... */\n      jump\t// out\n    tag_112:\n      mload(0x40)\n      dup1\n      0x60\n      add\n      0x40\n      mstore\n      dup1\n      0x03\n      swap1\n    tag_283:\n      tag_284\n      tag_285\n      jump\t// in\n    tag_284:\n      dup2\n      mstore\n      0x20\n      add\n      swap1\n      0x01\n      swap1\n      sub\n      swap1\n      dup2\n      tag_283\n      jumpi\n      swap1\n      pop\n      pop\n      swap1\n      jump\t// out\n    tag_138:\n      mload(0x40)\n      dup1\n      0x60\n      add\n      0x40\n      mstore\n      dup1\n      0x03\n      swap1\n    tag_286:\n      tag_287\n      tag_288\n      jump\t// in\n    tag_287:\n      dup2\n      mstore\n      0x20\n      add\n      swap1\n      0x01\n      swap1\n      sub\n      swap1\n      dup2\n      tag_286\n      jumpi\n      swap1\n      pop\n      pop\n      swap1\n      jump\t// out\n    tag_285:\n      mload(0x40)\n      dup1\n      0xa0\n      add\n      0x40\n      mstore\n      dup1\n      0x00\n      dup2\n      mstore\n      0x20\n      add\n      0x60\n      dup2\n      mstore\n      0x20\n      add\n      0x60\n      dup2\n      mstore\n      0x20\n      add\n      0x60\n      dup2\n      mstore\n      0x20\n      add\n      0x60\n      dup2\n      mstore\n      pop\n      swap1\n      jump\t// out\n    tag_288:\n      mload(0x40)\n      dup1\n      0xa0\n      add\n      0x40\n      mstore\n      dup1\n      0x00\n      dup2\n      mstore\n      0x20\n      add\n      0x60\n      dup2\n      mstore\n      0x20\n      add\n      0x60\n      dup2\n      mstore\n      0x20\n      add\n      0x60\n      dup2\n      mstore\n      0x20\n      add\n      0x60\n      dup2\n      mstore\n      pop\n      swap1\n      jump\t// out\n        /* \"#utility.yul\":88:205   */\n    tag_290:\n        /* \"#utility.yul\":197:198   */\n      0x00\n        /* \"#utility.yul\":194:195   */\n      dup1\n        /* \"#utility.yul\":187:199   */\n      revert\n        /* \"#utility.yul\":211:328   */\n    tag_291:\n        /* \"#utility.yul\":320:321   */\n      0x00\n        /* \"#utility.yul\":317:318   */\n      dup1\n        /* \"#utility.yul\":310:322   */\n      revert\n        /* \"#utility.yul\":334:411   */\n    tag_292:\n        /* \"#utility.yul\":371:378   */\n      0x00\n        /* \"#utility.yul\":400:405   */\n      dup2\n        /* \"#utility.yul\":389:405   */\n      swap1\n      pop\n        /* \"#utility.yul\":334:411   */\n      swap2\n      swap1\n      pop\n      jump\t// out\n        /* \"#utility.yul\":417:539   */\n    tag_293:\n        /* \"#utility.yul\":490:514   */\n      tag_357\n        /* \"#utility.yul\":508:513   */\n      dup2\n        /* \"#utility.yul\":490:514   */\n      tag_292\n      jump\t// in\n    tag_357:\n        /* \"#utility.yul\":483:488   */\n      dup2\n        /* \"#utility.yul\":480:515   */\n      eq\n        /* \"#utility.yul\":470:533   */\n      tag_358\n      jumpi\n        /* \"#utility.yul\":529:530   */\n      0x00\n        /* \"#utility.yul\":526:527   */\n      dup1\n        /* \"#utility.yul\":519:531   */\n      revert\n        /* \"#utility.yul\":470:533   */\n    tag_358:\n        /* \"#utility.yul\":417:539   */\n      pop\n      jump\t// out\n        /* \"#utility.yul\":545:684   */\n    tag_294:\n        /* \"#utility.yul\":591:596   */\n      0x00\n        /* \"#utility.yul\":629:635   */\n      dup2\n        /* \"#utility.yul\":616:636   */\n      calldataload\n        /* \"#utility.yul\":607:636   */\n      swap1\n      pop\n        /* \"#utility.yul\":645:678   */\n      tag_360\n        /* \"#utility.yul\":672:677   */\n      dup2\n        /* \"#utility.yul\":645:678   */\n      tag_293\n      jump\t// in\n    tag_360:\n        /* \"#utility.yul\":545:684   */\n      swap3\n      swap2\n      pop\n      pop\n      jump\t// out\n        /* \"#utility.yul\":690:1019   */\n    tag_23:\n        /* \"#utility.yul\":749:755   */\n      0x00\n        /* \"#utility.yul\":798:800   */\n      0x20\n        /* \"#utility.yul\":786:795   */\n      dup3\n        /* \"#utility.yul\":777:784   */\n      dup5\n        /* \"#utility.yul\":773:796   */\n      sub\n        /* \"#utility.yul\":769:801   */\n      slt\n        /* \"#utility.yul\":766:885   */\n      iszero\n      tag_362\n      jumpi\n        /* \"#utility.yul\":804:883   */\n      tag_363\n      tag_290\n      jump\t// in\n    tag_363:\n        /* \"#utility.yul\":766:885   */\n    tag_362:\n        /* \"#utility.yul\":924:925   */\n      0x00\n        /* \"#utility.yul\":949:1002   */\n      tag_364\n        /* \"#utility.yul\":994:1001   */\n      dup5\n        /* \"#utility.yul\":985:991   */\n      dup3\n        /* \"#utility.yul\":974:983   */\n      dup6\n        /* \"#utility.yul\":970:992   */\n      add\n        /* \"#utility.yul\":949:1002   */\n      tag_294\n      jump\t// in\n    tag_364:\n        /* \"#utility.yul\":939:1002   */\n      swap2\n      pop\n        /* \"#utility.yul\":895:1012   */\n      pop\n        /* \"#utility.yul\":690:1019   */\n      swap3\n      swap2\n      pop\n      pop\n      jump\t// out\n        /* \"#utility.yul\":1025:1143   */\n    tag_295:\n        /* \"#utility.yul\":1112:1136   */\n      tag_366\n        /* \"#utility.yul\":1130:1135   */\n      dup2\n        /* \"#utility.yul\":1112:1136   */\n      tag_292\n      jump\t// in\n    tag_366:\n        /* \"#utility.yul\":1107:1110   */\n      dup3\n        /* \"#utility.yul\":1100:1137   */\n      mstore\n        /* \"#utility.yul\":1025:1143   */\n      pop\n      pop\n      jump\t// out\n        /* \"#utility.yul\":1149:1248   */\n    tag_296:\n        /* \"#utility.yul\":1201:1207   */\n      0x00\n        /* \"#utility.yul\":1235:1240   */\n      dup2\n        /* \"#utility.yul\":1229:1241   */\n      mload\n        /* \"#utility.yul\":1219:1241   */\n      swap1\n      pop\n        /* \"#utility.yul\":1149:1248   */\n      swap2\n      swap1\n      pop\n      jump\t// out\n        /* \"#utility.yul\":1254:1423   */\n    tag_297:\n        /* \"#utility.yul\":1338:1349   */\n      0x00\n        /* \"#utility.yul\":1372:1378   */\n      dup3\n        /* \"#utility.yul\":1367:1370   */\n      dup3\n        /* \"#utility.yul\":1360:1379   */\n      mstore\n        /* \"#utility.yul\":1412:1416   */\n      0x20\n        /* \"#utility.yul\":1407:1410   */\n      dup3\n        /* \"#utility.yul\":1403:1417   */\n      add\n        /* \"#utility.yul\":1388:1417   */\n      swap1\n      pop\n        /* \"#utility.yul\":1254:1423   */\n      swap3\n      swap2\n      pop\n      pop\n      jump\t// out\n        /* \"#utility.yul\":1429:1568   */\n    tag_298:\n        /* \"#utility.yul\":1518:1524   */\n      dup3\n        /* \"#utility.yul\":1513:1516   */\n      dup2\n        /* \"#utility.yul\":1508:1511   */\n      dup4\n        /* \"#utility.yul\":1502:1525   */\n      mcopy\n        /* \"#utility.yul\":1559:1560   */\n      0x00\n        /* \"#utility.yul\":1550:1556   */\n      dup4\n        /* \"#utility.yul\":1545:1548   */\n      dup4\n        /* \"#utility.yul\":1541:1557   */\n      add\n        /* \"#utility.yul\":1534:1561   */\n      mstore\n        /* \"#utility.yul\":1429:1568   */\n      pop\n      pop\n      pop\n      jump\t// out\n        /* \"#utility.yul\":1574:1676   */\n    tag_299:\n        /* \"#utility.yul\":1615:1621   */\n      0x00\n        /* \"#utility.yul\":1666:1668   */\n      0x1f\n        /* \"#utility.yul\":1662:1669   */\n      not\n        /* \"#utility.yul\":1657:1659   */\n      0x1f\n        /* \"#utility.yul\":1650:1655   */\n      dup4\n        /* \"#utility.yul\":1646:1660   */\n      add\n        /* \"#utility.yul\":1642:1670   */\n      and\n        /* \"#utility.yul\":1632:1670   */\n      swap1\n      pop\n        /* \"#utility.yul\":1574:1676   */\n      swap2\n      swap1\n      pop\n      jump\t// out\n        /* \"#utility.yul\":1682:2059   */\n    tag_300:\n        /* \"#utility.yul\":1770:1773   */\n      0x00\n        /* \"#utility.yul\":1798:1837   */\n      tag_372\n        /* \"#utility.yul\":1831:1836   */\n      dup3\n        /* \"#utility.yul\":1798:1837   */\n      tag_296\n      jump\t// in\n    tag_372:\n        /* \"#utility.yul\":1853:1924   */\n      tag_373\n        /* \"#utility.yul\":1917:1923   */\n      dup2\n        /* \"#utility.yul\":1912:1915   */\n      dup6\n        /* \"#utility.yul\":1853:1924   */\n      tag_297\n      jump\t// in\n    tag_373:\n        /* \"#utility.yul\":1846:1924   */\n      swap4\n      pop\n        /* \"#utility.yul\":1933:1998   */\n      tag_374\n        /* \"#utility.yul\":1991:1997   */\n      dup2\n        /* \"#utility.yul\":1986:1989   */\n      dup6\n        /* \"#utility.yul\":1979:1983   */\n      0x20\n        /* \"#utility.yul\":1972:1977   */\n      dup7\n        /* \"#utility.yul\":1968:1984   */\n      add\n        /* \"#utility.yul\":1933:1998   */\n      tag_298\n      jump\t// in\n    tag_374:\n        /* \"#utility.yul\":2023:2052   */\n      tag_375\n        /* \"#utility.yul\":2045:2051   */\n      dup2\n        /* \"#utility.yul\":2023:2052   */\n      tag_299\n      jump\t// in\n    tag_375:\n        /* \"#utility.yul\":2018:2021   */\n      dup5\n        /* \"#utility.yul\":2014:2053   */\n      add\n        /* \"#utility.yul\":2007:2053   */\n      swap2\n      pop\n        /* \"#utility.yul\":1774:2059   */\n      pop\n        /* \"#utility.yul\":1682:2059   */\n      swap3\n      swap2\n      pop\n      pop\n      jump\t// out\n        /* \"#utility.yul\":2065:3093   */\n    tag_26:\n        /* \"#utility.yul\":2350:2354   */\n      0x00\n        /* \"#utility.yul\":2388:2391   */\n      0xa0\n        /* \"#utility.yul\":2377:2386   */\n      dup3\n        /* \"#utility.yul\":2373:2392   */\n      add\n        /* \"#utility.yul\":2365:2392   */\n      swap1\n      pop\n        /* \"#utility.yul\":2402:2473   */\n      tag_377\n        /* \"#utility.yul\":2470:2471   */\n      0x00\n        /* \"#utility.yul\":2459:2468   */\n      dup4\n        /* \"#utility.yul\":2455:2472   */\n      add\n        /* \"#utility.yul\":2446:2452   */\n      dup9\n        /* \"#utility.yul\":2402:2473   */\n      tag_295\n      jump\t// in\n    tag_377:\n        /* \"#utility.yul\":2520:2529   */\n      dup2\n        /* \"#utility.yul\":2514:2518   */\n      dup2\n        /* \"#utility.yul\":2510:2530   */\n      sub\n        /* \"#utility.yul\":2505:2507   */\n      0x20\n        /* \"#utility.yul\":2494:2503   */\n      dup4\n        /* \"#utility.yul\":2490:2508   */\n      add\n        /* \"#utility.yul\":2483:2531   */\n      mstore\n        /* \"#utility.yul\":2548:2626   */\n      tag_378\n        /* \"#utility.yul\":2621:2625   */\n      dup2\n        /* \"#utility.yul\":2612:2618   */\n      dup8\n        /* \"#utility.yul\":2548:2626   */\n      tag_300\n      jump\t// in\n    tag_378:\n        /* \"#utility.yul\":2540:2626   */\n      swap1\n      pop\n        /* \"#utility.yul\":2673:2682   */\n      dup2\n        /* \"#utility.yul\":2667:2671   */\n      dup2\n        /* \"#utility.yul\":2663:2683   */\n      sub\n        /* \"#utility.yul\":2658:2660   */\n      0x40\n        /* \"#utility.yul\":2647:2656   */\n      dup4\n        /* \"#utility.yul\":2643:2661   */\n      add\n        /* \"#utility.yul\":2636:2684   */\n      mstore\n        /* \"#utility.yul\":2701:2779   */\n      tag_379\n        /* \"#utility.yul\":2774:2778   */\n      dup2\n        /* \"#utility.yul\":2765:2771   */\n      dup7\n        /* \"#utility.yul\":2701:2779   */\n      tag_300\n      jump\t// in\n    tag_379:\n        /* \"#utility.yul\":2693:2779   */\n      swap1\n      pop\n        /* \"#utility.yul\":2826:2835   */\n      dup2\n        /* \"#utility.yul\":2820:2824   */\n      dup2\n        /* \"#utility.yul\":2816:2836   */\n      sub\n        /* \"#utility.yul\":2811:2813   */\n      0x60\n        /* \"#utility.yul\":2800:2809   */\n      dup4\n        /* \"#utility.yul\":2796:2814   */\n      add\n        /* \"#utility.yul\":2789:2837   */\n      mstore\n        /* \"#utility.yul\":2854:2932   */\n      tag_380\n        /* \"#utility.yul\":2927:2931   */\n      dup2\n        /* \"#utility.yul\":2918:2924   */\n      dup6\n        /* \"#utility.yul\":2854:2932   */\n      tag_300\n      jump\t// in\n    tag_380:\n        /* \"#utility.yul\":2846:2932   */\n      swap1\n      pop\n        /* \"#utility.yul\":2980:2989   */\n      dup2\n        /* \"#utility.yul\":2974:2978   */\n      dup2\n        /* \"#utility.yul\":2970:2990   */\n      sub\n        /* \"#utility.yul\":2964:2967   */\n      0x80\n        /* \"#utility.yul\":2953:2962   */\n      dup4\n        /* \"#utility.yul\":2949:2968   */\n      add\n        /* \"#utility.yul\":2942:2991   */\n      mstore\n        /* \"#utility.yul\":3008:3086   */\n      tag_381\n        /* \"#utility.yul\":3081:3085   */\n      dup2\n        /* \"#utility.yul\":3072:3078   */\n      dup5\n        /* \"#utility.yul\":3008:3086   */\n      tag_300\n      jump\t// in\n    tag_381:\n        /* \"#utility.yul\":3000:3086   */\n      swap1\n      pop\n        /* \"#utility.yul\":2065:3093   */\n      swap7\n      swap6\n      pop\n      pop\n      pop\n      pop\n      pop\n      pop\n      jump\t// out\n        /* \"#utility.yul\":3099:3226   */\n    tag_301:\n        /* \"#utility.yul\":3187:3193   */\n      0x00\n        /* \"#utility.yul\":3215:3219   */\n      0x03\n        /* \"#utility.yul\":3205:3219   */\n      swap1\n      pop\n        /* \"#utility.yul\":3099:3226   */\n      swap2\n      swap1\n      pop\n      jump\t// out\n        /* \"#utility.yul\":3232:3398   */\n    tag_302:\n        /* \"#utility.yul\":3352:3363   */\n      0x00\n        /* \"#utility.yul\":3389:3392   */\n      dup2\n        /* \"#utility.yul\":3374:3392   */\n      swap1\n      pop\n        /* \"#utility.yul\":3232:3398   */\n      swap3\n      swap2\n      pop\n      pop\n      jump\t// out\n        /* \"#utility.yul\":3404:3525   */\n    tag_303:\n        /* \"#utility.yul\":3492:3496   */\n      0x00\n        /* \"#utility.yul\":3515:3518   */\n      dup2\n        /* \"#utility.yul\":3507:3518   */\n      swap1\n      pop\n        /* \"#utility.yul\":3404:3525   */\n      swap2\n      swap1\n      pop\n      jump\t// out\n        /* \"#utility.yul\":3531:3639   */\n    tag_304:\n        /* \"#utility.yul\":3608:3632   */\n      tag_386\n        /* \"#utility.yul\":3626:3631   */\n      dup2\n        /* \"#utility.yul\":3608:3632   */\n      tag_292\n      jump\t// in\n    tag_386:\n        /* \"#utility.yul\":3603:3606   */\n      dup3\n        /* \"#utility.yul\":3596:3633   */\n      mstore\n        /* \"#utility.yul\":3531:3639   */\n      pop\n      pop\n      jump\t// out\n        /* \"#utility.yul\":3645:3804   */\n    tag_305:\n        /* \"#utility.yul\":3719:3730   */\n      0x00\n        /* \"#utility.yul\":3753:3759   */\n      dup3\n        /* \"#utility.yul\":3748:3751   */\n      dup3\n        /* \"#utility.yul\":3741:3760   */\n      mstore\n        /* \"#utility.yul\":3793:3797   */\n      0x20\n        /* \"#utility.yul\":3788:3791   */\n      dup3\n        /* \"#utility.yul\":3784:3798   */\n      add\n        /* \"#utility.yul\":3769:3798   */\n      swap1\n      pop\n        /* \"#utility.yul\":3645:3804   */\n      swap3\n      swap2\n      pop\n      pop\n      jump\t// out\n        /* \"#utility.yul\":3810:4167   */\n    tag_306:\n        /* \"#utility.yul\":3888:3891   */\n      0x00\n        /* \"#utility.yul\":3916:3955   */\n      tag_389\n        /* \"#utility.yul\":3949:3954   */\n      dup3\n        /* \"#utility.yul\":3916:3955   */\n      tag_296\n      jump\t// in\n    tag_389:\n        /* \"#utility.yul\":3971:4032   */\n      tag_390\n        /* \"#utility.yul\":4025:4031   */\n      dup2\n        /* \"#utility.yul\":4020:4023   */\n      dup6\n        /* \"#utility.yul\":3971:4032   */\n      tag_305\n      jump\t// in\n    tag_390:\n        /* \"#utility.yul\":3964:4032   */\n      swap4\n      pop\n        /* \"#utility.yul\":4041:4106   */\n      tag_391\n        /* \"#utility.yul\":4099:4105   */\n      dup2\n        /* \"#utility.yul\":4094:4097   */\n      dup6\n        /* \"#utility.yul\":4087:4091   */\n      0x20\n        /* \"#utility.yul\":4080:4085   */\n      dup7\n        /* \"#utility.yul\":4076:4092   */\n      add\n        /* \"#utility.yul\":4041:4106   */\n      tag_298\n      jump\t// in\n    tag_391:\n        /* \"#utility.yul\":4131:4160   */\n      tag_392\n        /* \"#utility.yul\":4153:4159   */\n      dup2\n        /* \"#utility.yul\":4131:4160   */\n      tag_299\n      jump\t// in\n    tag_392:\n        /* \"#utility.yul\":4126:4129   */\n      dup5\n        /* \"#utility.yul\":4122:4161   */\n      add\n        /* \"#utility.yul\":4115:4161   */\n      swap2\n      pop\n        /* \"#utility.yul\":3892:4167   */\n      pop\n        /* \"#utility.yul\":3810:4167   */\n      swap3\n      swap2\n      pop\n      pop\n      jump\t// out\n        /* \"#utility.yul\":4233:5572   */\n    tag_307:\n        /* \"#utility.yul\":4338:4341   */\n      0x00\n        /* \"#utility.yul\":4374:4378   */\n      0xa0\n        /* \"#utility.yul\":4369:4372   */\n      dup4\n        /* \"#utility.yul\":4365:4379   */\n      add\n        /* \"#utility.yul\":4459:4463   */\n      0x00\n        /* \"#utility.yul\":4452:4457   */\n      dup4\n        /* \"#utility.yul\":4448:4464   */\n      add\n        /* \"#utility.yul\":4442:4465   */\n      mload\n        /* \"#utility.yul\":4478:4541   */\n      tag_394\n        /* \"#utility.yul\":4535:4539   */\n      0x00\n        /* \"#utility.yul\":4530:4533   */\n      dup7\n        /* \"#utility.yul\":4526:4540   */\n      add\n        /* \"#utility.yul\":4512:4524   */\n      dup3\n        /* \"#utility.yul\":4478:4541   */\n      tag_304\n      jump\t// in\n    tag_394:\n        /* \"#utility.yul\":4389:4551   */\n      pop\n        /* \"#utility.yul\":4633:4637   */\n      0x20\n        /* \"#utility.yul\":4626:4631   */\n      dup4\n        /* \"#utility.yul\":4622:4638   */\n      add\n        /* \"#utility.yul\":4616:4639   */\n      mload\n        /* \"#utility.yul\":4686:4689   */\n      dup5\n        /* \"#utility.yul\":4680:4684   */\n      dup3\n        /* \"#utility.yul\":4676:4690   */\n      sub\n        /* \"#utility.yul\":4669:4673   */\n      0x20\n        /* \"#utility.yul\":4664:4667   */\n      dup7\n        /* \"#utility.yul\":4660:4674   */\n      add\n        /* \"#utility.yul\":4653:4691   */\n      mstore\n        /* \"#utility.yul\":4712:4785   */\n      tag_395\n        /* \"#utility.yul\":4780:4784   */\n      dup3\n        /* \"#utility.yul\":4766:4778   */\n      dup3\n        /* \"#utility.yul\":4712:4785   */\n      tag_306\n      jump\t// in\n    tag_395:\n        /* \"#utility.yul\":4704:4785   */\n      swap2\n      pop\n        /* \"#utility.yul\":4561:4796   */\n      pop\n        /* \"#utility.yul\":4885:4889   */\n      0x40\n        /* \"#utility.yul\":4878:4883   */\n      dup4\n        /* \"#utility.yul\":4874:4890   */\n      add\n        /* \"#utility.yul\":4868:4891   */\n      mload\n        /* \"#utility.yul\":4938:4941   */\n      dup5\n        /* \"#utility.yul\":4932:4936   */\n      dup3\n        /* \"#utility.yul\":4928:4942   */\n      sub\n        /* \"#utility.yul\":4921:4925   */\n      0x40\n        /* \"#utility.yul\":4916:4919   */\n      dup7\n        /* \"#utility.yul\":4912:4926   */\n      add\n        /* \"#utility.yul\":4905:4943   */\n      mstore\n        /* \"#utility.yul\":4964:5037   */\n      tag_396\n        /* \"#utility.yul\":5032:5036   */\n      dup3\n        /* \"#utility.yul\":5018:5030   */\n      dup3\n        /* \"#utility.yul\":4964:5037   */\n      tag_306\n      jump\t// in\n    tag_396:\n        /* \"#utility.yul\":4956:5037   */\n      swap2\n      pop\n        /* \"#utility.yul\":4806:5048   */\n      pop\n        /* \"#utility.yul\":5131:5135   */\n      0x60\n        /* \"#utility.yul\":5124:5129   */\n      dup4\n        /* \"#utility.yul\":5120:5136   */\n      add\n        /* \"#utility.yul\":5114:5137   */\n      mload\n        /* \"#utility.yul\":5184:5187   */\n      dup5\n        /* \"#utility.yul\":5178:5182   */\n      dup3\n        /* \"#utility.yul\":5174:5188   */\n      sub\n        /* \"#utility.yul\":5167:5171   */\n      0x60\n        /* \"#utility.yul\":5162:5165   */\n      dup7\n        /* \"#utility.yul\":5158:5172   */\n      add\n        /* \"#utility.yul\":5151:5189   */\n      mstore\n        /* \"#utility.yul\":5210:5283   */\n      tag_397\n        /* \"#utility.yul\":5278:5282   */\n      dup3\n        /* \"#utility.yul\":5264:5276   */\n      dup3\n        /* \"#utility.yul\":5210:5283   */\n      tag_306\n      jump\t// in\n    tag_397:\n        /* \"#utility.yul\":5202:5283   */\n      swap2\n      pop\n        /* \"#utility.yul\":5058:5294   */\n      pop\n        /* \"#utility.yul\":5382:5386   */\n      0x80\n        /* \"#utility.yul\":5375:5380   */\n      dup4\n        /* \"#utility.yul\":5371:5387   */\n      add\n        /* \"#utility.yul\":5365:5388   */\n      mload\n        /* \"#utility.yul\":5435:5438   */\n      dup5\n        /* \"#utility.yul\":5429:5433   */\n      dup3\n        /* \"#utility.yul\":5425:5439   */\n      sub\n        /* \"#utility.yul\":5418:5422   */\n      0x80\n        /* \"#utility.yul\":5413:5416   */\n      dup7\n        /* \"#utility.yul\":5409:5423   */\n      add\n        /* \"#utility.yul\":5402:5440   */\n      mstore\n        /* \"#utility.yul\":5461:5534   */\n      tag_398\n        /* \"#utility.yul\":5529:5533   */\n      dup3\n        /* \"#utility.yul\":5515:5527   */\n      dup3\n        /* \"#utility.yul\":5461:5534   */\n      tag_306\n      jump\t// in\n    tag_398:\n        /* \"#utility.yul\":5453:5534   */\n      swap2\n      pop\n        /* \"#utility.yul\":5304:5545   */\n      pop\n        /* \"#utility.yul\":5562:5566   */\n      dup1\n        /* \"#utility.yul\":5555:5566   */\n      swap2\n      pop\n        /* \"#utility.yul\":4343:5572   */\n      pop\n        /* \"#utility.yul\":4233:5572   */\n      swap3\n      swap2\n      pop\n      pop\n      jump\t// out\n        /* \"#utility.yul\":5578:5826   */\n    tag_308:\n        /* \"#utility.yul\":5693:5703   */\n      0x00\n        /* \"#utility.yul\":5728:5820   */\n      tag_400\n        /* \"#utility.yul\":5816:5819   */\n      dup4\n        /* \"#utility.yul\":5808:5814   */\n      dup4\n        /* \"#utility.yul\":5728:5820   */\n      tag_307\n      jump\t// in\n    tag_400:\n        /* \"#utility.yul\":5714:5820   */\n      swap1\n      pop\n        /* \"#utility.yul\":5578:5826   */\n      swap3\n      swap2\n      pop\n      pop\n      jump\t// out\n        /* \"#utility.yul\":5832:5966   */\n    tag_309:\n        /* \"#utility.yul\":5923:5927   */\n      0x00\n        /* \"#utility.yul\":5955:5959   */\n      0x20\n        /* \"#utility.yul\":5950:5953   */\n      dup3\n        /* \"#utility.yul\":5946:5960   */\n      add\n        /* \"#utility.yul\":5938:5960   */\n      swap1\n      pop\n        /* \"#utility.yul\":5832:5966   */\n      swap2\n      swap1\n      pop\n      jump\t// out\n        /* \"#utility.yul\":6038:7121   */\n    tag_310:\n        /* \"#utility.yul\":6199:6202   */\n      0x00\n        /* \"#utility.yul\":6228:6303   */\n      tag_403\n        /* \"#utility.yul\":6297:6302   */\n      dup3\n        /* \"#utility.yul\":6228:6303   */\n      tag_301\n      jump\t// in\n    tag_403:\n        /* \"#utility.yul\":6319:6426   */\n      tag_404\n        /* \"#utility.yul\":6419:6425   */\n      dup2\n        /* \"#utility.yul\":6414:6417   */\n      dup6\n        /* \"#utility.yul\":6319:6426   */\n      tag_302\n      jump\t// in\n    tag_404:\n        /* \"#utility.yul\":6312:6426   */\n      swap4\n      pop\n        /* \"#utility.yul\":6452:6455   */\n      dup4\n        /* \"#utility.yul\":6497:6501   */\n      0x20\n        /* \"#utility.yul\":6489:6495   */\n      dup3\n        /* \"#utility.yul\":6485:6502   */\n      mul\n        /* \"#utility.yul\":6480:6483   */\n      dup6\n        /* \"#utility.yul\":6476:6503   */\n      add\n        /* \"#utility.yul\":6527:6604   */\n      tag_405\n        /* \"#utility.yul\":6598:6603   */\n      dup6\n        /* \"#utility.yul\":6527:6604   */\n      tag_303\n      jump\t// in\n    tag_405:\n        /* \"#utility.yul\":6627:6634   */\n      dup1\n        /* \"#utility.yul\":6658:6659   */\n      0x00\n        /* \"#utility.yul\":6643:7076   */\n    tag_406:\n        /* \"#utility.yul\":6668:6674   */\n      dup6\n        /* \"#utility.yul\":6665:6666   */\n      dup2\n        /* \"#utility.yul\":6662:6675   */\n      lt\n        /* \"#utility.yul\":6643:7076   */\n      iszero\n      tag_408\n      jumpi\n        /* \"#utility.yul\":6739:6748   */\n      dup5\n        /* \"#utility.yul\":6733:6737   */\n      dup5\n        /* \"#utility.yul\":6729:6749   */\n      sub\n        /* \"#utility.yul\":6724:6727   */\n      dup10\n        /* \"#utility.yul\":6717:6750   */\n      mstore\n        /* \"#utility.yul\":6790:6796   */\n      dup2\n        /* \"#utility.yul\":6784:6797   */\n      mload\n        /* \"#utility.yul\":6818:6928   */\n      tag_409\n        /* \"#utility.yul\":6923:6927   */\n      dup6\n        /* \"#utility.yul\":6908:6921   */\n      dup3\n        /* \"#utility.yul\":6818:6928   */\n      tag_308\n      jump\t// in\n    tag_409:\n        /* \"#utility.yul\":6810:6928   */\n      swap5\n      pop\n        /* \"#utility.yul\":6951:7032   */\n      tag_410\n        /* \"#utility.yul\":7025:7031   */\n      dup4\n        /* \"#utility.yul\":6951:7032   */\n      tag_309\n      jump\t// in\n    tag_410:\n        /* \"#utility.yul\":6941:7032   */\n      swap3\n      pop\n        /* \"#utility.yul\":7061:7065   */\n      0x20\n        /* \"#utility.yul\":7056:7059   */\n      dup11\n        /* \"#utility.yul\":7052:7066   */\n      add\n        /* \"#utility.yul\":7045:7066   */\n      swap10\n      pop\n        /* \"#utility.yul\":6703:7076   */\n      pop\n        /* \"#utility.yul\":6690:6691   */\n      0x01\n        /* \"#utility.yul\":6687:6688   */\n      dup2\n        /* \"#utility.yul\":6683:6692   */\n      add\n        /* \"#utility.yul\":6678:6692   */\n      swap1\n      pop\n        /* \"#utility.yul\":6643:7076   */\n      jump(tag_406)\n    tag_408:\n        /* \"#utility.yul\":6647:6661   */\n      pop\n        /* \"#utility.yul\":7092:7096   */\n      dup3\n        /* \"#utility.yul\":7085:7096   */\n      swap8\n      pop\n        /* \"#utility.yul\":7112:7115   */\n      dup8\n        /* \"#utility.yul\":7105:7115   */\n      swap6\n      pop\n        /* \"#utility.yul\":6204:7121   */\n      pop\n      pop\n      pop\n      pop\n      pop\n        /* \"#utility.yul\":6038:7121   */\n      swap3\n      swap2\n      pop\n      pop\n      jump\t// out\n        /* \"#utility.yul\":7127:7584   */\n    tag_31:\n        /* \"#utility.yul\":7312:7316   */\n      0x00\n        /* \"#utility.yul\":7350:7352   */\n      0x20\n        /* \"#utility.yul\":7339:7348   */\n      dup3\n        /* \"#utility.yul\":7335:7353   */\n      add\n        /* \"#utility.yul\":7327:7353   */\n      swap1\n      pop\n        /* \"#utility.yul\":7399:7408   */\n      dup2\n        /* \"#utility.yul\":7393:7397   */\n      dup2\n        /* \"#utility.yul\":7389:7409   */\n      sub\n        /* \"#utility.yul\":7385:7386   */\n      0x00\n        /* \"#utility.yul\":7374:7383   */\n      dup4\n        /* \"#utility.yul\":7370:7387   */\n      add\n        /* \"#utility.yul\":7363:7410   */\n      mstore\n        /* \"#utility.yul\":7427:7577   */\n      tag_412\n        /* \"#utility.yul\":7572:7576   */\n      dup2\n        /* \"#utility.yul\":7563:7569   */\n      dup5\n        /* \"#utility.yul\":7427:7577   */\n      tag_310\n      jump\t// in\n    tag_412:\n        /* \"#utility.yul\":7419:7577   */\n      swap1\n      pop\n        /* \"#utility.yul\":7127:7584   */\n      swap3\n      swap2\n      pop\n      pop\n      jump\t// out\n        /* \"#utility.yul\":7590:7719   */\n    tag_311:\n        /* \"#utility.yul\":7680:7686   */\n      0x00\n        /* \"#utility.yul\":7708:7712   */\n      0x03\n        /* \"#utility.yul\":7698:7712   */\n      swap1\n      pop\n        /* \"#utility.yul\":7590:7719   */\n      swap2\n      swap1\n      pop\n      jump\t// out\n        /* \"#utility.yul\":7725:7893   */\n    tag_312:\n        /* \"#utility.yul\":7847:7858   */\n      0x00\n        /* \"#utility.yul\":7884:7887   */\n      dup2\n        /* \"#utility.yul\":7869:7887   */\n      swap1\n      pop\n        /* \"#utility.yul\":7725:7893   */\n      swap3\n      swap2\n      pop\n      pop\n      jump\t// out\n        /* \"#utility.yul\":7899:8022   */\n    tag_313:\n        /* \"#utility.yul\":7989:7993   */\n      0x00\n        /* \"#utility.yul\":8012:8015   */\n      dup2\n        /* \"#utility.yul\":8004:8015   */\n      swap1\n      pop\n        /* \"#utility.yul\":7899:8022   */\n      swap2\n      swap1\n      pop\n      jump\t// out\n        /* \"#utility.yul\":8092:9445   */\n    tag_314:\n        /* \"#utility.yul\":8201:8204   */\n      0x00\n        /* \"#utility.yul\":8237:8241   */\n      0xa0\n        /* \"#utility.yul\":8232:8235   */\n      dup4\n        /* \"#utility.yul\":8228:8242   */\n      add\n        /* \"#utility.yul\":8322:8326   */\n      0x00\n        /* \"#utility.yul\":8315:8320   */\n      dup4\n        /* \"#utility.yul\":8311:8327   */\n      add\n        /* \"#utility.yul\":8305:8328   */\n      mload\n        /* \"#utility.yul\":8341:8404   */\n      tag_417\n        /* \"#utility.yul\":8398:8402   */\n      0x00\n        /* \"#utility.yul\":8393:8396   */\n      dup7\n        /* \"#utility.yul\":8389:8403   */\n      add\n        /* \"#utility.yul\":8375:8387   */\n      dup3\n        /* \"#utility.yul\":8341:8404   */\n      tag_304\n      jump\t// in\n    tag_417:\n        /* \"#utility.yul\":8252:8414   */\n      pop\n        /* \"#utility.yul\":8496:8500   */\n      0x20\n        /* \"#utility.yul\":8489:8494   */\n      dup4\n        /* \"#utility.yul\":8485:8501   */\n      add\n        /* \"#utility.yul\":8479:8502   */\n      mload\n        /* \"#utility.yul\":8549:8552   */\n      dup5\n        /* \"#utility.yul\":8543:8547   */\n      dup3\n        /* \"#utility.yul\":8539:8553   */\n      sub\n        /* \"#utility.yul\":8532:8536   */\n      0x20\n        /* \"#utility.yul\":8527:8530   */\n      dup7\n        /* \"#utility.yul\":8523:8537   */\n      add\n        /* \"#utility.yul\":8516:8554   */\n      mstore\n        /* \"#utility.yul\":8575:8648   */\n      tag_418\n        /* \"#utility.yul\":8643:8647   */\n      dup3\n        /* \"#utility.yul\":8629:8641   */\n      dup3\n        /* \"#utility.yul\":8575:8648   */\n      tag_306\n      jump\t// in\n    tag_418:\n        /* \"#utility.yul\":8567:8648   */\n      swap2\n      pop\n        /* \"#utility.yul\":8424:8659   */\n      pop\n        /* \"#utility.yul\":8743:8747   */\n      0x40\n        /* \"#utility.yul\":8736:8741   */\n      dup4\n        /* \"#utility.yul\":8732:8748   */\n      add\n        /* \"#utility.yul\":8726:8749   */\n      mload\n        /* \"#utility.yul\":8796:8799   */\n      dup5\n        /* \"#utility.yul\":8790:8794   */\n      dup3\n        /* \"#utility.yul\":8786:8800   */\n      sub\n        /* \"#utility.yul\":8779:8783   */\n      0x40\n        /* \"#utility.yul\":8774:8777   */\n      dup7\n        /* \"#utility.yul\":8770:8784   */\n      add\n        /* \"#utility.yul\":8763:8801   */\n      mstore\n        /* \"#utility.yul\":8822:8895   */\n      tag_419\n        /* \"#utility.yul\":8890:8894   */\n      dup3\n        /* \"#utility.yul\":8876:8888   */\n      dup3\n        /* \"#utility.yul\":8822:8895   */\n      tag_306\n      jump\t// in\n    tag_419:\n        /* \"#utility.yul\":8814:8895   */\n      swap2\n      pop\n        /* \"#utility.yul\":8669:8906   */\n      pop\n        /* \"#utility.yul\":9001:9005   */\n      0x60\n        /* \"#utility.yul\":8994:8999   */\n      dup4\n        /* \"#utility.yul\":8990:9006   */\n      add\n        /* \"#utility.yul\":8984:9007   */\n      mload\n        /* \"#utility.yul\":9054:9057   */\n      dup5\n        /* \"#utility.yul\":9048:9052   */\n      dup3\n        /* \"#utility.yul\":9044:9058   */\n      sub\n        /* \"#utility.yul\":9037:9041   */\n      0x60\n        /* \"#utility.yul\":9032:9035   */\n      dup7\n        /* \"#utility.yul\":9028:9042   */\n      add\n        /* \"#utility.yul\":9021:9059   */\n      mstore\n        /* \"#utility.yul\":9080:9153   */\n      tag_420\n        /* \"#utility.yul\":9148:9152   */\n      dup3\n        /* \"#utility.yul\":9134:9146   */\n      dup3\n        /* \"#utility.yul\":9080:9153   */\n      tag_306\n      jump\t// in\n    tag_420:\n        /* \"#utility.yul\":9072:9153   */\n      swap2\n      pop\n        /* \"#utility.yul\":8916:9164   */\n      pop\n        /* \"#utility.yul\":9255:9259   */\n      0x80\n        /* \"#utility.yul\":9248:9253   */\n      dup4\n        /* \"#utility.yul\":9244:9260   */\n      add\n        /* \"#utility.yul\":9238:9261   */\n      mload\n        /* \"#utility.yul\":9308:9311   */\n      dup5\n        /* \"#utility.yul\":9302:9306   */\n      dup3\n        /* \"#utility.yul\":9298:9312   */\n      sub\n        /* \"#utility.yul\":9291:9295   */\n      0x80\n        /* \"#utility.yul\":9286:9289   */\n      dup7\n        /* \"#utility.yul\":9282:9296   */\n      add\n        /* \"#utility.yul\":9275:9313   */\n      mstore\n        /* \"#utility.yul\":9334:9407   */\n      tag_421\n        /* \"#utility.yul\":9402:9406   */\n      dup3\n        /* \"#utility.yul\":9388:9400   */\n      dup3\n        /* \"#utility.yul\":9334:9407   */\n      tag_306\n      jump\t// in\n    tag_421:\n        /* \"#utility.yul\":9326:9407   */\n      swap2\n      pop\n        /* \"#utility.yul\":9174:9418   */\n      pop\n        /* \"#utility.yul\":9435:9439   */\n      dup1\n        /* \"#utility.yul\":9428:9439   */\n      swap2\n      pop\n        /* \"#utility.yul\":8206:9445   */\n      pop\n        /* \"#utility.yul\":8092:9445   */\n      swap3\n      swap2\n      pop\n      pop\n      jump\t// out\n        /* \"#utility.yul\":9451:9707   */\n    tag_315:\n        /* \"#utility.yul\":9570:9580   */\n      0x00\n        /* \"#utility.yul\":9605:9701   */\n      tag_423\n        /* \"#utility.yul\":9697:9700   */\n      dup4\n        /* \"#utility.yul\":9689:9695   */\n      dup4\n        /* \"#utility.yul\":9605:9701   */\n      tag_314\n      jump\t// in\n    tag_423:\n        /* \"#utility.yul\":9591:9701   */\n      swap1\n      pop\n        /* \"#utility.yul\":9451:9707   */\n      swap3\n      swap2\n      pop\n      pop\n      jump\t// out\n        /* \"#utility.yul\":9713:9849   */\n    tag_316:\n        /* \"#utility.yul\":9806:9810   */\n      0x00\n        /* \"#utility.yul\":9838:9842   */\n      0x20\n        /* \"#utility.yul\":9833:9836   */\n      dup3\n        /* \"#utility.yul\":9829:9843   */\n      add\n        /* \"#utility.yul\":9821:9843   */\n      swap1\n      pop\n        /* \"#utility.yul\":9713:9849   */\n      swap2\n      swap1\n      pop\n      jump\t// out\n        /* \"#utility.yul\":9925:11024   */\n    tag_317:\n        /* \"#utility.yul\":10090:10093   */\n      0x00\n        /* \"#utility.yul\":10119:10196   */\n      tag_426\n        /* \"#utility.yul\":10190:10195   */\n      dup3\n        /* \"#utility.yul\":10119:10196   */\n      tag_311\n      jump\t// in\n    tag_426:\n        /* \"#utility.yul\":10212:10321   */\n      tag_427\n        /* \"#utility.yul\":10314:10320   */\n      dup2\n        /* \"#utility.yul\":10309:10312   */\n      dup6\n        /* \"#utility.yul\":10212:10321   */\n      tag_312\n      jump\t// in\n    tag_427:\n        /* \"#utility.yul\":10205:10321   */\n      swap4\n      pop\n        /* \"#utility.yul\":10347:10350   */\n      dup4\n        /* \"#utility.yul\":10392:10396   */\n      0x20\n        /* \"#utility.yul\":10384:10390   */\n      dup3\n        /* \"#utility.yul\":10380:10397   */\n      mul\n        /* \"#utility.yul\":10375:10378   */\n      dup6\n        /* \"#utility.yul\":10371:10398   */\n      add\n        /* \"#utility.yul\":10422:10501   */\n      tag_428\n        /* \"#utility.yul\":10495:10500   */\n      dup6\n        /* \"#utility.yul\":10422:10501   */\n      tag_313\n      jump\t// in\n    tag_428:\n        /* \"#utility.yul\":10524:10531   */\n      dup1\n        /* \"#utility.yul\":10555:10556   */\n      0x00\n        /* \"#utility.yul\":10540:10979   */\n    tag_429:\n        /* \"#utility.yul\":10565:10571   */\n      dup6\n        /* \"#utility.yul\":10562:10563   */\n      dup2\n        /* \"#utility.yul\":10559:10572   */\n      lt\n        /* \"#utility.yul\":10540:10979   */\n      iszero\n      tag_431\n      jumpi\n        /* \"#utility.yul\":10636:10645   */\n      dup5\n        /* \"#utility.yul\":10630:10634   */\n      dup5\n        /* \"#utility.yul\":10626:10646   */\n      sub\n        /* \"#utility.yul\":10621:10624   */\n      dup10\n        /* \"#utility.yul\":10614:10647   */\n      mstore\n        /* \"#utility.yul\":10687:10693   */\n      dup2\n        /* \"#utility.yul\":10681:10694   */\n      mload\n        /* \"#utility.yul\":10715:10829   */\n      tag_432\n        /* \"#utility.yul\":10824:10828   */\n      dup6\n        /* \"#utility.yul\":10809:10822   */\n      dup3\n        /* \"#utility.yul\":10715:10829   */\n      tag_315\n      jump\t// in\n    tag_432:\n        /* \"#utility.yul\":10707:10829   */\n      swap5\n      pop\n        /* \"#utility.yul\":10852:10935   */\n      tag_433\n        /* \"#utility.yul\":10928:10934   */\n      dup4\n        /* \"#utility.yul\":10852:10935   */\n      tag_316\n      jump\t// in\n    tag_433:\n        /* \"#utility.yul\":10842:10935   */\n      swap3\n      pop\n        /* \"#utility.yul\":10964:10968   */\n      0x20\n        /* \"#utility.yul\":10959:10962   */\n      dup11\n        /* \"#utility.yul\":10955:10969   */\n      add\n        /* \"#utility.yul\":10948:10969   */\n      swap10\n      pop\n        /* \"#utility.yul\":10600:10979   */\n      pop\n        /* \"#utility.yul\":10587:10588   */\n      0x01\n        /* \"#utility.yul\":10584:10585   */\n      dup2\n        /* \"#utility.yul\":10580:10589   */\n      add\n        /* \"#utility.yul\":10575:10589   */\n      swap1\n      pop\n        /* \"#utility.yul\":10540:10979   */\n      jump(tag_429)\n    tag_431:\n        /* \"#utility.yul\":10544:10558   */\n      pop\n        /* \"#utility.yul\":10995:10999   */\n      dup3\n        /* \"#utility.yul\":10988:10999   */\n      swap8\n      pop\n        /* \"#utility.yul\":11015:11018   */\n      dup8\n        /* \"#utility.yul\":11008:11018   */\n      swap6\n      pop\n        /* \"#utility.yul\":10095:11024   */\n      pop\n      pop\n      pop\n      pop\n      pop\n        /* \"#utility.yul\":9925:11024   */\n      swap3\n      swap2\n      pop\n      pop\n      jump\t// out\n        /* \"#utility.yul\":11030:11495   */\n    tag_36:\n        /* \"#utility.yul\":11219:11223   */\n      0x00\n        /* \"#utility.yul\":11257:11259   */\n      0x20\n        /* \"#utility.yul\":11246:11255   */\n      dup3\n        /* \"#utility.yul\":11242:11260   */\n      add\n        /* \"#utility.yul\":11234:11260   */\n      swap1\n      pop\n        /* \"#utility.yul\":11306:11315   */\n      dup2\n        /* \"#utility.yul\":11300:11304   */\n      dup2\n        /* \"#utility.yul\":11296:11316   */\n      sub\n        /* \"#utility.yul\":11292:11293   */\n      0x00\n        /* \"#utility.yul\":11281:11290   */\n      dup4\n        /* \"#utility.yul\":11277:11294   */\n      add\n        /* \"#utility.yul\":11270:11317   */\n      mstore\n        /* \"#utility.yul\":11334:11488   */\n      tag_435\n        /* \"#utility.yul\":11483:11487   */\n      dup2\n        /* \"#utility.yul\":11474:11480   */\n      dup5\n        /* \"#utility.yul\":11334:11488   */\n      tag_317\n      jump\t// in\n    tag_435:\n        /* \"#utility.yul\":11326:11488   */\n      swap1\n      pop\n        /* \"#utility.yul\":11030:11495   */\n      swap3\n      swap2\n      pop\n      pop\n      jump\t// out\n        /* \"#utility.yul\":11501:11618   */\n    tag_318:\n        /* \"#utility.yul\":11610:11611   */\n      0x00\n        /* \"#utility.yul\":11607:11608   */\n      dup1\n        /* \"#utility.yul\":11600:11612   */\n      revert\n        /* \"#utility.yul\":11624:11741   */\n    tag_319:\n        /* \"#utility.yul\":11733:11734   */\n      0x00\n        /* \"#utility.yul\":11730:11731   */\n      dup1\n        /* \"#utility.yul\":11723:11735   */\n      revert\n        /* \"#utility.yul\":11747:11864   */\n    tag_320:\n        /* \"#utility.yul\":11856:11857   */\n      0x00\n        /* \"#utility.yul\":11853:11854   */\n      dup1\n        /* \"#utility.yul\":11846:11858   */\n      revert\n        /* \"#utility.yul\":11884:12437   */\n    tag_321:\n        /* \"#utility.yul\":11942:11950   */\n      0x00\n        /* \"#utility.yul\":11952:11958   */\n      dup1\n        /* \"#utility.yul\":12002:12005   */\n      dup4\n        /* \"#utility.yul\":11995:11999   */\n      0x1f\n        /* \"#utility.yul\":11987:11993   */\n      dup5\n        /* \"#utility.yul\":11983:12000   */\n      add\n        /* \"#utility.yul\":11979:12006   */\n      slt\n        /* \"#utility.yul\":11969:12091   */\n      tag_440\n      jumpi\n        /* \"#utility.yul\":12010:12089   */\n      tag_441\n      tag_318\n      jump\t// in\n    tag_441:\n        /* \"#utility.yul\":11969:12091   */\n    tag_440:\n        /* \"#utility.yul\":12123:12129   */\n      dup3\n        /* \"#utility.yul\":12110:12130   */\n      calldataload\n        /* \"#utility.yul\":12100:12130   */\n      swap1\n      pop\n        /* \"#utility.yul\":12153:12171   */\n      0xffffffffffffffff\n        /* \"#utility.yul\":12145:12151   */\n      dup2\n        /* \"#utility.yul\":12142:12172   */\n      gt\n        /* \"#utility.yul\":12139:12256   */\n      iszero\n      tag_442\n      jumpi\n        /* \"#utility.yul\":12175:12254   */\n      tag_443\n      tag_319\n      jump\t// in\n    tag_443:\n        /* \"#utility.yul\":12139:12256   */\n    tag_442:\n        /* \"#utility.yul\":12289:12293   */\n      0x20\n        /* \"#utility.yul\":12281:12287   */\n      dup4\n        /* \"#utility.yul\":12277:12294   */\n      add\n        /* \"#utility.yul\":12265:12294   */\n      swap2\n      pop\n        /* \"#utility.yul\":12343:12346   */\n      dup4\n        /* \"#utility.yul\":12335:12339   */\n      0x01\n        /* \"#utility.yul\":12327:12333   */\n      dup3\n        /* \"#utility.yul\":12323:12340   */\n      mul\n        /* \"#utility.yul\":12313:12321   */\n      dup4\n        /* \"#utility.yul\":12309:12341   */\n      add\n        /* \"#utility.yul\":12306:12347   */\n      gt\n        /* \"#utility.yul\":12303:12431   */\n      iszero\n      tag_444\n      jumpi\n        /* \"#utility.yul\":12350:12429   */\n      tag_445\n      tag_320\n      jump\t// in\n    tag_445:\n        /* \"#utility.yul\":12303:12431   */\n    tag_444:\n        /* \"#utility.yul\":11884:12437   */\n      swap3\n      pop\n      swap3\n      swap1\n      pop\n      jump\t// out\n        /* \"#utility.yul\":12443:12972   */\n    tag_40:\n        /* \"#utility.yul\":12514:12520   */\n      0x00\n        /* \"#utility.yul\":12522:12528   */\n      dup1\n        /* \"#utility.yul\":12571:12573   */\n      0x20\n        /* \"#utility.yul\":12559:12568   */\n      dup4\n        /* \"#utility.yul\":12550:12557   */\n      dup6\n        /* \"#utility.yul\":12546:12569   */\n      sub\n        /* \"#utility.yul\":12542:12574   */\n      slt\n        /* \"#utility.yul\":12539:12658   */\n      iszero\n      tag_447\n      jumpi\n        /* \"#utility.yul\":12577:12656   */\n      tag_448\n      tag_290\n      jump\t// in\n    tag_448:\n        /* \"#utility.yul\":12539:12658   */\n    tag_447:\n        /* \"#utility.yul\":12725:12726   */\n      0x00\n        /* \"#utility.yul\":12714:12723   */\n      dup4\n        /* \"#utility.yul\":12710:12727   */\n      add\n        /* \"#utility.yul\":12697:12728   */\n      calldataload\n        /* \"#utility.yul\":12755:12773   */\n      0xffffffffffffffff\n        /* \"#utility.yul\":12747:12753   */\n      dup2\n        /* \"#utility.yul\":12744:12774   */\n      gt\n        /* \"#utility.yul\":12741:12858   */\n      iszero\n      tag_449\n      jumpi\n        /* \"#utility.yul\":12777:12856   */\n      tag_450\n      tag_291\n      jump\t// in\n    tag_450:\n        /* \"#utility.yul\":12741:12858   */\n    tag_449:\n        /* \"#utility.yul\":12890:12955   */\n      tag_451\n        /* \"#utility.yul\":12947:12954   */\n      dup6\n        /* \"#utility.yul\":12938:12944   */\n      dup3\n        /* \"#utility.yul\":12927:12936   */\n      dup7\n        /* \"#utility.yul\":12923:12945   */\n      add\n        /* \"#utility.yul\":12890:12955   */\n      tag_321\n      jump\t// in\n    tag_451:\n        /* \"#utility.yul\":12872:12955   */\n      swap3\n      pop\n      swap3\n      pop\n        /* \"#utility.yul\":12668:12965   */\n      pop\n        /* \"#utility.yul\":12443:12972   */\n      swap3\n      pop\n      swap3\n      swap1\n      pop\n      jump\t// out\n        /* \"#utility.yul\":12978:14689   */\n    tag_45:\n        /* \"#utility.yul\":13121:13127   */\n      0x00\n        /* \"#utility.yul\":13129:13135   */\n      dup1\n        /* \"#utility.yul\":13137:13143   */\n      0x00\n        /* \"#utility.yul\":13145:13151   */\n      dup1\n        /* \"#utility.yul\":13153:13159   */\n      0x00\n        /* \"#utility.yul\":13161:13167   */\n      dup1\n        /* \"#utility.yul\":13169:13175   */\n      0x00\n        /* \"#utility.yul\":13177:13183   */\n      dup1\n        /* \"#utility.yul\":13185:13191   */\n      0x00\n        /* \"#utility.yul\":13234:13237   */\n      0xa0\n        /* \"#utility.yul\":13222:13231   */\n      dup11\n        /* \"#utility.yul\":13213:13220   */\n      dup13\n        /* \"#utility.yul\":13209:13232   */\n      sub\n        /* \"#utility.yul\":13205:13238   */\n      slt\n        /* \"#utility.yul\":13202:13322   */\n      iszero\n      tag_453\n      jumpi\n        /* \"#utility.yul\":13241:13320   */\n      tag_454\n      tag_290\n      jump\t// in\n    tag_454:\n        /* \"#utility.yul\":13202:13322   */\n    tag_453:\n        /* \"#utility.yul\":13389:13390   */\n      0x00\n        /* \"#utility.yul\":13378:13387   */\n      dup11\n        /* \"#utility.yul\":13374:13391   */\n      add\n        /* \"#utility.yul\":13361:13392   */\n      calldataload\n        /* \"#utility.yul\":13419:13437   */\n      0xffffffffffffffff\n        /* \"#utility.yul\":13411:13417   */\n      dup2\n        /* \"#utility.yul\":13408:13438   */\n      gt\n        /* \"#utility.yul\":13405:13522   */\n      iszero\n      tag_455\n      jumpi\n        /* \"#utility.yul\":13441:13520   */\n      tag_456\n      tag_291\n      jump\t// in\n    tag_456:\n        /* \"#utility.yul\":13405:13522   */\n    tag_455:\n        /* \"#utility.yul\":13554:13619   */\n      tag_457\n        /* \"#utility.yul\":13611:13618   */\n      dup13\n        /* \"#utility.yul\":13602:13608   */\n      dup3\n        /* \"#utility.yul\":13591:13600   */\n      dup14\n        /* \"#utility.yul\":13587:13609   */\n      add\n        /* \"#utility.yul\":13554:13619   */\n      tag_321\n      jump\t// in\n    tag_457:\n        /* \"#utility.yul\":13536:13619   */\n      swap10\n      pop\n      swap10\n      pop\n        /* \"#utility.yul\":13332:13629   */\n      pop\n        /* \"#utility.yul\":13696:13698   */\n      0x20\n        /* \"#utility.yul\":13685:13694   */\n      dup11\n        /* \"#utility.yul\":13681:13699   */\n      add\n        /* \"#utility.yul\":13668:13700   */\n      calldataload\n        /* \"#utility.yul\":13727:13745   */\n      0xffffffffffffffff\n        /* \"#utility.yul\":13719:13725   */\n      dup2\n        /* \"#utility.yul\":13716:13746   */\n      gt\n        /* \"#utility.yul\":13713:13830   */\n      iszero\n      tag_458\n      jumpi\n        /* \"#utility.yul\":13749:13828   */\n      tag_459\n      tag_291\n      jump\t// in\n    tag_459:\n        /* \"#utility.yul\":13713:13830   */\n    tag_458:\n        /* \"#utility.yul\":13862:13927   */\n      tag_460\n        /* \"#utility.yul\":13919:13926   */\n      dup13\n        /* \"#utility.yul\":13910:13916   */\n      dup3\n        /* \"#utility.yul\":13899:13908   */\n      dup14\n        /* \"#utility.yul\":13895:13917   */\n      add\n        /* \"#utility.yul\":13862:13927   */\n      tag_321\n      jump\t// in\n    tag_460:\n        /* \"#utility.yul\":13844:13927   */\n      swap8\n      pop\n      swap8\n      pop\n        /* \"#utility.yul\":13639:13937   */\n      pop\n        /* \"#utility.yul\":14004:14006   */\n      0x40\n        /* \"#utility.yul\":13993:14002   */\n      dup11\n        /* \"#utility.yul\":13989:14007   */\n      add\n        /* \"#utility.yul\":13976:14008   */\n      calldataload\n        /* \"#utility.yul\":14035:14053   */\n      0xffffffffffffffff\n        /* \"#utility.yul\":14027:14033   */\n      dup2\n        /* \"#utility.yul\":14024:14054   */\n      gt\n        /* \"#utility.yul\":14021:14138   */\n      iszero\n      tag_461\n      jumpi\n        /* \"#utility.yul\":14057:14136   */\n      tag_462\n      tag_291\n      jump\t// in\n    tag_462:\n        /* \"#utility.yul\":14021:14138   */\n    tag_461:\n        /* \"#utility.yul\":14170:14235   */\n      tag_463\n        /* \"#utility.yul\":14227:14234   */\n      dup13\n        /* \"#utility.yul\":14218:14224   */\n      dup3\n        /* \"#utility.yul\":14207:14216   */\n      dup14\n        /* \"#utility.yul\":14203:14225   */\n      add\n        /* \"#utility.yul\":14170:14235   */\n      tag_321\n      jump\t// in\n    tag_463:\n        /* \"#utility.yul\":14152:14235   */\n      swap6\n      pop\n      swap6\n      pop\n        /* \"#utility.yul\":13947:14245   */\n      pop\n        /* \"#utility.yul\":14312:14314   */\n      0x60\n        /* \"#utility.yul\":14301:14310   */\n      dup11\n        /* \"#utility.yul\":14297:14315   */\n      add\n        /* \"#utility.yul\":14284:14316   */\n      calldataload\n        /* \"#utility.yul\":14343:14361   */\n      0xffffffffffffffff\n        /* \"#utility.yul\":14335:14341   */\n      dup2\n        /* \"#utility.yul\":14332:14362   */\n      gt\n        /* \"#utility.yul\":14329:14446   */\n      iszero\n      tag_464\n      jumpi\n        /* \"#utility.yul\":14365:14444   */\n      tag_465\n      tag_291\n      jump\t// in\n    tag_465:\n        /* \"#utility.yul\":14329:14446   */\n    tag_464:\n        /* \"#utility.yul\":14478:14543   */\n      tag_466\n        /* \"#utility.yul\":14535:14542   */\n      dup13\n        /* \"#utility.yul\":14526:14532   */\n      dup3\n        /* \"#utility.yul\":14515:14524   */\n      dup14\n        /* \"#utility.yul\":14511:14533   */\n      add\n        /* \"#utility.yul\":14478:14543   */\n      tag_321\n      jump\t// in\n    tag_466:\n        /* \"#utility.yul\":14460:14543   */\n      swap4\n      pop\n      swap4\n      pop\n        /* \"#utility.yul\":14255:14553   */\n      pop\n        /* \"#utility.yul\":14592:14595   */\n      0x80\n        /* \"#utility.yul\":14619:14672   */\n      tag_467\n        /* \"#utility.yul\":14664:14671   */\n      dup13\n        /* \"#utility.yul\":14655:14661   */\n      dup3\n        /* \"#utility.yul\":14644:14653   */\n      dup14\n        /* \"#utility.yul\":14640:14662   */\n      add\n        /* \"#utility.yul\":14619:14672   */\n      tag_294\n      jump\t// in\n    tag_467:\n        /* \"#utility.yul\":14609:14672   */\n      swap2\n      pop\n        /* \"#utility.yul\":14563:14682   */\n      pop\n        /* \"#utility.yul\":12978:14689   */\n      swap3\n      swap6\n      swap9\n      pop\n      swap3\n      swap6\n      swap9\n      pop\n      swap3\n      swap6\n      swap9\n      jump\t// out\n        /* \"#utility.yul\":14695:15008   */\n    tag_51:\n        /* \"#utility.yul\":14808:14812   */\n      0x00\n        /* \"#utility.yul\":14846:14848   */\n      0x20\n        /* \"#utility.yul\":14835:14844   */\n      dup3\n        /* \"#utility.yul\":14831:14849   */\n      add\n        /* \"#utility.yul\":14823:14849   */\n      swap1\n      pop\n        /* \"#utility.yul\":14895:14904   */\n      dup2\n        /* \"#utility.yul\":14889:14893   */\n      dup2\n        /* \"#utility.yul\":14885:14905   */\n      sub\n        /* \"#utility.yul\":14881:14882   */\n      0x00\n        /* \"#utility.yul\":14870:14879   */\n      dup4\n        /* \"#utility.yul\":14866:14883   */\n      add\n        /* \"#utility.yul\":14859:14906   */\n      mstore\n        /* \"#utility.yul\":14923:15001   */\n      tag_469\n        /* \"#utility.yul\":14996:15000   */\n      dup2\n        /* \"#utility.yul\":14987:14993   */\n      dup5\n        /* \"#utility.yul\":14923:15001   */\n      tag_300\n      jump\t// in\n    tag_469:\n        /* \"#utility.yul\":14915:15001   */\n      swap1\n      pop\n        /* \"#utility.yul\":14695:15008   */\n      swap3\n      swap2\n      pop\n      pop\n      jump\t// out\n        /* \"#utility.yul\":15014:16579   */\n    tag_55:\n        /* \"#utility.yul\":15148:15154   */\n      0x00\n        /* \"#utility.yul\":15156:15162   */\n      dup1\n        /* \"#utility.yul\":15164:15170   */\n      0x00\n        /* \"#utility.yul\":15172:15178   */\n      dup1\n        /* \"#utility.yul\":15180:15186   */\n      0x00\n        /* \"#utility.yul\":15188:15194   */\n      dup1\n        /* \"#utility.yul\":15196:15202   */\n      0x00\n        /* \"#utility.yul\":15204:15210   */\n      dup1\n        /* \"#utility.yul\":15253:15256   */\n      0x80\n        /* \"#utility.yul\":15241:15250   */\n      dup10\n        /* \"#utility.yul\":15232:15239   */\n      dup12\n        /* \"#utility.yul\":15228:15251   */\n      sub\n        /* \"#utility.yul\":15224:15257   */\n      slt\n        /* \"#utility.yul\":15221:15341   */\n      iszero\n      tag_471\n      jumpi\n        /* \"#utility.yul\":15260:15339   */\n      tag_472\n      tag_290\n      jump\t// in\n    tag_472:\n        /* \"#utility.yul\":15221:15341   */\n    tag_471:\n        /* \"#utility.yul\":15408:15409   */\n      0x00\n        /* \"#utility.yul\":15397:15406   */\n      dup10\n        /* \"#utility.yul\":15393:15410   */\n      add\n        /* \"#utility.yul\":15380:15411   */\n      calldataload\n        /* \"#utility.yul\":15438:15456   */\n      0xffffffffffffffff\n        /* \"#utility.yul\":15430:15436   */\n      dup2\n        /* \"#utility.yul\":15427:15457   */\n      gt\n        /* \"#utility.yul\":15424:15541   */\n      iszero\n      tag_473\n      jumpi\n        /* \"#utility.yul\":15460:15539   */\n      tag_474\n      tag_291\n      jump\t// in\n    tag_474:\n        /* \"#utility.yul\":15424:15541   */\n    tag_473:\n        /* \"#utility.yul\":15573:15638   */\n      tag_475\n        /* \"#utility.yul\":15630:15637   */\n      dup12\n        /* \"#utility.yul\":15621:15627   */\n      dup3\n        /* \"#utility.yul\":15610:15619   */\n      dup13\n        /* \"#utility.yul\":15606:15628   */\n      add\n        /* \"#utility.yul\":15573:15638   */\n      tag_321\n      jump\t// in\n    tag_475:\n        /* \"#utility.yul\":15555:15638   */\n      swap9\n      pop\n      swap9\n      pop\n        /* \"#utility.yul\":15351:15648   */\n      pop\n        /* \"#utility.yul\":15715:15717   */\n      0x20\n        /* \"#utility.yul\":15704:15713   */\n      dup10\n        /* \"#utility.yul\":15700:15718   */\n      add\n        /* \"#utility.yul\":15687:15719   */\n      calldataload\n        /* \"#utility.yul\":15746:15764   */\n      0xffffffffffffffff\n        /* \"#utility.yul\":15738:15744   */\n      dup2\n        /* \"#utility.yul\":15735:15765   */\n      gt\n        /* \"#utility.yul\":15732:15849   */\n      iszero\n      tag_476\n      jumpi\n        /* \"#utility.yul\":15768:15847   */\n      tag_477\n      tag_291\n      jump\t// in\n    tag_477:\n        /* \"#utility.yul\":15732:15849   */\n    tag_476:\n        /* \"#utility.yul\":15881:15946   */\n      tag_478\n        /* \"#utility.yul\":15938:15945   */\n      dup12\n        /* \"#utility.yul\":15929:15935   */\n      dup3\n        /* \"#utility.yul\":15918:15927   */\n      dup13\n        /* \"#utility.yul\":15914:15936   */\n      add\n        /* \"#utility.yul\":15881:15946   */\n      tag_321\n      jump\t// in\n    tag_478:\n        /* \"#utility.yul\":15863:15946   */\n      swap7\n      pop\n      swap7\n      pop\n        /* \"#utility.yul\":15658:15956   */\n      pop\n        /* \"#utility.yul\":16023:16025   */\n      0x40\n        /* \"#utility.yul\":16012:16021   */\n      dup10\n        /* \"#utility.yul\":16008:16026   */\n      add\n        /* \"#utility.yul\":15995:16027   */\n      calldataload\n        /* \"#utility.yul\":16054:16072   */\n      0xffffffffffffffff\n        /* \"#utility.yul\":16046:16052   */\n      dup2\n        /* \"#utility.yul\":16043:16073   */\n      gt\n        /* \"#utility.yul\":16040:16157   */\n      iszero\n      tag_479\n      jumpi\n        /* \"#utility.yul\":16076:16155   */\n      tag_480\n      tag_291\n      jump\t// in\n    tag_480:\n        /* \"#utility.yul\":16040:16157   */\n    tag_479:\n        /* \"#utility.yul\":16189:16254   */\n      tag_481\n        /* \"#utility.yul\":16246:16253   */\n      dup12\n        /* \"#utility.yul\":16237:16243   */\n      dup3\n        /* \"#utility.yul\":16226:16235   */\n      dup13\n        /* \"#utility.yul\":16222:16244   */\n      add\n        /* \"#utility.yul\":16189:16254   */\n      tag_321\n      jump\t// in\n    tag_481:\n        /* \"#utility.yul\":16171:16254   */\n      swap5\n      pop\n      swap5\n      pop\n        /* \"#utility.yul\":15966:16264   */\n      pop\n        /* \"#utility.yul\":16331:16333   */\n      0x60\n        /* \"#utility.yul\":16320:16329   */\n      dup10\n        /* \"#utility.yul\":16316:16334   */\n      add\n        /* \"#utility.yul\":16303:16335   */\n      calldataload\n        /* \"#utility.yul\":16362:16380   */\n      0xffffffffffffffff\n        /* \"#utility.yul\":16354:16360   */\n      dup2\n        /* \"#utility.yul\":16351:16381   */\n      gt\n        /* \"#utility.yul\":16348:16465   */\n      iszero\n      tag_482\n      jumpi\n        /* \"#utility.yul\":16384:16463   */\n      tag_483\n      tag_291\n      jump\t// in\n    tag_483:\n        /* \"#utility.yul\":16348:16465   */\n    tag_482:\n        /* \"#utility.yul\":16497:16562   */\n      tag_484\n        /* \"#utility.yul\":16554:16561   */\n      dup12\n        /* \"#utility.yul\":16545:16551   */\n      dup3\n        /* \"#utility.yul\":16534:16543   */\n      dup13\n        /* \"#utility.yul\":16530:16552   */\n      add\n        /* \"#utility.yul\":16497:16562   */\n      tag_321\n      jump\t// in\n    tag_484:\n        /* \"#utility.yul\":16479:16562   */\n      swap3\n      pop\n      swap3\n      pop\n        /* \"#utility.yul\":16274:16572   */\n      pop\n        /* \"#utility.yul\":15014:16579   */\n      swap3\n      swap6\n      swap9\n      pop\n      swap3\n      swap6\n      swap9\n      swap1\n      swap4\n      swap7\n      pop\n      jump\t// out\n        /* \"#utility.yul\":16585:16765   */\n    tag_322:\n        /* \"#utility.yul\":16633:16710   */\n      0x4e487b7100000000000000000000000000000000000000000000000000000000\n        /* \"#utility.yul\":16630:16631   */\n      0x00\n        /* \"#utility.yul\":16623:16711   */\n      mstore\n        /* \"#utility.yul\":16730:16734   */\n      0x22\n        /* \"#utility.yul\":16727:16728   */\n      0x04\n        /* \"#utility.yul\":16720:16735   */\n      mstore\n        /* \"#utility.yul\":16754:16758   */\n      0x24\n        /* \"#utility.yul\":16751:16752   */\n      0x00\n        /* \"#utility.yul\":16744:16759   */\n      revert\n        /* \"#utility.yul\":16771:17091   */\n    tag_91:\n        /* \"#utility.yul\":16815:16821   */\n      0x00\n        /* \"#utility.yul\":16852:16853   */\n      0x02\n        /* \"#utility.yul\":16846:16850   */\n      dup3\n        /* \"#utility.yul\":16842:16854   */\n      div\n        /* \"#utility.yul\":16832:16854   */\n      swap1\n      pop\n        /* \"#utility.yul\":16899:16900   */\n      0x01\n        /* \"#utility.yul\":16893:16897   */\n      dup3\n        /* \"#utility.yul\":16889:16901   */\n      and\n        /* \"#utility.yul\":16920:16938   */\n      dup1\n        /* \"#utility.yul\":16910:16991   */\n      tag_487\n      jumpi\n        /* \"#utility.yul\":16976:16980   */\n      0x7f\n        /* \"#utility.yul\":16968:16974   */\n      dup3\n        /* \"#utility.yul\":16964:16981   */\n      and\n        /* \"#utility.yul\":16954:16981   */\n      swap2\n      pop\n        /* \"#utility.yul\":16910:16991   */\n    tag_487:\n        /* \"#utility.yul\":17038:17040   */\n      0x20\n        /* \"#utility.yul\":17030:17036   */\n      dup3\n        /* \"#utility.yul\":17027:17041   */\n      lt\n        /* \"#utility.yul\":17007:17025   */\n      dup2\n        /* \"#utility.yul\":17004:17042   */\n      sub\n        /* \"#utility.yul\":17001:17085   */\n      tag_488\n      jumpi\n        /* \"#utility.yul\":17057:17075   */\n      tag_489\n      tag_322\n      jump\t// in\n    tag_489:\n        /* \"#utility.yul\":17001:17085   */\n    tag_488:\n        /* \"#utility.yul\":16822:17091   */\n      pop\n        /* \"#utility.yul\":16771:17091   */\n      swap2\n      swap1\n      pop\n      jump\t// out\n        /* \"#utility.yul\":17097:17331   */\n    tag_323:\n        /* \"#utility.yul\":17237:17271   */\n      0x596f7520646f206e6f74206861766520616e20617574686f72697479206f7665\n        /* \"#utility.yul\":17233:17234   */\n      0x00\n        /* \"#utility.yul\":17225:17231   */\n      dup3\n        /* \"#utility.yul\":17221:17235   */\n      add\n        /* \"#utility.yul\":17214:17272   */\n      mstore\n        /* \"#utility.yul\":17306:17323   */\n      0x72207468697320636f6e74726163740000000000000000000000000000000000\n        /* \"#utility.yul\":17301:17303   */\n      0x20\n        /* \"#utility.yul\":17293:17299   */\n      dup3\n        /* \"#utility.yul\":17289:17304   */\n      add\n        /* \"#utility.yul\":17282:17324   */\n      mstore\n        /* \"#utility.yul\":17097:17331   */\n      pop\n      jump\t// out\n        /* \"#utility.yul\":17337:17703   */\n    tag_324:\n        /* \"#utility.yul\":17479:17482   */\n      0x00\n        /* \"#utility.yul\":17500:17567   */\n      tag_492\n        /* \"#utility.yul\":17564:17566   */\n      0x2f\n        /* \"#utility.yul\":17559:17562   */\n      dup4\n        /* \"#utility.yul\":17500:17567   */\n      tag_297\n      jump\t// in\n    tag_492:\n        /* \"#utility.yul\":17493:17567   */\n      swap2\n      pop\n        /* \"#utility.yul\":17576:17669   */\n      tag_493\n        /* \"#utility.yul\":17665:17668   */\n      dup3\n        /* \"#utility.yul\":17576:17669   */\n      tag_323\n      jump\t// in\n    tag_493:\n        /* \"#utility.yul\":17694:17696   */\n      0x40\n        /* \"#utility.yul\":17689:17692   */\n      dup3\n        /* \"#utility.yul\":17685:17697   */\n      add\n        /* \"#utility.yul\":17678:17697   */\n      swap1\n      pop\n        /* \"#utility.yul\":17337:17703   */\n      swap2\n      swap1\n      pop\n      jump\t// out\n        /* \"#utility.yul\":17709:18128   */\n    tag_166:\n        /* \"#utility.yul\":17875:17879   */\n      0x00\n        /* \"#utility.yul\":17913:17915   */\n      0x20\n        /* \"#utility.yul\":17902:17911   */\n      dup3\n        /* \"#utility.yul\":17898:17916   */\n      add\n        /* \"#utility.yul\":17890:17916   */\n      swap1\n      pop\n        /* \"#utility.yul\":17962:17971   */\n      dup2\n        /* \"#utility.yul\":17956:17960   */\n      dup2\n        /* \"#utility.yul\":17952:17972   */\n      sub\n        /* \"#utility.yul\":17948:17949   */\n      0x00\n        /* \"#utility.yul\":17937:17946   */\n      dup4\n        /* \"#utility.yul\":17933:17950   */\n      add\n        /* \"#utility.yul\":17926:17973   */\n      mstore\n        /* \"#utility.yul\":17990:18121   */\n      tag_495\n        /* \"#utility.yul\":18116:18120   */\n      dup2\n        /* \"#utility.yul\":17990:18121   */\n      tag_324\n      jump\t// in\n    tag_495:\n        /* \"#utility.yul\":17982:18121   */\n      swap1\n      pop\n        /* \"#utility.yul\":17709:18128   */\n      swap2\n      swap1\n      pop\n      jump\t// out\n        /* \"#utility.yul\":18134:18231   */\n    tag_325:\n        /* \"#utility.yul\":18193:18199   */\n      0x00\n        /* \"#utility.yul\":18221:18224   */\n      dup3\n        /* \"#utility.yul\":18211:18224   */\n      swap1\n      pop\n        /* \"#utility.yul\":18134:18231   */\n      swap3\n      swap2\n      pop\n      pop\n      jump\t// out\n        /* \"#utility.yul\":18237:18417   */\n    tag_326:\n        /* \"#utility.yul\":18285:18362   */\n      0x4e487b7100000000000000000000000000000000000000000000000000000000\n        /* \"#utility.yul\":18282:18283   */\n      0x00\n        /* \"#utility.yul\":18275:18363   */\n      mstore\n        /* \"#utility.yul\":18382:18386   */\n      0x41\n        /* \"#utility.yul\":18379:18380   */\n      0x04\n        /* \"#utility.yul\":18372:18387   */\n      mstore\n        /* \"#utility.yul\":18406:18410   */\n      0x24\n        /* \"#utility.yul\":18403:18404   */\n      0x00\n        /* \"#utility.yul\":18396:18411   */\n      revert\n        /* \"#utility.yul\":18423:18564   */\n    tag_327:\n        /* \"#utility.yul\":18472:18476   */\n      0x00\n        /* \"#utility.yul\":18495:18498   */\n      dup2\n        /* \"#utility.yul\":18487:18498   */\n      swap1\n      pop\n        /* \"#utility.yul\":18518:18521   */\n      dup2\n        /* \"#utility.yul\":18515:18516   */\n      0x00\n        /* \"#utility.yul\":18508:18522   */\n      mstore\n        /* \"#utility.yul\":18552:18556   */\n      0x20\n        /* \"#utility.yul\":18549:18550   */\n      0x00\n        /* \"#utility.yul\":18539:18557   */\n      keccak256\n        /* \"#utility.yul\":18531:18557   */\n      swap1\n      pop\n        /* \"#utility.yul\":18423:18564   */\n      swap2\n      swap1\n      pop\n      jump\t// out\n        /* \"#utility.yul\":18570:18663   */\n    tag_328:\n        /* \"#utility.yul\":18607:18613   */\n      0x00\n        /* \"#utility.yul\":18654:18656   */\n      0x20\n        /* \"#utility.yul\":18649:18651   */\n      0x1f\n        /* \"#utility.yul\":18642:18647   */\n      dup4\n        /* \"#utility.yul\":18638:18652   */\n      add\n        /* \"#utility.yul\":18634:18657   */\n      div\n        /* \"#utility.yul\":18624:18657   */\n      swap1\n      pop\n        /* \"#utility.yul\":18570:18663   */\n      swap2\n      swap1\n      pop\n      jump\t// out\n        /* \"#utility.yul\":18669:18776   */\n    tag_329:\n        /* \"#utility.yul\":18713:18721   */\n      0x00\n        /* \"#utility.yul\":18763:18768   */\n      dup3\n        /* \"#utility.yul\":18757:18761   */\n      dup3\n        /* \"#utility.yul\":18753:18769   */\n      shl\n        /* \"#utility.yul\":18732:18769   */\n      swap1\n      pop\n        /* \"#utility.yul\":18669:18776   */\n      swap3\n      swap2\n      pop\n      pop\n      jump\t// out\n        /* \"#utility.yul\":18782:19175   */\n    tag_330:\n        /* \"#utility.yul\":18851:18857   */\n      0x00\n        /* \"#utility.yul\":18901:18902   */\n      0x08\n        /* \"#utility.yul\":18889:18899   */\n      dup4\n        /* \"#utility.yul\":18885:18903   */\n      mul\n        /* \"#utility.yul\":18924:19021   */\n      tag_502\n        /* \"#utility.yul\":18954:19020   */\n      0xffffffffffffffffffffffffffffffffffffffffffffffffffffffffffffffff\n        /* \"#utility.yul\":18943:18952   */\n      dup3\n        /* \"#utility.yul\":18924:19021   */\n      tag_329\n      jump\t// in\n    tag_502:\n        /* \"#utility.yul\":19042:19081   */\n      tag_503\n        /* \"#utility.yul\":19072:19080   */\n      dup7\n        /* \"#utility.yul\":19061:19070   */\n      dup4\n        /* \"#utility.yul\":19042:19081   */\n      tag_329\n      jump\t// in\n    tag_503:\n        /* \"#utility.yul\":19030:19081   */\n      swap6\n      pop\n        /* \"#utility.yul\":19114:19118   */\n      dup1\n        /* \"#utility.yul\":19110:19119   */\n      not\n        /* \"#utility.yul\":19103:19108   */\n      dup5\n        /* \"#utility.yul\":19099:19120   */\n      and\n        /* \"#utility.yul\":19090:19120   */\n      swap4\n      pop\n        /* \"#utility.yul\":19163:19167   */\n      dup1\n        /* \"#utility.yul\":19153:19161   */\n      dup7\n        /* \"#utility.yul\":19149:19168   */\n      and\n        /* \"#utility.yul\":19142:19147   */\n      dup5\n        /* \"#utility.yul\":19139:19169   */\n      or\n        /* \"#utility.yul\":19129:19169   */\n      swap3\n      pop\n        /* \"#utility.yul\":18858:19175   */\n      pop\n      pop\n        /* \"#utility.yul\":18782:19175   */\n      swap4\n      swap3\n      pop\n      pop\n      pop\n      jump\t// out\n        /* \"#utility.yul\":19181:19241   */\n    tag_331:\n        /* \"#utility.yul\":19209:19212   */\n      0x00\n        /* \"#utility.yul\":19230:19235   */\n      dup2\n        /* \"#utility.yul\":19223:19235   */\n      swap1\n      pop\n        /* \"#utility.yul\":19181:19241   */\n      swap2\n      swap1\n      pop\n      jump\t// out\n        /* \"#utility.yul\":19247:19389   */\n    tag_332:\n        /* \"#utility.yul\":19297:19306   */\n      0x00\n        /* \"#utility.yul\":19330:19383   */\n      tag_506\n        /* \"#utility.yul\":19348:19382   */\n      tag_507\n        /* \"#utility.yul\":19357:19381   */\n      tag_508\n        /* \"#utility.yul\":19375:19380   */\n      dup5\n        /* \"#utility.yul\":19357:19381   */\n      tag_292\n      jump\t// in\n    tag_508:\n        /* \"#utility.yul\":19348:19382   */\n      tag_331\n      jump\t// in\n    tag_507:\n        /* \"#utility.yul\":19330:19383   */\n      tag_292\n      jump\t// in\n    tag_506:\n        /* \"#utility.yul\":19317:19383   */\n      swap1\n      pop\n        /* \"#utility.yul\":19247:19389   */\n      swap2\n      swap1\n      pop\n      jump\t// out\n        /* \"#utility.yul\":19395:19470   */\n    tag_333:\n        /* \"#utility.yul\":19438:19441   */\n      0x00\n        /* \"#utility.yul\":19459:19464   */\n      dup2\n        /* \"#utility.yul\":19452:19464   */\n      swap1\n      pop\n        /* \"#utility.yul\":19395:19470   */\n      swap2\n      swap1\n      pop\n      jump\t// out\n        /* \"#utility.yul\":19476:19745   */\n    tag_334:\n        /* \"#utility.yul\":19586:19625   */\n      tag_511\n        /* \"#utility.yul\":19617:19624   */\n      dup4\n        /* \"#utility.yul\":19586:19625   */\n      tag_332\n      jump\t// in\n    tag_511:\n        /* \"#utility.yul\":19647:19738   */\n      tag_512\n        /* \"#utility.yul\":19696:19737   */\n      tag_513\n        /* \"#utility.yul\":19720:19736   */\n      dup3\n        /* \"#utility.yul\":19696:19737   */\n      tag_333\n      jump\t// in\n    tag_513:\n        /* \"#utility.yul\":19688:19694   */\n      dup5\n        /* \"#utility.yul\":19681:19685   */\n      dup5\n        /* \"#utility.yul\":19675:19686   */\n      sload\n        /* \"#utility.yul\":19647:19738   */\n      tag_330\n      jump\t// in\n    tag_512:\n        /* \"#utility.yul\":19641:19645   */\n      dup3\n        /* \"#utility.yul\":19634:19739   */\n      sstore\n        /* \"#utility.yul\":19552:19745   */\n      pop\n        /* \"#utility.yul\":19476:19745   */\n      pop\n      pop\n      pop\n      jump\t// out\n        /* \"#utility.yul\":19751:19824   */\n    tag_335:\n        /* \"#utility.yul\":19796:19799   */\n      0x00\n        /* \"#utility.yul\":19751:19824   */\n      swap1\n      jump\t// out\n        /* \"#utility.yul\":19830:20019   */\n    tag_336:\n        /* \"#utility.yul\":19907:19939   */\n      tag_516\n      tag_335\n      jump\t// in\n    tag_516:\n        /* \"#utility.yul\":19948:20013   */\n      tag_517\n        /* \"#utility.yul\":20006:20012   */\n      dup2\n        /* \"#utility.yul\":19998:20004   */\n      dup5\n        /* \"#utility.yul\":19992:19996   */\n      dup5\n        /* \"#utility.yul\":19948:20013   */\n      tag_334\n      jump\t// in\n    tag_517:\n        /* \"#utility.yul\":19883:20019   */\n      pop\n        /* \"#utility.yul\":19830:20019   */\n      pop\n      pop\n      jump\t// out\n        /* \"#utility.yul\":20025:20211   */\n    tag_337:\n        /* \"#utility.yul\":20085:20205   */\n    tag_519:\n        /* \"#utility.yul\":20102:20105   */\n      dup2\n        /* \"#utility.yul\":20095:20100   */\n      dup2\n        /* \"#utility.yul\":20092:20106   */\n      lt\n        /* \"#utility.yul\":20085:20205   */\n      iszero\n      tag_521\n      jumpi\n        /* \"#utility.yul\":20156:20195   */\n      tag_522\n        /* \"#utility.yul\":20193:20194   */\n      0x00\n        /* \"#utility.yul\":20186:20191   */\n      dup3\n        /* \"#utility.yul\":20156:20195   */\n      tag_336\n      jump\t// in\n    tag_522:\n        /* \"#utility.yul\":20129:20130   */\n      0x01\n        /* \"#utility.yul\":20122:20127   */\n      dup2\n        /* \"#utility.yul\":20118:20131   */\n      add\n        /* \"#utility.yul\":20109:20131   */\n      swap1\n      pop\n        /* \"#utility.yul\":20085:20205   */\n      jump(tag_519)\n    tag_521:\n        /* \"#utility.yul\":20025:20211   */\n      pop\n      pop\n      jump\t// out\n        /* \"#utility.yul\":20217:20760   */\n    tag_338:\n        /* \"#utility.yul\":20318:20320   */\n      0x1f\n        /* \"#utility.yul\":20313:20316   */\n      dup3\n        /* \"#utility.yul\":20310:20321   */\n      gt\n        /* \"#utility.yul\":20307:20753   */\n      iszero\n      tag_524\n      jumpi\n        /* \"#utility.yul\":20352:20390   */\n      tag_525\n        /* \"#utility.yul\":20384:20389   */\n      dup2\n        /* \"#utility.yul\":20352:20390   */\n      tag_327\n      jump\t// in\n    tag_525:\n        /* \"#utility.yul\":20436:20465   */\n      tag_526\n        /* \"#utility.yul\":20454:20464   */\n      dup5\n        /* \"#utility.yul\":20436:20465   */\n      tag_328\n      jump\t// in\n    tag_526:\n        /* \"#utility.yul\":20426:20434   */\n      dup2\n        /* \"#utility.yul\":20422:20466   */\n      add\n        /* \"#utility.yul\":20619:20621   */\n      0x20\n        /* \"#utility.yul\":20607:20617   */\n      dup6\n        /* \"#utility.yul\":20604:20622   */\n      lt\n        /* \"#utility.yul\":20601:20650   */\n      iszero\n      tag_527\n      jumpi\n        /* \"#utility.yul\":20640:20648   */\n      dup2\n        /* \"#utility.yul\":20625:20648   */\n      swap1\n      pop\n        /* \"#utility.yul\":20601:20650   */\n    tag_527:\n        /* \"#utility.yul\":20663:20743   */\n      tag_528\n        /* \"#utility.yul\":20719:20741   */\n      tag_529\n        /* \"#utility.yul\":20737:20740   */\n      dup6\n        /* \"#utility.yul\":20719:20741   */\n      tag_328\n      jump\t// in\n    tag_529:\n        /* \"#utility.yul\":20709:20717   */\n      dup4\n        /* \"#utility.yul\":20705:20742   */\n      add\n        /* \"#utility.yul\":20692:20703   */\n      dup3\n        /* \"#utility.yul\":20663:20743   */\n      tag_337\n      jump\t// in\n    tag_528:\n        /* \"#utility.yul\":20322:20753   */\n      pop\n      pop\n        /* \"#utility.yul\":20307:20753   */\n    tag_524:\n        /* \"#utility.yul\":20217:20760   */\n      pop\n      pop\n      pop\n      jump\t// out\n        /* \"#utility.yul\":20766:20883   */\n    tag_339:\n        /* \"#utility.yul\":20820:20828   */\n      0x00\n        /* \"#utility.yul\":20870:20875   */\n      dup3\n        /* \"#utility.yul\":20864:20868   */\n      dup3\n        /* \"#utility.yul\":20860:20876   */\n      shr\n        /* \"#utility.yul\":20839:20876   */\n      swap1\n      pop\n        /* \"#utility.yul\":20766:20883   */\n      swap3\n      swap2\n      pop\n      pop\n      jump\t// out\n        /* \"#utility.yul\":20889:21058   */\n    tag_340:\n        /* \"#utility.yul\":20933:20939   */\n      0x00\n        /* \"#utility.yul\":20966:21017   */\n      tag_532\n        /* \"#utility.yul\":21014:21015   */\n      0x00\n        /* \"#utility.yul\":21010:21016   */\n      not\n        /* \"#utility.yul\":21002:21007   */\n      dup5\n        /* \"#utility.yul\":20999:21000   */\n      0x08\n        /* \"#utility.yul\":20995:21008   */\n      mul\n        /* \"#utility.yul\":20966:21017   */\n      tag_339\n      jump\t// in\n    tag_532:\n        /* \"#utility.yul\":20962:21018   */\n      not\n        /* \"#utility.yul\":21047:21051   */\n      dup1\n        /* \"#utility.yul\":21041:21045   */\n      dup4\n        /* \"#utility.yul\":21037:21052   */\n      and\n        /* \"#utility.yul\":21027:21052   */\n      swap2\n      pop\n        /* \"#utility.yul\":20940:21058   */\n      pop\n        /* \"#utility.yul\":20889:21058   */\n      swap3\n      swap2\n      pop\n      pop\n      jump\t// out\n        /* \"#utility.yul\":21063:21358   */\n    tag_341:\n        /* \"#utility.yul\":21139:21143   */\n      0x00\n        /* \"#utility.yul\":21285:21314   */\n      tag_534\n        /* \"#utility.yul\":21310:21313   */\n      dup4\n        /* \"#utility.yul\":21304:21308   */\n      dup4\n        /* \"#utility.yul\":21285:21314   */\n      tag_340\n      jump\t// in\n    tag_534:\n        /* \"#utility.yul\":21277:21314   */\n      swap2\n      pop\n        /* \"#utility.yul\":21347:21350   */\n      dup3\n        /* \"#utility.yul\":21344:21345   */\n      0x02\n        /* \"#utility.yul\":21340:21351   */\n      mul\n        /* \"#utility.yul\":21334:21338   */\n      dup3\n        /* \"#utility.yul\":21331:21352   */\n      or\n        /* \"#utility.yul\":21323:21352   */\n      swap1\n      pop\n        /* \"#utility.yul\":21063:21358   */\n      swap3\n      swap2\n      pop\n      pop\n      jump\t// out\n        /* \"#utility.yul\":21363:22766   */\n    tag_169:\n        /* \"#utility.yul\":21487:21531   */\n      tag_536\n        /* \"#utility.yul\":21527:21530   */\n      dup4\n        /* \"#utility.yul\":21522:21525   */\n      dup4\n        /* \"#utility.yul\":21487:21531   */\n      tag_325\n      jump\t// in\n    tag_536:\n        /* \"#utility.yul\":21596:21614   */\n      0xffffffffffffffff\n        /* \"#utility.yul\":21588:21594   */\n      dup2\n        /* \"#utility.yul\":21585:21615   */\n      gt\n        /* \"#utility.yul\":21582:21638   */\n      iszero\n      tag_537\n      jumpi\n        /* \"#utility.yul\":21618:21636   */\n      tag_538\n      tag_326\n      jump\t// in\n    tag_538:\n        /* \"#utility.yul\":21582:21638   */\n    tag_537:\n        /* \"#utility.yul\":21662:21700   */\n      tag_539\n        /* \"#utility.yul\":21694:21698   */\n      dup3\n        /* \"#utility.yul\":21688:21699   */\n      sload\n        /* \"#utility.yul\":21662:21700   */\n      tag_91\n      jump\t// in\n    tag_539:\n        /* \"#utility.yul\":21747:21814   */\n      tag_540\n        /* \"#utility.yul\":21807:21813   */\n      dup3\n        /* \"#utility.yul\":21799:21805   */\n      dup3\n        /* \"#utility.yul\":21793:21797   */\n      dup6\n        /* \"#utility.yul\":21747:21814   */\n      tag_338\n      jump\t// in\n    tag_540:\n        /* \"#utility.yul\":21841:21842   */\n      0x00\n        /* \"#utility.yul\":21870:21872   */\n      0x1f\n        /* \"#utility.yul\":21862:21868   */\n      dup4\n        /* \"#utility.yul\":21859:21873   */\n      gt\n        /* \"#utility.yul\":21887:21888   */\n      0x01\n        /* \"#utility.yul\":21882:22514   */\n      dup2\n      eq\n      tag_542\n      jumpi\n        /* \"#utility.yul\":22558:22559   */\n      0x00\n        /* \"#utility.yul\":22575:22581   */\n      dup5\n        /* \"#utility.yul\":22572:22656   */\n      iszero\n      tag_543\n      jumpi\n        /* \"#utility.yul\":22631:22640   */\n      dup3\n        /* \"#utility.yul\":22626:22629   */\n      dup8\n        /* \"#utility.yul\":22622:22641   */\n      add\n        /* \"#utility.yul\":22609:22642   */\n      calldataload\n        /* \"#utility.yul\":22600:22642   */\n      swap1\n      pop\n        /* \"#utility.yul\":22572:22656   */\n    tag_543:\n        /* \"#utility.yul\":22682:22749   */\n      tag_544\n        /* \"#utility.yul\":22742:22748   */\n      dup6\n        /* \"#utility.yul\":22735:22740   */\n      dup3\n        /* \"#utility.yul\":22682:22749   */\n      tag_341\n      jump\t// in\n    tag_544:\n        /* \"#utility.yul\":22676:22680   */\n      dup7\n        /* \"#utility.yul\":22669:22750   */\n      sstore\n        /* \"#utility.yul\":22531:22760   */\n      pop\n        /* \"#utility.yul\":21852:22760   */\n      jump(tag_541)\n        /* \"#utility.yul\":21882:22514   */\n    tag_542:\n        /* \"#utility.yul\":21934:21938   */\n      0x1f\n        /* \"#utility.yul\":21930:21939   */\n      not\n        /* \"#utility.yul\":21922:21928   */\n      dup5\n        /* \"#utility.yul\":21918:21940   */\n      and\n        /* \"#utility.yul\":21968:22005   */\n      tag_545\n        /* \"#utility.yul\":22000:22004   */\n      dup7\n        /* \"#utility.yul\":21968:22005   */\n      tag_327\n      jump\t// in\n    tag_545:\n        /* \"#utility.yul\":22027:22028   */\n      0x00\n        /* \"#utility.yul\":22041:22256   */\n    tag_546:\n        /* \"#utility.yul\":22055:22062   */\n      dup3\n        /* \"#utility.yul\":22052:22053   */\n      dup2\n        /* \"#utility.yul\":22049:22063   */\n      lt\n        /* \"#utility.yul\":22041:22256   */\n      iszero\n      tag_548\n      jumpi\n        /* \"#utility.yul\":22141:22150   */\n      dup5\n        /* \"#utility.yul\":22136:22139   */\n      dup10\n        /* \"#utility.yul\":22132:22151   */\n      add\n        /* \"#utility.yul\":22119:22152   */\n      calldataload\n        /* \"#utility.yul\":22111:22117   */\n      dup3\n        /* \"#utility.yul\":22104:22153   */\n      sstore\n        /* \"#utility.yul\":22192:22193   */\n      0x01\n        /* \"#utility.yul\":22184:22190   */\n      dup3\n        /* \"#utility.yul\":22180:22194   */\n      add\n        /* \"#utility.yul\":22170:22194   */\n      swap2\n      pop\n        /* \"#utility.yul\":22239:22241   */\n      0x20\n        /* \"#utility.yul\":22228:22237   */\n      dup6\n        /* \"#utility.yul\":22224:22242   */\n      add\n        /* \"#utility.yul\":22211:22242   */\n      swap5\n      pop\n        /* \"#utility.yul\":22078:22082   */\n      0x20\n        /* \"#utility.yul\":22075:22076   */\n      dup2\n        /* \"#utility.yul\":22071:22083   */\n      add\n        /* \"#utility.yul\":22066:22083   */\n      swap1\n      pop\n        /* \"#utility.yul\":22041:22256   */\n      jump(tag_546)\n    tag_548:\n        /* \"#utility.yul\":22284:22290   */\n      dup7\n        /* \"#utility.yul\":22275:22282   */\n      dup4\n        /* \"#utility.yul\":22272:22291   */\n      lt\n        /* \"#utility.yul\":22269:22455   */\n      iszero\n      tag_549\n      jumpi\n        /* \"#utility.yul\":22349:22358   */\n      dup5\n        /* \"#utility.yul\":22344:22347   */\n      dup10\n        /* \"#utility.yul\":22340:22359   */\n      add\n        /* \"#utility.yul\":22327:22360   */\n      calldataload\n        /* \"#utility.yul\":22392:22440   */\n      tag_550\n        /* \"#utility.yul\":22434:22438   */\n      0x1f\n        /* \"#utility.yul\":22426:22432   */\n      dup10\n        /* \"#utility.yul\":22422:22439   */\n      and\n        /* \"#utility.yul\":22411:22420   */\n      dup3\n        /* \"#utility.yul\":22392:22440   */\n      tag_340\n      jump\t// in\n    tag_550:\n        /* \"#utility.yul\":22384:22390   */\n      dup4\n        /* \"#utility.yul\":22377:22441   */\n      sstore\n        /* \"#utility.yul\":22292:22455   */\n      pop\n        /* \"#utility.yul\":22269:22455   */\n    tag_549:\n        /* \"#utility.yul\":22501:22502   */\n      0x01\n        /* \"#utility.yul\":22497:22498   */\n      0x02\n        /* \"#utility.yul\":22489:22495   */\n      dup9\n        /* \"#utility.yul\":22485:22499   */\n      mul\n        /* \"#utility.yul\":22481:22503   */\n      add\n        /* \"#utility.yul\":22475:22479   */\n      dup9\n        /* \"#utility.yul\":22468:22504   */\n      sstore\n        /* \"#utility.yul\":21889:22514   */\n      pop\n      pop\n      pop\n        /* \"#utility.yul\":21852:22760   */\n    tag_541:\n      pop\n        /* \"#utility.yul\":21462:22766   */\n      pop\n      pop\n      pop\n        /* \"#utility.yul\":21363:22766   */\n      pop\n      pop\n      pop\n      jump\t// out\n        /* \"#utility.yul\":22772:22944   */\n    tag_342:\n        /* \"#utility.yul\":22912:22936   */\n      0x496e76616c696420656475636174696f6e436f756e7400000000000000000000\n        /* \"#utility.yul\":22908:22909   */\n      0x00\n        /* \"#utility.yul\":22900:22906   */\n      dup3\n        /* \"#utility.yul\":22896:22910   */\n      add\n        /* \"#utility.yul\":22889:22937   */\n      mstore\n        /* \"#utility.yul\":22772:22944   */\n      pop\n      jump\t// out\n        /* \"#utility.yul\":22950:23316   */\n    tag_343:\n        /* \"#utility.yul\":23092:23095   */\n      0x00\n        /* \"#utility.yul\":23113:23180   */\n      tag_553\n        /* \"#utility.yul\":23177:23179   */\n      0x16\n        /* \"#utility.yul\":23172:23175   */\n      dup4\n        /* \"#utility.yul\":23113:23180   */\n      tag_297\n      jump\t// in\n    tag_553:\n        /* \"#utility.yul\":23106:23180   */\n      swap2\n      pop\n        /* \"#utility.yul\":23189:23282   */\n      tag_554\n        /* \"#utility.yul\":23278:23281   */\n      dup3\n        /* \"#utility.yul\":23189:23282   */\n      tag_342\n      jump\t// in\n    tag_554:\n        /* \"#utility.yul\":23307:23309   */\n      0x20\n        /* \"#utility.yul\":23302:23305   */\n      dup3\n        /* \"#utility.yul\":23298:23310   */\n      add\n        /* \"#utility.yul\":23291:23310   */\n      swap1\n      pop\n        /* \"#utility.yul\":22950:23316   */\n      swap2\n      swap1\n      pop\n      jump\t// out\n        /* \"#utility.yul\":23322:23741   */\n    tag_177:\n        /* \"#utility.yul\":23488:23492   */\n      0x00\n        /* \"#utility.yul\":23526:23528   */\n      0x20\n        /* \"#utility.yul\":23515:23524   */\n      dup3\n        /* \"#utility.yul\":23511:23529   */\n      add\n        /* \"#utility.yul\":23503:23529   */\n      swap1\n      pop\n        /* \"#utility.yul\":23575:23584   */\n      dup2\n        /* \"#utility.yul\":23569:23573   */\n      dup2\n        /* \"#utility.yul\":23565:23585   */\n      sub\n        /* \"#utility.yul\":23561:23562   */\n      0x00\n        /* \"#utility.yul\":23550:23559   */\n      dup4\n        /* \"#utility.yul\":23546:23563   */\n      add\n        /* \"#utility.yul\":23539:23586   */\n      mstore\n        /* \"#utility.yul\":23603:23734   */\n      tag_556\n        /* \"#utility.yul\":23729:23733   */\n      dup2\n        /* \"#utility.yul\":23603:23734   */\n      tag_343\n      jump\t// in\n    tag_556:\n        /* \"#utility.yul\":23595:23734   */\n      swap1\n      pop\n        /* \"#utility.yul\":23322:23741   */\n      swap2\n      swap1\n      pop\n      jump\t// out\n        /* \"#utility.yul\":23747:23927   */\n    tag_180:\n        /* \"#utility.yul\":23795:23872   */\n      0x4e487b7100000000000000000000000000000000000000000000000000000000\n        /* \"#utility.yul\":23792:23793   */\n      0x00\n        /* \"#utility.yul\":23785:23873   */\n      mstore\n        /* \"#utility.yul\":23892:23896   */\n      0x32\n        /* \"#utility.yul\":23889:23890   */\n      0x04\n        /* \"#utility.yul\":23882:23897   */\n      mstore\n        /* \"#utility.yul\":23916:23920   */\n      0x24\n        /* \"#utility.yul\":23913:23914   */\n      0x00\n        /* \"#utility.yul\":23906:23921   */\n      revert\n        /* \"#utility.yul\":23933:25328   */\n    tag_183:\n        /* \"#utility.yul\":24050:24087   */\n      tag_559\n        /* \"#utility.yul\":24083:24086   */\n      dup3\n        /* \"#utility.yul\":24050:24087   */\n      tag_296\n      jump\t// in\n    tag_559:\n        /* \"#utility.yul\":24152:24170   */\n      0xffffffffffffffff\n        /* \"#utility.yul\":24144:24150   */\n      dup2\n        /* \"#utility.yul\":24141:24171   */\n      gt\n        /* \"#utility.yul\":24138:24194   */\n      iszero\n      tag_560\n      jumpi\n        /* \"#utility.yul\":24174:24192   */\n      tag_561\n      tag_326\n      jump\t// in\n    tag_561:\n        /* \"#utility.yul\":24138:24194   */\n    tag_560:\n        /* \"#utility.yul\":24218:24256   */\n      tag_562\n        /* \"#utility.yul\":24250:24254   */\n      dup3\n        /* \"#utility.yul\":24244:24255   */\n      sload\n        /* \"#utility.yul\":24218:24256   */\n      tag_91\n      jump\t// in\n    tag_562:\n        /* \"#utility.yul\":24303:24370   */\n      tag_563\n        /* \"#utility.yul\":24363:24369   */\n      dup3\n        /* \"#utility.yul\":24355:24361   */\n      dup3\n        /* \"#utility.yul\":24349:24353   */\n      dup6\n        /* \"#utility.yul\":24303:24370   */\n      tag_338\n      jump\t// in\n    tag_563:\n        /* \"#utility.yul\":24397:24398   */\n      0x00\n        /* \"#utility.yul\":24421:24425   */\n      0x20\n        /* \"#utility.yul\":24408:24425   */\n      swap1\n      pop\n        /* \"#utility.yul\":24453:24455   */\n      0x1f\n        /* \"#utility.yul\":24445:24451   */\n      dup4\n        /* \"#utility.yul\":24442:24456   */\n      gt\n        /* \"#utility.yul\":24470:24471   */\n      0x01\n        /* \"#utility.yul\":24465:25083   */\n      dup2\n      eq\n      tag_565\n      jumpi\n        /* \"#utility.yul\":25127:25128   */\n      0x00\n        /* \"#utility.yul\":25144:25150   */\n      dup5\n        /* \"#utility.yul\":25141:25218   */\n      iszero\n      tag_566\n      jumpi\n        /* \"#utility.yul\":25193:25202   */\n      dup3\n        /* \"#utility.yul\":25188:25191   */\n      dup8\n        /* \"#utility.yul\":25184:25203   */\n      add\n        /* \"#utility.yul\":25178:25204   */\n      mload\n        /* \"#utility.yul\":25169:25204   */\n      swap1\n      pop\n        /* \"#utility.yul\":25141:25218   */\n    tag_566:\n        /* \"#utility.yul\":25244:25311   */\n      tag_567\n        /* \"#utility.yul\":25304:25310   */\n      dup6\n        /* \"#utility.yul\":25297:25302   */\n      dup3\n        /* \"#utility.yul\":25244:25311   */\n      tag_341\n      jump\t// in\n    tag_567:\n        /* \"#utility.yul\":25238:25242   */\n      dup7\n        /* \"#utility.yul\":25231:25312   */\n      sstore\n        /* \"#utility.yul\":25100:25322   */\n      pop\n        /* \"#utility.yul\":24435:25322   */\n      jump(tag_564)\n        /* \"#utility.yul\":24465:25083   */\n    tag_565:\n        /* \"#utility.yul\":24517:24521   */\n      0x1f\n        /* \"#utility.yul\":24513:24522   */\n      not\n        /* \"#utility.yul\":24505:24511   */\n      dup5\n        /* \"#utility.yul\":24501:24523   */\n      and\n        /* \"#utility.yul\":24551:24588   */\n      tag_568\n        /* \"#utility.yul\":24583:24587   */\n      dup7\n        /* \"#utility.yul\":24551:24588   */\n      tag_327\n      jump\t// in\n    tag_568:\n        /* \"#utility.yul\":24610:24611   */\n      0x00\n        /* \"#utility.yul\":24624:24832   */\n    tag_569:\n        /* \"#utility.yul\":24638:24645   */\n      dup3\n        /* \"#utility.yul\":24635:24636   */\n      dup2\n        /* \"#utility.yul\":24632:24646   */\n      lt\n        /* \"#utility.yul\":24624:24832   */\n      iszero\n      tag_571\n      jumpi\n        /* \"#utility.yul\":24717:24726   */\n      dup5\n        /* \"#utility.yul\":24712:24715   */\n      dup10\n        /* \"#utility.yul\":24708:24727   */\n      add\n        /* \"#utility.yul\":24702:24728   */\n      mload\n        /* \"#utility.yul\":24694:24700   */\n      dup3\n        /* \"#utility.yul\":24687:24729   */\n      sstore\n        /* \"#utility.yul\":24768:24769   */\n      0x01\n        /* \"#utility.yul\":24760:24766   */\n      dup3\n        /* \"#utility.yul\":24756:24770   */\n      add\n        /* \"#utility.yul\":24746:24770   */\n      swap2\n      pop\n        /* \"#utility.yul\":24815:24817   */\n      0x20\n        /* \"#utility.yul\":24804:24813   */\n      dup6\n        /* \"#utility.yul\":24800:24818   */\n      add\n        /* \"#utility.yul\":24787:24818   */\n      swap5\n      pop\n        /* \"#utility.yul\":24661:24665   */\n      0x20\n        /* \"#utility.yul\":24658:24659   */\n      dup2\n        /* \"#utility.yul\":24654:24666   */\n      add\n        /* \"#utility.yul\":24649:24666   */\n      swap1\n      pop\n        /* \"#utility.yul\":24624:24832   */\n      jump(tag_569)\n    tag_571:\n        /* \"#utility.yul\":24860:24866   */\n      dup7\n        /* \"#utility.yul\":24851:24858   */\n      dup4\n        /* \"#utility.yul\":24848:24867   */\n      lt\n        /* \"#utility.yul\":24845:25024   */\n      iszero\n      tag_572\n      jumpi\n        /* \"#utility.yul\":24918:24927   */\n      dup5\n        /* \"#utility.yul\":24913:24916   */\n      dup10\n        /* \"#utility.yul\":24909:24928   */\n      add\n        /* \"#utility.yul\":24903:24929   */\n      mload\n        /* \"#utility.yul\":24961:25009   */\n      tag_573\n        /* \"#utility.yul\":25003:25007   */\n      0x1f\n        /* \"#utility.yul\":24995:25001   */\n      dup10\n        /* \"#utility.yul\":24991:25008   */\n      and\n        /* \"#utility.yul\":24980:24989   */\n      dup3\n        /* \"#utility.yul\":24961:25009   */\n      tag_340\n      jump\t// in\n    tag_573:\n        /* \"#utility.yul\":24953:24959   */\n      dup4\n        /* \"#utility.yul\":24946:25010   */\n      sstore\n        /* \"#utility.yul\":24868:25024   */\n      pop\n        /* \"#utility.yul\":24845:25024   */\n    tag_572:\n        /* \"#utility.yul\":25070:25071   */\n      0x01\n        /* \"#utility.yul\":25066:25067   */\n      0x02\n        /* \"#utility.yul\":25058:25064   */\n      dup9\n        /* \"#utility.yul\":25054:25068   */\n      mul\n        /* \"#utility.yul\":25050:25072   */\n      add\n        /* \"#utility.yul\":25044:25048   */\n      dup9\n        /* \"#utility.yul\":25037:25073   */\n      sstore\n        /* \"#utility.yul\":24472:25083   */\n      pop\n      pop\n      pop\n        /* \"#utility.yul\":24435:25322   */\n    tag_564:\n      pop\n        /* \"#utility.yul\":24025:25328   */\n      pop\n      pop\n      pop\n        /* \"#utility.yul\":23933:25328   */\n      pop\n      pop\n      jump\t// out\n        /* \"#utility.yul\":25334:25508   */\n    tag_344:\n        /* \"#utility.yul\":25474:25500   */\n      0x4e6f74206d6f7265207468616e20332070726f6a656374730000000000000000\n        /* \"#utility.yul\":25470:25471   */\n      0x00\n        /* \"#utility.yul\":25462:25468   */\n      dup3\n        /* \"#utility.yul\":25458:25472   */\n      add\n        /* \"#utility.yul\":25451:25501   */\n      mstore\n        /* \"#utility.yul\":25334:25508   */\n      pop\n      jump\t// out\n        /* \"#utility.yul\":25514:25880   */\n    tag_345:\n        /* \"#utility.yul\":25656:25659   */\n      0x00\n        /* \"#utility.yul\":25677:25744   */\n      tag_576\n        /* \"#utility.yul\":25741:25743   */\n      0x18\n        /* \"#utility.yul\":25736:25739   */\n      dup4\n        /* \"#utility.yul\":25677:25744   */\n      tag_297\n      jump\t// in\n    tag_576:\n        /* \"#utility.yul\":25670:25744   */\n      swap2\n      pop\n        /* \"#utility.yul\":25753:25846   */\n      tag_577\n        /* \"#utility.yul\":25842:25845   */\n      dup3\n        /* \"#utility.yul\":25753:25846   */\n      tag_344\n      jump\t// in\n    tag_577:\n        /* \"#utility.yul\":25871:25873   */\n      0x20\n        /* \"#utility.yul\":25866:25869   */\n      dup3\n        /* \"#utility.yul\":25862:25874   */\n      add\n        /* \"#utility.yul\":25855:25874   */\n      swap1\n      pop\n        /* \"#utility.yul\":25514:25880   */\n      swap2\n      swap1\n      pop\n      jump\t// out\n        /* \"#utility.yul\":25886:26305   */\n    tag_198:\n        /* \"#utility.yul\":26052:26056   */\n      0x00\n        /* \"#utility.yul\":26090:26092   */\n      0x20\n        /* \"#utility.yul\":26079:26088   */\n      dup3\n        /* \"#utility.yul\":26075:26093   */\n      add\n        /* \"#utility.yul\":26067:26093   */\n      swap1\n      pop\n        /* \"#utility.yul\":26139:26148   */\n      dup2\n        /* \"#utility.yul\":26133:26137   */\n      dup2\n        /* \"#utility.yul\":26129:26149   */\n      sub\n        /* \"#utility.yul\":26125:26126   */\n      0x00\n        /* \"#utility.yul\":26114:26123   */\n      dup4\n        /* \"#utility.yul\":26110:26127   */\n      add\n        /* \"#utility.yul\":26103:26150   */\n      mstore\n        /* \"#utility.yul\":26167:26298   */\n      tag_579\n        /* \"#utility.yul\":26293:26297   */\n      dup2\n        /* \"#utility.yul\":26167:26298   */\n      tag_345\n      jump\t// in\n    tag_579:\n        /* \"#utility.yul\":26159:26298   */\n      swap1\n      pop\n        /* \"#utility.yul\":25886:26305   */\n      swap2\n      swap1\n      pop\n      jump\t// out\n        /* \"#utility.yul\":26311:26491   */\n    tag_346:\n        /* \"#utility.yul\":26359:26436   */\n      0x4e487b7100000000000000000000000000000000000000000000000000000000\n        /* \"#utility.yul\":26356:26357   */\n      0x00\n        /* \"#utility.yul\":26349:26437   */\n      mstore\n        /* \"#utility.yul\":26456:26460   */\n      0x11\n        /* \"#utility.yul\":26453:26454   */\n      0x04\n        /* \"#utility.yul\":26446:26461   */\n      mstore\n        /* \"#utility.yul\":26480:26484   */\n      0x24\n        /* \"#utility.yul\":26477:26478   */\n      0x00\n        /* \"#utility.yul\":26470:26485   */\n      revert\n        /* \"#utility.yul\":26497:26730   */\n    tag_207:\n        /* \"#utility.yul\":26536:26539   */\n      0x00\n        /* \"#utility.yul\":26559:26583   */\n      tag_582\n        /* \"#utility.yul\":26577:26582   */\n      dup3\n        /* \"#utility.yul\":26559:26583   */\n      tag_292\n      jump\t// in\n    tag_582:\n        /* \"#utility.yul\":26550:26583   */\n      swap2\n      pop\n        /* \"#utility.yul\":26605:26671   */\n      0xffffffffffffffffffffffffffffffffffffffffffffffffffffffffffffffff\n        /* \"#utility.yul\":26598:26603   */\n      dup3\n        /* \"#utility.yul\":26595:26672   */\n      sub\n        /* \"#utility.yul\":26592:26695   */\n      tag_583\n      jumpi\n        /* \"#utility.yul\":26675:26693   */\n      tag_584\n      tag_346\n      jump\t// in\n    tag_584:\n        /* \"#utility.yul\":26592:26695   */\n    tag_583:\n        /* \"#utility.yul\":26722:26723   */\n      0x01\n        /* \"#utility.yul\":26715:26720   */\n      dup3\n        /* \"#utility.yul\":26711:26724   */\n      add\n        /* \"#utility.yul\":26704:26724   */\n      swap1\n      pop\n        /* \"#utility.yul\":26497:26730   */\n      swap2\n      swap1\n      pop\n      jump\t// out\n        /* \"#utility.yul\":26736:26906   */\n    tag_347:\n        /* \"#utility.yul\":26876:26898   */\n      0x496e76616c69642050726f6a656374436f756e74000000000000000000000000\n        /* \"#utility.yul\":26872:26873   */\n      0x00\n        /* \"#utility.yul\":26864:26870   */\n      dup3\n        /* \"#utility.yul\":26860:26874   */\n      add\n        /* \"#utility.yul\":26853:26899   */\n      mstore\n        /* \"#utility.yul\":26736:26906   */\n      pop\n      jump\t// out\n        /* \"#utility.yul\":26912:27278   */\n    tag_348:\n        /* \"#utility.yul\":27054:27057   */\n      0x00\n        /* \"#utility.yul\":27075:27142   */\n      tag_587\n        /* \"#utility.yul\":27139:27141   */\n      0x14\n        /* \"#utility.yul\":27134:27137   */\n      dup4\n        /* \"#utility.yul\":27075:27142   */\n      tag_297\n      jump\t// in\n    tag_587:\n        /* \"#utility.yul\":27068:27142   */\n      swap2\n      pop\n        /* \"#utility.yul\":27151:27244   */\n      tag_588\n        /* \"#utility.yul\":27240:27243   */\n      dup3\n        /* \"#utility.yul\":27151:27244   */\n      tag_347\n      jump\t// in\n    tag_588:\n        /* \"#utility.yul\":27269:27271   */\n      0x20\n        /* \"#utility.yul\":27264:27267   */\n      dup3\n        /* \"#utility.yul\":27260:27272   */\n      add\n        /* \"#utility.yul\":27253:27272   */\n      swap1\n      pop\n        /* \"#utility.yul\":26912:27278   */\n      swap2\n      swap1\n      pop\n      jump\t// out\n        /* \"#utility.yul\":27284:27703   */\n    tag_215:\n        /* \"#utility.yul\":27450:27454   */\n      0x00\n        /* \"#utility.yul\":27488:27490   */\n      0x20\n        /* \"#utility.yul\":27477:27486   */\n      dup3\n        /* \"#utility.yul\":27473:27491   */\n      add\n        /* \"#utility.yul\":27465:27491   */\n      swap1\n      pop\n        /* \"#utility.yul\":27537:27546   */\n      dup2\n        /* \"#utility.yul\":27531:27535   */\n      dup2\n        /* \"#utility.yul\":27527:27547   */\n      sub\n        /* \"#utility.yul\":27523:27524   */\n      0x00\n        /* \"#utility.yul\":27512:27521   */\n      dup4\n        /* \"#utility.yul\":27508:27525   */\n      add\n        /* \"#utility.yul\":27501:27548   */\n      mstore\n        /* \"#utility.yul\":27565:27696   */\n      tag_590\n        /* \"#utility.yul\":27691:27695   */\n      dup2\n        /* \"#utility.yul\":27565:27696   */\n      tag_348\n      jump\t// in\n    tag_590:\n        /* \"#utility.yul\":27557:27696   */\n      swap1\n      pop\n        /* \"#utility.yul\":27284:27703   */\n      swap2\n      swap1\n      pop\n      jump\t// out\n        /* \"#utility.yul\":27709:27891   */\n    tag_349:\n        /* \"#utility.yul\":27849:27883   */\n      0x4f6e6c79203320656475636174696f6e2064657461696c7320616c6c6f776564\n        /* \"#utility.yul\":27845:27846   */\n      0x00\n        /* \"#utility.yul\":27837:27843   */\n      dup3\n        /* \"#utility.yul\":27833:27847   */\n      add\n        /* \"#utility.yul\":27826:27884   */\n      mstore\n        /* \"#utility.yul\":27709:27891   */\n      pop\n      jump\t// out\n        /* \"#utility.yul\":27897:28263   */\n    tag_350:\n        /* \"#utility.yul\":28039:28042   */\n      0x00\n        /* \"#utility.yul\":28060:28127   */\n      tag_593\n        /* \"#utility.yul\":28124:28126   */\n      0x20\n        /* \"#utility.yul\":28119:28122   */\n      dup4\n        /* \"#utility.yul\":28060:28127   */\n      tag_297\n      jump\t// in\n    tag_593:\n        /* \"#utility.yul\":28053:28127   */\n      swap2\n      pop\n        /* \"#utility.yul\":28136:28229   */\n      tag_594\n        /* \"#utility.yul\":28225:28228   */\n      dup3\n        /* \"#utility.yul\":28136:28229   */\n      tag_349\n      jump\t// in\n    tag_594:\n        /* \"#utility.yul\":28254:28256   */\n      0x20\n        /* \"#utility.yul\":28249:28252   */\n      dup3\n        /* \"#utility.yul\":28245:28257   */\n      add\n        /* \"#utility.yul\":28238:28257   */\n      swap1\n      pop\n        /* \"#utility.yul\":27897:28263   */\n      swap2\n      swap1\n      pop\n      jump\t// out\n        /* \"#utility.yul\":28269:28688   */\n    tag_256:\n        /* \"#utility.yul\":28435:28439   */\n      0x00\n        /* \"#utility.yul\":28473:28475   */\n      0x20\n        /* \"#utility.yul\":28462:28471   */\n      dup3\n        /* \"#utility.yul\":28458:28476   */\n      add\n        /* \"#utility.yul\":28450:28476   */\n      swap1\n      pop\n        /* \"#utility.yul\":28522:28531   */\n      dup2\n        /* \"#utility.yul\":28516:28520   */\n      dup2\n        /* \"#utility.yul\":28512:28532   */\n      sub\n        /* \"#utility.yul\":28508:28509   */\n      0x00\n        /* \"#utility.yul\":28497:28506   */\n      dup4\n        /* \"#utility.yul\":28493:28510   */\n      add\n        /* \"#utility.yul\":28486:28533   */\n      mstore\n        /* \"#utility.yul\":28550:28681   */\n      tag_596\n        /* \"#utility.yul\":28676:28680   */\n      dup2\n        /* \"#utility.yul\":28550:28681   */\n      tag_350\n      jump\t// in\n    tag_596:\n        /* \"#utility.yul\":28542:28681   */\n      swap1\n      pop\n        /* \"#utility.yul\":28269:28688   */\n      swap2\n      swap1\n      pop\n      jump\t// out\n\n    auxdata: 0xa2646970667358221220b098ac11f8c7ac71de6f5cc7bfdb1aaf65f13657ef8e5cc120f62a068c740e1764736f6c634300081a0033\n}\n",
				"bytecode": {
					"linkReferences": {},
					"object": "60806040526040518060600160405280602e8152602001612e86602e9139601f908161002b9190610307565b50604051806080016040528060498152602001612e0f60499139602090816100539190610307565b506040518060600160405280602e8152602001612e58602e91396021908161007b9190610307565b50348015610087575f80fd5b5033601e5f6101000a81548173ffffffffffffffffffffffffffffffffffffffff021916908373ffffffffffffffffffffffffffffffffffffffff1602179055506103d6565b5f81519050919050565b7f4e487b71000000000000000000000000000000000000000000000000000000005f52604160045260245ffd5b7f4e487b71000000000000000000000000000000000000000000000000000000005f52602260045260245ffd5b5f600282049050600182168061014857607f821691505b60208210810361015b5761015a610104565b5b50919050565b5f819050815f5260205f209050919050565b5f6020601f8301049050919050565b5f82821b905092915050565b5f600883026101bd7fffffffffffffffffffffffffffffffffffffffffffffffffffffffffffffffff82610182565b6101c78683610182565b95508019841693508086168417925050509392505050565b5f819050919050565b5f819050919050565b5f61020b610206610201846101df565b6101e8565b6101df565b9050919050565b5f819050919050565b610224836101f1565b61023861023082610212565b84845461018e565b825550505050565b5f90565b61024c610240565b61025781848461021b565b505050565b5b8181101561027a5761026f5f82610244565b60018101905061025d565b5050565b601f8211156102bf5761029081610161565b61029984610173565b810160208510156102a8578190505b6102bc6102b485610173565b83018261025c565b50505b505050565b5f82821c905092915050565b5f6102df5f19846008026102c4565b1980831691505092915050565b5f6102f783836102d0565b9150826002028217905092915050565b610310826100cd565b67ffffffffffffffff811115610329576103286100d7565b5b6103338254610131565b61033e82828561027e565b5f60209050601f83116001811461036f575f841561035d578287015190505b61036785826102ec565b8655506103ce565b601f19841661037d86610161565b5f5b828110156103a45784890151825560018201915060208501945060208101905061037f565b868310156103c157848901516103bd601f8916826102d0565b8355505b6001600288020188555050505b505050505050565b612a2c806103e35f395ff3fe6080604052600436106100e7575f3560e01c80636fe8e0bd11610089578063caf7b75911610058578063caf7b759146102db578063d3cedf1114610305578063e61204131461032d578063ed88c68e14610355576100e7565b80636fe8e0bd146102215780637284e416146102495780637aea95aa1461027357806398f831b6146102b3576100e7565b8063598e7f37116100c5578063598e7f371461017f5780635b173a69146101a75780635cea6a7c146101cf5780636426d4c3146101f9576100e7565b8063107046bd146100eb5780632adf13b21461012b5780635397c6ec14610155575b5f80fd5b3480156100f6575f80fd5b50610111600480360381019061010c9190611c98565b61035f565b604051610122959493929190611d42565b60405180910390f35b348015610136575f80fd5b5061013f6105af565b60405161014c9190611f3d565b60405180910390f35b348015610160575f80fd5b50610169610848565b6040516101769190612094565b60405180910390f35b34801561018a575f80fd5b506101a560048036038101906101a09190612115565b610ae2565b005b3480156101b2575f80fd5b506101cd60048036038101906101c89190612160565b610b87565b005b3480156101da575f80fd5b506101e3610e1e565b6040516101f09190612256565b60405180910390f35b348015610204575f80fd5b5061021f600480360381019061021a9190612276565b610eaa565b005b34801561022c575f80fd5b5061024760048036038101906102429190612160565b611150565b005b348015610254575f80fd5b5061025d6113e6565b60405161026a9190612256565b60405180910390f35b34801561027e575f80fd5b5061029960048036038101906102949190611c98565b611472565b6040516102aa959493929190611d42565b60405180910390f35b3480156102be575f80fd5b506102d960048036038101906102d49190612276565b6116c3565b005b3480156102e6575f80fd5b506102ef61196a565b6040516102fc9190612256565b60405180910390f35b348015610310575f80fd5b5061032b60048036038101906103269190612115565b6119f6565b005b348015610338575f80fd5b50610353600480360381019061034e9190612115565b611a9b565b005b61035d611b40565b005b5f816003811061036d575f80fd5b600502015f91509050805f01549080600101805461038a90612387565b80601f01602080910402602001604051908101604052809291908181526020018280546103b690612387565b80156104015780601f106103d857610100808354040283529160200191610401565b820191905f5260205f20905b8154815290600101906020018083116103e457829003601f168201915b50505050509080600201805461041690612387565b80601f016020809104026020016040519081016040528092919081815260200182805461044290612387565b801561048d5780601f106104645761010080835404028352916020019161048d565b820191905f5260205f20905b81548152906001019060200180831161047057829003601f168201915b5050505050908060030180546104a290612387565b80601f01602080910402602001604051908101604052809291908181526020018280546104ce90612387565b80156105195780601f106104f057610100808354040283529160200191610519565b820191905f5260205f20905b8154815290600101906020018083116104fc57829003601f168201915b50505050509080600401805461052e90612387565b80601f016020809104026020016040519081016040528092919081815260200182805461055a90612387565b80156105a55780601f1061057c576101008083540402835291602001916105a5565b820191905f5260205f20905b81548152906001019060200180831161058857829003601f168201915b5050505050905085565b6105b7611ba7565b5f600380602002604051908101604052809291905f905b8282101561083f578382600502016040518060a00160405290815f820154815260200160018201805461060090612387565b80601f016020809104026020016040519081016040528092919081815260200182805461062c90612387565b80156106775780601f1061064e57610100808354040283529160200191610677565b820191905f5260205f20905b81548152906001019060200180831161065a57829003601f168201915b5050505050815260200160028201805461069090612387565b80601f01602080910402602001604051908101604052809291908181526020018280546106bc90612387565b80156107075780601f106106de57610100808354040283529160200191610707565b820191905f5260205f20905b8154815290600101906020018083116106ea57829003601f168201915b5050505050815260200160038201805461072090612387565b80601f016020809104026020016040519081016040528092919081815260200182805461074c90612387565b80156107975780601f1061076e57610100808354040283529160200191610797565b820191905f5260205f20905b81548152906001019060200180831161077a57829003601f168201915b505050505081526020016004820180546107b090612387565b80601f01602080910402602001604051908101604052809291908181526020018280546107dc90612387565b80156108275780601f106107fe57610100808354040283529160200191610827565b820191905f5260205f20905b81548152906001019060200180831161080a57829003601f168201915b505050505081525050815260200190600101906105ce565b50505050905090565b610850611bd4565b600f600380602002604051908101604052809291905f905b82821015610ad9578382600502016040518060a00160405290815f820154815260200160018201805461089a90612387565b80601f01602080910402602001604051908101604052809291908181526020018280546108c690612387565b80156109115780601f106108e857610100808354040283529160200191610911565b820191905f5260205f20905b8154815290600101906020018083116108f457829003601f168201915b5050505050815260200160028201805461092a90612387565b80601f016020809104026020016040519081016040528092919081815260200182805461095690612387565b80156109a15780601f10610978576101008083540402835291602001916109a1565b820191905f5260205f20905b81548152906001019060200180831161098457829003601f168201915b505050505081526020016003820180546109ba90612387565b80601f01602080910402602001604051908101604052809291908181526020018280546109e690612387565b8015610a315780601f10610a0857610100808354040283529160200191610a31565b820191905f5260205f20905b815481529060010190602001808311610a1457829003601f168201915b50505050508152602001600482018054610a4a90612387565b80601f0160208091040260200160405190810160405280929190818152602001828054610a7690612387565b8015610ac15780601f10610a9857610100808354040283529160200191610ac1565b820191905f5260205f20905b815481529060010190602001808311610aa457829003601f168201915b50505050508152505081526020019060010190610868565b50505050905090565b3373ffffffffffffffffffffffffffffffffffffffff16601e5f9054906101000a900473ffffffffffffffffffffffffffffffffffffffff1673ffffffffffffffffffffffffffffffffffffffff1614610b71576040517f08c379a0000000000000000000000000000000000000000000000000000000008152600401610b6890612427565b60405180910390fd5b8181601f9182610b82929190612619565b505050565b3373ffffffffffffffffffffffffffffffffffffffff16601e5f9054906101000a900473ffffffffffffffffffffffffffffffffffffffff1673ffffffffffffffffffffffffffffffffffffffff1614610c16576040517f08c379a0000000000000000000000000000000000000000000000000000000008152600401610c0d90612427565b60405180910390fd5b5f8110158015610c265750600381105b610c65576040517f08c379a0000000000000000000000000000000000000000000000000000000008152600401610c5c90612730565b60405180910390fd5b6040518060a001604052808281526020018a8a8080601f0160208091040260200160405190810160405280939291908181526020018383808284375f81840152601f19601f82011690508083019250505050505050815260200188888080601f0160208091040260200160405190810160405280939291908181526020018383808284375f81840152601f19601f82011690508083019250505050505050815260200186868080601f0160208091040260200160405190810160405280939291908181526020018383808284375f81840152601f19601f82011690508083019250505050505050815260200184848080601f0160208091040260200160405190810160405280939291908181526020018383808284375f81840152601f19601f82011690508083019250505050505050815250600f8260038110610dac57610dab61274e565b5b600502015f820151815f01556020820151816001019081610dcd919061277b565b506040820151816002019081610de3919061277b565b506060820151816003019081610df9919061277b565b506080820151816004019081610e0f919061277b565b50905050505050505050505050565b60218054610e2b90612387565b80601f0160208091040260200160405190810160405280929190818152602001828054610e5790612387565b8015610ea25780601f10610e7957610100808354040283529160200191610ea2565b820191905f5260205f20905b815481529060010190602001808311610e8557829003601f168201915b505050505081565b3373ffffffffffffffffffffffffffffffffffffffff16601e5f9054906101000a900473ffffffffffffffffffffffffffffffffffffffff1673ffffffffffffffffffffffffffffffffffffffff1614610f39576040517f08c379a0000000000000000000000000000000000000000000000000000000008152600401610f3090612427565b60405180910390fd5b600360225410610f7e576040517f08c379a0000000000000000000000000000000000000000000000000000000008152600401610f7590612894565b60405180910390fd5b6040518060a00160405280602254815260200189898080601f0160208091040260200160405190810160405280939291908181526020018383808284375f81840152601f19601f82011690508083019250505050505050815260200187878080601f0160208091040260200160405190810160405280939291908181526020018383808284375f81840152601f19601f82011690508083019250505050505050815260200185858080601f0160208091040260200160405190810160405280939291908181526020018383808284375f81840152601f19601f82011690508083019250505050505050815260200183838080601f0160208091040260200160405190810160405280939291908181526020018383808284375f81840152601f19601f820116905080830192505050505050508152505f602254600381106110c8576110c761274e565b5b600502015f820151815f015560208201518160010190816110e9919061277b565b5060408201518160020190816110ff919061277b565b506060820151816003019081611115919061277b565b50608082015181600401908161112b919061277b565b5090505060225f815480929190611141906128df565b91905055505050505050505050565b3373ffffffffffffffffffffffffffffffffffffffff16601e5f9054906101000a900473ffffffffffffffffffffffffffffffffffffffff1673ffffffffffffffffffffffffffffffffffffffff16146111df576040517f08c379a00000000000000000000000000000000000000000000000000000000081526004016111d690612427565b60405180910390fd5b5f81101580156111ef5750600381105b61122e576040517f08c379a000000000000000000000000000000000000000000000000000000000815260040161122590612970565b60405180910390fd5b6040518060a001604052808281526020018a8a8080601f0160208091040260200160405190810160405280939291908181526020018383808284375f81840152601f19601f82011690508083019250505050505050815260200188888080601f0160208091040260200160405190810160405280939291908181526020018383808284375f81840152601f19601f82011690508083019250505050505050815260200186868080601f0160208091040260200160405190810160405280939291908181526020018383808284375f81840152601f19601f82011690508083019250505050505050815260200184848080601f0160208091040260200160405190810160405280939291908181526020018383808284375f81840152601f19601f820116905080830192505050505050508152505f82600381106113745761137361274e565b5b600502015f820151815f01556020820151816001019081611395919061277b565b5060408201518160020190816113ab919061277b565b5060608201518160030190816113c1919061277b565b5060808201518160040190816113d7919061277b565b50905050505050505050505050565b602080546113f390612387565b80601f016020809104026020016040519081016040528092919081815260200182805461141f90612387565b801561146a5780601f106114415761010080835404028352916020019161146a565b820191905f5260205f20905b81548152906001019060200180831161144d57829003601f168201915b505050505081565b600f8160038110611481575f80fd5b600502015f91509050805f01549080600101805461149e90612387565b80601f01602080910402602001604051908101604052809291908181526020018280546114ca90612387565b80156115155780601f106114ec57610100808354040283529160200191611515565b820191905f5260205f20905b8154815290600101906020018083116114f857829003601f168201915b50505050509080600201805461152a90612387565b80601f016020809104026020016040519081016040528092919081815260200182805461155690612387565b80156115a15780601f10611578576101008083540402835291602001916115a1565b820191905f5260205f20905b81548152906001019060200180831161158457829003601f168201915b5050505050908060030180546115b690612387565b80601f01602080910402602001604051908101604052809291908181526020018280546115e290612387565b801561162d5780601f106116045761010080835404028352916020019161162d565b820191905f5260205f20905b81548152906001019060200180831161161057829003601f168201915b50505050509080600401805461164290612387565b80601f016020809104026020016040519081016040528092919081815260200182805461166e90612387565b80156116b95780601f10611690576101008083540402835291602001916116b9565b820191905f5260205f20905b81548152906001019060200180831161169c57829003601f168201915b5050505050905085565b3373ffffffffffffffffffffffffffffffffffffffff16601e5f9054906101000a900473ffffffffffffffffffffffffffffffffffffffff1673ffffffffffffffffffffffffffffffffffffffff1614611752576040517f08c379a000000000000000000000000000000000000000000000000000000000815260040161174990612427565b60405180910390fd5b600360235410611797576040517f08c379a000000000000000000000000000000000000000000000000000000000815260040161178e906129d8565b60405180910390fd5b6040518060a00160405280602354815260200189898080601f0160208091040260200160405190810160405280939291908181526020018383808284375f81840152601f19601f82011690508083019250505050505050815260200187878080601f0160208091040260200160405190810160405280939291908181526020018383808284375f81840152601f19601f82011690508083019250505050505050815260200185858080601f0160208091040260200160405190810160405280939291908181526020018383808284375f81840152601f19601f82011690508083019250505050505050815260200183838080601f0160208091040260200160405190810160405280939291908181526020018383808284375f81840152601f19601f82011690508083019250505050505050815250600f602354600381106118e2576118e161274e565b5b600502015f820151815f01556020820151816001019081611903919061277b565b506040820151816002019081611919919061277b565b50606082015181600301908161192f919061277b565b506080820151816004019081611945919061277b565b5090505060235f81548092919061195b906128df565b91905055505050505050505050565b601f805461197790612387565b80601f01602080910402602001604051908101604052809291908181526020018280546119a390612387565b80156119ee5780601f106119c5576101008083540402835291602001916119ee565b820191905f5260205f20905b8154815290600101906020018083116119d157829003601f168201915b505050505081565b3373ffffffffffffffffffffffffffffffffffffffff16601e5f9054906101000a900473ffffffffffffffffffffffffffffffffffffffff1673ffffffffffffffffffffffffffffffffffffffff1614611a85576040517f08c379a0000000000000000000000000000000000000000000000000000000008152600401611a7c90612427565b60405180910390fd5b818160219182611a96929190612619565b505050565b3373ffffffffffffffffffffffffffffffffffffffff16601e5f9054906101000a900473ffffffffffffffffffffffffffffffffffffffff1673ffffffffffffffffffffffffffffffffffffffff1614611b2a576040517f08c379a0000000000000000000000000000000000000000000000000000000008152600401611b2190612427565b60405180910390fd5b818160209182611b3b929190612619565b505050565b601e5f9054906101000a900473ffffffffffffffffffffffffffffffffffffffff1673ffffffffffffffffffffffffffffffffffffffff166108fc3490811502906040515f60405180830381858888f19350505050158015611ba4573d5f803e3d5ffd5b50565b60405180606001604052806003905b611bbe611c01565b815260200190600190039081611bb65790505090565b60405180606001604052806003905b611beb611c2f565b815260200190600190039081611be35790505090565b6040518060a001604052805f8152602001606081526020016060815260200160608152602001606081525090565b6040518060a001604052805f8152602001606081526020016060815260200160608152602001606081525090565b5f80fd5b5f80fd5b5f819050919050565b611c7781611c65565b8114611c81575f80fd5b50565b5f81359050611c9281611c6e565b92915050565b5f60208284031215611cad57611cac611c5d565b5b5f611cba84828501611c84565b91505092915050565b611ccc81611c65565b82525050565b5f81519050919050565b5f82825260208201905092915050565b8281835e5f83830152505050565b5f601f19601f8301169050919050565b5f611d1482611cd2565b611d1e8185611cdc565b9350611d2e818560208601611cec565b611d3781611cfa565b840191505092915050565b5f60a082019050611d555f830188611cc3565b8181036020830152611d678187611d0a565b90508181036040830152611d7b8186611d0a565b90508181036060830152611d8f8185611d0a565b90508181036080830152611da38184611d0a565b90509695505050505050565b5f60039050919050565b5f81905092915050565b5f819050919050565b611dd581611c65565b82525050565b5f82825260208201905092915050565b5f611df582611cd2565b611dff8185611ddb565b9350611e0f818560208601611cec565b611e1881611cfa565b840191505092915050565b5f60a083015f830151611e385f860182611dcc565b5060208301518482036020860152611e508282611deb565b91505060408301518482036040860152611e6a8282611deb565b91505060608301518482036060860152611e848282611deb565b91505060808301518482036080860152611e9e8282611deb565b9150508091505092915050565b5f611eb68383611e23565b905092915050565b5f602082019050919050565b5f611ed482611daf565b611ede8185611db9565b935083602082028501611ef085611dc3565b805f5b85811015611f2b5784840389528151611f0c8582611eab565b9450611f1783611ebe565b925060208a01995050600181019050611ef3565b50829750879550505050505092915050565b5f6020820190508181035f830152611f558184611eca565b905092915050565b5f60039050919050565b5f81905092915050565b5f819050919050565b5f60a083015f830151611f8f5f860182611dcc565b5060208301518482036020860152611fa78282611deb565b91505060408301518482036040860152611fc18282611deb565b91505060608301518482036060860152611fdb8282611deb565b91505060808301518482036080860152611ff58282611deb565b9150508091505092915050565b5f61200d8383611f7a565b905092915050565b5f602082019050919050565b5f61202b82611f5d565b6120358185611f67565b93508360208202850161204785611f71565b805f5b8581101561208257848403895281516120638582612002565b945061206e83612015565b925060208a0199505060018101905061204a565b50829750879550505050505092915050565b5f6020820190508181035f8301526120ac8184612021565b905092915050565b5f80fd5b5f80fd5b5f80fd5b5f8083601f8401126120d5576120d46120b4565b5b8235905067ffffffffffffffff8111156120f2576120f16120b8565b5b60208301915083600182028301111561210e5761210d6120bc565b5b9250929050565b5f806020838503121561212b5761212a611c5d565b5b5f83013567ffffffffffffffff81111561214857612147611c61565b5b612154858286016120c0565b92509250509250929050565b5f805f805f805f805f60a08a8c03121561217d5761217c611c5d565b5b5f8a013567ffffffffffffffff81111561219a57612199611c61565b5b6121a68c828d016120c0565b995099505060208a013567ffffffffffffffff8111156121c9576121c8611c61565b5b6121d58c828d016120c0565b975097505060408a013567ffffffffffffffff8111156121f8576121f7611c61565b5b6122048c828d016120c0565b955095505060608a013567ffffffffffffffff81111561222757612226611c61565b5b6122338c828d016120c0565b935093505060806122468c828d01611c84565b9150509295985092959850929598565b5f6020820190508181035f83015261226e8184611d0a565b905092915050565b5f805f805f805f806080898b03121561229257612291611c5d565b5b5f89013567ffffffffffffffff8111156122af576122ae611c61565b5b6122bb8b828c016120c0565b9850985050602089013567ffffffffffffffff8111156122de576122dd611c61565b5b6122ea8b828c016120c0565b9650965050604089013567ffffffffffffffff81111561230d5761230c611c61565b5b6123198b828c016120c0565b9450945050606089013567ffffffffffffffff81111561233c5761233b611c61565b5b6123488b828c016120c0565b92509250509295985092959890939650565b7f4e487b71000000000000000000000000000000000000000000000000000000005f52602260045260245ffd5b5f600282049050600182168061239e57607f821691505b6020821081036123b1576123b061235a565b5b50919050565b7f596f7520646f206e6f74206861766520616e20617574686f72697479206f76655f8201527f72207468697320636f6e74726163740000000000000000000000000000000000602082015250565b5f612411602f83611cdc565b915061241c826123b7565b604082019050919050565b5f6020820190508181035f83015261243e81612405565b9050919050565b5f82905092915050565b7f4e487b71000000000000000000000000000000000000000000000000000000005f52604160045260245ffd5b5f819050815f5260205f209050919050565b5f6020601f8301049050919050565b5f82821b905092915050565b5f600883026124d87fffffffffffffffffffffffffffffffffffffffffffffffffffffffffffffffff8261249d565b6124e2868361249d565b95508019841693508086168417925050509392505050565b5f819050919050565b5f61251d61251861251384611c65565b6124fa565b611c65565b9050919050565b5f819050919050565b61253683612503565b61254a61254282612524565b8484546124a9565b825550505050565b5f90565b61255e612552565b61256981848461252d565b505050565b5b8181101561258c576125815f82612556565b60018101905061256f565b5050565b601f8211156125d1576125a28161247c565b6125ab8461248e565b810160208510156125ba578190505b6125ce6125c68561248e565b83018261256e565b50505b505050565b5f82821c905092915050565b5f6125f15f19846008026125d6565b1980831691505092915050565b5f61260983836125e2565b9150826002028217905092915050565b6126238383612445565b67ffffffffffffffff81111561263c5761263b61244f565b5b6126468254612387565b612651828285612590565b5f601f83116001811461267e575f841561266c578287013590505b61267685826125fe565b8655506126dd565b601f19841661268c8661247c565b5f5b828110156126b35784890135825560018201915060208501945060208101905061268e565b868310156126d057848901356126cc601f8916826125e2565b8355505b6001600288020188555050505b50505050505050565b7f496e76616c696420656475636174696f6e436f756e74000000000000000000005f82015250565b5f61271a601683611cdc565b9150612725826126e6565b602082019050919050565b5f6020820190508181035f8301526127478161270e565b9050919050565b7f4e487b71000000000000000000000000000000000000000000000000000000005f52603260045260245ffd5b61278482611cd2565b67ffffffffffffffff81111561279d5761279c61244f565b5b6127a78254612387565b6127b2828285612590565b5f60209050601f8311600181146127e3575f84156127d1578287015190505b6127db85826125fe565b865550612842565b601f1984166127f18661247c565b5f5b82811015612818578489015182556001820191506020850194506020810190506127f3565b868310156128355784890151612831601f8916826125e2565b8355505b6001600288020188555050505b505050505050565b7f4e6f74206d6f7265207468616e20332070726f6a6563747300000000000000005f82015250565b5f61287e601883611cdc565b91506128898261284a565b602082019050919050565b5f6020820190508181035f8301526128ab81612872565b9050919050565b7f4e487b71000000000000000000000000000000000000000000000000000000005f52601160045260245ffd5b5f6128e982611c65565b91507fffffffffffffffffffffffffffffffffffffffffffffffffffffffffffffffff820361291b5761291a6128b2565b5b600182019050919050565b7f496e76616c69642050726f6a656374436f756e740000000000000000000000005f82015250565b5f61295a601483611cdc565b915061296582612926565b602082019050919050565b5f6020820190508181035f8301526129878161294e565b9050919050565b7f4f6e6c79203320656475636174696f6e2064657461696c7320616c6c6f7765645f82015250565b5f6129c2602083611cdc565b91506129cd8261298e565b602082019050919050565b5f6020820190508181035f8301526129ef816129b6565b905091905056fea2646970667358221220b098ac11f8c7ac71de6f5cc7bfdb1aaf65f13657ef8e5cc120f62a068c740e1764736f6c634300081a00336f7665722031206d6f6e746873206f662070726163746963616c20657870657269656e63652077697468206120676f6f64206b6e6f776c6564676520696e20626c6f636b636861696e516d653778564361526e77556342564879614b68734773473451466f673253444d4e3366484c5743547677414b7a516d4e566e3537564e417a47314755526550423854464a43623670324c354a7a7336396d757362705533744e5855",
					"opcodes": "PUSH1 0x80 PUSH1 0x40 MSTORE PUSH1 0x40 MLOAD DUP1 PUSH1 0x60 ADD PUSH1 0x40 MSTORE DUP1 PUSH1 0x2E DUP2 MSTORE PUSH1 0x20 ADD PUSH2 0x2E86 PUSH1 0x2E SWAP2 CODECOPY PUSH1 0x1F SWAP1 DUP2 PUSH2 0x2B SWAP2 SWAP1 PUSH2 0x307 JUMP JUMPDEST POP PUSH1 0x40 MLOAD DUP1 PUSH1 0x80 ADD PUSH1 0x40 MSTORE DUP1 PUSH1 0x49 DUP2 MSTORE PUSH1 0x20 ADD PUSH2 0x2E0F PUSH1 0x49 SWAP2 CODECOPY PUSH1 0x20 SWAP1 DUP2 PUSH2 0x53 SWAP2 SWAP1 PUSH2 0x307 JUMP JUMPDEST POP PUSH1 0x40 MLOAD DUP1 PUSH1 0x60 ADD PUSH1 0x40 MSTORE DUP1 PUSH1 0x2E DUP2 MSTORE PUSH1 0x20 ADD PUSH2 0x2E58 PUSH1 0x2E SWAP2 CODECOPY PUSH1 0x21 SWAP1 DUP2 PUSH2 0x7B SWAP2 SWAP1 PUSH2 0x307 JUMP JUMPDEST POP CALLVALUE DUP1 ISZERO PUSH2 0x87 JUMPI PUSH0 DUP1 REVERT JUMPDEST POP CALLER PUSH1 0x1E PUSH0 PUSH2 0x100 EXP DUP2 SLOAD DUP2 PUSH20 0xFFFFFFFFFFFFFFFFFFFFFFFFFFFFFFFFFFFFFFFF MUL NOT AND SWAP1 DUP4 PUSH20 0xFFFFFFFFFFFFFFFFFFFFFFFFFFFFFFFFFFFFFFFF AND MUL OR SWAP1 SSTORE POP PUSH2 0x3D6 JUMP JUMPDEST PUSH0 DUP2 MLOAD SWAP1 POP SWAP2 SWAP1 POP JUMP JUMPDEST PUSH32 0x4E487B7100000000000000000000000000000000000000000000000000000000 PUSH0 MSTORE PUSH1 0x41 PUSH1 0x4 MSTORE PUSH1 0x24 PUSH0 REVERT JUMPDEST PUSH32 0x4E487B7100000000000000000000000000000000000000000000000000000000 PUSH0 MSTORE PUSH1 0x22 PUSH1 0x4 MSTORE PUSH1 0x24 PUSH0 REVERT JUMPDEST PUSH0 PUSH1 0x2 DUP3 DIV SWAP1 POP PUSH1 0x1 DUP3 AND DUP1 PUSH2 0x148 JUMPI PUSH1 0x7F DUP3 AND SWAP2 POP JUMPDEST PUSH1 0x20 DUP3 LT DUP2 SUB PUSH2 0x15B JUMPI PUSH2 0x15A PUSH2 0x104 JUMP JUMPDEST JUMPDEST POP SWAP2 SWAP1 POP JUMP JUMPDEST PUSH0 DUP2 SWAP1 POP DUP2 PUSH0 MSTORE PUSH1 0x20 PUSH0 KECCAK256 SWAP1 POP SWAP2 SWAP1 POP JUMP JUMPDEST PUSH0 PUSH1 0x20 PUSH1 0x1F DUP4 ADD DIV SWAP1 POP SWAP2 SWAP1 POP JUMP JUMPDEST PUSH0 DUP3 DUP3 SHL SWAP1 POP SWAP3 SWAP2 POP POP JUMP JUMPDEST PUSH0 PUSH1 0x8 DUP4 MUL PUSH2 0x1BD PUSH32 0xFFFFFFFFFFFFFFFFFFFFFFFFFFFFFFFFFFFFFFFFFFFFFFFFFFFFFFFFFFFFFFFF DUP3 PUSH2 0x182 JUMP JUMPDEST PUSH2 0x1C7 DUP7 DUP4 PUSH2 0x182 JUMP JUMPDEST SWAP6 POP DUP1 NOT DUP5 AND SWAP4 POP DUP1 DUP7 AND DUP5 OR SWAP3 POP POP POP SWAP4 SWAP3 POP POP POP JUMP JUMPDEST PUSH0 DUP2 SWAP1 POP SWAP2 SWAP1 POP JUMP JUMPDEST PUSH0 DUP2 SWAP1 POP SWAP2 SWAP1 POP JUMP JUMPDEST PUSH0 PUSH2 0x20B PUSH2 0x206 PUSH2 0x201 DUP5 PUSH2 0x1DF JUMP JUMPDEST PUSH2 0x1E8 JUMP JUMPDEST PUSH2 0x1DF JUMP JUMPDEST SWAP1 POP SWAP2 SWAP1 POP JUMP JUMPDEST PUSH0 DUP2 SWAP1 POP SWAP2 SWAP1 POP JUMP JUMPDEST PUSH2 0x224 DUP4 PUSH2 0x1F1 JUMP JUMPDEST PUSH2 0x238 PUSH2 0x230 DUP3 PUSH2 0x212 JUMP JUMPDEST DUP5 DUP5 SLOAD PUSH2 0x18E JUMP JUMPDEST DUP3 SSTORE POP POP POP POP JUMP JUMPDEST PUSH0 SWAP1 JUMP JUMPDEST PUSH2 0x24C PUSH2 0x240 JUMP JUMPDEST PUSH2 0x257 DUP2 DUP5 DUP5 PUSH2 0x21B JUMP JUMPDEST POP POP POP JUMP JUMPDEST JUMPDEST DUP2 DUP2 LT ISZERO PUSH2 0x27A JUMPI PUSH2 0x26F PUSH0 DUP3 PUSH2 0x244 JUMP JUMPDEST PUSH1 0x1 DUP2 ADD SWAP1 POP PUSH2 0x25D JUMP JUMPDEST POP POP JUMP JUMPDEST PUSH1 0x1F DUP3 GT ISZERO PUSH2 0x2BF JUMPI PUSH2 0x290 DUP2 PUSH2 0x161 JUMP JUMPDEST PUSH2 0x299 DUP5 PUSH2 0x173 JUMP JUMPDEST DUP2 ADD PUSH1 0x20 DUP6 LT ISZERO PUSH2 0x2A8 JUMPI DUP2 SWAP1 POP JUMPDEST PUSH2 0x2BC PUSH2 0x2B4 DUP6 PUSH2 0x173 JUMP JUMPDEST DUP4 ADD DUP3 PUSH2 0x25C JUMP JUMPDEST POP POP JUMPDEST POP POP POP JUMP JUMPDEST PUSH0 DUP3 DUP3 SHR SWAP1 POP SWAP3 SWAP2 POP POP JUMP JUMPDEST PUSH0 PUSH2 0x2DF PUSH0 NOT DUP5 PUSH1 0x8 MUL PUSH2 0x2C4 JUMP JUMPDEST NOT DUP1 DUP4 AND SWAP2 POP POP SWAP3 SWAP2 POP POP JUMP JUMPDEST PUSH0 PUSH2 0x2F7 DUP4 DUP4 PUSH2 0x2D0 JUMP JUMPDEST SWAP2 POP DUP3 PUSH1 0x2 MUL DUP3 OR SWAP1 POP SWAP3 SWAP2 POP POP JUMP JUMPDEST PUSH2 0x310 DUP3 PUSH2 0xCD JUMP JUMPDEST PUSH8 0xFFFFFFFFFFFFFFFF DUP2 GT ISZERO PUSH2 0x329 JUMPI PUSH2 0x328 PUSH2 0xD7 JUMP JUMPDEST JUMPDEST PUSH2 0x333 DUP3 SLOAD PUSH2 0x131 JUMP JUMPDEST PUSH2 0x33E DUP3 DUP3 DUP6 PUSH2 0x27E JUMP JUMPDEST PUSH0 PUSH1 0x20 SWAP1 POP PUSH1 0x1F DUP4 GT PUSH1 0x1 DUP2 EQ PUSH2 0x36F JUMPI PUSH0 DUP5 ISZERO PUSH2 0x35D JUMPI DUP3 DUP8 ADD MLOAD SWAP1 POP JUMPDEST PUSH2 0x367 DUP6 DUP3 PUSH2 0x2EC JUMP JUMPDEST DUP7 SSTORE POP PUSH2 0x3CE JUMP JUMPDEST PUSH1 0x1F NOT DUP5 AND PUSH2 0x37D DUP7 PUSH2 0x161 JUMP JUMPDEST PUSH0 JUMPDEST DUP3 DUP2 LT ISZERO PUSH2 0x3A4 JUMPI DUP5 DUP10 ADD MLOAD DUP3 SSTORE PUSH1 0x1 DUP3 ADD SWAP2 POP PUSH1 0x20 DUP6 ADD SWAP5 POP PUSH1 0x20 DUP2 ADD SWAP1 POP PUSH2 0x37F JUMP JUMPDEST DUP7 DUP4 LT ISZERO PUSH2 0x3C1 JUMPI DUP5 DUP10 ADD MLOAD PUSH2 0x3BD PUSH1 0x1F DUP10 AND DUP3 PUSH2 0x2D0 JUMP JUMPDEST DUP4 SSTORE POP JUMPDEST PUSH1 0x1 PUSH1 0x2 DUP9 MUL ADD DUP9 SSTORE POP POP POP JUMPDEST POP POP POP POP POP POP JUMP JUMPDEST PUSH2 0x2A2C DUP1 PUSH2 0x3E3 PUSH0 CODECOPY PUSH0 RETURN INVALID PUSH1 0x80 PUSH1 0x40 MSTORE PUSH1 0x4 CALLDATASIZE LT PUSH2 0xE7 JUMPI PUSH0 CALLDATALOAD PUSH1 0xE0 SHR DUP1 PUSH4 0x6FE8E0BD GT PUSH2 0x89 JUMPI DUP1 PUSH4 0xCAF7B759 GT PUSH2 0x58 JUMPI DUP1 PUSH4 0xCAF7B759 EQ PUSH2 0x2DB JUMPI DUP1 PUSH4 0xD3CEDF11 EQ PUSH2 0x305 JUMPI DUP1 PUSH4 0xE6120413 EQ PUSH2 0x32D JUMPI DUP1 PUSH4 0xED88C68E EQ PUSH2 0x355 JUMPI PUSH2 0xE7 JUMP JUMPDEST DUP1 PUSH4 0x6FE8E0BD EQ PUSH2 0x221 JUMPI DUP1 PUSH4 0x7284E416 EQ PUSH2 0x249 JUMPI DUP1 PUSH4 0x7AEA95AA EQ PUSH2 0x273 JUMPI DUP1 PUSH4 0x98F831B6 EQ PUSH2 0x2B3 JUMPI PUSH2 0xE7 JUMP JUMPDEST DUP1 PUSH4 0x598E7F37 GT PUSH2 0xC5 JUMPI DUP1 PUSH4 0x598E7F37 EQ PUSH2 0x17F JUMPI DUP1 PUSH4 0x5B173A69 EQ PUSH2 0x1A7 JUMPI DUP1 PUSH4 0x5CEA6A7C EQ PUSH2 0x1CF JUMPI DUP1 PUSH4 0x6426D4C3 EQ PUSH2 0x1F9 JUMPI PUSH2 0xE7 JUMP JUMPDEST DUP1 PUSH4 0x107046BD EQ PUSH2 0xEB JUMPI DUP1 PUSH4 0x2ADF13B2 EQ PUSH2 0x12B JUMPI DUP1 PUSH4 0x5397C6EC EQ PUSH2 0x155 JUMPI JUMPDEST PUSH0 DUP1 REVERT JUMPDEST CALLVALUE DUP1 ISZERO PUSH2 0xF6 JUMPI PUSH0 DUP1 REVERT JUMPDEST POP PUSH2 0x111 PUSH1 0x4 DUP1 CALLDATASIZE SUB DUP2 ADD SWAP1 PUSH2 0x10C SWAP2 SWAP1 PUSH2 0x1C98 JUMP JUMPDEST PUSH2 0x35F JUMP JUMPDEST PUSH1 0x40 MLOAD PUSH2 0x122 SWAP6 SWAP5 SWAP4 SWAP3 SWAP2 SWAP1 PUSH2 0x1D42 JUMP JUMPDEST PUSH1 0x40 MLOAD DUP1 SWAP2 SUB SWAP1 RETURN JUMPDEST CALLVALUE DUP1 ISZERO PUSH2 0x136 JUMPI PUSH0 DUP1 REVERT JUMPDEST POP PUSH2 0x13F PUSH2 0x5AF JUMP JUMPDEST PUSH1 0x40 MLOAD PUSH2 0x14C SWAP2 SWAP1 PUSH2 0x1F3D JUMP JUMPDEST PUSH1 0x40 MLOAD DUP1 SWAP2 SUB SWAP1 RETURN JUMPDEST CALLVALUE DUP1 ISZERO PUSH2 0x160 JUMPI PUSH0 DUP1 REVERT JUMPDEST POP PUSH2 0x169 PUSH2 0x848 JUMP JUMPDEST PUSH1 0x40 MLOAD PUSH2 0x176 SWAP2 SWAP1 PUSH2 0x2094 JUMP JUMPDEST PUSH1 0x40 MLOAD DUP1 SWAP2 SUB SWAP1 RETURN JUMPDEST CALLVALUE DUP1 ISZERO PUSH2 0x18A JUMPI PUSH0 DUP1 REVERT JUMPDEST POP PUSH2 0x1A5 PUSH1 0x4 DUP1 CALLDATASIZE SUB DUP2 ADD SWAP1 PUSH2 0x1A0 SWAP2 SWAP1 PUSH2 0x2115 JUMP JUMPDEST PUSH2 0xAE2 JUMP JUMPDEST STOP JUMPDEST CALLVALUE DUP1 ISZERO PUSH2 0x1B2 JUMPI PUSH0 DUP1 REVERT JUMPDEST POP PUSH2 0x1CD PUSH1 0x4 DUP1 CALLDATASIZE SUB DUP2 ADD SWAP1 PUSH2 0x1C8 SWAP2 SWAP1 PUSH2 0x2160 JUMP JUMPDEST PUSH2 0xB87 JUMP JUMPDEST STOP JUMPDEST CALLVALUE DUP1 ISZERO PUSH2 0x1DA JUMPI PUSH0 DUP1 REVERT JUMPDEST POP PUSH2 0x1E3 PUSH2 0xE1E JUMP JUMPDEST PUSH1 0x40 MLOAD PUSH2 0x1F0 SWAP2 SWAP1 PUSH2 0x2256 JUMP JUMPDEST PUSH1 0x40 MLOAD DUP1 SWAP2 SUB SWAP1 RETURN JUMPDEST CALLVALUE DUP1 ISZERO PUSH2 0x204 JUMPI PUSH0 DUP1 REVERT JUMPDEST POP PUSH2 0x21F PUSH1 0x4 DUP1 CALLDATASIZE SUB DUP2 ADD SWAP1 PUSH2 0x21A SWAP2 SWAP1 PUSH2 0x2276 JUMP JUMPDEST PUSH2 0xEAA JUMP JUMPDEST STOP JUMPDEST CALLVALUE DUP1 ISZERO PUSH2 0x22C JUMPI PUSH0 DUP1 REVERT JUMPDEST POP PUSH2 0x247 PUSH1 0x4 DUP1 CALLDATASIZE SUB DUP2 ADD SWAP1 PUSH2 0x242 SWAP2 SWAP1 PUSH2 0x2160 JUMP JUMPDEST PUSH2 0x1150 JUMP JUMPDEST STOP JUMPDEST CALLVALUE DUP1 ISZERO PUSH2 0x254 JUMPI PUSH0 DUP1 REVERT JUMPDEST POP PUSH2 0x25D PUSH2 0x13E6 JUMP JUMPDEST PUSH1 0x40 MLOAD PUSH2 0x26A SWAP2 SWAP1 PUSH2 0x2256 JUMP JUMPDEST PUSH1 0x40 MLOAD DUP1 SWAP2 SUB SWAP1 RETURN JUMPDEST CALLVALUE DUP1 ISZERO PUSH2 0x27E JUMPI PUSH0 DUP1 REVERT JUMPDEST POP PUSH2 0x299 PUSH1 0x4 DUP1 CALLDATASIZE SUB DUP2 ADD SWAP1 PUSH2 0x294 SWAP2 SWAP1 PUSH2 0x1C98 JUMP JUMPDEST PUSH2 0x1472 JUMP JUMPDEST PUSH1 0x40 MLOAD PUSH2 0x2AA SWAP6 SWAP5 SWAP4 SWAP3 SWAP2 SWAP1 PUSH2 0x1D42 JUMP JUMPDEST PUSH1 0x40 MLOAD DUP1 SWAP2 SUB SWAP1 RETURN JUMPDEST CALLVALUE DUP1 ISZERO PUSH2 0x2BE JUMPI PUSH0 DUP1 REVERT JUMPDEST POP PUSH2 0x2D9 PUSH1 0x4 DUP1 CALLDATASIZE SUB DUP2 ADD SWAP1 PUSH2 0x2D4 SWAP2 SWAP1 PUSH2 0x2276 JUMP JUMPDEST PUSH2 0x16C3 JUMP JUMPDEST STOP JUMPDEST CALLVALUE DUP1 ISZERO PUSH2 0x2E6 JUMPI PUSH0 DUP1 REVERT JUMPDEST POP PUSH2 0x2EF PUSH2 0x196A JUMP JUMPDEST PUSH1 0x40 MLOAD PUSH2 0x2FC SWAP2 SWAP1 PUSH2 0x2256 JUMP JUMPDEST PUSH1 0x40 MLOAD DUP1 SWAP2 SUB SWAP1 RETURN JUMPDEST CALLVALUE DUP1 ISZERO PUSH2 0x310 JUMPI PUSH0 DUP1 REVERT JUMPDEST POP PUSH2 0x32B PUSH1 0x4 DUP1 CALLDATASIZE SUB DUP2 ADD SWAP1 PUSH2 0x326 SWAP2 SWAP1 PUSH2 0x2115 JUMP JUMPDEST PUSH2 0x19F6 JUMP JUMPDEST STOP JUMPDEST CALLVALUE DUP1 ISZERO PUSH2 0x338 JUMPI PUSH0 DUP1 REVERT JUMPDEST POP PUSH2 0x353 PUSH1 0x4 DUP1 CALLDATASIZE SUB DUP2 ADD SWAP1 PUSH2 0x34E SWAP2 SWAP1 PUSH2 0x2115 JUMP JUMPDEST PUSH2 0x1A9B JUMP JUMPDEST STOP JUMPDEST PUSH2 0x35D PUSH2 0x1B40 JUMP JUMPDEST STOP JUMPDEST PUSH0 DUP2 PUSH1 0x3 DUP2 LT PUSH2 0x36D JUMPI PUSH0 DUP1 REVERT JUMPDEST PUSH1 0x5 MUL ADD PUSH0 SWAP2 POP SWAP1 POP DUP1 PUSH0 ADD SLOAD SWAP1 DUP1 PUSH1 0x1 ADD DUP1 SLOAD PUSH2 0x38A SWAP1 PUSH2 0x2387 JUMP JUMPDEST DUP1 PUSH1 0x1F ADD PUSH1 0x20 DUP1 SWAP2 DIV MUL PUSH1 0x20 ADD PUSH1 0x40 MLOAD SWAP1 DUP2 ADD PUSH1 0x40 MSTORE DUP1 SWAP3 SWAP2 SWAP1 DUP2 DUP2 MSTORE PUSH1 0x20 ADD DUP3 DUP1 SLOAD PUSH2 0x3B6 SWAP1 PUSH2 0x2387 JUMP JUMPDEST DUP1 ISZERO PUSH2 0x401 JUMPI DUP1 PUSH1 0x1F LT PUSH2 0x3D8 JUMPI PUSH2 0x100 DUP1 DUP4 SLOAD DIV MUL DUP4 MSTORE SWAP2 PUSH1 0x20 ADD SWAP2 PUSH2 0x401 JUMP JUMPDEST DUP3 ADD SWAP2 SWAP1 PUSH0 MSTORE PUSH1 0x20 PUSH0 KECCAK256 SWAP1 JUMPDEST DUP2 SLOAD DUP2 MSTORE SWAP1 PUSH1 0x1 ADD SWAP1 PUSH1 0x20 ADD DUP1 DUP4 GT PUSH2 0x3E4 JUMPI DUP3 SWAP1 SUB PUSH1 0x1F AND DUP3 ADD SWAP2 JUMPDEST POP POP POP POP POP SWAP1 DUP1 PUSH1 0x2 ADD DUP1 SLOAD PUSH2 0x416 SWAP1 PUSH2 0x2387 JUMP JUMPDEST DUP1 PUSH1 0x1F ADD PUSH1 0x20 DUP1 SWAP2 DIV MUL PUSH1 0x20 ADD PUSH1 0x40 MLOAD SWAP1 DUP2 ADD PUSH1 0x40 MSTORE DUP1 SWAP3 SWAP2 SWAP1 DUP2 DUP2 MSTORE PUSH1 0x20 ADD DUP3 DUP1 SLOAD PUSH2 0x442 SWAP1 PUSH2 0x2387 JUMP JUMPDEST DUP1 ISZERO PUSH2 0x48D JUMPI DUP1 PUSH1 0x1F LT PUSH2 0x464 JUMPI PUSH2 0x100 DUP1 DUP4 SLOAD DIV MUL DUP4 MSTORE SWAP2 PUSH1 0x20 ADD SWAP2 PUSH2 0x48D JUMP JUMPDEST DUP3 ADD SWAP2 SWAP1 PUSH0 MSTORE PUSH1 0x20 PUSH0 KECCAK256 SWAP1 JUMPDEST DUP2 SLOAD DUP2 MSTORE SWAP1 PUSH1 0x1 ADD SWAP1 PUSH1 0x20 ADD DUP1 DUP4 GT PUSH2 0x470 JUMPI DUP3 SWAP1 SUB PUSH1 0x1F AND DUP3 ADD SWAP2 JUMPDEST POP POP POP POP POP SWAP1 DUP1 PUSH1 0x3 ADD DUP1 SLOAD PUSH2 0x4A2 SWAP1 PUSH2 0x2387 JUMP JUMPDEST DUP1 PUSH1 0x1F ADD PUSH1 0x20 DUP1 SWAP2 DIV MUL PUSH1 0x20 ADD PUSH1 0x40 MLOAD SWAP1 DUP2 ADD PUSH1 0x40 MSTORE DUP1 SWAP3 SWAP2 SWAP1 DUP2 DUP2 MSTORE PUSH1 0x20 ADD DUP3 DUP1 SLOAD PUSH2 0x4CE SWAP1 PUSH2 0x2387 JUMP JUMPDEST DUP1 ISZERO PUSH2 0x519 JUMPI DUP1 PUSH1 0x1F LT PUSH2 0x4F0 JUMPI PUSH2 0x100 DUP1 DUP4 SLOAD DIV MUL DUP4 MSTORE SWAP2 PUSH1 0x20 ADD SWAP2 PUSH2 0x519 JUMP JUMPDEST DUP3 ADD SWAP2 SWAP1 PUSH0 MSTORE PUSH1 0x20 PUSH0 KECCAK256 SWAP1 JUMPDEST DUP2 SLOAD DUP2 MSTORE SWAP1 PUSH1 0x1 ADD SWAP1 PUSH1 0x20 ADD DUP1 DUP4 GT PUSH2 0x4FC JUMPI DUP3 SWAP1 SUB PUSH1 0x1F AND DUP3 ADD SWAP2 JUMPDEST POP POP POP POP POP SWAP1 DUP1 PUSH1 0x4 ADD DUP1 SLOAD PUSH2 0x52E SWAP1 PUSH2 0x2387 JUMP JUMPDEST DUP1 PUSH1 0x1F ADD PUSH1 0x20 DUP1 SWAP2 DIV MUL PUSH1 0x20 ADD PUSH1 0x40 MLOAD SWAP1 DUP2 ADD PUSH1 0x40 MSTORE DUP1 SWAP3 SWAP2 SWAP1 DUP2 DUP2 MSTORE PUSH1 0x20 ADD DUP3 DUP1 SLOAD PUSH2 0x55A SWAP1 PUSH2 0x2387 JUMP JUMPDEST DUP1 ISZERO PUSH2 0x5A5 JUMPI DUP1 PUSH1 0x1F LT PUSH2 0x57C JUMPI PUSH2 0x100 DUP1 DUP4 SLOAD DIV MUL DUP4 MSTORE SWAP2 PUSH1 0x20 ADD SWAP2 PUSH2 0x5A5 JUMP JUMPDEST DUP3 ADD SWAP2 SWAP1 PUSH0 MSTORE PUSH1 0x20 PUSH0 KECCAK256 SWAP1 JUMPDEST DUP2 SLOAD DUP2 MSTORE SWAP1 PUSH1 0x1 ADD SWAP1 PUSH1 0x20 ADD DUP1 DUP4 GT PUSH2 0x588 JUMPI DUP3 SWAP1 SUB PUSH1 0x1F AND DUP3 ADD SWAP2 JUMPDEST POP POP POP POP POP SWAP1 POP DUP6 JUMP JUMPDEST PUSH2 0x5B7 PUSH2 0x1BA7 JUMP JUMPDEST PUSH0 PUSH1 0x3 DUP1 PUSH1 0x20 MUL PUSH1 0x40 MLOAD SWAP1 DUP2 ADD PUSH1 0x40 MSTORE DUP1 SWAP3 SWAP2 SWAP1 PUSH0 SWAP1 JUMPDEST DUP3 DUP3 LT ISZERO PUSH2 0x83F JUMPI DUP4 DUP3 PUSH1 0x5 MUL ADD PUSH1 0x40 MLOAD DUP1 PUSH1 0xA0 ADD PUSH1 0x40 MSTORE SWAP1 DUP2 PUSH0 DUP3 ADD SLOAD DUP2 MSTORE PUSH1 0x20 ADD PUSH1 0x1 DUP3 ADD DUP1 SLOAD PUSH2 0x600 SWAP1 PUSH2 0x2387 JUMP JUMPDEST DUP1 PUSH1 0x1F ADD PUSH1 0x20 DUP1 SWAP2 DIV MUL PUSH1 0x20 ADD PUSH1 0x40 MLOAD SWAP1 DUP2 ADD PUSH1 0x40 MSTORE DUP1 SWAP3 SWAP2 SWAP1 DUP2 DUP2 MSTORE PUSH1 0x20 ADD DUP3 DUP1 SLOAD PUSH2 0x62C SWAP1 PUSH2 0x2387 JUMP JUMPDEST DUP1 ISZERO PUSH2 0x677 JUMPI DUP1 PUSH1 0x1F LT PUSH2 0x64E JUMPI PUSH2 0x100 DUP1 DUP4 SLOAD DIV MUL DUP4 MSTORE SWAP2 PUSH1 0x20 ADD SWAP2 PUSH2 0x677 JUMP JUMPDEST DUP3 ADD SWAP2 SWAP1 PUSH0 MSTORE PUSH1 0x20 PUSH0 KECCAK256 SWAP1 JUMPDEST DUP2 SLOAD DUP2 MSTORE SWAP1 PUSH1 0x1 ADD SWAP1 PUSH1 0x20 ADD DUP1 DUP4 GT PUSH2 0x65A JUMPI DUP3 SWAP1 SUB PUSH1 0x1F AND DUP3 ADD SWAP2 JUMPDEST POP POP POP POP POP DUP2 MSTORE PUSH1 0x20 ADD PUSH1 0x2 DUP3 ADD DUP1 SLOAD PUSH2 0x690 SWAP1 PUSH2 0x2387 JUMP JUMPDEST DUP1 PUSH1 0x1F ADD PUSH1 0x20 DUP1 SWAP2 DIV MUL PUSH1 0x20 ADD PUSH1 0x40 MLOAD SWAP1 DUP2 ADD PUSH1 0x40 MSTORE DUP1 SWAP3 SWAP2 SWAP1 DUP2 DUP2 MSTORE PUSH1 0x20 ADD DUP3 DUP1 SLOAD PUSH2 0x6BC SWAP1 PUSH2 0x2387 JUMP JUMPDEST DUP1 ISZERO PUSH2 0x707 JUMPI DUP1 PUSH1 0x1F LT PUSH2 0x6DE JUMPI PUSH2 0x100 DUP1 DUP4 SLOAD DIV MUL DUP4 MSTORE SWAP2 PUSH1 0x20 ADD SWAP2 PUSH2 0x707 JUMP JUMPDEST DUP3 ADD SWAP2 SWAP1 PUSH0 MSTORE PUSH1 0x20 PUSH0 KECCAK256 SWAP1 JUMPDEST DUP2 SLOAD DUP2 MSTORE SWAP1 PUSH1 0x1 ADD SWAP1 PUSH1 0x20 ADD DUP1 DUP4 GT PUSH2 0x6EA JUMPI DUP3 SWAP1 SUB PUSH1 0x1F AND DUP3 ADD SWAP2 JUMPDEST POP POP POP POP POP DUP2 MSTORE PUSH1 0x20 ADD PUSH1 0x3 DUP3 ADD DUP1 SLOAD PUSH2 0x720 SWAP1 PUSH2 0x2387 JUMP JUMPDEST DUP1 PUSH1 0x1F ADD PUSH1 0x20 DUP1 SWAP2 DIV MUL PUSH1 0x20 ADD PUSH1 0x40 MLOAD SWAP1 DUP2 ADD PUSH1 0x40 MSTORE DUP1 SWAP3 SWAP2 SWAP1 DUP2 DUP2 MSTORE PUSH1 0x20 ADD DUP3 DUP1 SLOAD PUSH2 0x74C SWAP1 PUSH2 0x2387 JUMP JUMPDEST DUP1 ISZERO PUSH2 0x797 JUMPI DUP1 PUSH1 0x1F LT PUSH2 0x76E JUMPI PUSH2 0x100 DUP1 DUP4 SLOAD DIV MUL DUP4 MSTORE SWAP2 PUSH1 0x20 ADD SWAP2 PUSH2 0x797 JUMP JUMPDEST DUP3 ADD SWAP2 SWAP1 PUSH0 MSTORE PUSH1 0x20 PUSH0 KECCAK256 SWAP1 JUMPDEST DUP2 SLOAD DUP2 MSTORE SWAP1 PUSH1 0x1 ADD SWAP1 PUSH1 0x20 ADD DUP1 DUP4 GT PUSH2 0x77A JUMPI DUP3 SWAP1 SUB PUSH1 0x1F AND DUP3 ADD SWAP2 JUMPDEST POP POP POP POP POP DUP2 MSTORE PUSH1 0x20 ADD PUSH1 0x4 DUP3 ADD DUP1 SLOAD PUSH2 0x7B0 SWAP1 PUSH2 0x2387 JUMP JUMPDEST DUP1 PUSH1 0x1F ADD PUSH1 0x20 DUP1 SWAP2 DIV MUL PUSH1 0x20 ADD PUSH1 0x40 MLOAD SWAP1 DUP2 ADD PUSH1 0x40 MSTORE DUP1 SWAP3 SWAP2 SWAP1 DUP2 DUP2 MSTORE PUSH1 0x20 ADD DUP3 DUP1 SLOAD PUSH2 0x7DC SWAP1 PUSH2 0x2387 JUMP JUMPDEST DUP1 ISZERO PUSH2 0x827 JUMPI DUP1 PUSH1 0x1F LT PUSH2 0x7FE JUMPI PUSH2 0x100 DUP1 DUP4 SLOAD DIV MUL DUP4 MSTORE SWAP2 PUSH1 0x20 ADD SWAP2 PUSH2 0x827 JUMP JUMPDEST DUP3 ADD SWAP2 SWAP1 PUSH0 MSTORE PUSH1 0x20 PUSH0 KECCAK256 SWAP1 JUMPDEST DUP2 SLOAD DUP2 MSTORE SWAP1 PUSH1 0x1 ADD SWAP1 PUSH1 0x20 ADD DUP1 DUP4 GT PUSH2 0x80A JUMPI DUP3 SWAP1 SUB PUSH1 0x1F AND DUP3 ADD SWAP2 JUMPDEST POP POP POP POP POP DUP2 MSTORE POP POP DUP2 MSTORE PUSH1 0x20 ADD SWAP1 PUSH1 0x1 ADD SWAP1 PUSH2 0x5CE JUMP JUMPDEST POP POP POP POP SWAP1 POP SWAP1 JUMP JUMPDEST PUSH2 0x850 PUSH2 0x1BD4 JUMP JUMPDEST PUSH1 0xF PUSH1 0x3 DUP1 PUSH1 0x20 MUL PUSH1 0x40 MLOAD SWAP1 DUP2 ADD PUSH1 0x40 MSTORE DUP1 SWAP3 SWAP2 SWAP1 PUSH0 SWAP1 JUMPDEST DUP3 DUP3 LT ISZERO PUSH2 0xAD9 JUMPI DUP4 DUP3 PUSH1 0x5 MUL ADD PUSH1 0x40 MLOAD DUP1 PUSH1 0xA0 ADD PUSH1 0x40 MSTORE SWAP1 DUP2 PUSH0 DUP3 ADD SLOAD DUP2 MSTORE PUSH1 0x20 ADD PUSH1 0x1 DUP3 ADD DUP1 SLOAD PUSH2 0x89A SWAP1 PUSH2 0x2387 JUMP JUMPDEST DUP1 PUSH1 0x1F ADD PUSH1 0x20 DUP1 SWAP2 DIV MUL PUSH1 0x20 ADD PUSH1 0x40 MLOAD SWAP1 DUP2 ADD PUSH1 0x40 MSTORE DUP1 SWAP3 SWAP2 SWAP1 DUP2 DUP2 MSTORE PUSH1 0x20 ADD DUP3 DUP1 SLOAD PUSH2 0x8C6 SWAP1 PUSH2 0x2387 JUMP JUMPDEST DUP1 ISZERO PUSH2 0x911 JUMPI DUP1 PUSH1 0x1F LT PUSH2 0x8E8 JUMPI PUSH2 0x100 DUP1 DUP4 SLOAD DIV MUL DUP4 MSTORE SWAP2 PUSH1 0x20 ADD SWAP2 PUSH2 0x911 JUMP JUMPDEST DUP3 ADD SWAP2 SWAP1 PUSH0 MSTORE PUSH1 0x20 PUSH0 KECCAK256 SWAP1 JUMPDEST DUP2 SLOAD DUP2 MSTORE SWAP1 PUSH1 0x1 ADD SWAP1 PUSH1 0x20 ADD DUP1 DUP4 GT PUSH2 0x8F4 JUMPI DUP3 SWAP1 SUB PUSH1 0x1F AND DUP3 ADD SWAP2 JUMPDEST POP POP POP POP POP DUP2 MSTORE PUSH1 0x20 ADD PUSH1 0x2 DUP3 ADD DUP1 SLOAD PUSH2 0x92A SWAP1 PUSH2 0x2387 JUMP JUMPDEST DUP1 PUSH1 0x1F ADD PUSH1 0x20 DUP1 SWAP2 DIV MUL PUSH1 0x20 ADD PUSH1 0x40 MLOAD SWAP1 DUP2 ADD PUSH1 0x40 MSTORE DUP1 SWAP3 SWAP2 SWAP1 DUP2 DUP2 MSTORE PUSH1 0x20 ADD DUP3 DUP1 SLOAD PUSH2 0x956 SWAP1 PUSH2 0x2387 JUMP JUMPDEST DUP1 ISZERO PUSH2 0x9A1 JUMPI DUP1 PUSH1 0x1F LT PUSH2 0x978 JUMPI PUSH2 0x100 DUP1 DUP4 SLOAD DIV MUL DUP4 MSTORE SWAP2 PUSH1 0x20 ADD SWAP2 PUSH2 0x9A1 JUMP JUMPDEST DUP3 ADD SWAP2 SWAP1 PUSH0 MSTORE PUSH1 0x20 PUSH0 KECCAK256 SWAP1 JUMPDEST DUP2 SLOAD DUP2 MSTORE SWAP1 PUSH1 0x1 ADD SWAP1 PUSH1 0x20 ADD DUP1 DUP4 GT PUSH2 0x984 JUMPI DUP3 SWAP1 SUB PUSH1 0x1F AND DUP3 ADD SWAP2 JUMPDEST POP POP POP POP POP DUP2 MSTORE PUSH1 0x20 ADD PUSH1 0x3 DUP3 ADD DUP1 SLOAD PUSH2 0x9BA SWAP1 PUSH2 0x2387 JUMP JUMPDEST DUP1 PUSH1 0x1F ADD PUSH1 0x20 DUP1 SWAP2 DIV MUL PUSH1 0x20 ADD PUSH1 0x40 MLOAD SWAP1 DUP2 ADD PUSH1 0x40 MSTORE DUP1 SWAP3 SWAP2 SWAP1 DUP2 DUP2 MSTORE PUSH1 0x20 ADD DUP3 DUP1 SLOAD PUSH2 0x9E6 SWAP1 PUSH2 0x2387 JUMP JUMPDEST DUP1 ISZERO PUSH2 0xA31 JUMPI DUP1 PUSH1 0x1F LT PUSH2 0xA08 JUMPI PUSH2 0x100 DUP1 DUP4 SLOAD DIV MUL DUP4 MSTORE SWAP2 PUSH1 0x20 ADD SWAP2 PUSH2 0xA31 JUMP JUMPDEST DUP3 ADD SWAP2 SWAP1 PUSH0 MSTORE PUSH1 0x20 PUSH0 KECCAK256 SWAP1 JUMPDEST DUP2 SLOAD DUP2 MSTORE SWAP1 PUSH1 0x1 ADD SWAP1 PUSH1 0x20 ADD DUP1 DUP4 GT PUSH2 0xA14 JUMPI DUP3 SWAP1 SUB PUSH1 0x1F AND DUP3 ADD SWAP2 JUMPDEST POP POP POP POP POP DUP2 MSTORE PUSH1 0x20 ADD PUSH1 0x4 DUP3 ADD DUP1 SLOAD PUSH2 0xA4A SWAP1 PUSH2 0x2387 JUMP JUMPDEST DUP1 PUSH1 0x1F ADD PUSH1 0x20 DUP1 SWAP2 DIV MUL PUSH1 0x20 ADD PUSH1 0x40 MLOAD SWAP1 DUP2 ADD PUSH1 0x40 MSTORE DUP1 SWAP3 SWAP2 SWAP1 DUP2 DUP2 MSTORE PUSH1 0x20 ADD DUP3 DUP1 SLOAD PUSH2 0xA76 SWAP1 PUSH2 0x2387 JUMP JUMPDEST DUP1 ISZERO PUSH2 0xAC1 JUMPI DUP1 PUSH1 0x1F LT PUSH2 0xA98 JUMPI PUSH2 0x100 DUP1 DUP4 SLOAD DIV MUL DUP4 MSTORE SWAP2 PUSH1 0x20 ADD SWAP2 PUSH2 0xAC1 JUMP JUMPDEST DUP3 ADD SWAP2 SWAP1 PUSH0 MSTORE PUSH1 0x20 PUSH0 KECCAK256 SWAP1 JUMPDEST DUP2 SLOAD DUP2 MSTORE SWAP1 PUSH1 0x1 ADD SWAP1 PUSH1 0x20 ADD DUP1 DUP4 GT PUSH2 0xAA4 JUMPI DUP3 SWAP1 SUB PUSH1 0x1F AND DUP3 ADD SWAP2 JUMPDEST POP POP POP POP POP DUP2 MSTORE POP POP DUP2 MSTORE PUSH1 0x20 ADD SWAP1 PUSH1 0x1 ADD SWAP1 PUSH2 0x868 JUMP JUMPDEST POP POP POP POP SWAP1 POP SWAP1 JUMP JUMPDEST CALLER PUSH20 0xFFFFFFFFFFFFFFFFFFFFFFFFFFFFFFFFFFFFFFFF AND PUSH1 0x1E PUSH0 SWAP1 SLOAD SWAP1 PUSH2 0x100 EXP SWAP1 DIV PUSH20 0xFFFFFFFFFFFFFFFFFFFFFFFFFFFFFFFFFFFFFFFF AND PUSH20 0xFFFFFFFFFFFFFFFFFFFFFFFFFFFFFFFFFFFFFFFF AND EQ PUSH2 0xB71 JUMPI PUSH1 0x40 MLOAD PUSH32 0x8C379A000000000000000000000000000000000000000000000000000000000 DUP2 MSTORE PUSH1 0x4 ADD PUSH2 0xB68 SWAP1 PUSH2 0x2427 JUMP JUMPDEST PUSH1 0x40 MLOAD DUP1 SWAP2 SUB SWAP1 REVERT JUMPDEST DUP2 DUP2 PUSH1 0x1F SWAP2 DUP3 PUSH2 0xB82 SWAP3 SWAP2 SWAP1 PUSH2 0x2619 JUMP JUMPDEST POP POP POP JUMP JUMPDEST CALLER PUSH20 0xFFFFFFFFFFFFFFFFFFFFFFFFFFFFFFFFFFFFFFFF AND PUSH1 0x1E PUSH0 SWAP1 SLOAD SWAP1 PUSH2 0x100 EXP SWAP1 DIV PUSH20 0xFFFFFFFFFFFFFFFFFFFFFFFFFFFFFFFFFFFFFFFF AND PUSH20 0xFFFFFFFFFFFFFFFFFFFFFFFFFFFFFFFFFFFFFFFF AND EQ PUSH2 0xC16 JUMPI PUSH1 0x40 MLOAD PUSH32 0x8C379A000000000000000000000000000000000000000000000000000000000 DUP2 MSTORE PUSH1 0x4 ADD PUSH2 0xC0D SWAP1 PUSH2 0x2427 JUMP JUMPDEST PUSH1 0x40 MLOAD DUP1 SWAP2 SUB SWAP1 REVERT JUMPDEST PUSH0 DUP2 LT ISZERO DUP1 ISZERO PUSH2 0xC26 JUMPI POP PUSH1 0x3 DUP2 LT JUMPDEST PUSH2 0xC65 JUMPI PUSH1 0x40 MLOAD PUSH32 0x8C379A000000000000000000000000000000000000000000000000000000000 DUP2 MSTORE PUSH1 0x4 ADD PUSH2 0xC5C SWAP1 PUSH2 0x2730 JUMP JUMPDEST PUSH1 0x40 MLOAD DUP1 SWAP2 SUB SWAP1 REVERT JUMPDEST PUSH1 0x40 MLOAD DUP1 PUSH1 0xA0 ADD PUSH1 0x40 MSTORE DUP1 DUP3 DUP2 MSTORE PUSH1 0x20 ADD DUP11 DUP11 DUP1 DUP1 PUSH1 0x1F ADD PUSH1 0x20 DUP1 SWAP2 DIV MUL PUSH1 0x20 ADD PUSH1 0x40 MLOAD SWAP1 DUP2 ADD PUSH1 0x40 MSTORE DUP1 SWAP4 SWAP3 SWAP2 SWAP1 DUP2 DUP2 MSTORE PUSH1 0x20 ADD DUP4 DUP4 DUP1 DUP3 DUP5 CALLDATACOPY PUSH0 DUP2 DUP5 ADD MSTORE PUSH1 0x1F NOT PUSH1 0x1F DUP3 ADD AND SWAP1 POP DUP1 DUP4 ADD SWAP3 POP POP POP POP POP POP POP DUP2 MSTORE PUSH1 0x20 ADD DUP9 DUP9 DUP1 DUP1 PUSH1 0x1F ADD PUSH1 0x20 DUP1 SWAP2 DIV MUL PUSH1 0x20 ADD PUSH1 0x40 MLOAD SWAP1 DUP2 ADD PUSH1 0x40 MSTORE DUP1 SWAP4 SWAP3 SWAP2 SWAP1 DUP2 DUP2 MSTORE PUSH1 0x20 ADD DUP4 DUP4 DUP1 DUP3 DUP5 CALLDATACOPY PUSH0 DUP2 DUP5 ADD MSTORE PUSH1 0x1F NOT PUSH1 0x1F DUP3 ADD AND SWAP1 POP DUP1 DUP4 ADD SWAP3 POP POP POP POP POP POP POP DUP2 MSTORE PUSH1 0x20 ADD DUP7 DUP7 DUP1 DUP1 PUSH1 0x1F ADD PUSH1 0x20 DUP1 SWAP2 DIV MUL PUSH1 0x20 ADD PUSH1 0x40 MLOAD SWAP1 DUP2 ADD PUSH1 0x40 MSTORE DUP1 SWAP4 SWAP3 SWAP2 SWAP1 DUP2 DUP2 MSTORE PUSH1 0x20 ADD DUP4 DUP4 DUP1 DUP3 DUP5 CALLDATACOPY PUSH0 DUP2 DUP5 ADD MSTORE PUSH1 0x1F NOT PUSH1 0x1F DUP3 ADD AND SWAP1 POP DUP1 DUP4 ADD SWAP3 POP POP POP POP POP POP POP DUP2 MSTORE PUSH1 0x20 ADD DUP5 DUP5 DUP1 DUP1 PUSH1 0x1F ADD PUSH1 0x20 DUP1 SWAP2 DIV MUL PUSH1 0x20 ADD PUSH1 0x40 MLOAD SWAP1 DUP2 ADD PUSH1 0x40 MSTORE DUP1 SWAP4 SWAP3 SWAP2 SWAP1 DUP2 DUP2 MSTORE PUSH1 0x20 ADD DUP4 DUP4 DUP1 DUP3 DUP5 CALLDATACOPY PUSH0 DUP2 DUP5 ADD MSTORE PUSH1 0x1F NOT PUSH1 0x1F DUP3 ADD AND SWAP1 POP DUP1 DUP4 ADD SWAP3 POP POP POP POP POP POP POP DUP2 MSTORE POP PUSH1 0xF DUP3 PUSH1 0x3 DUP2 LT PUSH2 0xDAC JUMPI PUSH2 0xDAB PUSH2 0x274E JUMP JUMPDEST JUMPDEST PUSH1 0x5 MUL ADD PUSH0 DUP3 ADD MLOAD DUP2 PUSH0 ADD SSTORE PUSH1 0x20 DUP3 ADD MLOAD DUP2 PUSH1 0x1 ADD SWAP1 DUP2 PUSH2 0xDCD SWAP2 SWAP1 PUSH2 0x277B JUMP JUMPDEST POP PUSH1 0x40 DUP3 ADD MLOAD DUP2 PUSH1 0x2 ADD SWAP1 DUP2 PUSH2 0xDE3 SWAP2 SWAP1 PUSH2 0x277B JUMP JUMPDEST POP PUSH1 0x60 DUP3 ADD MLOAD DUP2 PUSH1 0x3 ADD SWAP1 DUP2 PUSH2 0xDF9 SWAP2 SWAP1 PUSH2 0x277B JUMP JUMPDEST POP PUSH1 0x80 DUP3 ADD MLOAD DUP2 PUSH1 0x4 ADD SWAP1 DUP2 PUSH2 0xE0F SWAP2 SWAP1 PUSH2 0x277B JUMP JUMPDEST POP SWAP1 POP POP POP POP POP POP POP POP POP POP POP JUMP JUMPDEST PUSH1 0x21 DUP1 SLOAD PUSH2 0xE2B SWAP1 PUSH2 0x2387 JUMP JUMPDEST DUP1 PUSH1 0x1F ADD PUSH1 0x20 DUP1 SWAP2 DIV MUL PUSH1 0x20 ADD PUSH1 0x40 MLOAD SWAP1 DUP2 ADD PUSH1 0x40 MSTORE DUP1 SWAP3 SWAP2 SWAP1 DUP2 DUP2 MSTORE PUSH1 0x20 ADD DUP3 DUP1 SLOAD PUSH2 0xE57 SWAP1 PUSH2 0x2387 JUMP JUMPDEST DUP1 ISZERO PUSH2 0xEA2 JUMPI DUP1 PUSH1 0x1F LT PUSH2 0xE79 JUMPI PUSH2 0x100 DUP1 DUP4 SLOAD DIV MUL DUP4 MSTORE SWAP2 PUSH1 0x20 ADD SWAP2 PUSH2 0xEA2 JUMP JUMPDEST DUP3 ADD SWAP2 SWAP1 PUSH0 MSTORE PUSH1 0x20 PUSH0 KECCAK256 SWAP1 JUMPDEST DUP2 SLOAD DUP2 MSTORE SWAP1 PUSH1 0x1 ADD SWAP1 PUSH1 0x20 ADD DUP1 DUP4 GT PUSH2 0xE85 JUMPI DUP3 SWAP1 SUB PUSH1 0x1F AND DUP3 ADD SWAP2 JUMPDEST POP POP POP POP POP DUP2 JUMP JUMPDEST CALLER PUSH20 0xFFFFFFFFFFFFFFFFFFFFFFFFFFFFFFFFFFFFFFFF AND PUSH1 0x1E PUSH0 SWAP1 SLOAD SWAP1 PUSH2 0x100 EXP SWAP1 DIV PUSH20 0xFFFFFFFFFFFFFFFFFFFFFFFFFFFFFFFFFFFFFFFF AND PUSH20 0xFFFFFFFFFFFFFFFFFFFFFFFFFFFFFFFFFFFFFFFF AND EQ PUSH2 0xF39 JUMPI PUSH1 0x40 MLOAD PUSH32 0x8C379A000000000000000000000000000000000000000000000000000000000 DUP2 MSTORE PUSH1 0x4 ADD PUSH2 0xF30 SWAP1 PUSH2 0x2427 JUMP JUMPDEST PUSH1 0x40 MLOAD DUP1 SWAP2 SUB SWAP1 REVERT JUMPDEST PUSH1 0x3 PUSH1 0x22 SLOAD LT PUSH2 0xF7E JUMPI PUSH1 0x40 MLOAD PUSH32 0x8C379A000000000000000000000000000000000000000000000000000000000 DUP2 MSTORE PUSH1 0x4 ADD PUSH2 0xF75 SWAP1 PUSH2 0x2894 JUMP JUMPDEST PUSH1 0x40 MLOAD DUP1 SWAP2 SUB SWAP1 REVERT JUMPDEST PUSH1 0x40 MLOAD DUP1 PUSH1 0xA0 ADD PUSH1 0x40 MSTORE DUP1 PUSH1 0x22 SLOAD DUP2 MSTORE PUSH1 0x20 ADD DUP10 DUP10 DUP1 DUP1 PUSH1 0x1F ADD PUSH1 0x20 DUP1 SWAP2 DIV MUL PUSH1 0x20 ADD PUSH1 0x40 MLOAD SWAP1 DUP2 ADD PUSH1 0x40 MSTORE DUP1 SWAP4 SWAP3 SWAP2 SWAP1 DUP2 DUP2 MSTORE PUSH1 0x20 ADD DUP4 DUP4 DUP1 DUP3 DUP5 CALLDATACOPY PUSH0 DUP2 DUP5 ADD MSTORE PUSH1 0x1F NOT PUSH1 0x1F DUP3 ADD AND SWAP1 POP DUP1 DUP4 ADD SWAP3 POP POP POP POP POP POP POP DUP2 MSTORE PUSH1 0x20 ADD DUP8 DUP8 DUP1 DUP1 PUSH1 0x1F ADD PUSH1 0x20 DUP1 SWAP2 DIV MUL PUSH1 0x20 ADD PUSH1 0x40 MLOAD SWAP1 DUP2 ADD PUSH1 0x40 MSTORE DUP1 SWAP4 SWAP3 SWAP2 SWAP1 DUP2 DUP2 MSTORE PUSH1 0x20 ADD DUP4 DUP4 DUP1 DUP3 DUP5 CALLDATACOPY PUSH0 DUP2 DUP5 ADD MSTORE PUSH1 0x1F NOT PUSH1 0x1F DUP3 ADD AND SWAP1 POP DUP1 DUP4 ADD SWAP3 POP POP POP POP POP POP POP DUP2 MSTORE PUSH1 0x20 ADD DUP6 DUP6 DUP1 DUP1 PUSH1 0x1F ADD PUSH1 0x20 DUP1 SWAP2 DIV MUL PUSH1 0x20 ADD PUSH1 0x40 MLOAD SWAP1 DUP2 ADD PUSH1 0x40 MSTORE DUP1 SWAP4 SWAP3 SWAP2 SWAP1 DUP2 DUP2 MSTORE PUSH1 0x20 ADD DUP4 DUP4 DUP1 DUP3 DUP5 CALLDATACOPY PUSH0 DUP2 DUP5 ADD MSTORE PUSH1 0x1F NOT PUSH1 0x1F DUP3 ADD AND SWAP1 POP DUP1 DUP4 ADD SWAP3 POP POP POP POP POP POP POP DUP2 MSTORE PUSH1 0x20 ADD DUP4 DUP4 DUP1 DUP1 PUSH1 0x1F ADD PUSH1 0x20 DUP1 SWAP2 DIV MUL PUSH1 0x20 ADD PUSH1 0x40 MLOAD SWAP1 DUP2 ADD PUSH1 0x40 MSTORE DUP1 SWAP4 SWAP3 SWAP2 SWAP1 DUP2 DUP2 MSTORE PUSH1 0x20 ADD DUP4 DUP4 DUP1 DUP3 DUP5 CALLDATACOPY PUSH0 DUP2 DUP5 ADD MSTORE PUSH1 0x1F NOT PUSH1 0x1F DUP3 ADD AND SWAP1 POP DUP1 DUP4 ADD SWAP3 POP POP POP POP POP POP POP DUP2 MSTORE POP PUSH0 PUSH1 0x22 SLOAD PUSH1 0x3 DUP2 LT PUSH2 0x10C8 JUMPI PUSH2 0x10C7 PUSH2 0x274E JUMP JUMPDEST JUMPDEST PUSH1 0x5 MUL ADD PUSH0 DUP3 ADD MLOAD DUP2 PUSH0 ADD SSTORE PUSH1 0x20 DUP3 ADD MLOAD DUP2 PUSH1 0x1 ADD SWAP1 DUP2 PUSH2 0x10E9 SWAP2 SWAP1 PUSH2 0x277B JUMP JUMPDEST POP PUSH1 0x40 DUP3 ADD MLOAD DUP2 PUSH1 0x2 ADD SWAP1 DUP2 PUSH2 0x10FF SWAP2 SWAP1 PUSH2 0x277B JUMP JUMPDEST POP PUSH1 0x60 DUP3 ADD MLOAD DUP2 PUSH1 0x3 ADD SWAP1 DUP2 PUSH2 0x1115 SWAP2 SWAP1 PUSH2 0x277B JUMP JUMPDEST POP PUSH1 0x80 DUP3 ADD MLOAD DUP2 PUSH1 0x4 ADD SWAP1 DUP2 PUSH2 0x112B SWAP2 SWAP1 PUSH2 0x277B JUMP JUMPDEST POP SWAP1 POP POP PUSH1 0x22 PUSH0 DUP2 SLOAD DUP1 SWAP3 SWAP2 SWAP1 PUSH2 0x1141 SWAP1 PUSH2 0x28DF JUMP JUMPDEST SWAP2 SWAP1 POP SSTORE POP POP POP POP POP POP POP POP POP JUMP JUMPDEST CALLER PUSH20 0xFFFFFFFFFFFFFFFFFFFFFFFFFFFFFFFFFFFFFFFF AND PUSH1 0x1E PUSH0 SWAP1 SLOAD SWAP1 PUSH2 0x100 EXP SWAP1 DIV PUSH20 0xFFFFFFFFFFFFFFFFFFFFFFFFFFFFFFFFFFFFFFFF AND PUSH20 0xFFFFFFFFFFFFFFFFFFFFFFFFFFFFFFFFFFFFFFFF AND EQ PUSH2 0x11DF JUMPI PUSH1 0x40 MLOAD PUSH32 0x8C379A000000000000000000000000000000000000000000000000000000000 DUP2 MSTORE PUSH1 0x4 ADD PUSH2 0x11D6 SWAP1 PUSH2 0x2427 JUMP JUMPDEST PUSH1 0x40 MLOAD DUP1 SWAP2 SUB SWAP1 REVERT JUMPDEST PUSH0 DUP2 LT ISZERO DUP1 ISZERO PUSH2 0x11EF JUMPI POP PUSH1 0x3 DUP2 LT JUMPDEST PUSH2 0x122E JUMPI PUSH1 0x40 MLOAD PUSH32 0x8C379A000000000000000000000000000000000000000000000000000000000 DUP2 MSTORE PUSH1 0x4 ADD PUSH2 0x1225 SWAP1 PUSH2 0x2970 JUMP JUMPDEST PUSH1 0x40 MLOAD DUP1 SWAP2 SUB SWAP1 REVERT JUMPDEST PUSH1 0x40 MLOAD DUP1 PUSH1 0xA0 ADD PUSH1 0x40 MSTORE DUP1 DUP3 DUP2 MSTORE PUSH1 0x20 ADD DUP11 DUP11 DUP1 DUP1 PUSH1 0x1F ADD PUSH1 0x20 DUP1 SWAP2 DIV MUL PUSH1 0x20 ADD PUSH1 0x40 MLOAD SWAP1 DUP2 ADD PUSH1 0x40 MSTORE DUP1 SWAP4 SWAP3 SWAP2 SWAP1 DUP2 DUP2 MSTORE PUSH1 0x20 ADD DUP4 DUP4 DUP1 DUP3 DUP5 CALLDATACOPY PUSH0 DUP2 DUP5 ADD MSTORE PUSH1 0x1F NOT PUSH1 0x1F DUP3 ADD AND SWAP1 POP DUP1 DUP4 ADD SWAP3 POP POP POP POP POP POP POP DUP2 MSTORE PUSH1 0x20 ADD DUP9 DUP9 DUP1 DUP1 PUSH1 0x1F ADD PUSH1 0x20 DUP1 SWAP2 DIV MUL PUSH1 0x20 ADD PUSH1 0x40 MLOAD SWAP1 DUP2 ADD PUSH1 0x40 MSTORE DUP1 SWAP4 SWAP3 SWAP2 SWAP1 DUP2 DUP2 MSTORE PUSH1 0x20 ADD DUP4 DUP4 DUP1 DUP3 DUP5 CALLDATACOPY PUSH0 DUP2 DUP5 ADD MSTORE PUSH1 0x1F NOT PUSH1 0x1F DUP3 ADD AND SWAP1 POP DUP1 DUP4 ADD SWAP3 POP POP POP POP POP POP POP DUP2 MSTORE PUSH1 0x20 ADD DUP7 DUP7 DUP1 DUP1 PUSH1 0x1F ADD PUSH1 0x20 DUP1 SWAP2 DIV MUL PUSH1 0x20 ADD PUSH1 0x40 MLOAD SWAP1 DUP2 ADD PUSH1 0x40 MSTORE DUP1 SWAP4 SWAP3 SWAP2 SWAP1 DUP2 DUP2 MSTORE PUSH1 0x20 ADD DUP4 DUP4 DUP1 DUP3 DUP5 CALLDATACOPY PUSH0 DUP2 DUP5 ADD MSTORE PUSH1 0x1F NOT PUSH1 0x1F DUP3 ADD AND SWAP1 POP DUP1 DUP4 ADD SWAP3 POP POP POP POP POP POP POP DUP2 MSTORE PUSH1 0x20 ADD DUP5 DUP5 DUP1 DUP1 PUSH1 0x1F ADD PUSH1 0x20 DUP1 SWAP2 DIV MUL PUSH1 0x20 ADD PUSH1 0x40 MLOAD SWAP1 DUP2 ADD PUSH1 0x40 MSTORE DUP1 SWAP4 SWAP3 SWAP2 SWAP1 DUP2 DUP2 MSTORE PUSH1 0x20 ADD DUP4 DUP4 DUP1 DUP3 DUP5 CALLDATACOPY PUSH0 DUP2 DUP5 ADD MSTORE PUSH1 0x1F NOT PUSH1 0x1F DUP3 ADD AND SWAP1 POP DUP1 DUP4 ADD SWAP3 POP POP POP POP POP POP POP DUP2 MSTORE POP PUSH0 DUP3 PUSH1 0x3 DUP2 LT PUSH2 0x1374 JUMPI PUSH2 0x1373 PUSH2 0x274E JUMP JUMPDEST JUMPDEST PUSH1 0x5 MUL ADD PUSH0 DUP3 ADD MLOAD DUP2 PUSH0 ADD SSTORE PUSH1 0x20 DUP3 ADD MLOAD DUP2 PUSH1 0x1 ADD SWAP1 DUP2 PUSH2 0x1395 SWAP2 SWAP1 PUSH2 0x277B JUMP JUMPDEST POP PUSH1 0x40 DUP3 ADD MLOAD DUP2 PUSH1 0x2 ADD SWAP1 DUP2 PUSH2 0x13AB SWAP2 SWAP1 PUSH2 0x277B JUMP JUMPDEST POP PUSH1 0x60 DUP3 ADD MLOAD DUP2 PUSH1 0x3 ADD SWAP1 DUP2 PUSH2 0x13C1 SWAP2 SWAP1 PUSH2 0x277B JUMP JUMPDEST POP PUSH1 0x80 DUP3 ADD MLOAD DUP2 PUSH1 0x4 ADD SWAP1 DUP2 PUSH2 0x13D7 SWAP2 SWAP1 PUSH2 0x277B JUMP JUMPDEST POP SWAP1 POP POP POP POP POP POP POP POP POP POP POP JUMP JUMPDEST PUSH1 0x20 DUP1 SLOAD PUSH2 0x13F3 SWAP1 PUSH2 0x2387 JUMP JUMPDEST DUP1 PUSH1 0x1F ADD PUSH1 0x20 DUP1 SWAP2 DIV MUL PUSH1 0x20 ADD PUSH1 0x40 MLOAD SWAP1 DUP2 ADD PUSH1 0x40 MSTORE DUP1 SWAP3 SWAP2 SWAP1 DUP2 DUP2 MSTORE PUSH1 0x20 ADD DUP3 DUP1 SLOAD PUSH2 0x141F SWAP1 PUSH2 0x2387 JUMP JUMPDEST DUP1 ISZERO PUSH2 0x146A JUMPI DUP1 PUSH1 0x1F LT PUSH2 0x1441 JUMPI PUSH2 0x100 DUP1 DUP4 SLOAD DIV MUL DUP4 MSTORE SWAP2 PUSH1 0x20 ADD SWAP2 PUSH2 0x146A JUMP JUMPDEST DUP3 ADD SWAP2 SWAP1 PUSH0 MSTORE PUSH1 0x20 PUSH0 KECCAK256 SWAP1 JUMPDEST DUP2 SLOAD DUP2 MSTORE SWAP1 PUSH1 0x1 ADD SWAP1 PUSH1 0x20 ADD DUP1 DUP4 GT PUSH2 0x144D JUMPI DUP3 SWAP1 SUB PUSH1 0x1F AND DUP3 ADD SWAP2 JUMPDEST POP POP POP POP POP DUP2 JUMP JUMPDEST PUSH1 0xF DUP2 PUSH1 0x3 DUP2 LT PUSH2 0x1481 JUMPI PUSH0 DUP1 REVERT JUMPDEST PUSH1 0x5 MUL ADD PUSH0 SWAP2 POP SWAP1 POP DUP1 PUSH0 ADD SLOAD SWAP1 DUP1 PUSH1 0x1 ADD DUP1 SLOAD PUSH2 0x149E SWAP1 PUSH2 0x2387 JUMP JUMPDEST DUP1 PUSH1 0x1F ADD PUSH1 0x20 DUP1 SWAP2 DIV MUL PUSH1 0x20 ADD PUSH1 0x40 MLOAD SWAP1 DUP2 ADD PUSH1 0x40 MSTORE DUP1 SWAP3 SWAP2 SWAP1 DUP2 DUP2 MSTORE PUSH1 0x20 ADD DUP3 DUP1 SLOAD PUSH2 0x14CA SWAP1 PUSH2 0x2387 JUMP JUMPDEST DUP1 ISZERO PUSH2 0x1515 JUMPI DUP1 PUSH1 0x1F LT PUSH2 0x14EC JUMPI PUSH2 0x100 DUP1 DUP4 SLOAD DIV MUL DUP4 MSTORE SWAP2 PUSH1 0x20 ADD SWAP2 PUSH2 0x1515 JUMP JUMPDEST DUP3 ADD SWAP2 SWAP1 PUSH0 MSTORE PUSH1 0x20 PUSH0 KECCAK256 SWAP1 JUMPDEST DUP2 SLOAD DUP2 MSTORE SWAP1 PUSH1 0x1 ADD SWAP1 PUSH1 0x20 ADD DUP1 DUP4 GT PUSH2 0x14F8 JUMPI DUP3 SWAP1 SUB PUSH1 0x1F AND DUP3 ADD SWAP2 JUMPDEST POP POP POP POP POP SWAP1 DUP1 PUSH1 0x2 ADD DUP1 SLOAD PUSH2 0x152A SWAP1 PUSH2 0x2387 JUMP JUMPDEST DUP1 PUSH1 0x1F ADD PUSH1 0x20 DUP1 SWAP2 DIV MUL PUSH1 0x20 ADD PUSH1 0x40 MLOAD SWAP1 DUP2 ADD PUSH1 0x40 MSTORE DUP1 SWAP3 SWAP2 SWAP1 DUP2 DUP2 MSTORE PUSH1 0x20 ADD DUP3 DUP1 SLOAD PUSH2 0x1556 SWAP1 PUSH2 0x2387 JUMP JUMPDEST DUP1 ISZERO PUSH2 0x15A1 JUMPI DUP1 PUSH1 0x1F LT PUSH2 0x1578 JUMPI PUSH2 0x100 DUP1 DUP4 SLOAD DIV MUL DUP4 MSTORE SWAP2 PUSH1 0x20 ADD SWAP2 PUSH2 0x15A1 JUMP JUMPDEST DUP3 ADD SWAP2 SWAP1 PUSH0 MSTORE PUSH1 0x20 PUSH0 KECCAK256 SWAP1 JUMPDEST DUP2 SLOAD DUP2 MSTORE SWAP1 PUSH1 0x1 ADD SWAP1 PUSH1 0x20 ADD DUP1 DUP4 GT PUSH2 0x1584 JUMPI DUP3 SWAP1 SUB PUSH1 0x1F AND DUP3 ADD SWAP2 JUMPDEST POP POP POP POP POP SWAP1 DUP1 PUSH1 0x3 ADD DUP1 SLOAD PUSH2 0x15B6 SWAP1 PUSH2 0x2387 JUMP JUMPDEST DUP1 PUSH1 0x1F ADD PUSH1 0x20 DUP1 SWAP2 DIV MUL PUSH1 0x20 ADD PUSH1 0x40 MLOAD SWAP1 DUP2 ADD PUSH1 0x40 MSTORE DUP1 SWAP3 SWAP2 SWAP1 DUP2 DUP2 MSTORE PUSH1 0x20 ADD DUP3 DUP1 SLOAD PUSH2 0x15E2 SWAP1 PUSH2 0x2387 JUMP JUMPDEST DUP1 ISZERO PUSH2 0x162D JUMPI DUP1 PUSH1 0x1F LT PUSH2 0x1604 JUMPI PUSH2 0x100 DUP1 DUP4 SLOAD DIV MUL DUP4 MSTORE SWAP2 PUSH1 0x20 ADD SWAP2 PUSH2 0x162D JUMP JUMPDEST DUP3 ADD SWAP2 SWAP1 PUSH0 MSTORE PUSH1 0x20 PUSH0 KECCAK256 SWAP1 JUMPDEST DUP2 SLOAD DUP2 MSTORE SWAP1 PUSH1 0x1 ADD SWAP1 PUSH1 0x20 ADD DUP1 DUP4 GT PUSH2 0x1610 JUMPI DUP3 SWAP1 SUB PUSH1 0x1F AND DUP3 ADD SWAP2 JUMPDEST POP POP POP POP POP SWAP1 DUP1 PUSH1 0x4 ADD DUP1 SLOAD PUSH2 0x1642 SWAP1 PUSH2 0x2387 JUMP JUMPDEST DUP1 PUSH1 0x1F ADD PUSH1 0x20 DUP1 SWAP2 DIV MUL PUSH1 0x20 ADD PUSH1 0x40 MLOAD SWAP1 DUP2 ADD PUSH1 0x40 MSTORE DUP1 SWAP3 SWAP2 SWAP1 DUP2 DUP2 MSTORE PUSH1 0x20 ADD DUP3 DUP1 SLOAD PUSH2 0x166E SWAP1 PUSH2 0x2387 JUMP JUMPDEST DUP1 ISZERO PUSH2 0x16B9 JUMPI DUP1 PUSH1 0x1F LT PUSH2 0x1690 JUMPI PUSH2 0x100 DUP1 DUP4 SLOAD DIV MUL DUP4 MSTORE SWAP2 PUSH1 0x20 ADD SWAP2 PUSH2 0x16B9 JUMP JUMPDEST DUP3 ADD SWAP2 SWAP1 PUSH0 MSTORE PUSH1 0x20 PUSH0 KECCAK256 SWAP1 JUMPDEST DUP2 SLOAD DUP2 MSTORE SWAP1 PUSH1 0x1 ADD SWAP1 PUSH1 0x20 ADD DUP1 DUP4 GT PUSH2 0x169C JUMPI DUP3 SWAP1 SUB PUSH1 0x1F AND DUP3 ADD SWAP2 JUMPDEST POP POP POP POP POP SWAP1 POP DUP6 JUMP JUMPDEST CALLER PUSH20 0xFFFFFFFFFFFFFFFFFFFFFFFFFFFFFFFFFFFFFFFF AND PUSH1 0x1E PUSH0 SWAP1 SLOAD SWAP1 PUSH2 0x100 EXP SWAP1 DIV PUSH20 0xFFFFFFFFFFFFFFFFFFFFFFFFFFFFFFFFFFFFFFFF AND PUSH20 0xFFFFFFFFFFFFFFFFFFFFFFFFFFFFFFFFFFFFFFFF AND EQ PUSH2 0x1752 JUMPI PUSH1 0x40 MLOAD PUSH32 0x8C379A000000000000000000000000000000000000000000000000000000000 DUP2 MSTORE PUSH1 0x4 ADD PUSH2 0x1749 SWAP1 PUSH2 0x2427 JUMP JUMPDEST PUSH1 0x40 MLOAD DUP1 SWAP2 SUB SWAP1 REVERT JUMPDEST PUSH1 0x3 PUSH1 0x23 SLOAD LT PUSH2 0x1797 JUMPI PUSH1 0x40 MLOAD PUSH32 0x8C379A000000000000000000000000000000000000000000000000000000000 DUP2 MSTORE PUSH1 0x4 ADD PUSH2 0x178E SWAP1 PUSH2 0x29D8 JUMP JUMPDEST PUSH1 0x40 MLOAD DUP1 SWAP2 SUB SWAP1 REVERT JUMPDEST PUSH1 0x40 MLOAD DUP1 PUSH1 0xA0 ADD PUSH1 0x40 MSTORE DUP1 PUSH1 0x23 SLOAD DUP2 MSTORE PUSH1 0x20 ADD DUP10 DUP10 DUP1 DUP1 PUSH1 0x1F ADD PUSH1 0x20 DUP1 SWAP2 DIV MUL PUSH1 0x20 ADD PUSH1 0x40 MLOAD SWAP1 DUP2 ADD PUSH1 0x40 MSTORE DUP1 SWAP4 SWAP3 SWAP2 SWAP1 DUP2 DUP2 MSTORE PUSH1 0x20 ADD DUP4 DUP4 DUP1 DUP3 DUP5 CALLDATACOPY PUSH0 DUP2 DUP5 ADD MSTORE PUSH1 0x1F NOT PUSH1 0x1F DUP3 ADD AND SWAP1 POP DUP1 DUP4 ADD SWAP3 POP POP POP POP POP POP POP DUP2 MSTORE PUSH1 0x20 ADD DUP8 DUP8 DUP1 DUP1 PUSH1 0x1F ADD PUSH1 0x20 DUP1 SWAP2 DIV MUL PUSH1 0x20 ADD PUSH1 0x40 MLOAD SWAP1 DUP2 ADD PUSH1 0x40 MSTORE DUP1 SWAP4 SWAP3 SWAP2 SWAP1 DUP2 DUP2 MSTORE PUSH1 0x20 ADD DUP4 DUP4 DUP1 DUP3 DUP5 CALLDATACOPY PUSH0 DUP2 DUP5 ADD MSTORE PUSH1 0x1F NOT PUSH1 0x1F DUP3 ADD AND SWAP1 POP DUP1 DUP4 ADD SWAP3 POP POP POP POP POP POP POP DUP2 MSTORE PUSH1 0x20 ADD DUP6 DUP6 DUP1 DUP1 PUSH1 0x1F ADD PUSH1 0x20 DUP1 SWAP2 DIV MUL PUSH1 0x20 ADD PUSH1 0x40 MLOAD SWAP1 DUP2 ADD PUSH1 0x40 MSTORE DUP1 SWAP4 SWAP3 SWAP2 SWAP1 DUP2 DUP2 MSTORE PUSH1 0x20 ADD DUP4 DUP4 DUP1 DUP3 DUP5 CALLDATACOPY PUSH0 DUP2 DUP5 ADD MSTORE PUSH1 0x1F NOT PUSH1 0x1F DUP3 ADD AND SWAP1 POP DUP1 DUP4 ADD SWAP3 POP POP POP POP POP POP POP DUP2 MSTORE PUSH1 0x20 ADD DUP4 DUP4 DUP1 DUP1 PUSH1 0x1F ADD PUSH1 0x20 DUP1 SWAP2 DIV MUL PUSH1 0x20 ADD PUSH1 0x40 MLOAD SWAP1 DUP2 ADD PUSH1 0x40 MSTORE DUP1 SWAP4 SWAP3 SWAP2 SWAP1 DUP2 DUP2 MSTORE PUSH1 0x20 ADD DUP4 DUP4 DUP1 DUP3 DUP5 CALLDATACOPY PUSH0 DUP2 DUP5 ADD MSTORE PUSH1 0x1F NOT PUSH1 0x1F DUP3 ADD AND SWAP1 POP DUP1 DUP4 ADD SWAP3 POP POP POP POP POP POP POP DUP2 MSTORE POP PUSH1 0xF PUSH1 0x23 SLOAD PUSH1 0x3 DUP2 LT PUSH2 0x18E2 JUMPI PUSH2 0x18E1 PUSH2 0x274E JUMP JUMPDEST JUMPDEST PUSH1 0x5 MUL ADD PUSH0 DUP3 ADD MLOAD DUP2 PUSH0 ADD SSTORE PUSH1 0x20 DUP3 ADD MLOAD DUP2 PUSH1 0x1 ADD SWAP1 DUP2 PUSH2 0x1903 SWAP2 SWAP1 PUSH2 0x277B JUMP JUMPDEST POP PUSH1 0x40 DUP3 ADD MLOAD DUP2 PUSH1 0x2 ADD SWAP1 DUP2 PUSH2 0x1919 SWAP2 SWAP1 PUSH2 0x277B JUMP JUMPDEST POP PUSH1 0x60 DUP3 ADD MLOAD DUP2 PUSH1 0x3 ADD SWAP1 DUP2 PUSH2 0x192F SWAP2 SWAP1 PUSH2 0x277B JUMP JUMPDEST POP PUSH1 0x80 DUP3 ADD MLOAD DUP2 PUSH1 0x4 ADD SWAP1 DUP2 PUSH2 0x1945 SWAP2 SWAP1 PUSH2 0x277B JUMP JUMPDEST POP SWAP1 POP POP PUSH1 0x23 PUSH0 DUP2 SLOAD DUP1 SWAP3 SWAP2 SWAP1 PUSH2 0x195B SWAP1 PUSH2 0x28DF JUMP JUMPDEST SWAP2 SWAP1 POP SSTORE POP POP POP POP POP POP POP POP POP JUMP JUMPDEST PUSH1 0x1F DUP1 SLOAD PUSH2 0x1977 SWAP1 PUSH2 0x2387 JUMP JUMPDEST DUP1 PUSH1 0x1F ADD PUSH1 0x20 DUP1 SWAP2 DIV MUL PUSH1 0x20 ADD PUSH1 0x40 MLOAD SWAP1 DUP2 ADD PUSH1 0x40 MSTORE DUP1 SWAP3 SWAP2 SWAP1 DUP2 DUP2 MSTORE PUSH1 0x20 ADD DUP3 DUP1 SLOAD PUSH2 0x19A3 SWAP1 PUSH2 0x2387 JUMP JUMPDEST DUP1 ISZERO PUSH2 0x19EE JUMPI DUP1 PUSH1 0x1F LT PUSH2 0x19C5 JUMPI PUSH2 0x100 DUP1 DUP4 SLOAD DIV MUL DUP4 MSTORE SWAP2 PUSH1 0x20 ADD SWAP2 PUSH2 0x19EE JUMP JUMPDEST DUP3 ADD SWAP2 SWAP1 PUSH0 MSTORE PUSH1 0x20 PUSH0 KECCAK256 SWAP1 JUMPDEST DUP2 SLOAD DUP2 MSTORE SWAP1 PUSH1 0x1 ADD SWAP1 PUSH1 0x20 ADD DUP1 DUP4 GT PUSH2 0x19D1 JUMPI DUP3 SWAP1 SUB PUSH1 0x1F AND DUP3 ADD SWAP2 JUMPDEST POP POP POP POP POP DUP2 JUMP JUMPDEST CALLER PUSH20 0xFFFFFFFFFFFFFFFFFFFFFFFFFFFFFFFFFFFFFFFF AND PUSH1 0x1E PUSH0 SWAP1 SLOAD SWAP1 PUSH2 0x100 EXP SWAP1 DIV PUSH20 0xFFFFFFFFFFFFFFFFFFFFFFFFFFFFFFFFFFFFFFFF AND PUSH20 0xFFFFFFFFFFFFFFFFFFFFFFFFFFFFFFFFFFFFFFFF AND EQ PUSH2 0x1A85 JUMPI PUSH1 0x40 MLOAD PUSH32 0x8C379A000000000000000000000000000000000000000000000000000000000 DUP2 MSTORE PUSH1 0x4 ADD PUSH2 0x1A7C SWAP1 PUSH2 0x2427 JUMP JUMPDEST PUSH1 0x40 MLOAD DUP1 SWAP2 SUB SWAP1 REVERT JUMPDEST DUP2 DUP2 PUSH1 0x21 SWAP2 DUP3 PUSH2 0x1A96 SWAP3 SWAP2 SWAP1 PUSH2 0x2619 JUMP JUMPDEST POP POP POP JUMP JUMPDEST CALLER PUSH20 0xFFFFFFFFFFFFFFFFFFFFFFFFFFFFFFFFFFFFFFFF AND PUSH1 0x1E PUSH0 SWAP1 SLOAD SWAP1 PUSH2 0x100 EXP SWAP1 DIV PUSH20 0xFFFFFFFFFFFFFFFFFFFFFFFFFFFFFFFFFFFFFFFF AND PUSH20 0xFFFFFFFFFFFFFFFFFFFFFFFFFFFFFFFFFFFFFFFF AND EQ PUSH2 0x1B2A JUMPI PUSH1 0x40 MLOAD PUSH32 0x8C379A000000000000000000000000000000000000000000000000000000000 DUP2 MSTORE PUSH1 0x4 ADD PUSH2 0x1B21 SWAP1 PUSH2 0x2427 JUMP JUMPDEST PUSH1 0x40 MLOAD DUP1 SWAP2 SUB SWAP1 REVERT JUMPDEST DUP2 DUP2 PUSH1 0x20 SWAP2 DUP3 PUSH2 0x1B3B SWAP3 SWAP2 SWAP1 PUSH2 0x2619 JUMP JUMPDEST POP POP POP JUMP JUMPDEST PUSH1 0x1E PUSH0 SWAP1 SLOAD SWAP1 PUSH2 0x100 EXP SWAP1 DIV PUSH20 0xFFFFFFFFFFFFFFFFFFFFFFFFFFFFFFFFFFFFFFFF AND PUSH20 0xFFFFFFFFFFFFFFFFFFFFFFFFFFFFFFFFFFFFFFFF AND PUSH2 0x8FC CALLVALUE SWAP1 DUP2 ISZERO MUL SWAP1 PUSH1 0x40 MLOAD PUSH0 PUSH1 0x40 MLOAD DUP1 DUP4 SUB DUP2 DUP6 DUP9 DUP9 CALL SWAP4 POP POP POP POP ISZERO DUP1 ISZERO PUSH2 0x1BA4 JUMPI RETURNDATASIZE PUSH0 DUP1 RETURNDATACOPY RETURNDATASIZE PUSH0 REVERT JUMPDEST POP JUMP JUMPDEST PUSH1 0x40 MLOAD DUP1 PUSH1 0x60 ADD PUSH1 0x40 MSTORE DUP1 PUSH1 0x3 SWAP1 JUMPDEST PUSH2 0x1BBE PUSH2 0x1C01 JUMP JUMPDEST DUP2 MSTORE PUSH1 0x20 ADD SWAP1 PUSH1 0x1 SWAP1 SUB SWAP1 DUP2 PUSH2 0x1BB6 JUMPI SWAP1 POP POP SWAP1 JUMP JUMPDEST PUSH1 0x40 MLOAD DUP1 PUSH1 0x60 ADD PUSH1 0x40 MSTORE DUP1 PUSH1 0x3 SWAP1 JUMPDEST PUSH2 0x1BEB PUSH2 0x1C2F JUMP JUMPDEST DUP2 MSTORE PUSH1 0x20 ADD SWAP1 PUSH1 0x1 SWAP1 SUB SWAP1 DUP2 PUSH2 0x1BE3 JUMPI SWAP1 POP POP SWAP1 JUMP JUMPDEST PUSH1 0x40 MLOAD DUP1 PUSH1 0xA0 ADD PUSH1 0x40 MSTORE DUP1 PUSH0 DUP2 MSTORE PUSH1 0x20 ADD PUSH1 0x60 DUP2 MSTORE PUSH1 0x20 ADD PUSH1 0x60 DUP2 MSTORE PUSH1 0x20 ADD PUSH1 0x60 DUP2 MSTORE PUSH1 0x20 ADD PUSH1 0x60 DUP2 MSTORE POP SWAP1 JUMP JUMPDEST PUSH1 0x40 MLOAD DUP1 PUSH1 0xA0 ADD PUSH1 0x40 MSTORE DUP1 PUSH0 DUP2 MSTORE PUSH1 0x20 ADD PUSH1 0x60 DUP2 MSTORE PUSH1 0x20 ADD PUSH1 0x60 DUP2 MSTORE PUSH1 0x20 ADD PUSH1 0x60 DUP2 MSTORE PUSH1 0x20 ADD PUSH1 0x60 DUP2 MSTORE POP SWAP1 JUMP JUMPDEST PUSH0 DUP1 REVERT JUMPDEST PUSH0 DUP1 REVERT JUMPDEST PUSH0 DUP2 SWAP1 POP SWAP2 SWAP1 POP JUMP JUMPDEST PUSH2 0x1C77 DUP2 PUSH2 0x1C65 JUMP JUMPDEST DUP2 EQ PUSH2 0x1C81 JUMPI PUSH0 DUP1 REVERT JUMPDEST POP JUMP JUMPDEST PUSH0 DUP2 CALLDATALOAD SWAP1 POP PUSH2 0x1C92 DUP2 PUSH2 0x1C6E JUMP JUMPDEST SWAP3 SWAP2 POP POP JUMP JUMPDEST PUSH0 PUSH1 0x20 DUP3 DUP5 SUB SLT ISZERO PUSH2 0x1CAD JUMPI PUSH2 0x1CAC PUSH2 0x1C5D JUMP JUMPDEST JUMPDEST PUSH0 PUSH2 0x1CBA DUP5 DUP3 DUP6 ADD PUSH2 0x1C84 JUMP JUMPDEST SWAP2 POP POP SWAP3 SWAP2 POP POP JUMP JUMPDEST PUSH2 0x1CCC DUP2 PUSH2 0x1C65 JUMP JUMPDEST DUP3 MSTORE POP POP JUMP JUMPDEST PUSH0 DUP2 MLOAD SWAP1 POP SWAP2 SWAP1 POP JUMP JUMPDEST PUSH0 DUP3 DUP3 MSTORE PUSH1 0x20 DUP3 ADD SWAP1 POP SWAP3 SWAP2 POP POP JUMP JUMPDEST DUP3 DUP2 DUP4 MCOPY PUSH0 DUP4 DUP4 ADD MSTORE POP POP POP JUMP JUMPDEST PUSH0 PUSH1 0x1F NOT PUSH1 0x1F DUP4 ADD AND SWAP1 POP SWAP2 SWAP1 POP JUMP JUMPDEST PUSH0 PUSH2 0x1D14 DUP3 PUSH2 0x1CD2 JUMP JUMPDEST PUSH2 0x1D1E DUP2 DUP6 PUSH2 0x1CDC JUMP JUMPDEST SWAP4 POP PUSH2 0x1D2E DUP2 DUP6 PUSH1 0x20 DUP7 ADD PUSH2 0x1CEC JUMP JUMPDEST PUSH2 0x1D37 DUP2 PUSH2 0x1CFA JUMP JUMPDEST DUP5 ADD SWAP2 POP POP SWAP3 SWAP2 POP POP JUMP JUMPDEST PUSH0 PUSH1 0xA0 DUP3 ADD SWAP1 POP PUSH2 0x1D55 PUSH0 DUP4 ADD DUP9 PUSH2 0x1CC3 JUMP JUMPDEST DUP2 DUP2 SUB PUSH1 0x20 DUP4 ADD MSTORE PUSH2 0x1D67 DUP2 DUP8 PUSH2 0x1D0A JUMP JUMPDEST SWAP1 POP DUP2 DUP2 SUB PUSH1 0x40 DUP4 ADD MSTORE PUSH2 0x1D7B DUP2 DUP7 PUSH2 0x1D0A JUMP JUMPDEST SWAP1 POP DUP2 DUP2 SUB PUSH1 0x60 DUP4 ADD MSTORE PUSH2 0x1D8F DUP2 DUP6 PUSH2 0x1D0A JUMP JUMPDEST SWAP1 POP DUP2 DUP2 SUB PUSH1 0x80 DUP4 ADD MSTORE PUSH2 0x1DA3 DUP2 DUP5 PUSH2 0x1D0A JUMP JUMPDEST SWAP1 POP SWAP7 SWAP6 POP POP POP POP POP POP JUMP JUMPDEST PUSH0 PUSH1 0x3 SWAP1 POP SWAP2 SWAP1 POP JUMP JUMPDEST PUSH0 DUP2 SWAP1 POP SWAP3 SWAP2 POP POP JUMP JUMPDEST PUSH0 DUP2 SWAP1 POP SWAP2 SWAP1 POP JUMP JUMPDEST PUSH2 0x1DD5 DUP2 PUSH2 0x1C65 JUMP JUMPDEST DUP3 MSTORE POP POP JUMP JUMPDEST PUSH0 DUP3 DUP3 MSTORE PUSH1 0x20 DUP3 ADD SWAP1 POP SWAP3 SWAP2 POP POP JUMP JUMPDEST PUSH0 PUSH2 0x1DF5 DUP3 PUSH2 0x1CD2 JUMP JUMPDEST PUSH2 0x1DFF DUP2 DUP6 PUSH2 0x1DDB JUMP JUMPDEST SWAP4 POP PUSH2 0x1E0F DUP2 DUP6 PUSH1 0x20 DUP7 ADD PUSH2 0x1CEC JUMP JUMPDEST PUSH2 0x1E18 DUP2 PUSH2 0x1CFA JUMP JUMPDEST DUP5 ADD SWAP2 POP POP SWAP3 SWAP2 POP POP JUMP JUMPDEST PUSH0 PUSH1 0xA0 DUP4 ADD PUSH0 DUP4 ADD MLOAD PUSH2 0x1E38 PUSH0 DUP7 ADD DUP3 PUSH2 0x1DCC JUMP JUMPDEST POP PUSH1 0x20 DUP4 ADD MLOAD DUP5 DUP3 SUB PUSH1 0x20 DUP7 ADD MSTORE PUSH2 0x1E50 DUP3 DUP3 PUSH2 0x1DEB JUMP JUMPDEST SWAP2 POP POP PUSH1 0x40 DUP4 ADD MLOAD DUP5 DUP3 SUB PUSH1 0x40 DUP7 ADD MSTORE PUSH2 0x1E6A DUP3 DUP3 PUSH2 0x1DEB JUMP JUMPDEST SWAP2 POP POP PUSH1 0x60 DUP4 ADD MLOAD DUP5 DUP3 SUB PUSH1 0x60 DUP7 ADD MSTORE PUSH2 0x1E84 DUP3 DUP3 PUSH2 0x1DEB JUMP JUMPDEST SWAP2 POP POP PUSH1 0x80 DUP4 ADD MLOAD DUP5 DUP3 SUB PUSH1 0x80 DUP7 ADD MSTORE PUSH2 0x1E9E DUP3 DUP3 PUSH2 0x1DEB JUMP JUMPDEST SWAP2 POP POP DUP1 SWAP2 POP POP SWAP3 SWAP2 POP POP JUMP JUMPDEST PUSH0 PUSH2 0x1EB6 DUP4 DUP4 PUSH2 0x1E23 JUMP JUMPDEST SWAP1 POP SWAP3 SWAP2 POP POP JUMP JUMPDEST PUSH0 PUSH1 0x20 DUP3 ADD SWAP1 POP SWAP2 SWAP1 POP JUMP JUMPDEST PUSH0 PUSH2 0x1ED4 DUP3 PUSH2 0x1DAF JUMP JUMPDEST PUSH2 0x1EDE DUP2 DUP6 PUSH2 0x1DB9 JUMP JUMPDEST SWAP4 POP DUP4 PUSH1 0x20 DUP3 MUL DUP6 ADD PUSH2 0x1EF0 DUP6 PUSH2 0x1DC3 JUMP JUMPDEST DUP1 PUSH0 JUMPDEST DUP6 DUP2 LT ISZERO PUSH2 0x1F2B JUMPI DUP5 DUP5 SUB DUP10 MSTORE DUP2 MLOAD PUSH2 0x1F0C DUP6 DUP3 PUSH2 0x1EAB JUMP JUMPDEST SWAP5 POP PUSH2 0x1F17 DUP4 PUSH2 0x1EBE JUMP JUMPDEST SWAP3 POP PUSH1 0x20 DUP11 ADD SWAP10 POP POP PUSH1 0x1 DUP2 ADD SWAP1 POP PUSH2 0x1EF3 JUMP JUMPDEST POP DUP3 SWAP8 POP DUP8 SWAP6 POP POP POP POP POP POP SWAP3 SWAP2 POP POP JUMP JUMPDEST PUSH0 PUSH1 0x20 DUP3 ADD SWAP1 POP DUP2 DUP2 SUB PUSH0 DUP4 ADD MSTORE PUSH2 0x1F55 DUP2 DUP5 PUSH2 0x1ECA JUMP JUMPDEST SWAP1 POP SWAP3 SWAP2 POP POP JUMP JUMPDEST PUSH0 PUSH1 0x3 SWAP1 POP SWAP2 SWAP1 POP JUMP JUMPDEST PUSH0 DUP2 SWAP1 POP SWAP3 SWAP2 POP POP JUMP JUMPDEST PUSH0 DUP2 SWAP1 POP SWAP2 SWAP1 POP JUMP JUMPDEST PUSH0 PUSH1 0xA0 DUP4 ADD PUSH0 DUP4 ADD MLOAD PUSH2 0x1F8F PUSH0 DUP7 ADD DUP3 PUSH2 0x1DCC JUMP JUMPDEST POP PUSH1 0x20 DUP4 ADD MLOAD DUP5 DUP3 SUB PUSH1 0x20 DUP7 ADD MSTORE PUSH2 0x1FA7 DUP3 DUP3 PUSH2 0x1DEB JUMP JUMPDEST SWAP2 POP POP PUSH1 0x40 DUP4 ADD MLOAD DUP5 DUP3 SUB PUSH1 0x40 DUP7 ADD MSTORE PUSH2 0x1FC1 DUP3 DUP3 PUSH2 0x1DEB JUMP JUMPDEST SWAP2 POP POP PUSH1 0x60 DUP4 ADD MLOAD DUP5 DUP3 SUB PUSH1 0x60 DUP7 ADD MSTORE PUSH2 0x1FDB DUP3 DUP3 PUSH2 0x1DEB JUMP JUMPDEST SWAP2 POP POP PUSH1 0x80 DUP4 ADD MLOAD DUP5 DUP3 SUB PUSH1 0x80 DUP7 ADD MSTORE PUSH2 0x1FF5 DUP3 DUP3 PUSH2 0x1DEB JUMP JUMPDEST SWAP2 POP POP DUP1 SWAP2 POP POP SWAP3 SWAP2 POP POP JUMP JUMPDEST PUSH0 PUSH2 0x200D DUP4 DUP4 PUSH2 0x1F7A JUMP JUMPDEST SWAP1 POP SWAP3 SWAP2 POP POP JUMP JUMPDEST PUSH0 PUSH1 0x20 DUP3 ADD SWAP1 POP SWAP2 SWAP1 POP JUMP JUMPDEST PUSH0 PUSH2 0x202B DUP3 PUSH2 0x1F5D JUMP JUMPDEST PUSH2 0x2035 DUP2 DUP6 PUSH2 0x1F67 JUMP JUMPDEST SWAP4 POP DUP4 PUSH1 0x20 DUP3 MUL DUP6 ADD PUSH2 0x2047 DUP6 PUSH2 0x1F71 JUMP JUMPDEST DUP1 PUSH0 JUMPDEST DUP6 DUP2 LT ISZERO PUSH2 0x2082 JUMPI DUP5 DUP5 SUB DUP10 MSTORE DUP2 MLOAD PUSH2 0x2063 DUP6 DUP3 PUSH2 0x2002 JUMP JUMPDEST SWAP5 POP PUSH2 0x206E DUP4 PUSH2 0x2015 JUMP JUMPDEST SWAP3 POP PUSH1 0x20 DUP11 ADD SWAP10 POP POP PUSH1 0x1 DUP2 ADD SWAP1 POP PUSH2 0x204A JUMP JUMPDEST POP DUP3 SWAP8 POP DUP8 SWAP6 POP POP POP POP POP POP SWAP3 SWAP2 POP POP JUMP JUMPDEST PUSH0 PUSH1 0x20 DUP3 ADD SWAP1 POP DUP2 DUP2 SUB PUSH0 DUP4 ADD MSTORE PUSH2 0x20AC DUP2 DUP5 PUSH2 0x2021 JUMP JUMPDEST SWAP1 POP SWAP3 SWAP2 POP POP JUMP JUMPDEST PUSH0 DUP1 REVERT JUMPDEST PUSH0 DUP1 REVERT JUMPDEST PUSH0 DUP1 REVERT JUMPDEST PUSH0 DUP1 DUP4 PUSH1 0x1F DUP5 ADD SLT PUSH2 0x20D5 JUMPI PUSH2 0x20D4 PUSH2 0x20B4 JUMP JUMPDEST JUMPDEST DUP3 CALLDATALOAD SWAP1 POP PUSH8 0xFFFFFFFFFFFFFFFF DUP2 GT ISZERO PUSH2 0x20F2 JUMPI PUSH2 0x20F1 PUSH2 0x20B8 JUMP JUMPDEST JUMPDEST PUSH1 0x20 DUP4 ADD SWAP2 POP DUP4 PUSH1 0x1 DUP3 MUL DUP4 ADD GT ISZERO PUSH2 0x210E JUMPI PUSH2 0x210D PUSH2 0x20BC JUMP JUMPDEST JUMPDEST SWAP3 POP SWAP3 SWAP1 POP JUMP JUMPDEST PUSH0 DUP1 PUSH1 0x20 DUP4 DUP6 SUB SLT ISZERO PUSH2 0x212B JUMPI PUSH2 0x212A PUSH2 0x1C5D JUMP JUMPDEST JUMPDEST PUSH0 DUP4 ADD CALLDATALOAD PUSH8 0xFFFFFFFFFFFFFFFF DUP2 GT ISZERO PUSH2 0x2148 JUMPI PUSH2 0x2147 PUSH2 0x1C61 JUMP JUMPDEST JUMPDEST PUSH2 0x2154 DUP6 DUP3 DUP7 ADD PUSH2 0x20C0 JUMP JUMPDEST SWAP3 POP SWAP3 POP POP SWAP3 POP SWAP3 SWAP1 POP JUMP JUMPDEST PUSH0 DUP1 PUSH0 DUP1 PUSH0 DUP1 PUSH0 DUP1 PUSH0 PUSH1 0xA0 DUP11 DUP13 SUB SLT ISZERO PUSH2 0x217D JUMPI PUSH2 0x217C PUSH2 0x1C5D JUMP JUMPDEST JUMPDEST PUSH0 DUP11 ADD CALLDATALOAD PUSH8 0xFFFFFFFFFFFFFFFF DUP2 GT ISZERO PUSH2 0x219A JUMPI PUSH2 0x2199 PUSH2 0x1C61 JUMP JUMPDEST JUMPDEST PUSH2 0x21A6 DUP13 DUP3 DUP14 ADD PUSH2 0x20C0 JUMP JUMPDEST SWAP10 POP SWAP10 POP POP PUSH1 0x20 DUP11 ADD CALLDATALOAD PUSH8 0xFFFFFFFFFFFFFFFF DUP2 GT ISZERO PUSH2 0x21C9 JUMPI PUSH2 0x21C8 PUSH2 0x1C61 JUMP JUMPDEST JUMPDEST PUSH2 0x21D5 DUP13 DUP3 DUP14 ADD PUSH2 0x20C0 JUMP JUMPDEST SWAP8 POP SWAP8 POP POP PUSH1 0x40 DUP11 ADD CALLDATALOAD PUSH8 0xFFFFFFFFFFFFFFFF DUP2 GT ISZERO PUSH2 0x21F8 JUMPI PUSH2 0x21F7 PUSH2 0x1C61 JUMP JUMPDEST JUMPDEST PUSH2 0x2204 DUP13 DUP3 DUP14 ADD PUSH2 0x20C0 JUMP JUMPDEST SWAP6 POP SWAP6 POP POP PUSH1 0x60 DUP11 ADD CALLDATALOAD PUSH8 0xFFFFFFFFFFFFFFFF DUP2 GT ISZERO PUSH2 0x2227 JUMPI PUSH2 0x2226 PUSH2 0x1C61 JUMP JUMPDEST JUMPDEST PUSH2 0x2233 DUP13 DUP3 DUP14 ADD PUSH2 0x20C0 JUMP JUMPDEST SWAP4 POP SWAP4 POP POP PUSH1 0x80 PUSH2 0x2246 DUP13 DUP3 DUP14 ADD PUSH2 0x1C84 JUMP JUMPDEST SWAP2 POP POP SWAP3 SWAP6 SWAP9 POP SWAP3 SWAP6 SWAP9 POP SWAP3 SWAP6 SWAP9 JUMP JUMPDEST PUSH0 PUSH1 0x20 DUP3 ADD SWAP1 POP DUP2 DUP2 SUB PUSH0 DUP4 ADD MSTORE PUSH2 0x226E DUP2 DUP5 PUSH2 0x1D0A JUMP JUMPDEST SWAP1 POP SWAP3 SWAP2 POP POP JUMP JUMPDEST PUSH0 DUP1 PUSH0 DUP1 PUSH0 DUP1 PUSH0 DUP1 PUSH1 0x80 DUP10 DUP12 SUB SLT ISZERO PUSH2 0x2292 JUMPI PUSH2 0x2291 PUSH2 0x1C5D JUMP JUMPDEST JUMPDEST PUSH0 DUP10 ADD CALLDATALOAD PUSH8 0xFFFFFFFFFFFFFFFF DUP2 GT ISZERO PUSH2 0x22AF JUMPI PUSH2 0x22AE PUSH2 0x1C61 JUMP JUMPDEST JUMPDEST PUSH2 0x22BB DUP12 DUP3 DUP13 ADD PUSH2 0x20C0 JUMP JUMPDEST SWAP9 POP SWAP9 POP POP PUSH1 0x20 DUP10 ADD CALLDATALOAD PUSH8 0xFFFFFFFFFFFFFFFF DUP2 GT ISZERO PUSH2 0x22DE JUMPI PUSH2 0x22DD PUSH2 0x1C61 JUMP JUMPDEST JUMPDEST PUSH2 0x22EA DUP12 DUP3 DUP13 ADD PUSH2 0x20C0 JUMP JUMPDEST SWAP7 POP SWAP7 POP POP PUSH1 0x40 DUP10 ADD CALLDATALOAD PUSH8 0xFFFFFFFFFFFFFFFF DUP2 GT ISZERO PUSH2 0x230D JUMPI PUSH2 0x230C PUSH2 0x1C61 JUMP JUMPDEST JUMPDEST PUSH2 0x2319 DUP12 DUP3 DUP13 ADD PUSH2 0x20C0 JUMP JUMPDEST SWAP5 POP SWAP5 POP POP PUSH1 0x60 DUP10 ADD CALLDATALOAD PUSH8 0xFFFFFFFFFFFFFFFF DUP2 GT ISZERO PUSH2 0x233C JUMPI PUSH2 0x233B PUSH2 0x1C61 JUMP JUMPDEST JUMPDEST PUSH2 0x2348 DUP12 DUP3 DUP13 ADD PUSH2 0x20C0 JUMP JUMPDEST SWAP3 POP SWAP3 POP POP SWAP3 SWAP6 SWAP9 POP SWAP3 SWAP6 SWAP9 SWAP1 SWAP4 SWAP7 POP JUMP JUMPDEST PUSH32 0x4E487B7100000000000000000000000000000000000000000000000000000000 PUSH0 MSTORE PUSH1 0x22 PUSH1 0x4 MSTORE PUSH1 0x24 PUSH0 REVERT JUMPDEST PUSH0 PUSH1 0x2 DUP3 DIV SWAP1 POP PUSH1 0x1 DUP3 AND DUP1 PUSH2 0x239E JUMPI PUSH1 0x7F DUP3 AND SWAP2 POP JUMPDEST PUSH1 0x20 DUP3 LT DUP2 SUB PUSH2 0x23B1 JUMPI PUSH2 0x23B0 PUSH2 0x235A JUMP JUMPDEST JUMPDEST POP SWAP2 SWAP1 POP JUMP JUMPDEST PUSH32 0x596F7520646F206E6F74206861766520616E20617574686F72697479206F7665 PUSH0 DUP3 ADD MSTORE PUSH32 0x72207468697320636F6E74726163740000000000000000000000000000000000 PUSH1 0x20 DUP3 ADD MSTORE POP JUMP JUMPDEST PUSH0 PUSH2 0x2411 PUSH1 0x2F DUP4 PUSH2 0x1CDC JUMP JUMPDEST SWAP2 POP PUSH2 0x241C DUP3 PUSH2 0x23B7 JUMP JUMPDEST PUSH1 0x40 DUP3 ADD SWAP1 POP SWAP2 SWAP1 POP JUMP JUMPDEST PUSH0 PUSH1 0x20 DUP3 ADD SWAP1 POP DUP2 DUP2 SUB PUSH0 DUP4 ADD MSTORE PUSH2 0x243E DUP2 PUSH2 0x2405 JUMP JUMPDEST SWAP1 POP SWAP2 SWAP1 POP JUMP JUMPDEST PUSH0 DUP3 SWAP1 POP SWAP3 SWAP2 POP POP JUMP JUMPDEST PUSH32 0x4E487B7100000000000000000000000000000000000000000000000000000000 PUSH0 MSTORE PUSH1 0x41 PUSH1 0x4 MSTORE PUSH1 0x24 PUSH0 REVERT JUMPDEST PUSH0 DUP2 SWAP1 POP DUP2 PUSH0 MSTORE PUSH1 0x20 PUSH0 KECCAK256 SWAP1 POP SWAP2 SWAP1 POP JUMP JUMPDEST PUSH0 PUSH1 0x20 PUSH1 0x1F DUP4 ADD DIV SWAP1 POP SWAP2 SWAP1 POP JUMP JUMPDEST PUSH0 DUP3 DUP3 SHL SWAP1 POP SWAP3 SWAP2 POP POP JUMP JUMPDEST PUSH0 PUSH1 0x8 DUP4 MUL PUSH2 0x24D8 PUSH32 0xFFFFFFFFFFFFFFFFFFFFFFFFFFFFFFFFFFFFFFFFFFFFFFFFFFFFFFFFFFFFFFFF DUP3 PUSH2 0x249D JUMP JUMPDEST PUSH2 0x24E2 DUP7 DUP4 PUSH2 0x249D JUMP JUMPDEST SWAP6 POP DUP1 NOT DUP5 AND SWAP4 POP DUP1 DUP7 AND DUP5 OR SWAP3 POP POP POP SWAP4 SWAP3 POP POP POP JUMP JUMPDEST PUSH0 DUP2 SWAP1 POP SWAP2 SWAP1 POP JUMP JUMPDEST PUSH0 PUSH2 0x251D PUSH2 0x2518 PUSH2 0x2513 DUP5 PUSH2 0x1C65 JUMP JUMPDEST PUSH2 0x24FA JUMP JUMPDEST PUSH2 0x1C65 JUMP JUMPDEST SWAP1 POP SWAP2 SWAP1 POP JUMP JUMPDEST PUSH0 DUP2 SWAP1 POP SWAP2 SWAP1 POP JUMP JUMPDEST PUSH2 0x2536 DUP4 PUSH2 0x2503 JUMP JUMPDEST PUSH2 0x254A PUSH2 0x2542 DUP3 PUSH2 0x2524 JUMP JUMPDEST DUP5 DUP5 SLOAD PUSH2 0x24A9 JUMP JUMPDEST DUP3 SSTORE POP POP POP POP JUMP JUMPDEST PUSH0 SWAP1 JUMP JUMPDEST PUSH2 0x255E PUSH2 0x2552 JUMP JUMPDEST PUSH2 0x2569 DUP2 DUP5 DUP5 PUSH2 0x252D JUMP JUMPDEST POP POP POP JUMP JUMPDEST JUMPDEST DUP2 DUP2 LT ISZERO PUSH2 0x258C JUMPI PUSH2 0x2581 PUSH0 DUP3 PUSH2 0x2556 JUMP JUMPDEST PUSH1 0x1 DUP2 ADD SWAP1 POP PUSH2 0x256F JUMP JUMPDEST POP POP JUMP JUMPDEST PUSH1 0x1F DUP3 GT ISZERO PUSH2 0x25D1 JUMPI PUSH2 0x25A2 DUP2 PUSH2 0x247C JUMP JUMPDEST PUSH2 0x25AB DUP5 PUSH2 0x248E JUMP JUMPDEST DUP2 ADD PUSH1 0x20 DUP6 LT ISZERO PUSH2 0x25BA JUMPI DUP2 SWAP1 POP JUMPDEST PUSH2 0x25CE PUSH2 0x25C6 DUP6 PUSH2 0x248E JUMP JUMPDEST DUP4 ADD DUP3 PUSH2 0x256E JUMP JUMPDEST POP POP JUMPDEST POP POP POP JUMP JUMPDEST PUSH0 DUP3 DUP3 SHR SWAP1 POP SWAP3 SWAP2 POP POP JUMP JUMPDEST PUSH0 PUSH2 0x25F1 PUSH0 NOT DUP5 PUSH1 0x8 MUL PUSH2 0x25D6 JUMP JUMPDEST NOT DUP1 DUP4 AND SWAP2 POP POP SWAP3 SWAP2 POP POP JUMP JUMPDEST PUSH0 PUSH2 0x2609 DUP4 DUP4 PUSH2 0x25E2 JUMP JUMPDEST SWAP2 POP DUP3 PUSH1 0x2 MUL DUP3 OR SWAP1 POP SWAP3 SWAP2 POP POP JUMP JUMPDEST PUSH2 0x2623 DUP4 DUP4 PUSH2 0x2445 JUMP JUMPDEST PUSH8 0xFFFFFFFFFFFFFFFF DUP2 GT ISZERO PUSH2 0x263C JUMPI PUSH2 0x263B PUSH2 0x244F JUMP JUMPDEST JUMPDEST PUSH2 0x2646 DUP3 SLOAD PUSH2 0x2387 JUMP JUMPDEST PUSH2 0x2651 DUP3 DUP3 DUP6 PUSH2 0x2590 JUMP JUMPDEST PUSH0 PUSH1 0x1F DUP4 GT PUSH1 0x1 DUP2 EQ PUSH2 0x267E JUMPI PUSH0 DUP5 ISZERO PUSH2 0x266C JUMPI DUP3 DUP8 ADD CALLDATALOAD SWAP1 POP JUMPDEST PUSH2 0x2676 DUP6 DUP3 PUSH2 0x25FE JUMP JUMPDEST DUP7 SSTORE POP PUSH2 0x26DD JUMP JUMPDEST PUSH1 0x1F NOT DUP5 AND PUSH2 0x268C DUP7 PUSH2 0x247C JUMP JUMPDEST PUSH0 JUMPDEST DUP3 DUP2 LT ISZERO PUSH2 0x26B3 JUMPI DUP5 DUP10 ADD CALLDATALOAD DUP3 SSTORE PUSH1 0x1 DUP3 ADD SWAP2 POP PUSH1 0x20 DUP6 ADD SWAP5 POP PUSH1 0x20 DUP2 ADD SWAP1 POP PUSH2 0x268E JUMP JUMPDEST DUP7 DUP4 LT ISZERO PUSH2 0x26D0 JUMPI DUP5 DUP10 ADD CALLDATALOAD PUSH2 0x26CC PUSH1 0x1F DUP10 AND DUP3 PUSH2 0x25E2 JUMP JUMPDEST DUP4 SSTORE POP JUMPDEST PUSH1 0x1 PUSH1 0x2 DUP9 MUL ADD DUP9 SSTORE POP POP POP JUMPDEST POP POP POP POP POP POP POP JUMP JUMPDEST PUSH32 0x496E76616C696420656475636174696F6E436F756E7400000000000000000000 PUSH0 DUP3 ADD MSTORE POP JUMP JUMPDEST PUSH0 PUSH2 0x271A PUSH1 0x16 DUP4 PUSH2 0x1CDC JUMP JUMPDEST SWAP2 POP PUSH2 0x2725 DUP3 PUSH2 0x26E6 JUMP JUMPDEST PUSH1 0x20 DUP3 ADD SWAP1 POP SWAP2 SWAP1 POP JUMP JUMPDEST PUSH0 PUSH1 0x20 DUP3 ADD SWAP1 POP DUP2 DUP2 SUB PUSH0 DUP4 ADD MSTORE PUSH2 0x2747 DUP2 PUSH2 0x270E JUMP JUMPDEST SWAP1 POP SWAP2 SWAP1 POP JUMP JUMPDEST PUSH32 0x4E487B7100000000000000000000000000000000000000000000000000000000 PUSH0 MSTORE PUSH1 0x32 PUSH1 0x4 MSTORE PUSH1 0x24 PUSH0 REVERT JUMPDEST PUSH2 0x2784 DUP3 PUSH2 0x1CD2 JUMP JUMPDEST PUSH8 0xFFFFFFFFFFFFFFFF DUP2 GT ISZERO PUSH2 0x279D JUMPI PUSH2 0x279C PUSH2 0x244F JUMP JUMPDEST JUMPDEST PUSH2 0x27A7 DUP3 SLOAD PUSH2 0x2387 JUMP JUMPDEST PUSH2 0x27B2 DUP3 DUP3 DUP6 PUSH2 0x2590 JUMP JUMPDEST PUSH0 PUSH1 0x20 SWAP1 POP PUSH1 0x1F DUP4 GT PUSH1 0x1 DUP2 EQ PUSH2 0x27E3 JUMPI PUSH0 DUP5 ISZERO PUSH2 0x27D1 JUMPI DUP3 DUP8 ADD MLOAD SWAP1 POP JUMPDEST PUSH2 0x27DB DUP6 DUP3 PUSH2 0x25FE JUMP JUMPDEST DUP7 SSTORE POP PUSH2 0x2842 JUMP JUMPDEST PUSH1 0x1F NOT DUP5 AND PUSH2 0x27F1 DUP7 PUSH2 0x247C JUMP JUMPDEST PUSH0 JUMPDEST DUP3 DUP2 LT ISZERO PUSH2 0x2818 JUMPI DUP5 DUP10 ADD MLOAD DUP3 SSTORE PUSH1 0x1 DUP3 ADD SWAP2 POP PUSH1 0x20 DUP6 ADD SWAP5 POP PUSH1 0x20 DUP2 ADD SWAP1 POP PUSH2 0x27F3 JUMP JUMPDEST DUP7 DUP4 LT ISZERO PUSH2 0x2835 JUMPI DUP5 DUP10 ADD MLOAD PUSH2 0x2831 PUSH1 0x1F DUP10 AND DUP3 PUSH2 0x25E2 JUMP JUMPDEST DUP4 SSTORE POP JUMPDEST PUSH1 0x1 PUSH1 0x2 DUP9 MUL ADD DUP9 SSTORE POP POP POP JUMPDEST POP POP POP POP POP POP JUMP JUMPDEST PUSH32 0x4E6F74206D6F7265207468616E20332070726F6A656374730000000000000000 PUSH0 DUP3 ADD MSTORE POP JUMP JUMPDEST PUSH0 PUSH2 0x287E PUSH1 0x18 DUP4 PUSH2 0x1CDC JUMP JUMPDEST SWAP2 POP PUSH2 0x2889 DUP3 PUSH2 0x284A JUMP JUMPDEST PUSH1 0x20 DUP3 ADD SWAP1 POP SWAP2 SWAP1 POP JUMP JUMPDEST PUSH0 PUSH1 0x20 DUP3 ADD SWAP1 POP DUP2 DUP2 SUB PUSH0 DUP4 ADD MSTORE PUSH2 0x28AB DUP2 PUSH2 0x2872 JUMP JUMPDEST SWAP1 POP SWAP2 SWAP1 POP JUMP JUMPDEST PUSH32 0x4E487B7100000000000000000000000000000000000000000000000000000000 PUSH0 MSTORE PUSH1 0x11 PUSH1 0x4 MSTORE PUSH1 0x24 PUSH0 REVERT JUMPDEST PUSH0 PUSH2 0x28E9 DUP3 PUSH2 0x1C65 JUMP JUMPDEST SWAP2 POP PUSH32 0xFFFFFFFFFFFFFFFFFFFFFFFFFFFFFFFFFFFFFFFFFFFFFFFFFFFFFFFFFFFFFFFF DUP3 SUB PUSH2 0x291B JUMPI PUSH2 0x291A PUSH2 0x28B2 JUMP JUMPDEST JUMPDEST PUSH1 0x1 DUP3 ADD SWAP1 POP SWAP2 SWAP1 POP JUMP JUMPDEST PUSH32 0x496E76616C69642050726F6A656374436F756E74000000000000000000000000 PUSH0 DUP3 ADD MSTORE POP JUMP JUMPDEST PUSH0 PUSH2 0x295A PUSH1 0x14 DUP4 PUSH2 0x1CDC JUMP JUMPDEST SWAP2 POP PUSH2 0x2965 DUP3 PUSH2 0x2926 JUMP JUMPDEST PUSH1 0x20 DUP3 ADD SWAP1 POP SWAP2 SWAP1 POP JUMP JUMPDEST PUSH0 PUSH1 0x20 DUP3 ADD SWAP1 POP DUP2 DUP2 SUB PUSH0 DUP4 ADD MSTORE PUSH2 0x2987 DUP2 PUSH2 0x294E JUMP JUMPDEST SWAP1 POP SWAP2 SWAP1 POP JUMP JUMPDEST PUSH32 0x4F6E6C79203320656475636174696F6E2064657461696C7320616C6C6F776564 PUSH0 DUP3 ADD MSTORE POP JUMP JUMPDEST PUSH0 PUSH2 0x29C2 PUSH1 0x20 DUP4 PUSH2 0x1CDC JUMP JUMPDEST SWAP2 POP PUSH2 0x29CD DUP3 PUSH2 0x298E JUMP JUMPDEST PUSH1 0x20 DUP3 ADD SWAP1 POP SWAP2 SWAP1 POP JUMP JUMPDEST PUSH0 PUSH1 0x20 DUP3 ADD SWAP1 POP DUP2 DUP2 SUB PUSH0 DUP4 ADD MSTORE PUSH2 0x29EF DUP2 PUSH2 0x29B6 JUMP JUMPDEST SWAP1 POP SWAP2 SWAP1 POP JUMP INVALID LOG2 PUSH5 0x6970667358 0x22 SLT KECCAK256 0xB0 SWAP9 0xAC GT 0xF8 0xC7 0xAC PUSH18 0xDE6F5CC7BFDB1AAF65F13657EF8E5CC120F6 0x2A MOD DUP13 PUSH21 0xE1764736F6C634300081A00336F7665722031206D PUSH16 0x6E746873206F66207072616374696361 PUSH13 0x20657870657269656E63652077 PUSH10 0x7468206120676F6F6420 PUSH12 0x6E6F776C6564676520696E20 PUSH3 0x6C6F63 PUSH12 0x636861696E516D6537785643 PUSH2 0x526E PUSH24 0x556342564879614B68734773473451466F673253444D4E33 PUSH7 0x484C5743547677 COINBASE 0x4B PUSH27 0x516D4E566E3537564E417A47314755526550423854464A43623670 ORIGIN 0x4C CALLDATALOAD BLOBBASEFEE PUSH27 0x7336396D757362705533744E585500000000000000000000000000 "
				},
				"gasEstimates": {
					"creation": {
						"codeDepositCost": "2159200",
						"executionCost": "infinite",
						"totalCost": "infinite"
					},
					"external": {
						"allEducationDetails()": "infinite",
						"allProjects()": "infinite",
						"changeDescription(string)": "infinite",
						"changeEducation(string,string,string,string,uint256)": "infinite",
						"changeImageLink(string)": "infinite",
						"changeProject(string,string,string,string,uint256)": "infinite",
						"changeResumeLink(string)": "infinite",
						"description()": "infinite",
						"donate()": "infinite",
						"educationDetails(uint256)": "infinite",
						"imageLink()": "infinite",
						"insertEducation(string,string,string,string)": "infinite",
						"insertProject(string,string,string,string)": "infinite",
						"projects(uint256)": "infinite",
						"resumeLink()": "infinite"
					}
				},
				"methodIdentifiers": {
					"allEducationDetails()": "5397c6ec",
					"allProjects()": "2adf13b2",
					"changeDescription(string)": "e6120413",
					"changeEducation(string,string,string,string,uint256)": "5b173a69",
					"changeImageLink(string)": "598e7f37",
					"changeProject(string,string,string,string,uint256)": "6fe8e0bd",
					"changeResumeLink(string)": "d3cedf11",
					"description()": "7284e416",
					"donate()": "ed88c68e",
					"educationDetails(uint256)": "7aea95aa",
					"imageLink()": "caf7b759",
					"insertEducation(string,string,string,string)": "98f831b6",
					"insertProject(string,string,string,string)": "6426d4c3",
					"projects(uint256)": "107046bd",
					"resumeLink()": "5cea6a7c"
				}
			},
			"storageLayout": {
				"storage": [
					{
						"astId": 28,
						"contract": "contracts/artifacts/Portfolio.sol:Portfolio",
						"label": "projects",
						"offset": 0,
						"slot": "0",
						"type": "t_array(t_struct(Project)12_storage)3_storage"
					},
					{
						"astId": 33,
						"contract": "contracts/artifacts/Portfolio.sol:Portfolio",
						"label": "educationDetails",
						"offset": 0,
						"slot": "15",
						"type": "t_array(t_struct(Education)23_storage)3_storage"
					},
					{
						"astId": 35,
						"contract": "contracts/artifacts/Portfolio.sol:Portfolio",
						"label": "portfolioAuthority",
						"offset": 0,
						"slot": "30",
						"type": "t_address"
					},
					{
						"astId": 38,
						"contract": "contracts/artifacts/Portfolio.sol:Portfolio",
						"label": "imageLink",
						"offset": 0,
						"slot": "31",
						"type": "t_string_storage"
					},
					{
						"astId": 41,
						"contract": "contracts/artifacts/Portfolio.sol:Portfolio",
						"label": "description",
						"offset": 0,
						"slot": "32",
						"type": "t_string_storage"
					},
					{
						"astId": 44,
						"contract": "contracts/artifacts/Portfolio.sol:Portfolio",
						"label": "resumeLink",
						"offset": 0,
						"slot": "33",
						"type": "t_string_storage"
					},
					{
						"astId": 46,
						"contract": "contracts/artifacts/Portfolio.sol:Portfolio",
						"label": "projectCount",
						"offset": 0,
						"slot": "34",
						"type": "t_uint256"
					},
					{
						"astId": 48,
						"contract": "contracts/artifacts/Portfolio.sol:Portfolio",
						"label": "educationCount",
						"offset": 0,
						"slot": "35",
						"type": "t_uint256"
					}
				],
				"types": {
					"t_address": {
						"encoding": "inplace",
						"label": "address",
						"numberOfBytes": "20"
					},
					"t_array(t_struct(Education)23_storage)3_storage": {
						"base": "t_struct(Education)23_storage",
						"encoding": "inplace",
						"label": "struct Portfolio.Education[3]",
						"numberOfBytes": "480"
					},
					"t_array(t_struct(Project)12_storage)3_storage": {
						"base": "t_struct(Project)12_storage",
						"encoding": "inplace",
						"label": "struct Portfolio.Project[3]",
						"numberOfBytes": "480"
					},
					"t_string_storage": {
						"encoding": "bytes",
						"label": "string",
						"numberOfBytes": "32"
					},
					"t_struct(Education)23_storage": {
						"encoding": "inplace",
						"label": "struct Portfolio.Education",
						"members": [
							{
								"astId": 14,
								"contract": "contracts/artifacts/Portfolio.sol:Portfolio",
								"label": "id",
								"offset": 0,
								"slot": "0",
								"type": "t_uint256"
							},
							{
								"astId": 16,
								"contract": "contracts/artifacts/Portfolio.sol:Portfolio",
								"label": "date",
								"offset": 0,
								"slot": "1",
								"type": "t_string_storage"
							},
							{
								"astId": 18,
								"contract": "contracts/artifacts/Portfolio.sol:Portfolio",
								"label": "degree",
								"offset": 0,
								"slot": "2",
								"type": "t_string_storage"
							},
							{
								"astId": 20,
								"contract": "contracts/artifacts/Portfolio.sol:Portfolio",
								"label": "knowledgeAcquired",
								"offset": 0,
								"slot": "3",
								"type": "t_string_storage"
							},
							{
								"astId": 22,
								"contract": "contracts/artifacts/Portfolio.sol:Portfolio",
								"label": "instutionName",
								"offset": 0,
								"slot": "4",
								"type": "t_string_storage"
							}
						],
						"numberOfBytes": "160"
					},
					"t_struct(Project)12_storage": {
						"encoding": "inplace",
						"label": "struct Portfolio.Project",
						"members": [
							{
								"astId": 3,
								"contract": "contracts/artifacts/Portfolio.sol:Portfolio",
								"label": "id",
								"offset": 0,
								"slot": "0",
								"type": "t_uint256"
							},
							{
								"astId": 5,
								"contract": "contracts/artifacts/Portfolio.sol:Portfolio",
								"label": "name",
								"offset": 0,
								"slot": "1",
								"type": "t_string_storage"
							},
							{
								"astId": 7,
								"contract": "contracts/artifacts/Portfolio.sol:Portfolio",
								"label": "description",
								"offset": 0,
								"slot": "2",
								"type": "t_string_storage"
							},
							{
								"astId": 9,
								"contract": "contracts/artifacts/Portfolio.sol:Portfolio",
								"label": "image",
								"offset": 0,
								"slot": "3",
								"type": "t_string_storage"
							},
							{
								"astId": 11,
								"contract": "contracts/artifacts/Portfolio.sol:Portfolio",
								"label": "githubLink",
								"offset": 0,
								"slot": "4",
								"type": "t_string_storage"
							}
						],
						"numberOfBytes": "160"
					},
					"t_uint256": {
						"encoding": "inplace",
						"label": "uint256",
						"numberOfBytes": "32"
					}
				}
			},
			"userdoc": {
				"kind": "user",
				"methods": {},
				"version": 1
			}
		}
	}
}