{
	"contracts/artifacts/Portfolio.sol": {
		"Portfolio": {
			"abi": [
				{
					"inputs": [],
					"stateMutability": "nonpayable",
					"type": "constructor"
				},
				{
					"inputs": [],
					"name": "allEducationDetails",
					"outputs": [
						{
							"components": [
								{
									"internalType": "uint256",
									"name": "id",
									"type": "uint256"
								},
								{
									"internalType": "string",
									"name": "date",
									"type": "string"
								},
								{
									"internalType": "string",
									"name": "degree",
									"type": "string"
								},
								{
									"internalType": "string",
									"name": "knowledgeAcquired",
									"type": "string"
								},
								{
									"internalType": "string",
									"name": "instutionName",
									"type": "string"
								}
							],
							"internalType": "struct Portfolio.Education[3]",
							"name": "",
							"type": "tuple[3]"
						}
					],
					"stateMutability": "view",
					"type": "function"
				},
				{
					"inputs": [],
					"name": "allProjects",
					"outputs": [
						{
							"components": [
								{
									"internalType": "uint256",
									"name": "id",
									"type": "uint256"
								},
								{
									"internalType": "string",
									"name": "name",
									"type": "string"
								},
								{
									"internalType": "string",
									"name": "description",
									"type": "string"
								},
								{
									"internalType": "string",
									"name": "image",
									"type": "string"
								},
								{
									"internalType": "string",
									"name": "githubLink",
									"type": "string"
								}
							],
							"internalType": "struct Portfolio.Project[3]",
							"name": "",
							"type": "tuple[3]"
						}
					],
					"stateMutability": "view",
					"type": "function"
				},
				{
					"inputs": [
						{
							"internalType": "string",
							"name": "_description",
							"type": "string"
						}
					],
					"name": "changeDescription",
					"outputs": [],
					"stateMutability": "nonpayable",
					"type": "function"
				},
				{
					"inputs": [
						{
							"internalType": "string",
							"name": "_date",
							"type": "string"
						},
						{
							"internalType": "string",
							"name": "_degree",
							"type": "string"
						},
						{
							"internalType": "string",
							"name": "_knowledgeAcquired",
							"type": "string"
						},
						{
							"internalType": "string",
							"name": "_instutionName",
							"type": "string"
						},
						{
							"internalType": "uint256",
							"name": "_educationDetailCount",
							"type": "uint256"
						}
					],
					"name": "changeEducation",
					"outputs": [],
					"stateMutability": "nonpayable",
					"type": "function"
				},
				{
					"inputs": [
						{
							"internalType": "string",
							"name": "_imageLink",
							"type": "string"
						}
					],
					"name": "changeImageLink",
					"outputs": [],
					"stateMutability": "nonpayable",
					"type": "function"
				},
				{
					"inputs": [
						{
							"internalType": "string",
							"name": "_name",
							"type": "string"
						},
						{
							"internalType": "string",
							"name": "_description",
							"type": "string"
						},
						{
							"internalType": "string",
							"name": "_image",
							"type": "string"
						},
						{
							"internalType": "string",
							"name": "_githubLink",
							"type": "string"
						},
						{
							"internalType": "uint256",
							"name": "_projectCount",
							"type": "uint256"
						}
					],
					"name": "changeProject",
					"outputs": [],
					"stateMutability": "nonpayable",
					"type": "function"
				},
				{
					"inputs": [
						{
							"internalType": "string",
							"name": "_resumeLink",
							"type": "string"
						}
					],
					"name": "changeResumeLink",
					"outputs": [],
					"stateMutability": "nonpayable",
					"type": "function"
				},
				{
					"inputs": [],
					"name": "description",
					"outputs": [
						{
							"internalType": "string",
							"name": "",
							"type": "string"
						}
					],
					"stateMutability": "view",
					"type": "function"
				},
				{
					"inputs": [],
					"name": "donate",
					"outputs": [],
					"stateMutability": "payable",
					"type": "function"
				},
				{
					"inputs": [
						{
							"internalType": "uint256",
							"name": "",
							"type": "uint256"
						}
					],
					"name": "educationDetails",
					"outputs": [
						{
							"internalType": "uint256",
							"name": "id",
							"type": "uint256"
						},
						{
							"internalType": "string",
							"name": "date",
							"type": "string"
						},
						{
							"internalType": "string",
							"name": "degree",
							"type": "string"
						},
						{
							"internalType": "string",
							"name": "knowledgeAcquired",
							"type": "string"
						},
						{
							"internalType": "string",
							"name": "instutionName",
							"type": "string"
						}
					],
					"stateMutability": "view",
					"type": "function"
				},
				{
					"inputs": [],
					"name": "imageLink",
					"outputs": [
						{
							"internalType": "string",
							"name": "",
							"type": "string"
						}
					],
					"stateMutability": "view",
					"type": "function"
				},
				{
					"inputs": [
						{
							"internalType": "string",
							"name": "_data",
							"type": "string"
						},
						{
							"internalType": "string",
							"name": "_degree",
							"type": "string"
						},
						{
							"internalType": "string",
							"name": "_knowledgeAcquired",
							"type": "string"
						},
						{
							"internalType": "string",
							"name": "_instutionName",
							"type": "string"
						}
					],
					"name": "insertEducation",
					"outputs": [],
					"stateMutability": "nonpayable",
					"type": "function"
				},
				{
					"inputs": [
						{
							"internalType": "string",
							"name": "_name",
							"type": "string"
						},
						{
							"internalType": "string",
							"name": "_description",
							"type": "string"
						},
						{
							"internalType": "string",
							"name": "_image",
							"type": "string"
						},
						{
							"internalType": "string",
							"name": "_githubLink",
							"type": "string"
						}
					],
					"name": "insertProject",
					"outputs": [],
					"stateMutability": "nonpayable",
					"type": "function"
				},
				{
					"inputs": [
						{
							"internalType": "uint256",
							"name": "",
							"type": "uint256"
						}
					],
					"name": "projects",
					"outputs": [
						{
							"internalType": "uint256",
							"name": "id",
							"type": "uint256"
						},
						{
							"internalType": "string",
							"name": "name",
							"type": "string"
						},
						{
							"internalType": "string",
							"name": "description",
							"type": "string"
						},
						{
							"internalType": "string",
							"name": "image",
							"type": "string"
						},
						{
							"internalType": "string",
							"name": "githubLink",
							"type": "string"
						}
					],
					"stateMutability": "view",
					"type": "function"
				},
				{
					"inputs": [],
					"name": "resumeLinks",
					"outputs": [
						{
							"internalType": "string",
							"name": "",
							"type": "string"
						}
					],
					"stateMutability": "view",
					"type": "function"
				}
			],
			"devdoc": {
				"kind": "dev",
				"methods": {},
				"version": 1
			},
			"evm": {
				"assembly": "    /* \"contracts/artifacts/Portfolio.sol\":72:2697  contract Portfolio{... */\n  mstore(0x40, 0x80)\n    /* \"contracts/artifacts/Portfolio.sol\":487:559  string public imageLink=\"QmNVn57VNAzG1GURePB8TFJCb6p2L5Jzs69musbpU3tNXU\" */\n  mload(0x40)\n  dup1\n  0x60\n  add\n  0x40\n  mstore\n  dup1\n  0x2e\n  dup2\n  mstore\n  0x20\n  add\n  data_c6c8731200eed530a55b210a27447293d0b1678eb23cca27ff13560340d6aa95\n  0x2e\n  swap2\n  codecopy\n  0x1f\n  swap1\n  dup2\n  tag_1\n  swap2\n  swap1\n  tag_2\n  jump\t// in\ntag_1:\n  pop\n    /* \"contracts/artifacts/Portfolio.sol\":564:665  string public description=\"over 1 months of practical experience with a good knowledge in blockchain\" */\n  mload(0x40)\n  dup1\n  0x80\n  add\n  0x40\n  mstore\n  dup1\n  0x49\n  dup2\n  mstore\n  0x20\n  add\n  data_37aeeed936492a6a366ed7cf9001de78877dc6f6e98d417eb088231cd7e2e7e8\n  0x49\n  swap2\n  codecopy\n  0x20\n  swap1\n  dup2\n  tag_3\n  swap2\n  swap1\n  tag_2\n  jump\t// in\ntag_3:\n  pop\n    /* \"contracts/artifacts/Portfolio.sol\":670:744  string public resumeLinks=\"Qme7xVCaRnwUcBVHyaKhsGsG4QFog2SDMN3fHLWCTvwAKz\" */\n  mload(0x40)\n  dup1\n  0x60\n  add\n  0x40\n  mstore\n  dup1\n  0x2e\n  dup2\n  mstore\n  0x20\n  add\n  data_abbc65d9db0a082e24d2c26402a8006cc9f1d2f3a901aa324431b370f8d1a013\n  0x2e\n  swap2\n  codecopy\n  0x21\n  swap1\n  dup2\n  tag_4\n  swap2\n  swap1\n  tag_2\n  jump\t// in\ntag_4:\n  pop\n    /* \"contracts/artifacts/Portfolio.sol\":870:925  constructor(){... */\n  callvalue\n  dup1\n  iszero\n  tag_5\n  jumpi\n  0x00\n  dup1\n  revert\ntag_5:\n  pop\n    /* \"contracts/artifacts/Portfolio.sol\":909:919  msg.sender */\n  caller\n    /* \"contracts/artifacts/Portfolio.sol\":890:908  portfolioAuthority */\n  0x1e\n  0x00\n    /* \"contracts/artifacts/Portfolio.sol\":890:919  portfolioAuthority=msg.sender */\n  0x0100\n  exp\n  dup2\n  sload\n  dup2\n  0xffffffffffffffffffffffffffffffffffffffff\n  mul\n  not\n  and\n  swap1\n  dup4\n  0xffffffffffffffffffffffffffffffffffffffff\n  and\n  mul\n  or\n  swap1\n  sstore\n  pop\n    /* \"contracts/artifacts/Portfolio.sol\":72:2697  contract Portfolio{... */\n  jump(tag_8)\n    /* \"#utility.yul\":7:106   */\ntag_9:\n    /* \"#utility.yul\":59:65   */\n  0x00\n    /* \"#utility.yul\":93:98   */\n  dup2\n    /* \"#utility.yul\":87:99   */\n  mload\n    /* \"#utility.yul\":77:99   */\n  swap1\n  pop\n    /* \"#utility.yul\":7:106   */\n  swap2\n  swap1\n  pop\n  jump\t// out\n    /* \"#utility.yul\":112:292   */\ntag_10:\n    /* \"#utility.yul\":160:237   */\n  0x4e487b7100000000000000000000000000000000000000000000000000000000\n    /* \"#utility.yul\":157:158   */\n  0x00\n    /* \"#utility.yul\":150:238   */\n  mstore\n    /* \"#utility.yul\":257:261   */\n  0x41\n    /* \"#utility.yul\":254:255   */\n  0x04\n    /* \"#utility.yul\":247:262   */\n  mstore\n    /* \"#utility.yul\":281:285   */\n  0x24\n    /* \"#utility.yul\":278:279   */\n  0x00\n    /* \"#utility.yul\":271:286   */\n  revert\n    /* \"#utility.yul\":298:478   */\ntag_11:\n    /* \"#utility.yul\":346:423   */\n  0x4e487b7100000000000000000000000000000000000000000000000000000000\n    /* \"#utility.yul\":343:344   */\n  0x00\n    /* \"#utility.yul\":336:424   */\n  mstore\n    /* \"#utility.yul\":443:447   */\n  0x22\n    /* \"#utility.yul\":440:441   */\n  0x04\n    /* \"#utility.yul\":433:448   */\n  mstore\n    /* \"#utility.yul\":467:471   */\n  0x24\n    /* \"#utility.yul\":464:465   */\n  0x00\n    /* \"#utility.yul\":457:472   */\n  revert\n    /* \"#utility.yul\":484:804   */\ntag_12:\n    /* \"#utility.yul\":528:534   */\n  0x00\n    /* \"#utility.yul\":565:566   */\n  0x02\n    /* \"#utility.yul\":559:563   */\n  dup3\n    /* \"#utility.yul\":555:567   */\n  div\n    /* \"#utility.yul\":545:567   */\n  swap1\n  pop\n    /* \"#utility.yul\":612:613   */\n  0x01\n    /* \"#utility.yul\":606:610   */\n  dup3\n    /* \"#utility.yul\":602:614   */\n  and\n    /* \"#utility.yul\":633:651   */\n  dup1\n    /* \"#utility.yul\":623:704   */\n  tag_34\n  jumpi\n    /* \"#utility.yul\":689:693   */\n  0x7f\n    /* \"#utility.yul\":681:687   */\n  dup3\n    /* \"#utility.yul\":677:694   */\n  and\n    /* \"#utility.yul\":667:694   */\n  swap2\n  pop\n    /* \"#utility.yul\":623:704   */\ntag_34:\n    /* \"#utility.yul\":751:753   */\n  0x20\n    /* \"#utility.yul\":743:749   */\n  dup3\n    /* \"#utility.yul\":740:754   */\n  lt\n    /* \"#utility.yul\":720:738   */\n  dup2\n    /* \"#utility.yul\":717:755   */\n  sub\n    /* \"#utility.yul\":714:798   */\n  tag_35\n  jumpi\n    /* \"#utility.yul\":770:788   */\n  tag_36\n  tag_11\n  jump\t// in\ntag_36:\n    /* \"#utility.yul\":714:798   */\ntag_35:\n    /* \"#utility.yul\":535:804   */\n  pop\n    /* \"#utility.yul\":484:804   */\n  swap2\n  swap1\n  pop\n  jump\t// out\n    /* \"#utility.yul\":810:951   */\ntag_13:\n    /* \"#utility.yul\":859:863   */\n  0x00\n    /* \"#utility.yul\":882:885   */\n  dup2\n    /* \"#utility.yul\":874:885   */\n  swap1\n  pop\n    /* \"#utility.yul\":905:908   */\n  dup2\n    /* \"#utility.yul\":902:903   */\n  0x00\n    /* \"#utility.yul\":895:909   */\n  mstore\n    /* \"#utility.yul\":939:943   */\n  0x20\n    /* \"#utility.yul\":936:937   */\n  0x00\n    /* \"#utility.yul\":926:944   */\n  keccak256\n    /* \"#utility.yul\":918:944   */\n  swap1\n  pop\n    /* \"#utility.yul\":810:951   */\n  swap2\n  swap1\n  pop\n  jump\t// out\n    /* \"#utility.yul\":957:1050   */\ntag_14:\n    /* \"#utility.yul\":994:1000   */\n  0x00\n    /* \"#utility.yul\":1041:1043   */\n  0x20\n    /* \"#utility.yul\":1036:1038   */\n  0x1f\n    /* \"#utility.yul\":1029:1034   */\n  dup4\n    /* \"#utility.yul\":1025:1039   */\n  add\n    /* \"#utility.yul\":1021:1044   */\n  div\n    /* \"#utility.yul\":1011:1044   */\n  swap1\n  pop\n    /* \"#utility.yul\":957:1050   */\n  swap2\n  swap1\n  pop\n  jump\t// out\n    /* \"#utility.yul\":1056:1163   */\ntag_15:\n    /* \"#utility.yul\":1100:1108   */\n  0x00\n    /* \"#utility.yul\":1150:1155   */\n  dup3\n    /* \"#utility.yul\":1144:1148   */\n  dup3\n    /* \"#utility.yul\":1140:1156   */\n  shl\n    /* \"#utility.yul\":1119:1156   */\n  swap1\n  pop\n    /* \"#utility.yul\":1056:1163   */\n  swap3\n  swap2\n  pop\n  pop\n  jump\t// out\n    /* \"#utility.yul\":1169:1562   */\ntag_16:\n    /* \"#utility.yul\":1238:1244   */\n  0x00\n    /* \"#utility.yul\":1288:1289   */\n  0x08\n    /* \"#utility.yul\":1276:1286   */\n  dup4\n    /* \"#utility.yul\":1272:1290   */\n  mul\n    /* \"#utility.yul\":1311:1408   */\n  tag_41\n    /* \"#utility.yul\":1341:1407   */\n  0xffffffffffffffffffffffffffffffffffffffffffffffffffffffffffffffff\n    /* \"#utility.yul\":1330:1339   */\n  dup3\n    /* \"#utility.yul\":1311:1408   */\n  tag_15\n  jump\t// in\ntag_41:\n    /* \"#utility.yul\":1429:1468   */\n  tag_42\n    /* \"#utility.yul\":1459:1467   */\n  dup7\n    /* \"#utility.yul\":1448:1457   */\n  dup4\n    /* \"#utility.yul\":1429:1468   */\n  tag_15\n  jump\t// in\ntag_42:\n    /* \"#utility.yul\":1417:1468   */\n  swap6\n  pop\n    /* \"#utility.yul\":1501:1505   */\n  dup1\n    /* \"#utility.yul\":1497:1506   */\n  not\n    /* \"#utility.yul\":1490:1495   */\n  dup5\n    /* \"#utility.yul\":1486:1507   */\n  and\n    /* \"#utility.yul\":1477:1507   */\n  swap4\n  pop\n    /* \"#utility.yul\":1550:1554   */\n  dup1\n    /* \"#utility.yul\":1540:1548   */\n  dup7\n    /* \"#utility.yul\":1536:1555   */\n  and\n    /* \"#utility.yul\":1529:1534   */\n  dup5\n    /* \"#utility.yul\":1526:1556   */\n  or\n    /* \"#utility.yul\":1516:1556   */\n  swap3\n  pop\n    /* \"#utility.yul\":1245:1562   */\n  pop\n  pop\n    /* \"#utility.yul\":1169:1562   */\n  swap4\n  swap3\n  pop\n  pop\n  pop\n  jump\t// out\n    /* \"#utility.yul\":1568:1645   */\ntag_17:\n    /* \"#utility.yul\":1605:1612   */\n  0x00\n    /* \"#utility.yul\":1634:1639   */\n  dup2\n    /* \"#utility.yul\":1623:1639   */\n  swap1\n  pop\n    /* \"#utility.yul\":1568:1645   */\n  swap2\n  swap1\n  pop\n  jump\t// out\n    /* \"#utility.yul\":1651:1711   */\ntag_18:\n    /* \"#utility.yul\":1679:1682   */\n  0x00\n    /* \"#utility.yul\":1700:1705   */\n  dup2\n    /* \"#utility.yul\":1693:1705   */\n  swap1\n  pop\n    /* \"#utility.yul\":1651:1711   */\n  swap2\n  swap1\n  pop\n  jump\t// out\n    /* \"#utility.yul\":1717:1859   */\ntag_19:\n    /* \"#utility.yul\":1767:1776   */\n  0x00\n    /* \"#utility.yul\":1800:1853   */\n  tag_46\n    /* \"#utility.yul\":1818:1852   */\n  tag_47\n    /* \"#utility.yul\":1827:1851   */\n  tag_48\n    /* \"#utility.yul\":1845:1850   */\n  dup5\n    /* \"#utility.yul\":1827:1851   */\n  tag_17\n  jump\t// in\ntag_48:\n    /* \"#utility.yul\":1818:1852   */\n  tag_18\n  jump\t// in\ntag_47:\n    /* \"#utility.yul\":1800:1853   */\n  tag_17\n  jump\t// in\ntag_46:\n    /* \"#utility.yul\":1787:1853   */\n  swap1\n  pop\n    /* \"#utility.yul\":1717:1859   */\n  swap2\n  swap1\n  pop\n  jump\t// out\n    /* \"#utility.yul\":1865:1940   */\ntag_20:\n    /* \"#utility.yul\":1908:1911   */\n  0x00\n    /* \"#utility.yul\":1929:1934   */\n  dup2\n    /* \"#utility.yul\":1922:1934   */\n  swap1\n  pop\n    /* \"#utility.yul\":1865:1940   */\n  swap2\n  swap1\n  pop\n  jump\t// out\n    /* \"#utility.yul\":1946:2215   */\ntag_21:\n    /* \"#utility.yul\":2056:2095   */\n  tag_51\n    /* \"#utility.yul\":2087:2094   */\n  dup4\n    /* \"#utility.yul\":2056:2095   */\n  tag_19\n  jump\t// in\ntag_51:\n    /* \"#utility.yul\":2117:2208   */\n  tag_52\n    /* \"#utility.yul\":2166:2207   */\n  tag_53\n    /* \"#utility.yul\":2190:2206   */\n  dup3\n    /* \"#utility.yul\":2166:2207   */\n  tag_20\n  jump\t// in\ntag_53:\n    /* \"#utility.yul\":2158:2164   */\n  dup5\n    /* \"#utility.yul\":2151:2155   */\n  dup5\n    /* \"#utility.yul\":2145:2156   */\n  sload\n    /* \"#utility.yul\":2117:2208   */\n  tag_16\n  jump\t// in\ntag_52:\n    /* \"#utility.yul\":2111:2115   */\n  dup3\n    /* \"#utility.yul\":2104:2209   */\n  sstore\n    /* \"#utility.yul\":2022:2215   */\n  pop\n    /* \"#utility.yul\":1946:2215   */\n  pop\n  pop\n  pop\n  jump\t// out\n    /* \"#utility.yul\":2221:2294   */\ntag_22:\n    /* \"#utility.yul\":2266:2269   */\n  0x00\n    /* \"#utility.yul\":2221:2294   */\n  swap1\n  jump\t// out\n    /* \"#utility.yul\":2300:2489   */\ntag_23:\n    /* \"#utility.yul\":2377:2409   */\n  tag_56\n  tag_22\n  jump\t// in\ntag_56:\n    /* \"#utility.yul\":2418:2483   */\n  tag_57\n    /* \"#utility.yul\":2476:2482   */\n  dup2\n    /* \"#utility.yul\":2468:2474   */\n  dup5\n    /* \"#utility.yul\":2462:2466   */\n  dup5\n    /* \"#utility.yul\":2418:2483   */\n  tag_21\n  jump\t// in\ntag_57:\n    /* \"#utility.yul\":2353:2489   */\n  pop\n    /* \"#utility.yul\":2300:2489   */\n  pop\n  pop\n  jump\t// out\n    /* \"#utility.yul\":2495:2681   */\ntag_24:\n    /* \"#utility.yul\":2555:2675   */\ntag_59:\n    /* \"#utility.yul\":2572:2575   */\n  dup2\n    /* \"#utility.yul\":2565:2570   */\n  dup2\n    /* \"#utility.yul\":2562:2576   */\n  lt\n    /* \"#utility.yul\":2555:2675   */\n  iszero\n  tag_61\n  jumpi\n    /* \"#utility.yul\":2626:2665   */\n  tag_62\n    /* \"#utility.yul\":2663:2664   */\n  0x00\n    /* \"#utility.yul\":2656:2661   */\n  dup3\n    /* \"#utility.yul\":2626:2665   */\n  tag_23\n  jump\t// in\ntag_62:\n    /* \"#utility.yul\":2599:2600   */\n  0x01\n    /* \"#utility.yul\":2592:2597   */\n  dup2\n    /* \"#utility.yul\":2588:2601   */\n  add\n    /* \"#utility.yul\":2579:2601   */\n  swap1\n  pop\n    /* \"#utility.yul\":2555:2675   */\n  jump(tag_59)\ntag_61:\n    /* \"#utility.yul\":2495:2681   */\n  pop\n  pop\n  jump\t// out\n    /* \"#utility.yul\":2687:3230   */\ntag_25:\n    /* \"#utility.yul\":2788:2790   */\n  0x1f\n    /* \"#utility.yul\":2783:2786   */\n  dup3\n    /* \"#utility.yul\":2780:2791   */\n  gt\n    /* \"#utility.yul\":2777:3223   */\n  iszero\n  tag_64\n  jumpi\n    /* \"#utility.yul\":2822:2860   */\n  tag_65\n    /* \"#utility.yul\":2854:2859   */\n  dup2\n    /* \"#utility.yul\":2822:2860   */\n  tag_13\n  jump\t// in\ntag_65:\n    /* \"#utility.yul\":2906:2935   */\n  tag_66\n    /* \"#utility.yul\":2924:2934   */\n  dup5\n    /* \"#utility.yul\":2906:2935   */\n  tag_14\n  jump\t// in\ntag_66:\n    /* \"#utility.yul\":2896:2904   */\n  dup2\n    /* \"#utility.yul\":2892:2936   */\n  add\n    /* \"#utility.yul\":3089:3091   */\n  0x20\n    /* \"#utility.yul\":3077:3087   */\n  dup6\n    /* \"#utility.yul\":3074:3092   */\n  lt\n    /* \"#utility.yul\":3071:3120   */\n  iszero\n  tag_67\n  jumpi\n    /* \"#utility.yul\":3110:3118   */\n  dup2\n    /* \"#utility.yul\":3095:3118   */\n  swap1\n  pop\n    /* \"#utility.yul\":3071:3120   */\ntag_67:\n    /* \"#utility.yul\":3133:3213   */\n  tag_68\n    /* \"#utility.yul\":3189:3211   */\n  tag_69\n    /* \"#utility.yul\":3207:3210   */\n  dup6\n    /* \"#utility.yul\":3189:3211   */\n  tag_14\n  jump\t// in\ntag_69:\n    /* \"#utility.yul\":3179:3187   */\n  dup4\n    /* \"#utility.yul\":3175:3212   */\n  add\n    /* \"#utility.yul\":3162:3173   */\n  dup3\n    /* \"#utility.yul\":3133:3213   */\n  tag_24\n  jump\t// in\ntag_68:\n    /* \"#utility.yul\":2792:3223   */\n  pop\n  pop\n    /* \"#utility.yul\":2777:3223   */\ntag_64:\n    /* \"#utility.yul\":2687:3230   */\n  pop\n  pop\n  pop\n  jump\t// out\n    /* \"#utility.yul\":3236:3353   */\ntag_26:\n    /* \"#utility.yul\":3290:3298   */\n  0x00\n    /* \"#utility.yul\":3340:3345   */\n  dup3\n    /* \"#utility.yul\":3334:3338   */\n  dup3\n    /* \"#utility.yul\":3330:3346   */\n  shr\n    /* \"#utility.yul\":3309:3346   */\n  swap1\n  pop\n    /* \"#utility.yul\":3236:3353   */\n  swap3\n  swap2\n  pop\n  pop\n  jump\t// out\n    /* \"#utility.yul\":3359:3528   */\ntag_27:\n    /* \"#utility.yul\":3403:3409   */\n  0x00\n    /* \"#utility.yul\":3436:3487   */\n  tag_72\n    /* \"#utility.yul\":3484:3485   */\n  0x00\n    /* \"#utility.yul\":3480:3486   */\n  not\n    /* \"#utility.yul\":3472:3477   */\n  dup5\n    /* \"#utility.yul\":3469:3470   */\n  0x08\n    /* \"#utility.yul\":3465:3478   */\n  mul\n    /* \"#utility.yul\":3436:3487   */\n  tag_26\n  jump\t// in\ntag_72:\n    /* \"#utility.yul\":3432:3488   */\n  not\n    /* \"#utility.yul\":3517:3521   */\n  dup1\n    /* \"#utility.yul\":3511:3515   */\n  dup4\n    /* \"#utility.yul\":3507:3522   */\n  and\n    /* \"#utility.yul\":3497:3522   */\n  swap2\n  pop\n    /* \"#utility.yul\":3410:3528   */\n  pop\n    /* \"#utility.yul\":3359:3528   */\n  swap3\n  swap2\n  pop\n  pop\n  jump\t// out\n    /* \"#utility.yul\":3533:3828   */\ntag_28:\n    /* \"#utility.yul\":3609:3613   */\n  0x00\n    /* \"#utility.yul\":3755:3784   */\n  tag_74\n    /* \"#utility.yul\":3780:3783   */\n  dup4\n    /* \"#utility.yul\":3774:3778   */\n  dup4\n    /* \"#utility.yul\":3755:3784   */\n  tag_27\n  jump\t// in\ntag_74:\n    /* \"#utility.yul\":3747:3784   */\n  swap2\n  pop\n    /* \"#utility.yul\":3817:3820   */\n  dup3\n    /* \"#utility.yul\":3814:3815   */\n  0x02\n    /* \"#utility.yul\":3810:3821   */\n  mul\n    /* \"#utility.yul\":3804:3808   */\n  dup3\n    /* \"#utility.yul\":3801:3822   */\n  or\n    /* \"#utility.yul\":3793:3822   */\n  swap1\n  pop\n    /* \"#utility.yul\":3533:3828   */\n  swap3\n  swap2\n  pop\n  pop\n  jump\t// out\n    /* \"#utility.yul\":3833:5228   */\ntag_2:\n    /* \"#utility.yul\":3950:3987   */\n  tag_76\n    /* \"#utility.yul\":3983:3986   */\n  dup3\n    /* \"#utility.yul\":3950:3987   */\n  tag_9\n  jump\t// in\ntag_76:\n    /* \"#utility.yul\":4052:4070   */\n  0xffffffffffffffff\n    /* \"#utility.yul\":4044:4050   */\n  dup2\n    /* \"#utility.yul\":4041:4071   */\n  gt\n    /* \"#utility.yul\":4038:4094   */\n  iszero\n  tag_77\n  jumpi\n    /* \"#utility.yul\":4074:4092   */\n  tag_78\n  tag_10\n  jump\t// in\ntag_78:\n    /* \"#utility.yul\":4038:4094   */\ntag_77:\n    /* \"#utility.yul\":4118:4156   */\n  tag_79\n    /* \"#utility.yul\":4150:4154   */\n  dup3\n    /* \"#utility.yul\":4144:4155   */\n  sload\n    /* \"#utility.yul\":4118:4156   */\n  tag_12\n  jump\t// in\ntag_79:\n    /* \"#utility.yul\":4203:4270   */\n  tag_80\n    /* \"#utility.yul\":4263:4269   */\n  dup3\n    /* \"#utility.yul\":4255:4261   */\n  dup3\n    /* \"#utility.yul\":4249:4253   */\n  dup6\n    /* \"#utility.yul\":4203:4270   */\n  tag_25\n  jump\t// in\ntag_80:\n    /* \"#utility.yul\":4297:4298   */\n  0x00\n    /* \"#utility.yul\":4321:4325   */\n  0x20\n    /* \"#utility.yul\":4308:4325   */\n  swap1\n  pop\n    /* \"#utility.yul\":4353:4355   */\n  0x1f\n    /* \"#utility.yul\":4345:4351   */\n  dup4\n    /* \"#utility.yul\":4342:4356   */\n  gt\n    /* \"#utility.yul\":4370:4371   */\n  0x01\n    /* \"#utility.yul\":4365:4983   */\n  dup2\n  eq\n  tag_82\n  jumpi\n    /* \"#utility.yul\":5027:5028   */\n  0x00\n    /* \"#utility.yul\":5044:5050   */\n  dup5\n    /* \"#utility.yul\":5041:5118   */\n  iszero\n  tag_83\n  jumpi\n    /* \"#utility.yul\":5093:5102   */\n  dup3\n    /* \"#utility.yul\":5088:5091   */\n  dup8\n    /* \"#utility.yul\":5084:5103   */\n  add\n    /* \"#utility.yul\":5078:5104   */\n  mload\n    /* \"#utility.yul\":5069:5104   */\n  swap1\n  pop\n    /* \"#utility.yul\":5041:5118   */\ntag_83:\n    /* \"#utility.yul\":5144:5211   */\n  tag_84\n    /* \"#utility.yul\":5204:5210   */\n  dup6\n    /* \"#utility.yul\":5197:5202   */\n  dup3\n    /* \"#utility.yul\":5144:5211   */\n  tag_28\n  jump\t// in\ntag_84:\n    /* \"#utility.yul\":5138:5142   */\n  dup7\n    /* \"#utility.yul\":5131:5212   */\n  sstore\n    /* \"#utility.yul\":5000:5222   */\n  pop\n    /* \"#utility.yul\":4335:5222   */\n  jump(tag_81)\n    /* \"#utility.yul\":4365:4983   */\ntag_82:\n    /* \"#utility.yul\":4417:4421   */\n  0x1f\n    /* \"#utility.yul\":4413:4422   */\n  not\n    /* \"#utility.yul\":4405:4411   */\n  dup5\n    /* \"#utility.yul\":4401:4423   */\n  and\n    /* \"#utility.yul\":4451:4488   */\n  tag_85\n    /* \"#utility.yul\":4483:4487   */\n  dup7\n    /* \"#utility.yul\":4451:4488   */\n  tag_13\n  jump\t// in\ntag_85:\n    /* \"#utility.yul\":4510:4511   */\n  0x00\n    /* \"#utility.yul\":4524:4732   */\ntag_86:\n    /* \"#utility.yul\":4538:4545   */\n  dup3\n    /* \"#utility.yul\":4535:4536   */\n  dup2\n    /* \"#utility.yul\":4532:4546   */\n  lt\n    /* \"#utility.yul\":4524:4732   */\n  iszero\n  tag_88\n  jumpi\n    /* \"#utility.yul\":4617:4626   */\n  dup5\n    /* \"#utility.yul\":4612:4615   */\n  dup10\n    /* \"#utility.yul\":4608:4627   */\n  add\n    /* \"#utility.yul\":4602:4628   */\n  mload\n    /* \"#utility.yul\":4594:4600   */\n  dup3\n    /* \"#utility.yul\":4587:4629   */\n  sstore\n    /* \"#utility.yul\":4668:4669   */\n  0x01\n    /* \"#utility.yul\":4660:4666   */\n  dup3\n    /* \"#utility.yul\":4656:4670   */\n  add\n    /* \"#utility.yul\":4646:4670   */\n  swap2\n  pop\n    /* \"#utility.yul\":4715:4717   */\n  0x20\n    /* \"#utility.yul\":4704:4713   */\n  dup6\n    /* \"#utility.yul\":4700:4718   */\n  add\n    /* \"#utility.yul\":4687:4718   */\n  swap5\n  pop\n    /* \"#utility.yul\":4561:4565   */\n  0x20\n    /* \"#utility.yul\":4558:4559   */\n  dup2\n    /* \"#utility.yul\":4554:4566   */\n  add\n    /* \"#utility.yul\":4549:4566   */\n  swap1\n  pop\n    /* \"#utility.yul\":4524:4732   */\n  jump(tag_86)\ntag_88:\n    /* \"#utility.yul\":4760:4766   */\n  dup7\n    /* \"#utility.yul\":4751:4758   */\n  dup4\n    /* \"#utility.yul\":4748:4767   */\n  lt\n    /* \"#utility.yul\":4745:4924   */\n  iszero\n  tag_89\n  jumpi\n    /* \"#utility.yul\":4818:4827   */\n  dup5\n    /* \"#utility.yul\":4813:4816   */\n  dup10\n    /* \"#utility.yul\":4809:4828   */\n  add\n    /* \"#utility.yul\":4803:4829   */\n  mload\n    /* \"#utility.yul\":4861:4909   */\n  tag_90\n    /* \"#utility.yul\":4903:4907   */\n  0x1f\n    /* \"#utility.yul\":4895:4901   */\n  dup10\n    /* \"#utility.yul\":4891:4908   */\n  and\n    /* \"#utility.yul\":4880:4889   */\n  dup3\n    /* \"#utility.yul\":4861:4909   */\n  tag_27\n  jump\t// in\ntag_90:\n    /* \"#utility.yul\":4853:4859   */\n  dup4\n    /* \"#utility.yul\":4846:4910   */\n  sstore\n    /* \"#utility.yul\":4768:4924   */\n  pop\n    /* \"#utility.yul\":4745:4924   */\ntag_89:\n    /* \"#utility.yul\":4970:4971   */\n  0x01\n    /* \"#utility.yul\":4966:4967   */\n  0x02\n    /* \"#utility.yul\":4958:4964   */\n  dup9\n    /* \"#utility.yul\":4954:4968   */\n  mul\n    /* \"#utility.yul\":4950:4972   */\n  add\n    /* \"#utility.yul\":4944:4948   */\n  dup9\n    /* \"#utility.yul\":4937:4973   */\n  sstore\n    /* \"#utility.yul\":4372:4983   */\n  pop\n  pop\n  pop\n    /* \"#utility.yul\":4335:5222   */\ntag_81:\n  pop\n    /* \"#utility.yul\":3925:5228   */\n  pop\n  pop\n  pop\n    /* \"#utility.yul\":3833:5228   */\n  pop\n  pop\n  jump\t// out\n    /* \"contracts/artifacts/Portfolio.sol\":72:2697  contract Portfolio{... */\ntag_8:\n  dataSize(sub_0)\n  dup1\n  dataOffset(sub_0)\n  0x00\n  codecopy\n  0x00\n  return\nstop\ndata_37aeeed936492a6a366ed7cf9001de78877dc6f6e98d417eb088231cd7e2e7e8 6f7665722031206d6f6e746873206f662070726163746963616c20657870657269656e63652077697468206120676f6f64206b6e6f776c6564676520696e20626c6f636b636861696e\ndata_abbc65d9db0a082e24d2c26402a8006cc9f1d2f3a901aa324431b370f8d1a013 516d653778564361526e77556342564879614b68734773473451466f673253444d4e3366484c5743547677414b7a\ndata_c6c8731200eed530a55b210a27447293d0b1678eb23cca27ff13560340d6aa95 516d4e566e3537564e417a47314755526550423854464a43623670324c354a7a7336396d757362705533744e5855\n\nsub_0: assembly {\n        /* \"contracts/artifacts/Portfolio.sol\":72:2697  contract Portfolio{... */\n      mstore(0x40, 0x80)\n      jumpi(tag_1, lt(calldatasize, 0x04))\n      shr(0xe0, calldataload(0x00))\n      dup1\n      0x7284e416\n      gt\n      tag_17\n      jumpi\n      dup1\n      0xcaf7b759\n      gt\n      tag_18\n      jumpi\n      dup1\n      0xcaf7b759\n      eq\n      tag_13\n      jumpi\n      dup1\n      0xd3cedf11\n      eq\n      tag_14\n      jumpi\n      dup1\n      0xe6120413\n      eq\n      tag_15\n      jumpi\n      dup1\n      0xed88c68e\n      eq\n      tag_16\n      jumpi\n      jump(tag_1)\n    tag_18:\n      dup1\n      0x7284e416\n      eq\n      tag_9\n      jumpi\n      dup1\n      0x7aea95aa\n      eq\n      tag_10\n      jumpi\n      dup1\n      0x98f831b6\n      eq\n      tag_11\n      jumpi\n      dup1\n      0xc24708f4\n      eq\n      tag_12\n      jumpi\n      jump(tag_1)\n    tag_17:\n      dup1\n      0x598e7f37\n      gt\n      tag_19\n      jumpi\n      dup1\n      0x598e7f37\n      eq\n      tag_5\n      jumpi\n      dup1\n      0x5b173a69\n      eq\n      tag_6\n      jumpi\n      dup1\n      0x6426d4c3\n      eq\n      tag_7\n      jumpi\n      dup1\n      0x6fe8e0bd\n      eq\n      tag_8\n      jumpi\n      jump(tag_1)\n    tag_19:\n      dup1\n      0x107046bd\n      eq\n      tag_2\n      jumpi\n      dup1\n      0x2adf13b2\n      eq\n      tag_3\n      jumpi\n      dup1\n      0x5397c6ec\n      eq\n      tag_4\n      jumpi\n    tag_1:\n      0x00\n      dup1\n      revert\n        /* \"contracts/artifacts/Portfolio.sol\":382:408  Project[3] public projects */\n    tag_2:\n      callvalue\n      dup1\n      iszero\n      tag_20\n      jumpi\n      0x00\n      dup1\n      revert\n    tag_20:\n      pop\n      tag_21\n      0x04\n      dup1\n      calldatasize\n      sub\n      dup2\n      add\n      swap1\n      tag_22\n      swap2\n      swap1\n      tag_23\n      jump\t// in\n    tag_22:\n      tag_24\n      jump\t// in\n    tag_21:\n      mload(0x40)\n      tag_25\n      swap6\n      swap5\n      swap4\n      swap3\n      swap2\n      swap1\n      tag_26\n      jump\t// in\n    tag_25:\n      mload(0x40)\n      dup1\n      swap2\n      sub\n      swap1\n      return\n        /* \"contracts/artifacts/Portfolio.sol\":1808:1904  function allProjects() external view returns (Project[3] memory)  {... */\n    tag_3:\n      callvalue\n      dup1\n      iszero\n      tag_27\n      jumpi\n      0x00\n      dup1\n      revert\n    tag_27:\n      pop\n      tag_28\n      tag_29\n      jump\t// in\n    tag_28:\n      mload(0x40)\n      tag_30\n      swap2\n      swap1\n      tag_31\n      jump\t// in\n    tag_30:\n      mload(0x40)\n      dup1\n      swap2\n      sub\n      swap1\n      return\n        /* \"contracts/artifacts/Portfolio.sol\":2291:2372  function allEducationDetails() external view returns(Education[3] memory){... */\n    tag_4:\n      callvalue\n      dup1\n      iszero\n      tag_32\n      jumpi\n      0x00\n      dup1\n      revert\n    tag_32:\n      pop\n      tag_33\n      tag_34\n      jump\t// in\n    tag_33:\n      mload(0x40)\n      tag_35\n      swap2\n      swap1\n      tag_36\n      jump\t// in\n    tag_35:\n      mload(0x40)\n      dup1\n      swap2\n      sub\n      swap1\n      return\n        /* \"contracts/artifacts/Portfolio.sol\":2562:2645  function changeImageLink(string calldata _imageLink) external onlyAuthority{... */\n    tag_5:\n      callvalue\n      dup1\n      iszero\n      tag_37\n      jumpi\n      0x00\n      dup1\n      revert\n    tag_37:\n      pop\n      tag_38\n      0x04\n      dup1\n      calldatasize\n      sub\n      dup2\n      add\n      swap1\n      tag_39\n      swap2\n      swap1\n      tag_40\n      jump\t// in\n    tag_39:\n      tag_41\n      jump\t// in\n    tag_38:\n      stop\n        /* \"contracts/artifacts/Portfolio.sol\":2087:2285  function changeEducation (string calldata _date,string calldata _degree,string calldata _knowledgeAcquired,string calldata _instutionName,uint _educationDetailCount) external onlyAuthority{... */\n    tag_6:\n      callvalue\n      dup1\n      iszero\n      tag_42\n      jumpi\n      0x00\n      dup1\n      revert\n    tag_42:\n      pop\n      tag_43\n      0x04\n      dup1\n      calldatasize\n      sub\n      dup2\n      add\n      swap1\n      tag_44\n      swap2\n      swap1\n      tag_45\n      jump\t// in\n    tag_44:\n      tag_46\n      jump\t// in\n    tag_43:\n      stop\n        /* \"contracts/artifacts/Portfolio.sol\":1107:1447  function insertProject(string calldata _name, string calldata _description, string calldata _image, string calldata _githubLink) external onlyAuthority {... */\n    tag_7:\n      callvalue\n      dup1\n      iszero\n      tag_47\n      jumpi\n      0x00\n      dup1\n      revert\n    tag_47:\n      pop\n      tag_48\n      0x04\n      dup1\n      calldatasize\n      sub\n      dup2\n      add\n      swap1\n      tag_49\n      swap2\n      swap1\n      tag_50\n      jump\t// in\n    tag_49:\n      tag_51\n      jump\t// in\n    tag_48:\n      stop\n        /* \"contracts/artifacts/Portfolio.sol\":1452:1802  function changeProject(string calldata _name, string calldata _description, string calldata _image, string calldata _githubLink, uint _projectCount) external onlyAuthority {... */\n    tag_8:\n      callvalue\n      dup1\n      iszero\n      tag_52\n      jumpi\n      0x00\n      dup1\n      revert\n    tag_52:\n      pop\n      tag_53\n      0x04\n      dup1\n      calldatasize\n      sub\n      dup2\n      add\n      swap1\n      tag_54\n      swap2\n      swap1\n      tag_45\n      jump\t// in\n    tag_54:\n      tag_55\n      jump\t// in\n    tag_53:\n      stop\n        /* \"contracts/artifacts/Portfolio.sol\":564:665  string public description=\"over 1 months of practical experience with a good knowledge in blockchain\" */\n    tag_9:\n      callvalue\n      dup1\n      iszero\n      tag_56\n      jumpi\n      0x00\n      dup1\n      revert\n    tag_56:\n      pop\n      tag_57\n      tag_58\n      jump\t// in\n    tag_57:\n      mload(0x40)\n      tag_59\n      swap2\n      swap1\n      tag_60\n      jump\t// in\n    tag_59:\n      mload(0x40)\n      dup1\n      swap2\n      sub\n      swap1\n      return\n        /* \"contracts/artifacts/Portfolio.sol\":413:449  Education[3] public educationDetails */\n    tag_10:\n      callvalue\n      dup1\n      iszero\n      tag_61\n      jumpi\n      0x00\n      dup1\n      revert\n    tag_61:\n      pop\n      tag_62\n      0x04\n      dup1\n      calldatasize\n      sub\n      dup2\n      add\n      swap1\n      tag_63\n      swap2\n      swap1\n      tag_23\n      jump\t// in\n    tag_63:\n      tag_64\n      jump\t// in\n    tag_62:\n      mload(0x40)\n      tag_65\n      swap6\n      swap5\n      swap4\n      swap3\n      swap2\n      swap1\n      tag_26\n      jump\t// in\n    tag_65:\n      mload(0x40)\n      dup1\n      swap2\n      sub\n      swap1\n      return\n        /* \"contracts/artifacts/Portfolio.sol\":1910:2081  function insertEducation(string calldata _data, string calldata _degree, string calldata _knowledgeAcquired, string calldata _instutionName) external onlyAuthority{... */\n    tag_11:\n      callvalue\n      dup1\n      iszero\n      tag_66\n      jumpi\n      0x00\n      dup1\n      revert\n    tag_66:\n      pop\n      tag_67\n      0x04\n      dup1\n      calldatasize\n      sub\n      dup2\n      add\n      swap1\n      tag_68\n      swap2\n      swap1\n      tag_50\n      jump\t// in\n    tag_68:\n      tag_69\n      jump\t// in\n    tag_67:\n      stop\n        /* \"contracts/artifacts/Portfolio.sol\":670:744  string public resumeLinks=\"Qme7xVCaRnwUcBVHyaKhsGsG4QFog2SDMN3fHLWCTvwAKz\" */\n    tag_12:\n      callvalue\n      dup1\n      iszero\n      tag_70\n      jumpi\n      0x00\n      dup1\n      revert\n    tag_70:\n      pop\n      tag_71\n      tag_72\n      jump\t// in\n    tag_71:\n      mload(0x40)\n      tag_73\n      swap2\n      swap1\n      tag_60\n      jump\t// in\n    tag_73:\n      mload(0x40)\n      dup1\n      swap2\n      sub\n      swap1\n      return\n        /* \"contracts/artifacts/Portfolio.sol\":487:559  string public imageLink=\"QmNVn57VNAzG1GURePB8TFJCb6p2L5Jzs69musbpU3tNXU\" */\n    tag_13:\n      callvalue\n      dup1\n      iszero\n      tag_74\n      jumpi\n      0x00\n      dup1\n      revert\n    tag_74:\n      pop\n      tag_75\n      tag_76\n      jump\t// in\n    tag_75:\n      mload(0x40)\n      tag_77\n      swap2\n      swap1\n      tag_60\n      jump\t// in\n    tag_77:\n      mload(0x40)\n      dup1\n      swap2\n      sub\n      swap1\n      return\n        /* \"contracts/artifacts/Portfolio.sol\":2471:2556  function changeResumeLink(string calldata _resumeLink) external onlyAuthority{... */\n    tag_14:\n      callvalue\n      dup1\n      iszero\n      tag_78\n      jumpi\n      0x00\n      dup1\n      revert\n    tag_78:\n      pop\n      tag_79\n      0x04\n      dup1\n      calldatasize\n      sub\n      dup2\n      add\n      swap1\n      tag_80\n      swap2\n      swap1\n      tag_40\n      jump\t// in\n    tag_80:\n      tag_81\n      jump\t// in\n    tag_79:\n      stop\n        /* \"contracts/artifacts/Portfolio.sol\":2378:2465  function changeDescription(string calldata _description) external onlyAuthority{... */\n    tag_15:\n      callvalue\n      dup1\n      iszero\n      tag_82\n      jumpi\n      0x00\n      dup1\n      revert\n    tag_82:\n      pop\n      tag_83\n      0x04\n      dup1\n      calldatasize\n      sub\n      dup2\n      add\n      swap1\n      tag_84\n      swap2\n      swap1\n      tag_40\n      jump\t// in\n    tag_84:\n      tag_85\n      jump\t// in\n    tag_83:\n      stop\n        /* \"contracts/artifacts/Portfolio.sol\":2651:2692  function donate() public payable {... */\n    tag_16:\n      tag_86\n      tag_87\n      jump\t// in\n    tag_86:\n      stop\n        /* \"contracts/artifacts/Portfolio.sol\":382:408  Project[3] public projects */\n    tag_24:\n      0x00\n      dup2\n      0x03\n      dup2\n      lt\n      tag_88\n      jumpi\n      0x00\n      dup1\n      revert\n    tag_88:\n      0x05\n      mul\n      add\n      0x00\n      swap2\n      pop\n      swap1\n      pop\n      dup1\n      0x00\n      add\n      sload\n      swap1\n      dup1\n      0x01\n      add\n      dup1\n      sload\n      tag_90\n      swap1\n      tag_91\n      jump\t// in\n    tag_90:\n      dup1\n      0x1f\n      add\n      0x20\n      dup1\n      swap2\n      div\n      mul\n      0x20\n      add\n      mload(0x40)\n      swap1\n      dup2\n      add\n      0x40\n      mstore\n      dup1\n      swap3\n      swap2\n      swap1\n      dup2\n      dup2\n      mstore\n      0x20\n      add\n      dup3\n      dup1\n      sload\n      tag_92\n      swap1\n      tag_91\n      jump\t// in\n    tag_92:\n      dup1\n      iszero\n      tag_93\n      jumpi\n      dup1\n      0x1f\n      lt\n      tag_94\n      jumpi\n      0x0100\n      dup1\n      dup4\n      sload\n      div\n      mul\n      dup4\n      mstore\n      swap2\n      0x20\n      add\n      swap2\n      jump(tag_93)\n    tag_94:\n      dup3\n      add\n      swap2\n      swap1\n      0x00\n      mstore\n      keccak256(0x00, 0x20)\n      swap1\n    tag_95:\n      dup2\n      sload\n      dup2\n      mstore\n      swap1\n      0x01\n      add\n      swap1\n      0x20\n      add\n      dup1\n      dup4\n      gt\n      tag_95\n      jumpi\n      dup3\n      swap1\n      sub\n      0x1f\n      and\n      dup3\n      add\n      swap2\n    tag_93:\n      pop\n      pop\n      pop\n      pop\n      pop\n      swap1\n      dup1\n      0x02\n      add\n      dup1\n      sload\n      tag_96\n      swap1\n      tag_91\n      jump\t// in\n    tag_96:\n      dup1\n      0x1f\n      add\n      0x20\n      dup1\n      swap2\n      div\n      mul\n      0x20\n      add\n      mload(0x40)\n      swap1\n      dup2\n      add\n      0x40\n      mstore\n      dup1\n      swap3\n      swap2\n      swap1\n      dup2\n      dup2\n      mstore\n      0x20\n      add\n      dup3\n      dup1\n      sload\n      tag_97\n      swap1\n      tag_91\n      jump\t// in\n    tag_97:\n      dup1\n      iszero\n      tag_98\n      jumpi\n      dup1\n      0x1f\n      lt\n      tag_99\n      jumpi\n      0x0100\n      dup1\n      dup4\n      sload\n      div\n      mul\n      dup4\n      mstore\n      swap2\n      0x20\n      add\n      swap2\n      jump(tag_98)\n    tag_99:\n      dup3\n      add\n      swap2\n      swap1\n      0x00\n      mstore\n      keccak256(0x00, 0x20)\n      swap1\n    tag_100:\n      dup2\n      sload\n      dup2\n      mstore\n      swap1\n      0x01\n      add\n      swap1\n      0x20\n      add\n      dup1\n      dup4\n      gt\n      tag_100\n      jumpi\n      dup3\n      swap1\n      sub\n      0x1f\n      and\n      dup3\n      add\n      swap2\n    tag_98:\n      pop\n      pop\n      pop\n      pop\n      pop\n      swap1\n      dup1\n      0x03\n      add\n      dup1\n      sload\n      tag_101\n      swap1\n      tag_91\n      jump\t// in\n    tag_101:\n      dup1\n      0x1f\n      add\n      0x20\n      dup1\n      swap2\n      div\n      mul\n      0x20\n      add\n      mload(0x40)\n      swap1\n      dup2\n      add\n      0x40\n      mstore\n      dup1\n      swap3\n      swap2\n      swap1\n      dup2\n      dup2\n      mstore\n      0x20\n      add\n      dup3\n      dup1\n      sload\n      tag_102\n      swap1\n      tag_91\n      jump\t// in\n    tag_102:\n      dup1\n      iszero\n      tag_103\n      jumpi\n      dup1\n      0x1f\n      lt\n      tag_104\n      jumpi\n      0x0100\n      dup1\n      dup4\n      sload\n      div\n      mul\n      dup4\n      mstore\n      swap2\n      0x20\n      add\n      swap2\n      jump(tag_103)\n    tag_104:\n      dup3\n      add\n      swap2\n      swap1\n      0x00\n      mstore\n      keccak256(0x00, 0x20)\n      swap1\n    tag_105:\n      dup2\n      sload\n      dup2\n      mstore\n      swap1\n      0x01\n      add\n      swap1\n      0x20\n      add\n      dup1\n      dup4\n      gt\n      tag_105\n      jumpi\n      dup3\n      swap1\n      sub\n      0x1f\n      and\n      dup3\n      add\n      swap2\n    tag_103:\n      pop\n      pop\n      pop\n      pop\n      pop\n      swap1\n      dup1\n      0x04\n      add\n      dup1\n      sload\n      tag_106\n      swap1\n      tag_91\n      jump\t// in\n    tag_106:\n      dup1\n      0x1f\n      add\n      0x20\n      dup1\n      swap2\n      div\n      mul\n      0x20\n      add\n      mload(0x40)\n      swap1\n      dup2\n      add\n      0x40\n      mstore\n      dup1\n      swap3\n      swap2\n      swap1\n      dup2\n      dup2\n      mstore\n      0x20\n      add\n      dup3\n      dup1\n      sload\n      tag_107\n      swap1\n      tag_91\n      jump\t// in\n    tag_107:\n      dup1\n      iszero\n      tag_108\n      jumpi\n      dup1\n      0x1f\n      lt\n      tag_109\n      jumpi\n      0x0100\n      dup1\n      dup4\n      sload\n      div\n      mul\n      dup4\n      mstore\n      swap2\n      0x20\n      add\n      swap2\n      jump(tag_108)\n    tag_109:\n      dup3\n      add\n      swap2\n      swap1\n      0x00\n      mstore\n      keccak256(0x00, 0x20)\n      swap1\n    tag_110:\n      dup2\n      sload\n      dup2\n      mstore\n      swap1\n      0x01\n      add\n      swap1\n      0x20\n      add\n      dup1\n      dup4\n      gt\n      tag_110\n      jumpi\n      dup3\n      swap1\n      sub\n      0x1f\n      and\n      dup3\n      add\n      swap2\n    tag_108:\n      pop\n      pop\n      pop\n      pop\n      pop\n      swap1\n      pop\n      dup6\n      jump\t// out\n        /* \"contracts/artifacts/Portfolio.sol\":1808:1904  function allProjects() external view returns (Project[3] memory)  {... */\n    tag_29:\n        /* \"contracts/artifacts/Portfolio.sol\":1854:1871  Project[3] memory */\n      tag_111\n      tag_112\n      jump\t// in\n    tag_111:\n        /* \"contracts/artifacts/Portfolio.sol\":1890:1898  projects */\n      0x00\n        /* \"contracts/artifacts/Portfolio.sol\":1883:1898  return projects */\n      0x03\n      dup1\n      0x20\n      mul\n      mload(0x40)\n      swap1\n      dup2\n      add\n      0x40\n      mstore\n      dup1\n      swap3\n      swap2\n      swap1\n      0x00\n      swap1\n    tag_114:\n      dup3\n      dup3\n      lt\n      iszero\n      tag_115\n      jumpi\n      dup4\n      dup3\n      0x05\n      mul\n      add\n      mload(0x40)\n      dup1\n      0xa0\n      add\n      0x40\n      mstore\n      swap1\n      dup2\n      0x00\n      dup3\n      add\n      sload\n      dup2\n      mstore\n      0x20\n      add\n      0x01\n      dup3\n      add\n      dup1\n      sload\n      tag_117\n      swap1\n      tag_91\n      jump\t// in\n    tag_117:\n      dup1\n      0x1f\n      add\n      0x20\n      dup1\n      swap2\n      div\n      mul\n      0x20\n      add\n      mload(0x40)\n      swap1\n      dup2\n      add\n      0x40\n      mstore\n      dup1\n      swap3\n      swap2\n      swap1\n      dup2\n      dup2\n      mstore\n      0x20\n      add\n      dup3\n      dup1\n      sload\n      tag_118\n      swap1\n      tag_91\n      jump\t// in\n    tag_118:\n      dup1\n      iszero\n      tag_119\n      jumpi\n      dup1\n      0x1f\n      lt\n      tag_120\n      jumpi\n      0x0100\n      dup1\n      dup4\n      sload\n      div\n      mul\n      dup4\n      mstore\n      swap2\n      0x20\n      add\n      swap2\n      jump(tag_119)\n    tag_120:\n      dup3\n      add\n      swap2\n      swap1\n      0x00\n      mstore\n      keccak256(0x00, 0x20)\n      swap1\n    tag_121:\n      dup2\n      sload\n      dup2\n      mstore\n      swap1\n      0x01\n      add\n      swap1\n      0x20\n      add\n      dup1\n      dup4\n      gt\n      tag_121\n      jumpi\n      dup3\n      swap1\n      sub\n      0x1f\n      and\n      dup3\n      add\n      swap2\n    tag_119:\n      pop\n      pop\n      pop\n      pop\n      pop\n      dup2\n      mstore\n      0x20\n      add\n      0x02\n      dup3\n      add\n      dup1\n      sload\n      tag_122\n      swap1\n      tag_91\n      jump\t// in\n    tag_122:\n      dup1\n      0x1f\n      add\n      0x20\n      dup1\n      swap2\n      div\n      mul\n      0x20\n      add\n      mload(0x40)\n      swap1\n      dup2\n      add\n      0x40\n      mstore\n      dup1\n      swap3\n      swap2\n      swap1\n      dup2\n      dup2\n      mstore\n      0x20\n      add\n      dup3\n      dup1\n      sload\n      tag_123\n      swap1\n      tag_91\n      jump\t// in\n    tag_123:\n      dup1\n      iszero\n      tag_124\n      jumpi\n      dup1\n      0x1f\n      lt\n      tag_125\n      jumpi\n      0x0100\n      dup1\n      dup4\n      sload\n      div\n      mul\n      dup4\n      mstore\n      swap2\n      0x20\n      add\n      swap2\n      jump(tag_124)\n    tag_125:\n      dup3\n      add\n      swap2\n      swap1\n      0x00\n      mstore\n      keccak256(0x00, 0x20)\n      swap1\n    tag_126:\n      dup2\n      sload\n      dup2\n      mstore\n      swap1\n      0x01\n      add\n      swap1\n      0x20\n      add\n      dup1\n      dup4\n      gt\n      tag_126\n      jumpi\n      dup3\n      swap1\n      sub\n      0x1f\n      and\n      dup3\n      add\n      swap2\n    tag_124:\n      pop\n      pop\n      pop\n      pop\n      pop\n      dup2\n      mstore\n      0x20\n      add\n      0x03\n      dup3\n      add\n      dup1\n      sload\n      tag_127\n      swap1\n      tag_91\n      jump\t// in\n    tag_127:\n      dup1\n      0x1f\n      add\n      0x20\n      dup1\n      swap2\n      div\n      mul\n      0x20\n      add\n      mload(0x40)\n      swap1\n      dup2\n      add\n      0x40\n      mstore\n      dup1\n      swap3\n      swap2\n      swap1\n      dup2\n      dup2\n      mstore\n      0x20\n      add\n      dup3\n      dup1\n      sload\n      tag_128\n      swap1\n      tag_91\n      jump\t// in\n    tag_128:\n      dup1\n      iszero\n      tag_129\n      jumpi\n      dup1\n      0x1f\n      lt\n      tag_130\n      jumpi\n      0x0100\n      dup1\n      dup4\n      sload\n      div\n      mul\n      dup4\n      mstore\n      swap2\n      0x20\n      add\n      swap2\n      jump(tag_129)\n    tag_130:\n      dup3\n      add\n      swap2\n      swap1\n      0x00\n      mstore\n      keccak256(0x00, 0x20)\n      swap1\n    tag_131:\n      dup2\n      sload\n      dup2\n      mstore\n      swap1\n      0x01\n      add\n      swap1\n      0x20\n      add\n      dup1\n      dup4\n      gt\n      tag_131\n      jumpi\n      dup3\n      swap1\n      sub\n      0x1f\n      and\n      dup3\n      add\n      swap2\n    tag_129:\n      pop\n      pop\n      pop\n      pop\n      pop\n      dup2\n      mstore\n      0x20\n      add\n      0x04\n      dup3\n      add\n      dup1\n      sload\n      tag_132\n      swap1\n      tag_91\n      jump\t// in\n    tag_132:\n      dup1\n      0x1f\n      add\n      0x20\n      dup1\n      swap2\n      div\n      mul\n      0x20\n      add\n      mload(0x40)\n      swap1\n      dup2\n      add\n      0x40\n      mstore\n      dup1\n      swap3\n      swap2\n      swap1\n      dup2\n      dup2\n      mstore\n      0x20\n      add\n      dup3\n      dup1\n      sload\n      tag_133\n      swap1\n      tag_91\n      jump\t// in\n    tag_133:\n      dup1\n      iszero\n      tag_134\n      jumpi\n      dup1\n      0x1f\n      lt\n      tag_135\n      jumpi\n      0x0100\n      dup1\n      dup4\n      sload\n      div\n      mul\n      dup4\n      mstore\n      swap2\n      0x20\n      add\n      swap2\n      jump(tag_134)\n    tag_135:\n      dup3\n      add\n      swap2\n      swap1\n      0x00\n      mstore\n      keccak256(0x00, 0x20)\n      swap1\n    tag_136:\n      dup2\n      sload\n      dup2\n      mstore\n      swap1\n      0x01\n      add\n      swap1\n      0x20\n      add\n      dup1\n      dup4\n      gt\n      tag_136\n      jumpi\n      dup3\n      swap1\n      sub\n      0x1f\n      and\n      dup3\n      add\n      swap2\n    tag_134:\n      pop\n      pop\n      pop\n      pop\n      pop\n      dup2\n      mstore\n      pop\n      pop\n      dup2\n      mstore\n      0x20\n      add\n      swap1\n      0x01\n      add\n      swap1\n      jump(tag_114)\n    tag_115:\n      pop\n      pop\n      pop\n      pop\n      swap1\n      pop\n        /* \"contracts/artifacts/Portfolio.sol\":1808:1904  function allProjects() external view returns (Project[3] memory)  {... */\n      swap1\n      jump\t// out\n        /* \"contracts/artifacts/Portfolio.sol\":2291:2372  function allEducationDetails() external view returns(Education[3] memory){... */\n    tag_34:\n        /* \"contracts/artifacts/Portfolio.sol\":2344:2363  Education[3] memory */\n      tag_137\n      tag_138\n      jump\t// in\n    tag_137:\n        /* \"contracts/artifacts/Portfolio.sol\":2291:2372  function allEducationDetails() external view returns(Education[3] memory){... */\n      swap1\n      jump\t// out\n        /* \"contracts/artifacts/Portfolio.sol\":2562:2645  function changeImageLink(string calldata _imageLink) external onlyAuthority{... */\n    tag_41:\n        /* \"contracts/artifacts/Portfolio.sol\":1026:1036  msg.sender */\n      caller\n        /* \"contracts/artifacts/Portfolio.sol\":1006:1036  portfolioAuthority==msg.sender */\n      0xffffffffffffffffffffffffffffffffffffffff\n      and\n        /* \"contracts/artifacts/Portfolio.sol\":1006:1024  portfolioAuthority */\n      0x1e\n      0x00\n      swap1\n      sload\n      swap1\n      0x0100\n      exp\n      swap1\n      div\n      0xffffffffffffffffffffffffffffffffffffffff\n      and\n        /* \"contracts/artifacts/Portfolio.sol\":1006:1036  portfolioAuthority==msg.sender */\n      0xffffffffffffffffffffffffffffffffffffffff\n      and\n      eq\n        /* \"contracts/artifacts/Portfolio.sol\":998:1087  require(portfolioAuthority==msg.sender,\"You do not have an authority over this contract\") */\n      tag_141\n      jumpi\n      mload(0x40)\n      0x08c379a000000000000000000000000000000000000000000000000000000000\n      dup2\n      mstore\n      0x04\n      add\n      tag_142\n      swap1\n      tag_143\n      jump\t// in\n    tag_142:\n      mload(0x40)\n      dup1\n      swap2\n      sub\n      swap1\n      revert\n    tag_141:\n        /* \"contracts/artifacts/Portfolio.sol\":2562:2645  function changeImageLink(string calldata _imageLink) external onlyAuthority{... */\n      pop\n      pop\n      jump\t// out\n        /* \"contracts/artifacts/Portfolio.sol\":2087:2285  function changeEducation (string calldata _date,string calldata _degree,string calldata _knowledgeAcquired,string calldata _instutionName,uint _educationDetailCount) external onlyAuthority{... */\n    tag_46:\n        /* \"contracts/artifacts/Portfolio.sol\":1026:1036  msg.sender */\n      caller\n        /* \"contracts/artifacts/Portfolio.sol\":1006:1036  portfolioAuthority==msg.sender */\n      0xffffffffffffffffffffffffffffffffffffffff\n      and\n        /* \"contracts/artifacts/Portfolio.sol\":1006:1024  portfolioAuthority */\n      0x1e\n      0x00\n      swap1\n      sload\n      swap1\n      0x0100\n      exp\n      swap1\n      div\n      0xffffffffffffffffffffffffffffffffffffffff\n      and\n        /* \"contracts/artifacts/Portfolio.sol\":1006:1036  portfolioAuthority==msg.sender */\n      0xffffffffffffffffffffffffffffffffffffffff\n      and\n      eq\n        /* \"contracts/artifacts/Portfolio.sol\":998:1087  require(portfolioAuthority==msg.sender,\"You do not have an authority over this contract\") */\n      tag_146\n      jumpi\n      mload(0x40)\n      0x08c379a000000000000000000000000000000000000000000000000000000000\n      dup2\n      mstore\n      0x04\n      add\n      tag_147\n      swap1\n      tag_143\n      jump\t// in\n    tag_147:\n      mload(0x40)\n      dup1\n      swap2\n      sub\n      swap1\n      revert\n    tag_146:\n        /* \"contracts/artifacts/Portfolio.sol\":2087:2285  function changeEducation (string calldata _date,string calldata _degree,string calldata _knowledgeAcquired,string calldata _instutionName,uint _educationDetailCount) external onlyAuthority{... */\n      pop\n      pop\n      pop\n      pop\n      pop\n      pop\n      pop\n      pop\n      pop\n      jump\t// out\n        /* \"contracts/artifacts/Portfolio.sol\":1107:1447  function insertProject(string calldata _name, string calldata _description, string calldata _image, string calldata _githubLink) external onlyAuthority {... */\n    tag_51:\n        /* \"contracts/artifacts/Portfolio.sol\":1026:1036  msg.sender */\n      caller\n        /* \"contracts/artifacts/Portfolio.sol\":1006:1036  portfolioAuthority==msg.sender */\n      0xffffffffffffffffffffffffffffffffffffffff\n      and\n        /* \"contracts/artifacts/Portfolio.sol\":1006:1024  portfolioAuthority */\n      0x1e\n      0x00\n      swap1\n      sload\n      swap1\n      0x0100\n      exp\n      swap1\n      div\n      0xffffffffffffffffffffffffffffffffffffffff\n      and\n        /* \"contracts/artifacts/Portfolio.sol\":1006:1036  portfolioAuthority==msg.sender */\n      0xffffffffffffffffffffffffffffffffffffffff\n      and\n      eq\n        /* \"contracts/artifacts/Portfolio.sol\":998:1087  require(portfolioAuthority==msg.sender,\"You do not have an authority over this contract\") */\n      tag_150\n      jumpi\n      mload(0x40)\n      0x08c379a000000000000000000000000000000000000000000000000000000000\n      dup2\n      mstore\n      0x04\n      add\n      tag_151\n      swap1\n      tag_143\n      jump\t// in\n    tag_151:\n      mload(0x40)\n      dup1\n      swap2\n      sub\n      swap1\n      revert\n    tag_150:\n        /* \"contracts/artifacts/Portfolio.sol\":1291:1292  3 */\n      0x03\n        /* \"contracts/artifacts/Portfolio.sol\":1278:1290  projectCount */\n      sload(0x22)\n        /* \"contracts/artifacts/Portfolio.sol\":1278:1292  projectCount<3 */\n      lt\n        /* \"contracts/artifacts/Portfolio.sol\":1270:1320  require(projectCount<3,\"Not more than 3 projects\") */\n      tag_153\n      jumpi\n      mload(0x40)\n      0x08c379a000000000000000000000000000000000000000000000000000000000\n      dup2\n      mstore\n      0x04\n      add\n      tag_154\n      swap1\n      tag_155\n      jump\t// in\n    tag_154:\n      mload(0x40)\n      dup1\n      swap2\n      sub\n      swap1\n      revert\n    tag_153:\n        /* \"contracts/artifacts/Portfolio.sol\":1357:1416  Project(projectCount,_name,_description,_image,_githubLink) */\n      mload(0x40)\n      dup1\n      0xa0\n      add\n      0x40\n      mstore\n      dup1\n        /* \"contracts/artifacts/Portfolio.sol\":1365:1377  projectCount */\n      sload(0x22)\n        /* \"contracts/artifacts/Portfolio.sol\":1357:1416  Project(projectCount,_name,_description,_image,_githubLink) */\n      dup2\n      mstore\n      0x20\n      add\n        /* \"contracts/artifacts/Portfolio.sol\":1378:1383  _name */\n      dup10\n      dup10\n        /* \"contracts/artifacts/Portfolio.sol\":1357:1416  Project(projectCount,_name,_description,_image,_githubLink) */\n      dup1\n      dup1\n      0x1f\n      add\n      0x20\n      dup1\n      swap2\n      div\n      mul\n      0x20\n      add\n      mload(0x40)\n      swap1\n      dup2\n      add\n      0x40\n      mstore\n      dup1\n      swap4\n      swap3\n      swap2\n      swap1\n      dup2\n      dup2\n      mstore\n      0x20\n      add\n      dup4\n      dup4\n      dup1\n      dup3\n      dup5\n      calldatacopy\n      0x00\n      dup2\n      dup5\n      add\n      mstore\n      not(0x1f)\n      0x1f\n      dup3\n      add\n      and\n      swap1\n      pop\n      dup1\n      dup4\n      add\n      swap3\n      pop\n      pop\n      pop\n      pop\n      pop\n      pop\n      pop\n      dup2\n      mstore\n      0x20\n      add\n        /* \"contracts/artifacts/Portfolio.sol\":1384:1396  _description */\n      dup8\n      dup8\n        /* \"contracts/artifacts/Portfolio.sol\":1357:1416  Project(projectCount,_name,_description,_image,_githubLink) */\n      dup1\n      dup1\n      0x1f\n      add\n      0x20\n      dup1\n      swap2\n      div\n      mul\n      0x20\n      add\n      mload(0x40)\n      swap1\n      dup2\n      add\n      0x40\n      mstore\n      dup1\n      swap4\n      swap3\n      swap2\n      swap1\n      dup2\n      dup2\n      mstore\n      0x20\n      add\n      dup4\n      dup4\n      dup1\n      dup3\n      dup5\n      calldatacopy\n      0x00\n      dup2\n      dup5\n      add\n      mstore\n      not(0x1f)\n      0x1f\n      dup3\n      add\n      and\n      swap1\n      pop\n      dup1\n      dup4\n      add\n      swap3\n      pop\n      pop\n      pop\n      pop\n      pop\n      pop\n      pop\n      dup2\n      mstore\n      0x20\n      add\n        /* \"contracts/artifacts/Portfolio.sol\":1397:1403  _image */\n      dup6\n      dup6\n        /* \"contracts/artifacts/Portfolio.sol\":1357:1416  Project(projectCount,_name,_description,_image,_githubLink) */\n      dup1\n      dup1\n      0x1f\n      add\n      0x20\n      dup1\n      swap2\n      div\n      mul\n      0x20\n      add\n      mload(0x40)\n      swap1\n      dup2\n      add\n      0x40\n      mstore\n      dup1\n      swap4\n      swap3\n      swap2\n      swap1\n      dup2\n      dup2\n      mstore\n      0x20\n      add\n      dup4\n      dup4\n      dup1\n      dup3\n      dup5\n      calldatacopy\n      0x00\n      dup2\n      dup5\n      add\n      mstore\n      not(0x1f)\n      0x1f\n      dup3\n      add\n      and\n      swap1\n      pop\n      dup1\n      dup4\n      add\n      swap3\n      pop\n      pop\n      pop\n      pop\n      pop\n      pop\n      pop\n      dup2\n      mstore\n      0x20\n      add\n        /* \"contracts/artifacts/Portfolio.sol\":1404:1415  _githubLink */\n      dup4\n      dup4\n        /* \"contracts/artifacts/Portfolio.sol\":1357:1416  Project(projectCount,_name,_description,_image,_githubLink) */\n      dup1\n      dup1\n      0x1f\n      add\n      0x20\n      dup1\n      swap2\n      div\n      mul\n      0x20\n      add\n      mload(0x40)\n      swap1\n      dup2\n      add\n      0x40\n      mstore\n      dup1\n      swap4\n      swap3\n      swap2\n      swap1\n      dup2\n      dup2\n      mstore\n      0x20\n      add\n      dup4\n      dup4\n      dup1\n      dup3\n      dup5\n      calldatacopy\n      0x00\n      dup2\n      dup5\n      add\n      mstore\n      not(0x1f)\n      0x1f\n      dup3\n      add\n      and\n      swap1\n      pop\n      dup1\n      dup4\n      add\n      swap3\n      pop\n      pop\n      pop\n      pop\n      pop\n      pop\n      pop\n      dup2\n      mstore\n      pop\n        /* \"contracts/artifacts/Portfolio.sol\":1332:1340  projects */\n      0x00\n        /* \"contracts/artifacts/Portfolio.sol\":1341:1353  projectCount */\n      sload(0x22)\n        /* \"contracts/artifacts/Portfolio.sol\":1332:1354  projects[projectCount] */\n      0x03\n      dup2\n      lt\n      tag_156\n      jumpi\n      tag_157\n      tag_158\n      jump\t// in\n    tag_157:\n    tag_156:\n      0x05\n      mul\n      add\n        /* \"contracts/artifacts/Portfolio.sol\":1332:1416  projects[projectCount] = Project(projectCount,_name,_description,_image,_githubLink) */\n      0x00\n      dup3\n      add\n      mload\n      dup2\n      0x00\n      add\n      sstore\n      0x20\n      dup3\n      add\n      mload\n      dup2\n      0x01\n      add\n      swap1\n      dup2\n      tag_160\n      swap2\n      swap1\n      tag_161\n      jump\t// in\n    tag_160:\n      pop\n      0x40\n      dup3\n      add\n      mload\n      dup2\n      0x02\n      add\n      swap1\n      dup2\n      tag_162\n      swap2\n      swap1\n      tag_161\n      jump\t// in\n    tag_162:\n      pop\n      0x60\n      dup3\n      add\n      mload\n      dup2\n      0x03\n      add\n      swap1\n      dup2\n      tag_163\n      swap2\n      swap1\n      tag_161\n      jump\t// in\n    tag_163:\n      pop\n      0x80\n      dup3\n      add\n      mload\n      dup2\n      0x04\n      add\n      swap1\n      dup2\n      tag_164\n      swap2\n      swap1\n      tag_161\n      jump\t// in\n    tag_164:\n      pop\n      swap1\n      pop\n      pop\n        /* \"contracts/artifacts/Portfolio.sol\":1427:1439  projectCount */\n      0x22\n      0x00\n        /* \"contracts/artifacts/Portfolio.sol\":1427:1441  projectCount++ */\n      dup2\n      sload\n      dup1\n      swap3\n      swap2\n      swap1\n      tag_165\n      swap1\n      tag_166\n      jump\t// in\n    tag_165:\n      swap2\n      swap1\n      pop\n      sstore\n      pop\n        /* \"contracts/artifacts/Portfolio.sol\":1107:1447  function insertProject(string calldata _name, string calldata _description, string calldata _image, string calldata _githubLink) external onlyAuthority {... */\n      pop\n      pop\n      pop\n      pop\n      pop\n      pop\n      pop\n      pop\n      jump\t// out\n        /* \"contracts/artifacts/Portfolio.sol\":1452:1802  function changeProject(string calldata _name, string calldata _description, string calldata _image, string calldata _githubLink, uint _projectCount) external onlyAuthority {... */\n    tag_55:\n        /* \"contracts/artifacts/Portfolio.sol\":1026:1036  msg.sender */\n      caller\n        /* \"contracts/artifacts/Portfolio.sol\":1006:1036  portfolioAuthority==msg.sender */\n      0xffffffffffffffffffffffffffffffffffffffff\n      and\n        /* \"contracts/artifacts/Portfolio.sol\":1006:1024  portfolioAuthority */\n      0x1e\n      0x00\n      swap1\n      sload\n      swap1\n      0x0100\n      exp\n      swap1\n      div\n      0xffffffffffffffffffffffffffffffffffffffff\n      and\n        /* \"contracts/artifacts/Portfolio.sol\":1006:1036  portfolioAuthority==msg.sender */\n      0xffffffffffffffffffffffffffffffffffffffff\n      and\n      eq\n        /* \"contracts/artifacts/Portfolio.sol\":998:1087  require(portfolioAuthority==msg.sender,\"You do not have an authority over this contract\") */\n      tag_168\n      jumpi\n      mload(0x40)\n      0x08c379a000000000000000000000000000000000000000000000000000000000\n      dup2\n      mstore\n      0x04\n      add\n      tag_169\n      swap1\n      tag_143\n      jump\t// in\n    tag_169:\n      mload(0x40)\n      dup1\n      swap2\n      sub\n      swap1\n      revert\n    tag_168:\n        /* \"contracts/artifacts/Portfolio.sol\":1655:1656  0 */\n      0x00\n        /* \"contracts/artifacts/Portfolio.sol\":1640:1653  _projectCount */\n      dup2\n        /* \"contracts/artifacts/Portfolio.sol\":1640:1656  _projectCount>=0 */\n      lt\n      iszero\n        /* \"contracts/artifacts/Portfolio.sol\":1640:1675  _projectCount>=0 && _projectCount<3 */\n      dup1\n      iszero\n      tag_171\n      jumpi\n      pop\n        /* \"contracts/artifacts/Portfolio.sol\":1674:1675  3 */\n      0x03\n        /* \"contracts/artifacts/Portfolio.sol\":1660:1673  _projectCount */\n      dup2\n        /* \"contracts/artifacts/Portfolio.sol\":1660:1675  _projectCount<3 */\n      lt\n        /* \"contracts/artifacts/Portfolio.sol\":1640:1675  _projectCount>=0 && _projectCount<3 */\n    tag_171:\n        /* \"contracts/artifacts/Portfolio.sol\":1632:1699  require(_projectCount>=0 && _projectCount<3,\"Invalid ProjectCount\") */\n      tag_172\n      jumpi\n      mload(0x40)\n      0x08c379a000000000000000000000000000000000000000000000000000000000\n      dup2\n      mstore\n      0x04\n      add\n      tag_173\n      swap1\n      tag_174\n      jump\t// in\n    tag_173:\n      mload(0x40)\n      dup1\n      swap2\n      sub\n      swap1\n      revert\n    tag_172:\n        /* \"contracts/artifacts/Portfolio.sol\":1734:1794  Project(_projectCount,_name,_description,_image,_githubLink) */\n      mload(0x40)\n      dup1\n      0xa0\n      add\n      0x40\n      mstore\n      dup1\n        /* \"contracts/artifacts/Portfolio.sol\":1742:1755  _projectCount */\n      dup3\n        /* \"contracts/artifacts/Portfolio.sol\":1734:1794  Project(_projectCount,_name,_description,_image,_githubLink) */\n      dup2\n      mstore\n      0x20\n      add\n        /* \"contracts/artifacts/Portfolio.sol\":1756:1761  _name */\n      dup11\n      dup11\n        /* \"contracts/artifacts/Portfolio.sol\":1734:1794  Project(_projectCount,_name,_description,_image,_githubLink) */\n      dup1\n      dup1\n      0x1f\n      add\n      0x20\n      dup1\n      swap2\n      div\n      mul\n      0x20\n      add\n      mload(0x40)\n      swap1\n      dup2\n      add\n      0x40\n      mstore\n      dup1\n      swap4\n      swap3\n      swap2\n      swap1\n      dup2\n      dup2\n      mstore\n      0x20\n      add\n      dup4\n      dup4\n      dup1\n      dup3\n      dup5\n      calldatacopy\n      0x00\n      dup2\n      dup5\n      add\n      mstore\n      not(0x1f)\n      0x1f\n      dup3\n      add\n      and\n      swap1\n      pop\n      dup1\n      dup4\n      add\n      swap3\n      pop\n      pop\n      pop\n      pop\n      pop\n      pop\n      pop\n      dup2\n      mstore\n      0x20\n      add\n        /* \"contracts/artifacts/Portfolio.sol\":1762:1774  _description */\n      dup9\n      dup9\n        /* \"contracts/artifacts/Portfolio.sol\":1734:1794  Project(_projectCount,_name,_description,_image,_githubLink) */\n      dup1\n      dup1\n      0x1f\n      add\n      0x20\n      dup1\n      swap2\n      div\n      mul\n      0x20\n      add\n      mload(0x40)\n      swap1\n      dup2\n      add\n      0x40\n      mstore\n      dup1\n      swap4\n      swap3\n      swap2\n      swap1\n      dup2\n      dup2\n      mstore\n      0x20\n      add\n      dup4\n      dup4\n      dup1\n      dup3\n      dup5\n      calldatacopy\n      0x00\n      dup2\n      dup5\n      add\n      mstore\n      not(0x1f)\n      0x1f\n      dup3\n      add\n      and\n      swap1\n      pop\n      dup1\n      dup4\n      add\n      swap3\n      pop\n      pop\n      pop\n      pop\n      pop\n      pop\n      pop\n      dup2\n      mstore\n      0x20\n      add\n        /* \"contracts/artifacts/Portfolio.sol\":1775:1781  _image */\n      dup7\n      dup7\n        /* \"contracts/artifacts/Portfolio.sol\":1734:1794  Project(_projectCount,_name,_description,_image,_githubLink) */\n      dup1\n      dup1\n      0x1f\n      add\n      0x20\n      dup1\n      swap2\n      div\n      mul\n      0x20\n      add\n      mload(0x40)\n      swap1\n      dup2\n      add\n      0x40\n      mstore\n      dup1\n      swap4\n      swap3\n      swap2\n      swap1\n      dup2\n      dup2\n      mstore\n      0x20\n      add\n      dup4\n      dup4\n      dup1\n      dup3\n      dup5\n      calldatacopy\n      0x00\n      dup2\n      dup5\n      add\n      mstore\n      not(0x1f)\n      0x1f\n      dup3\n      add\n      and\n      swap1\n      pop\n      dup1\n      dup4\n      add\n      swap3\n      pop\n      pop\n      pop\n      pop\n      pop\n      pop\n      pop\n      dup2\n      mstore\n      0x20\n      add\n        /* \"contracts/artifacts/Portfolio.sol\":1782:1793  _githubLink */\n      dup5\n      dup5\n        /* \"contracts/artifacts/Portfolio.sol\":1734:1794  Project(_projectCount,_name,_description,_image,_githubLink) */\n      dup1\n      dup1\n      0x1f\n      add\n      0x20\n      dup1\n      swap2\n      div\n      mul\n      0x20\n      add\n      mload(0x40)\n      swap1\n      dup2\n      add\n      0x40\n      mstore\n      dup1\n      swap4\n      swap3\n      swap2\n      swap1\n      dup2\n      dup2\n      mstore\n      0x20\n      add\n      dup4\n      dup4\n      dup1\n      dup3\n      dup5\n      calldatacopy\n      0x00\n      dup2\n      dup5\n      add\n      mstore\n      not(0x1f)\n      0x1f\n      dup3\n      add\n      and\n      swap1\n      pop\n      dup1\n      dup4\n      add\n      swap3\n      pop\n      pop\n      pop\n      pop\n      pop\n      pop\n      pop\n      dup2\n      mstore\n      pop\n        /* \"contracts/artifacts/Portfolio.sol\":1708:1716  projects */\n      0x00\n        /* \"contracts/artifacts/Portfolio.sol\":1717:1730  _projectCount */\n      dup3\n        /* \"contracts/artifacts/Portfolio.sol\":1708:1731  projects[_projectCount] */\n      0x03\n      dup2\n      lt\n      tag_175\n      jumpi\n      tag_176\n      tag_158\n      jump\t// in\n    tag_176:\n    tag_175:\n      0x05\n      mul\n      add\n        /* \"contracts/artifacts/Portfolio.sol\":1708:1794  projects[_projectCount] = Project(_projectCount,_name,_description,_image,_githubLink) */\n      0x00\n      dup3\n      add\n      mload\n      dup2\n      0x00\n      add\n      sstore\n      0x20\n      dup3\n      add\n      mload\n      dup2\n      0x01\n      add\n      swap1\n      dup2\n      tag_178\n      swap2\n      swap1\n      tag_161\n      jump\t// in\n    tag_178:\n      pop\n      0x40\n      dup3\n      add\n      mload\n      dup2\n      0x02\n      add\n      swap1\n      dup2\n      tag_179\n      swap2\n      swap1\n      tag_161\n      jump\t// in\n    tag_179:\n      pop\n      0x60\n      dup3\n      add\n      mload\n      dup2\n      0x03\n      add\n      swap1\n      dup2\n      tag_180\n      swap2\n      swap1\n      tag_161\n      jump\t// in\n    tag_180:\n      pop\n      0x80\n      dup3\n      add\n      mload\n      dup2\n      0x04\n      add\n      swap1\n      dup2\n      tag_181\n      swap2\n      swap1\n      tag_161\n      jump\t// in\n    tag_181:\n      pop\n      swap1\n      pop\n      pop\n        /* \"contracts/artifacts/Portfolio.sol\":1452:1802  function changeProject(string calldata _name, string calldata _description, string calldata _image, string calldata _githubLink, uint _projectCount) external onlyAuthority {... */\n      pop\n      pop\n      pop\n      pop\n      pop\n      pop\n      pop\n      pop\n      pop\n      jump\t// out\n        /* \"contracts/artifacts/Portfolio.sol\":564:665  string public description=\"over 1 months of practical experience with a good knowledge in blockchain\" */\n    tag_58:\n      0x20\n      dup1\n      sload\n      tag_182\n      swap1\n      tag_91\n      jump\t// in\n    tag_182:\n      dup1\n      0x1f\n      add\n      0x20\n      dup1\n      swap2\n      div\n      mul\n      0x20\n      add\n      mload(0x40)\n      swap1\n      dup2\n      add\n      0x40\n      mstore\n      dup1\n      swap3\n      swap2\n      swap1\n      dup2\n      dup2\n      mstore\n      0x20\n      add\n      dup3\n      dup1\n      sload\n      tag_183\n      swap1\n      tag_91\n      jump\t// in\n    tag_183:\n      dup1\n      iszero\n      tag_184\n      jumpi\n      dup1\n      0x1f\n      lt\n      tag_185\n      jumpi\n      0x0100\n      dup1\n      dup4\n      sload\n      div\n      mul\n      dup4\n      mstore\n      swap2\n      0x20\n      add\n      swap2\n      jump(tag_184)\n    tag_185:\n      dup3\n      add\n      swap2\n      swap1\n      0x00\n      mstore\n      keccak256(0x00, 0x20)\n      swap1\n    tag_186:\n      dup2\n      sload\n      dup2\n      mstore\n      swap1\n      0x01\n      add\n      swap1\n      0x20\n      add\n      dup1\n      dup4\n      gt\n      tag_186\n      jumpi\n      dup3\n      swap1\n      sub\n      0x1f\n      and\n      dup3\n      add\n      swap2\n    tag_184:\n      pop\n      pop\n      pop\n      pop\n      pop\n      dup2\n      jump\t// out\n        /* \"contracts/artifacts/Portfolio.sol\":413:449  Education[3] public educationDetails */\n    tag_64:\n      0x0f\n      dup2\n      0x03\n      dup2\n      lt\n      tag_187\n      jumpi\n      0x00\n      dup1\n      revert\n    tag_187:\n      0x05\n      mul\n      add\n      0x00\n      swap2\n      pop\n      swap1\n      pop\n      dup1\n      0x00\n      add\n      sload\n      swap1\n      dup1\n      0x01\n      add\n      dup1\n      sload\n      tag_189\n      swap1\n      tag_91\n      jump\t// in\n    tag_189:\n      dup1\n      0x1f\n      add\n      0x20\n      dup1\n      swap2\n      div\n      mul\n      0x20\n      add\n      mload(0x40)\n      swap1\n      dup2\n      add\n      0x40\n      mstore\n      dup1\n      swap3\n      swap2\n      swap1\n      dup2\n      dup2\n      mstore\n      0x20\n      add\n      dup3\n      dup1\n      sload\n      tag_190\n      swap1\n      tag_91\n      jump\t// in\n    tag_190:\n      dup1\n      iszero\n      tag_191\n      jumpi\n      dup1\n      0x1f\n      lt\n      tag_192\n      jumpi\n      0x0100\n      dup1\n      dup4\n      sload\n      div\n      mul\n      dup4\n      mstore\n      swap2\n      0x20\n      add\n      swap2\n      jump(tag_191)\n    tag_192:\n      dup3\n      add\n      swap2\n      swap1\n      0x00\n      mstore\n      keccak256(0x00, 0x20)\n      swap1\n    tag_193:\n      dup2\n      sload\n      dup2\n      mstore\n      swap1\n      0x01\n      add\n      swap1\n      0x20\n      add\n      dup1\n      dup4\n      gt\n      tag_193\n      jumpi\n      dup3\n      swap1\n      sub\n      0x1f\n      and\n      dup3\n      add\n      swap2\n    tag_191:\n      pop\n      pop\n      pop\n      pop\n      pop\n      swap1\n      dup1\n      0x02\n      add\n      dup1\n      sload\n      tag_194\n      swap1\n      tag_91\n      jump\t// in\n    tag_194:\n      dup1\n      0x1f\n      add\n      0x20\n      dup1\n      swap2\n      div\n      mul\n      0x20\n      add\n      mload(0x40)\n      swap1\n      dup2\n      add\n      0x40\n      mstore\n      dup1\n      swap3\n      swap2\n      swap1\n      dup2\n      dup2\n      mstore\n      0x20\n      add\n      dup3\n      dup1\n      sload\n      tag_195\n      swap1\n      tag_91\n      jump\t// in\n    tag_195:\n      dup1\n      iszero\n      tag_196\n      jumpi\n      dup1\n      0x1f\n      lt\n      tag_197\n      jumpi\n      0x0100\n      dup1\n      dup4\n      sload\n      div\n      mul\n      dup4\n      mstore\n      swap2\n      0x20\n      add\n      swap2\n      jump(tag_196)\n    tag_197:\n      dup3\n      add\n      swap2\n      swap1\n      0x00\n      mstore\n      keccak256(0x00, 0x20)\n      swap1\n    tag_198:\n      dup2\n      sload\n      dup2\n      mstore\n      swap1\n      0x01\n      add\n      swap1\n      0x20\n      add\n      dup1\n      dup4\n      gt\n      tag_198\n      jumpi\n      dup3\n      swap1\n      sub\n      0x1f\n      and\n      dup3\n      add\n      swap2\n    tag_196:\n      pop\n      pop\n      pop\n      pop\n      pop\n      swap1\n      dup1\n      0x03\n      add\n      dup1\n      sload\n      tag_199\n      swap1\n      tag_91\n      jump\t// in\n    tag_199:\n      dup1\n      0x1f\n      add\n      0x20\n      dup1\n      swap2\n      div\n      mul\n      0x20\n      add\n      mload(0x40)\n      swap1\n      dup2\n      add\n      0x40\n      mstore\n      dup1\n      swap3\n      swap2\n      swap1\n      dup2\n      dup2\n      mstore\n      0x20\n      add\n      dup3\n      dup1\n      sload\n      tag_200\n      swap1\n      tag_91\n      jump\t// in\n    tag_200:\n      dup1\n      iszero\n      tag_201\n      jumpi\n      dup1\n      0x1f\n      lt\n      tag_202\n      jumpi\n      0x0100\n      dup1\n      dup4\n      sload\n      div\n      mul\n      dup4\n      mstore\n      swap2\n      0x20\n      add\n      swap2\n      jump(tag_201)\n    tag_202:\n      dup3\n      add\n      swap2\n      swap1\n      0x00\n      mstore\n      keccak256(0x00, 0x20)\n      swap1\n    tag_203:\n      dup2\n      sload\n      dup2\n      mstore\n      swap1\n      0x01\n      add\n      swap1\n      0x20\n      add\n      dup1\n      dup4\n      gt\n      tag_203\n      jumpi\n      dup3\n      swap1\n      sub\n      0x1f\n      and\n      dup3\n      add\n      swap2\n    tag_201:\n      pop\n      pop\n      pop\n      pop\n      pop\n      swap1\n      dup1\n      0x04\n      add\n      dup1\n      sload\n      tag_204\n      swap1\n      tag_91\n      jump\t// in\n    tag_204:\n      dup1\n      0x1f\n      add\n      0x20\n      dup1\n      swap2\n      div\n      mul\n      0x20\n      add\n      mload(0x40)\n      swap1\n      dup2\n      add\n      0x40\n      mstore\n      dup1\n      swap3\n      swap2\n      swap1\n      dup2\n      dup2\n      mstore\n      0x20\n      add\n      dup3\n      dup1\n      sload\n      tag_205\n      swap1\n      tag_91\n      jump\t// in\n    tag_205:\n      dup1\n      iszero\n      tag_206\n      jumpi\n      dup1\n      0x1f\n      lt\n      tag_207\n      jumpi\n      0x0100\n      dup1\n      dup4\n      sload\n      div\n      mul\n      dup4\n      mstore\n      swap2\n      0x20\n      add\n      swap2\n      jump(tag_206)\n    tag_207:\n      dup3\n      add\n      swap2\n      swap1\n      0x00\n      mstore\n      keccak256(0x00, 0x20)\n      swap1\n    tag_208:\n      dup2\n      sload\n      dup2\n      mstore\n      swap1\n      0x01\n      add\n      swap1\n      0x20\n      add\n      dup1\n      dup4\n      gt\n      tag_208\n      jumpi\n      dup3\n      swap1\n      sub\n      0x1f\n      and\n      dup3\n      add\n      swap2\n    tag_206:\n      pop\n      pop\n      pop\n      pop\n      pop\n      swap1\n      pop\n      dup6\n      jump\t// out\n        /* \"contracts/artifacts/Portfolio.sol\":1910:2081  function insertEducation(string calldata _data, string calldata _degree, string calldata _knowledgeAcquired, string calldata _instutionName) external onlyAuthority{... */\n    tag_69:\n        /* \"contracts/artifacts/Portfolio.sol\":1026:1036  msg.sender */\n      caller\n        /* \"contracts/artifacts/Portfolio.sol\":1006:1036  portfolioAuthority==msg.sender */\n      0xffffffffffffffffffffffffffffffffffffffff\n      and\n        /* \"contracts/artifacts/Portfolio.sol\":1006:1024  portfolioAuthority */\n      0x1e\n      0x00\n      swap1\n      sload\n      swap1\n      0x0100\n      exp\n      swap1\n      div\n      0xffffffffffffffffffffffffffffffffffffffff\n      and\n        /* \"contracts/artifacts/Portfolio.sol\":1006:1036  portfolioAuthority==msg.sender */\n      0xffffffffffffffffffffffffffffffffffffffff\n      and\n      eq\n        /* \"contracts/artifacts/Portfolio.sol\":998:1087  require(portfolioAuthority==msg.sender,\"You do not have an authority over this contract\") */\n      tag_210\n      jumpi\n      mload(0x40)\n      0x08c379a000000000000000000000000000000000000000000000000000000000\n      dup2\n      mstore\n      0x04\n      add\n      tag_211\n      swap1\n      tag_143\n      jump\t// in\n    tag_211:\n      mload(0x40)\n      dup1\n      swap2\n      sub\n      swap1\n      revert\n    tag_210:\n        /* \"contracts/artifacts/Portfolio.sol\":1910:2081  function insertEducation(string calldata _data, string calldata _degree, string calldata _knowledgeAcquired, string calldata _instutionName) external onlyAuthority{... */\n      pop\n      pop\n      pop\n      pop\n      pop\n      pop\n      pop\n      pop\n      jump\t// out\n        /* \"contracts/artifacts/Portfolio.sol\":670:744  string public resumeLinks=\"Qme7xVCaRnwUcBVHyaKhsGsG4QFog2SDMN3fHLWCTvwAKz\" */\n    tag_72:\n      0x21\n      dup1\n      sload\n      tag_213\n      swap1\n      tag_91\n      jump\t// in\n    tag_213:\n      dup1\n      0x1f\n      add\n      0x20\n      dup1\n      swap2\n      div\n      mul\n      0x20\n      add\n      mload(0x40)\n      swap1\n      dup2\n      add\n      0x40\n      mstore\n      dup1\n      swap3\n      swap2\n      swap1\n      dup2\n      dup2\n      mstore\n      0x20\n      add\n      dup3\n      dup1\n      sload\n      tag_214\n      swap1\n      tag_91\n      jump\t// in\n    tag_214:\n      dup1\n      iszero\n      tag_215\n      jumpi\n      dup1\n      0x1f\n      lt\n      tag_216\n      jumpi\n      0x0100\n      dup1\n      dup4\n      sload\n      div\n      mul\n      dup4\n      mstore\n      swap2\n      0x20\n      add\n      swap2\n      jump(tag_215)\n    tag_216:\n      dup3\n      add\n      swap2\n      swap1\n      0x00\n      mstore\n      keccak256(0x00, 0x20)\n      swap1\n    tag_217:\n      dup2\n      sload\n      dup2\n      mstore\n      swap1\n      0x01\n      add\n      swap1\n      0x20\n      add\n      dup1\n      dup4\n      gt\n      tag_217\n      jumpi\n      dup3\n      swap1\n      sub\n      0x1f\n      and\n      dup3\n      add\n      swap2\n    tag_215:\n      pop\n      pop\n      pop\n      pop\n      pop\n      dup2\n      jump\t// out\n        /* \"contracts/artifacts/Portfolio.sol\":487:559  string public imageLink=\"QmNVn57VNAzG1GURePB8TFJCb6p2L5Jzs69musbpU3tNXU\" */\n    tag_76:\n      0x1f\n      dup1\n      sload\n      tag_218\n      swap1\n      tag_91\n      jump\t// in\n    tag_218:\n      dup1\n      0x1f\n      add\n      0x20\n      dup1\n      swap2\n      div\n      mul\n      0x20\n      add\n      mload(0x40)\n      swap1\n      dup2\n      add\n      0x40\n      mstore\n      dup1\n      swap3\n      swap2\n      swap1\n      dup2\n      dup2\n      mstore\n      0x20\n      add\n      dup3\n      dup1\n      sload\n      tag_219\n      swap1\n      tag_91\n      jump\t// in\n    tag_219:\n      dup1\n      iszero\n      tag_220\n      jumpi\n      dup1\n      0x1f\n      lt\n      tag_221\n      jumpi\n      0x0100\n      dup1\n      dup4\n      sload\n      div\n      mul\n      dup4\n      mstore\n      swap2\n      0x20\n      add\n      swap2\n      jump(tag_220)\n    tag_221:\n      dup3\n      add\n      swap2\n      swap1\n      0x00\n      mstore\n      keccak256(0x00, 0x20)\n      swap1\n    tag_222:\n      dup2\n      sload\n      dup2\n      mstore\n      swap1\n      0x01\n      add\n      swap1\n      0x20\n      add\n      dup1\n      dup4\n      gt\n      tag_222\n      jumpi\n      dup3\n      swap1\n      sub\n      0x1f\n      and\n      dup3\n      add\n      swap2\n    tag_220:\n      pop\n      pop\n      pop\n      pop\n      pop\n      dup2\n      jump\t// out\n        /* \"contracts/artifacts/Portfolio.sol\":2471:2556  function changeResumeLink(string calldata _resumeLink) external onlyAuthority{... */\n    tag_81:\n        /* \"contracts/artifacts/Portfolio.sol\":1026:1036  msg.sender */\n      caller\n        /* \"contracts/artifacts/Portfolio.sol\":1006:1036  portfolioAuthority==msg.sender */\n      0xffffffffffffffffffffffffffffffffffffffff\n      and\n        /* \"contracts/artifacts/Portfolio.sol\":1006:1024  portfolioAuthority */\n      0x1e\n      0x00\n      swap1\n      sload\n      swap1\n      0x0100\n      exp\n      swap1\n      div\n      0xffffffffffffffffffffffffffffffffffffffff\n      and\n        /* \"contracts/artifacts/Portfolio.sol\":1006:1036  portfolioAuthority==msg.sender */\n      0xffffffffffffffffffffffffffffffffffffffff\n      and\n      eq\n        /* \"contracts/artifacts/Portfolio.sol\":998:1087  require(portfolioAuthority==msg.sender,\"You do not have an authority over this contract\") */\n      tag_224\n      jumpi\n      mload(0x40)\n      0x08c379a000000000000000000000000000000000000000000000000000000000\n      dup2\n      mstore\n      0x04\n      add\n      tag_225\n      swap1\n      tag_143\n      jump\t// in\n    tag_225:\n      mload(0x40)\n      dup1\n      swap2\n      sub\n      swap1\n      revert\n    tag_224:\n        /* \"contracts/artifacts/Portfolio.sol\":2471:2556  function changeResumeLink(string calldata _resumeLink) external onlyAuthority{... */\n      pop\n      pop\n      jump\t// out\n        /* \"contracts/artifacts/Portfolio.sol\":2378:2465  function changeDescription(string calldata _description) external onlyAuthority{... */\n    tag_85:\n        /* \"contracts/artifacts/Portfolio.sol\":1026:1036  msg.sender */\n      caller\n        /* \"contracts/artifacts/Portfolio.sol\":1006:1036  portfolioAuthority==msg.sender */\n      0xffffffffffffffffffffffffffffffffffffffff\n      and\n        /* \"contracts/artifacts/Portfolio.sol\":1006:1024  portfolioAuthority */\n      0x1e\n      0x00\n      swap1\n      sload\n      swap1\n      0x0100\n      exp\n      swap1\n      div\n      0xffffffffffffffffffffffffffffffffffffffff\n      and\n        /* \"contracts/artifacts/Portfolio.sol\":1006:1036  portfolioAuthority==msg.sender */\n      0xffffffffffffffffffffffffffffffffffffffff\n      and\n      eq\n        /* \"contracts/artifacts/Portfolio.sol\":998:1087  require(portfolioAuthority==msg.sender,\"You do not have an authority over this contract\") */\n      tag_228\n      jumpi\n      mload(0x40)\n      0x08c379a000000000000000000000000000000000000000000000000000000000\n      dup2\n      mstore\n      0x04\n      add\n      tag_229\n      swap1\n      tag_143\n      jump\t// in\n    tag_229:\n      mload(0x40)\n      dup1\n      swap2\n      sub\n      swap1\n      revert\n    tag_228:\n        /* \"contracts/artifacts/Portfolio.sol\":2378:2465  function changeDescription(string calldata _description) external onlyAuthority{... */\n      pop\n      pop\n      jump\t// out\n        /* \"contracts/artifacts/Portfolio.sol\":2651:2692  function donate() public payable {... */\n    tag_87:\n      jump\t// out\n    tag_112:\n      mload(0x40)\n      dup1\n      0x60\n      add\n      0x40\n      mstore\n      dup1\n      0x03\n      swap1\n    tag_232:\n      tag_233\n      tag_234\n      jump\t// in\n    tag_233:\n      dup2\n      mstore\n      0x20\n      add\n      swap1\n      0x01\n      swap1\n      sub\n      swap1\n      dup2\n      tag_232\n      jumpi\n      swap1\n      pop\n      pop\n      swap1\n      jump\t// out\n    tag_138:\n      mload(0x40)\n      dup1\n      0x60\n      add\n      0x40\n      mstore\n      dup1\n      0x03\n      swap1\n    tag_235:\n      tag_236\n      tag_237\n      jump\t// in\n    tag_236:\n      dup2\n      mstore\n      0x20\n      add\n      swap1\n      0x01\n      swap1\n      sub\n      swap1\n      dup2\n      tag_235\n      jumpi\n      swap1\n      pop\n      pop\n      swap1\n      jump\t// out\n    tag_234:\n      mload(0x40)\n      dup1\n      0xa0\n      add\n      0x40\n      mstore\n      dup1\n      0x00\n      dup2\n      mstore\n      0x20\n      add\n      0x60\n      dup2\n      mstore\n      0x20\n      add\n      0x60\n      dup2\n      mstore\n      0x20\n      add\n      0x60\n      dup2\n      mstore\n      0x20\n      add\n      0x60\n      dup2\n      mstore\n      pop\n      swap1\n      jump\t// out\n    tag_237:\n      mload(0x40)\n      dup1\n      0xa0\n      add\n      0x40\n      mstore\n      dup1\n      0x00\n      dup2\n      mstore\n      0x20\n      add\n      0x60\n      dup2\n      mstore\n      0x20\n      add\n      0x60\n      dup2\n      mstore\n      0x20\n      add\n      0x60\n      dup2\n      mstore\n      0x20\n      add\n      0x60\n      dup2\n      mstore\n      pop\n      swap1\n      jump\t// out\n        /* \"#utility.yul\":88:205   */\n    tag_239:\n        /* \"#utility.yul\":197:198   */\n      0x00\n        /* \"#utility.yul\":194:195   */\n      dup1\n        /* \"#utility.yul\":187:199   */\n      revert\n        /* \"#utility.yul\":211:328   */\n    tag_240:\n        /* \"#utility.yul\":320:321   */\n      0x00\n        /* \"#utility.yul\":317:318   */\n      dup1\n        /* \"#utility.yul\":310:322   */\n      revert\n        /* \"#utility.yul\":334:411   */\n    tag_241:\n        /* \"#utility.yul\":371:378   */\n      0x00\n        /* \"#utility.yul\":400:405   */\n      dup2\n        /* \"#utility.yul\":389:405   */\n      swap1\n      pop\n        /* \"#utility.yul\":334:411   */\n      swap2\n      swap1\n      pop\n      jump\t// out\n        /* \"#utility.yul\":417:539   */\n    tag_242:\n        /* \"#utility.yul\":490:514   */\n      tag_301\n        /* \"#utility.yul\":508:513   */\n      dup2\n        /* \"#utility.yul\":490:514   */\n      tag_241\n      jump\t// in\n    tag_301:\n        /* \"#utility.yul\":483:488   */\n      dup2\n        /* \"#utility.yul\":480:515   */\n      eq\n        /* \"#utility.yul\":470:533   */\n      tag_302\n      jumpi\n        /* \"#utility.yul\":529:530   */\n      0x00\n        /* \"#utility.yul\":526:527   */\n      dup1\n        /* \"#utility.yul\":519:531   */\n      revert\n        /* \"#utility.yul\":470:533   */\n    tag_302:\n        /* \"#utility.yul\":417:539   */\n      pop\n      jump\t// out\n        /* \"#utility.yul\":545:684   */\n    tag_243:\n        /* \"#utility.yul\":591:596   */\n      0x00\n        /* \"#utility.yul\":629:635   */\n      dup2\n        /* \"#utility.yul\":616:636   */\n      calldataload\n        /* \"#utility.yul\":607:636   */\n      swap1\n      pop\n        /* \"#utility.yul\":645:678   */\n      tag_304\n        /* \"#utility.yul\":672:677   */\n      dup2\n        /* \"#utility.yul\":645:678   */\n      tag_242\n      jump\t// in\n    tag_304:\n        /* \"#utility.yul\":545:684   */\n      swap3\n      swap2\n      pop\n      pop\n      jump\t// out\n        /* \"#utility.yul\":690:1019   */\n    tag_23:\n        /* \"#utility.yul\":749:755   */\n      0x00\n        /* \"#utility.yul\":798:800   */\n      0x20\n        /* \"#utility.yul\":786:795   */\n      dup3\n        /* \"#utility.yul\":777:784   */\n      dup5\n        /* \"#utility.yul\":773:796   */\n      sub\n        /* \"#utility.yul\":769:801   */\n      slt\n        /* \"#utility.yul\":766:885   */\n      iszero\n      tag_306\n      jumpi\n        /* \"#utility.yul\":804:883   */\n      tag_307\n      tag_239\n      jump\t// in\n    tag_307:\n        /* \"#utility.yul\":766:885   */\n    tag_306:\n        /* \"#utility.yul\":924:925   */\n      0x00\n        /* \"#utility.yul\":949:1002   */\n      tag_308\n        /* \"#utility.yul\":994:1001   */\n      dup5\n        /* \"#utility.yul\":985:991   */\n      dup3\n        /* \"#utility.yul\":974:983   */\n      dup6\n        /* \"#utility.yul\":970:992   */\n      add\n        /* \"#utility.yul\":949:1002   */\n      tag_243\n      jump\t// in\n    tag_308:\n        /* \"#utility.yul\":939:1002   */\n      swap2\n      pop\n        /* \"#utility.yul\":895:1012   */\n      pop\n        /* \"#utility.yul\":690:1019   */\n      swap3\n      swap2\n      pop\n      pop\n      jump\t// out\n        /* \"#utility.yul\":1025:1143   */\n    tag_244:\n        /* \"#utility.yul\":1112:1136   */\n      tag_310\n        /* \"#utility.yul\":1130:1135   */\n      dup2\n        /* \"#utility.yul\":1112:1136   */\n      tag_241\n      jump\t// in\n    tag_310:\n        /* \"#utility.yul\":1107:1110   */\n      dup3\n        /* \"#utility.yul\":1100:1137   */\n      mstore\n        /* \"#utility.yul\":1025:1143   */\n      pop\n      pop\n      jump\t// out\n        /* \"#utility.yul\":1149:1248   */\n    tag_245:\n        /* \"#utility.yul\":1201:1207   */\n      0x00\n        /* \"#utility.yul\":1235:1240   */\n      dup2\n        /* \"#utility.yul\":1229:1241   */\n      mload\n        /* \"#utility.yul\":1219:1241   */\n      swap1\n      pop\n        /* \"#utility.yul\":1149:1248   */\n      swap2\n      swap1\n      pop\n      jump\t// out\n        /* \"#utility.yul\":1254:1423   */\n    tag_246:\n        /* \"#utility.yul\":1338:1349   */\n      0x00\n        /* \"#utility.yul\":1372:1378   */\n      dup3\n        /* \"#utility.yul\":1367:1370   */\n      dup3\n        /* \"#utility.yul\":1360:1379   */\n      mstore\n        /* \"#utility.yul\":1412:1416   */\n      0x20\n        /* \"#utility.yul\":1407:1410   */\n      dup3\n        /* \"#utility.yul\":1403:1417   */\n      add\n        /* \"#utility.yul\":1388:1417   */\n      swap1\n      pop\n        /* \"#utility.yul\":1254:1423   */\n      swap3\n      swap2\n      pop\n      pop\n      jump\t// out\n        /* \"#utility.yul\":1429:1568   */\n    tag_247:\n        /* \"#utility.yul\":1518:1524   */\n      dup3\n        /* \"#utility.yul\":1513:1516   */\n      dup2\n        /* \"#utility.yul\":1508:1511   */\n      dup4\n        /* \"#utility.yul\":1502:1525   */\n      mcopy\n        /* \"#utility.yul\":1559:1560   */\n      0x00\n        /* \"#utility.yul\":1550:1556   */\n      dup4\n        /* \"#utility.yul\":1545:1548   */\n      dup4\n        /* \"#utility.yul\":1541:1557   */\n      add\n        /* \"#utility.yul\":1534:1561   */\n      mstore\n        /* \"#utility.yul\":1429:1568   */\n      pop\n      pop\n      pop\n      jump\t// out\n        /* \"#utility.yul\":1574:1676   */\n    tag_248:\n        /* \"#utility.yul\":1615:1621   */\n      0x00\n        /* \"#utility.yul\":1666:1668   */\n      0x1f\n        /* \"#utility.yul\":1662:1669   */\n      not\n        /* \"#utility.yul\":1657:1659   */\n      0x1f\n        /* \"#utility.yul\":1650:1655   */\n      dup4\n        /* \"#utility.yul\":1646:1660   */\n      add\n        /* \"#utility.yul\":1642:1670   */\n      and\n        /* \"#utility.yul\":1632:1670   */\n      swap1\n      pop\n        /* \"#utility.yul\":1574:1676   */\n      swap2\n      swap1\n      pop\n      jump\t// out\n        /* \"#utility.yul\":1682:2059   */\n    tag_249:\n        /* \"#utility.yul\":1770:1773   */\n      0x00\n        /* \"#utility.yul\":1798:1837   */\n      tag_316\n        /* \"#utility.yul\":1831:1836   */\n      dup3\n        /* \"#utility.yul\":1798:1837   */\n      tag_245\n      jump\t// in\n    tag_316:\n        /* \"#utility.yul\":1853:1924   */\n      tag_317\n        /* \"#utility.yul\":1917:1923   */\n      dup2\n        /* \"#utility.yul\":1912:1915   */\n      dup6\n        /* \"#utility.yul\":1853:1924   */\n      tag_246\n      jump\t// in\n    tag_317:\n        /* \"#utility.yul\":1846:1924   */\n      swap4\n      pop\n        /* \"#utility.yul\":1933:1998   */\n      tag_318\n        /* \"#utility.yul\":1991:1997   */\n      dup2\n        /* \"#utility.yul\":1986:1989   */\n      dup6\n        /* \"#utility.yul\":1979:1983   */\n      0x20\n        /* \"#utility.yul\":1972:1977   */\n      dup7\n        /* \"#utility.yul\":1968:1984   */\n      add\n        /* \"#utility.yul\":1933:1998   */\n      tag_247\n      jump\t// in\n    tag_318:\n        /* \"#utility.yul\":2023:2052   */\n      tag_319\n        /* \"#utility.yul\":2045:2051   */\n      dup2\n        /* \"#utility.yul\":2023:2052   */\n      tag_248\n      jump\t// in\n    tag_319:\n        /* \"#utility.yul\":2018:2021   */\n      dup5\n        /* \"#utility.yul\":2014:2053   */\n      add\n        /* \"#utility.yul\":2007:2053   */\n      swap2\n      pop\n        /* \"#utility.yul\":1774:2059   */\n      pop\n        /* \"#utility.yul\":1682:2059   */\n      swap3\n      swap2\n      pop\n      pop\n      jump\t// out\n        /* \"#utility.yul\":2065:3093   */\n    tag_26:\n        /* \"#utility.yul\":2350:2354   */\n      0x00\n        /* \"#utility.yul\":2388:2391   */\n      0xa0\n        /* \"#utility.yul\":2377:2386   */\n      dup3\n        /* \"#utility.yul\":2373:2392   */\n      add\n        /* \"#utility.yul\":2365:2392   */\n      swap1\n      pop\n        /* \"#utility.yul\":2402:2473   */\n      tag_321\n        /* \"#utility.yul\":2470:2471   */\n      0x00\n        /* \"#utility.yul\":2459:2468   */\n      dup4\n        /* \"#utility.yul\":2455:2472   */\n      add\n        /* \"#utility.yul\":2446:2452   */\n      dup9\n        /* \"#utility.yul\":2402:2473   */\n      tag_244\n      jump\t// in\n    tag_321:\n        /* \"#utility.yul\":2520:2529   */\n      dup2\n        /* \"#utility.yul\":2514:2518   */\n      dup2\n        /* \"#utility.yul\":2510:2530   */\n      sub\n        /* \"#utility.yul\":2505:2507   */\n      0x20\n        /* \"#utility.yul\":2494:2503   */\n      dup4\n        /* \"#utility.yul\":2490:2508   */\n      add\n        /* \"#utility.yul\":2483:2531   */\n      mstore\n        /* \"#utility.yul\":2548:2626   */\n      tag_322\n        /* \"#utility.yul\":2621:2625   */\n      dup2\n        /* \"#utility.yul\":2612:2618   */\n      dup8\n        /* \"#utility.yul\":2548:2626   */\n      tag_249\n      jump\t// in\n    tag_322:\n        /* \"#utility.yul\":2540:2626   */\n      swap1\n      pop\n        /* \"#utility.yul\":2673:2682   */\n      dup2\n        /* \"#utility.yul\":2667:2671   */\n      dup2\n        /* \"#utility.yul\":2663:2683   */\n      sub\n        /* \"#utility.yul\":2658:2660   */\n      0x40\n        /* \"#utility.yul\":2647:2656   */\n      dup4\n        /* \"#utility.yul\":2643:2661   */\n      add\n        /* \"#utility.yul\":2636:2684   */\n      mstore\n        /* \"#utility.yul\":2701:2779   */\n      tag_323\n        /* \"#utility.yul\":2774:2778   */\n      dup2\n        /* \"#utility.yul\":2765:2771   */\n      dup7\n        /* \"#utility.yul\":2701:2779   */\n      tag_249\n      jump\t// in\n    tag_323:\n        /* \"#utility.yul\":2693:2779   */\n      swap1\n      pop\n        /* \"#utility.yul\":2826:2835   */\n      dup2\n        /* \"#utility.yul\":2820:2824   */\n      dup2\n        /* \"#utility.yul\":2816:2836   */\n      sub\n        /* \"#utility.yul\":2811:2813   */\n      0x60\n        /* \"#utility.yul\":2800:2809   */\n      dup4\n        /* \"#utility.yul\":2796:2814   */\n      add\n        /* \"#utility.yul\":2789:2837   */\n      mstore\n        /* \"#utility.yul\":2854:2932   */\n      tag_324\n        /* \"#utility.yul\":2927:2931   */\n      dup2\n        /* \"#utility.yul\":2918:2924   */\n      dup6\n        /* \"#utility.yul\":2854:2932   */\n      tag_249\n      jump\t// in\n    tag_324:\n        /* \"#utility.yul\":2846:2932   */\n      swap1\n      pop\n        /* \"#utility.yul\":2980:2989   */\n      dup2\n        /* \"#utility.yul\":2974:2978   */\n      dup2\n        /* \"#utility.yul\":2970:2990   */\n      sub\n        /* \"#utility.yul\":2964:2967   */\n      0x80\n        /* \"#utility.yul\":2953:2962   */\n      dup4\n        /* \"#utility.yul\":2949:2968   */\n      add\n        /* \"#utility.yul\":2942:2991   */\n      mstore\n        /* \"#utility.yul\":3008:3086   */\n      tag_325\n        /* \"#utility.yul\":3081:3085   */\n      dup2\n        /* \"#utility.yul\":3072:3078   */\n      dup5\n        /* \"#utility.yul\":3008:3086   */\n      tag_249\n      jump\t// in\n    tag_325:\n        /* \"#utility.yul\":3000:3086   */\n      swap1\n      pop\n        /* \"#utility.yul\":2065:3093   */\n      swap7\n      swap6\n      pop\n      pop\n      pop\n      pop\n      pop\n      pop\n      jump\t// out\n        /* \"#utility.yul\":3099:3226   */\n    tag_250:\n        /* \"#utility.yul\":3187:3193   */\n      0x00\n        /* \"#utility.yul\":3215:3219   */\n      0x03\n        /* \"#utility.yul\":3205:3219   */\n      swap1\n      pop\n        /* \"#utility.yul\":3099:3226   */\n      swap2\n      swap1\n      pop\n      jump\t// out\n        /* \"#utility.yul\":3232:3398   */\n    tag_251:\n        /* \"#utility.yul\":3352:3363   */\n      0x00\n        /* \"#utility.yul\":3389:3392   */\n      dup2\n        /* \"#utility.yul\":3374:3392   */\n      swap1\n      pop\n        /* \"#utility.yul\":3232:3398   */\n      swap3\n      swap2\n      pop\n      pop\n      jump\t// out\n        /* \"#utility.yul\":3404:3525   */\n    tag_252:\n        /* \"#utility.yul\":3492:3496   */\n      0x00\n        /* \"#utility.yul\":3515:3518   */\n      dup2\n        /* \"#utility.yul\":3507:3518   */\n      swap1\n      pop\n        /* \"#utility.yul\":3404:3525   */\n      swap2\n      swap1\n      pop\n      jump\t// out\n        /* \"#utility.yul\":3531:3639   */\n    tag_253:\n        /* \"#utility.yul\":3608:3632   */\n      tag_330\n        /* \"#utility.yul\":3626:3631   */\n      dup2\n        /* \"#utility.yul\":3608:3632   */\n      tag_241\n      jump\t// in\n    tag_330:\n        /* \"#utility.yul\":3603:3606   */\n      dup3\n        /* \"#utility.yul\":3596:3633   */\n      mstore\n        /* \"#utility.yul\":3531:3639   */\n      pop\n      pop\n      jump\t// out\n        /* \"#utility.yul\":3645:3804   */\n    tag_254:\n        /* \"#utility.yul\":3719:3730   */\n      0x00\n        /* \"#utility.yul\":3753:3759   */\n      dup3\n        /* \"#utility.yul\":3748:3751   */\n      dup3\n        /* \"#utility.yul\":3741:3760   */\n      mstore\n        /* \"#utility.yul\":3793:3797   */\n      0x20\n        /* \"#utility.yul\":3788:3791   */\n      dup3\n        /* \"#utility.yul\":3784:3798   */\n      add\n        /* \"#utility.yul\":3769:3798   */\n      swap1\n      pop\n        /* \"#utility.yul\":3645:3804   */\n      swap3\n      swap2\n      pop\n      pop\n      jump\t// out\n        /* \"#utility.yul\":3810:4167   */\n    tag_255:\n        /* \"#utility.yul\":3888:3891   */\n      0x00\n        /* \"#utility.yul\":3916:3955   */\n      tag_333\n        /* \"#utility.yul\":3949:3954   */\n      dup3\n        /* \"#utility.yul\":3916:3955   */\n      tag_245\n      jump\t// in\n    tag_333:\n        /* \"#utility.yul\":3971:4032   */\n      tag_334\n        /* \"#utility.yul\":4025:4031   */\n      dup2\n        /* \"#utility.yul\":4020:4023   */\n      dup6\n        /* \"#utility.yul\":3971:4032   */\n      tag_254\n      jump\t// in\n    tag_334:\n        /* \"#utility.yul\":3964:4032   */\n      swap4\n      pop\n        /* \"#utility.yul\":4041:4106   */\n      tag_335\n        /* \"#utility.yul\":4099:4105   */\n      dup2\n        /* \"#utility.yul\":4094:4097   */\n      dup6\n        /* \"#utility.yul\":4087:4091   */\n      0x20\n        /* \"#utility.yul\":4080:4085   */\n      dup7\n        /* \"#utility.yul\":4076:4092   */\n      add\n        /* \"#utility.yul\":4041:4106   */\n      tag_247\n      jump\t// in\n    tag_335:\n        /* \"#utility.yul\":4131:4160   */\n      tag_336\n        /* \"#utility.yul\":4153:4159   */\n      dup2\n        /* \"#utility.yul\":4131:4160   */\n      tag_248\n      jump\t// in\n    tag_336:\n        /* \"#utility.yul\":4126:4129   */\n      dup5\n        /* \"#utility.yul\":4122:4161   */\n      add\n        /* \"#utility.yul\":4115:4161   */\n      swap2\n      pop\n        /* \"#utility.yul\":3892:4167   */\n      pop\n        /* \"#utility.yul\":3810:4167   */\n      swap3\n      swap2\n      pop\n      pop\n      jump\t// out\n        /* \"#utility.yul\":4233:5572   */\n    tag_256:\n        /* \"#utility.yul\":4338:4341   */\n      0x00\n        /* \"#utility.yul\":4374:4378   */\n      0xa0\n        /* \"#utility.yul\":4369:4372   */\n      dup4\n        /* \"#utility.yul\":4365:4379   */\n      add\n        /* \"#utility.yul\":4459:4463   */\n      0x00\n        /* \"#utility.yul\":4452:4457   */\n      dup4\n        /* \"#utility.yul\":4448:4464   */\n      add\n        /* \"#utility.yul\":4442:4465   */\n      mload\n        /* \"#utility.yul\":4478:4541   */\n      tag_338\n        /* \"#utility.yul\":4535:4539   */\n      0x00\n        /* \"#utility.yul\":4530:4533   */\n      dup7\n        /* \"#utility.yul\":4526:4540   */\n      add\n        /* \"#utility.yul\":4512:4524   */\n      dup3\n        /* \"#utility.yul\":4478:4541   */\n      tag_253\n      jump\t// in\n    tag_338:\n        /* \"#utility.yul\":4389:4551   */\n      pop\n        /* \"#utility.yul\":4633:4637   */\n      0x20\n        /* \"#utility.yul\":4626:4631   */\n      dup4\n        /* \"#utility.yul\":4622:4638   */\n      add\n        /* \"#utility.yul\":4616:4639   */\n      mload\n        /* \"#utility.yul\":4686:4689   */\n      dup5\n        /* \"#utility.yul\":4680:4684   */\n      dup3\n        /* \"#utility.yul\":4676:4690   */\n      sub\n        /* \"#utility.yul\":4669:4673   */\n      0x20\n        /* \"#utility.yul\":4664:4667   */\n      dup7\n        /* \"#utility.yul\":4660:4674   */\n      add\n        /* \"#utility.yul\":4653:4691   */\n      mstore\n        /* \"#utility.yul\":4712:4785   */\n      tag_339\n        /* \"#utility.yul\":4780:4784   */\n      dup3\n        /* \"#utility.yul\":4766:4778   */\n      dup3\n        /* \"#utility.yul\":4712:4785   */\n      tag_255\n      jump\t// in\n    tag_339:\n        /* \"#utility.yul\":4704:4785   */\n      swap2\n      pop\n        /* \"#utility.yul\":4561:4796   */\n      pop\n        /* \"#utility.yul\":4885:4889   */\n      0x40\n        /* \"#utility.yul\":4878:4883   */\n      dup4\n        /* \"#utility.yul\":4874:4890   */\n      add\n        /* \"#utility.yul\":4868:4891   */\n      mload\n        /* \"#utility.yul\":4938:4941   */\n      dup5\n        /* \"#utility.yul\":4932:4936   */\n      dup3\n        /* \"#utility.yul\":4928:4942   */\n      sub\n        /* \"#utility.yul\":4921:4925   */\n      0x40\n        /* \"#utility.yul\":4916:4919   */\n      dup7\n        /* \"#utility.yul\":4912:4926   */\n      add\n        /* \"#utility.yul\":4905:4943   */\n      mstore\n        /* \"#utility.yul\":4964:5037   */\n      tag_340\n        /* \"#utility.yul\":5032:5036   */\n      dup3\n        /* \"#utility.yul\":5018:5030   */\n      dup3\n        /* \"#utility.yul\":4964:5037   */\n      tag_255\n      jump\t// in\n    tag_340:\n        /* \"#utility.yul\":4956:5037   */\n      swap2\n      pop\n        /* \"#utility.yul\":4806:5048   */\n      pop\n        /* \"#utility.yul\":5131:5135   */\n      0x60\n        /* \"#utility.yul\":5124:5129   */\n      dup4\n        /* \"#utility.yul\":5120:5136   */\n      add\n        /* \"#utility.yul\":5114:5137   */\n      mload\n        /* \"#utility.yul\":5184:5187   */\n      dup5\n        /* \"#utility.yul\":5178:5182   */\n      dup3\n        /* \"#utility.yul\":5174:5188   */\n      sub\n        /* \"#utility.yul\":5167:5171   */\n      0x60\n        /* \"#utility.yul\":5162:5165   */\n      dup7\n        /* \"#utility.yul\":5158:5172   */\n      add\n        /* \"#utility.yul\":5151:5189   */\n      mstore\n        /* \"#utility.yul\":5210:5283   */\n      tag_341\n        /* \"#utility.yul\":5278:5282   */\n      dup3\n        /* \"#utility.yul\":5264:5276   */\n      dup3\n        /* \"#utility.yul\":5210:5283   */\n      tag_255\n      jump\t// in\n    tag_341:\n        /* \"#utility.yul\":5202:5283   */\n      swap2\n      pop\n        /* \"#utility.yul\":5058:5294   */\n      pop\n        /* \"#utility.yul\":5382:5386   */\n      0x80\n        /* \"#utility.yul\":5375:5380   */\n      dup4\n        /* \"#utility.yul\":5371:5387   */\n      add\n        /* \"#utility.yul\":5365:5388   */\n      mload\n        /* \"#utility.yul\":5435:5438   */\n      dup5\n        /* \"#utility.yul\":5429:5433   */\n      dup3\n        /* \"#utility.yul\":5425:5439   */\n      sub\n        /* \"#utility.yul\":5418:5422   */\n      0x80\n        /* \"#utility.yul\":5413:5416   */\n      dup7\n        /* \"#utility.yul\":5409:5423   */\n      add\n        /* \"#utility.yul\":5402:5440   */\n      mstore\n        /* \"#utility.yul\":5461:5534   */\n      tag_342\n        /* \"#utility.yul\":5529:5533   */\n      dup3\n        /* \"#utility.yul\":5515:5527   */\n      dup3\n        /* \"#utility.yul\":5461:5534   */\n      tag_255\n      jump\t// in\n    tag_342:\n        /* \"#utility.yul\":5453:5534   */\n      swap2\n      pop\n        /* \"#utility.yul\":5304:5545   */\n      pop\n        /* \"#utility.yul\":5562:5566   */\n      dup1\n        /* \"#utility.yul\":5555:5566   */\n      swap2\n      pop\n        /* \"#utility.yul\":4343:5572   */\n      pop\n        /* \"#utility.yul\":4233:5572   */\n      swap3\n      swap2\n      pop\n      pop\n      jump\t// out\n        /* \"#utility.yul\":5578:5826   */\n    tag_257:\n        /* \"#utility.yul\":5693:5703   */\n      0x00\n        /* \"#utility.yul\":5728:5820   */\n      tag_344\n        /* \"#utility.yul\":5816:5819   */\n      dup4\n        /* \"#utility.yul\":5808:5814   */\n      dup4\n        /* \"#utility.yul\":5728:5820   */\n      tag_256\n      jump\t// in\n    tag_344:\n        /* \"#utility.yul\":5714:5820   */\n      swap1\n      pop\n        /* \"#utility.yul\":5578:5826   */\n      swap3\n      swap2\n      pop\n      pop\n      jump\t// out\n        /* \"#utility.yul\":5832:5966   */\n    tag_258:\n        /* \"#utility.yul\":5923:5927   */\n      0x00\n        /* \"#utility.yul\":5955:5959   */\n      0x20\n        /* \"#utility.yul\":5950:5953   */\n      dup3\n        /* \"#utility.yul\":5946:5960   */\n      add\n        /* \"#utility.yul\":5938:5960   */\n      swap1\n      pop\n        /* \"#utility.yul\":5832:5966   */\n      swap2\n      swap1\n      pop\n      jump\t// out\n        /* \"#utility.yul\":6038:7121   */\n    tag_259:\n        /* \"#utility.yul\":6199:6202   */\n      0x00\n        /* \"#utility.yul\":6228:6303   */\n      tag_347\n        /* \"#utility.yul\":6297:6302   */\n      dup3\n        /* \"#utility.yul\":6228:6303   */\n      tag_250\n      jump\t// in\n    tag_347:\n        /* \"#utility.yul\":6319:6426   */\n      tag_348\n        /* \"#utility.yul\":6419:6425   */\n      dup2\n        /* \"#utility.yul\":6414:6417   */\n      dup6\n        /* \"#utility.yul\":6319:6426   */\n      tag_251\n      jump\t// in\n    tag_348:\n        /* \"#utility.yul\":6312:6426   */\n      swap4\n      pop\n        /* \"#utility.yul\":6452:6455   */\n      dup4\n        /* \"#utility.yul\":6497:6501   */\n      0x20\n        /* \"#utility.yul\":6489:6495   */\n      dup3\n        /* \"#utility.yul\":6485:6502   */\n      mul\n        /* \"#utility.yul\":6480:6483   */\n      dup6\n        /* \"#utility.yul\":6476:6503   */\n      add\n        /* \"#utility.yul\":6527:6604   */\n      tag_349\n        /* \"#utility.yul\":6598:6603   */\n      dup6\n        /* \"#utility.yul\":6527:6604   */\n      tag_252\n      jump\t// in\n    tag_349:\n        /* \"#utility.yul\":6627:6634   */\n      dup1\n        /* \"#utility.yul\":6658:6659   */\n      0x00\n        /* \"#utility.yul\":6643:7076   */\n    tag_350:\n        /* \"#utility.yul\":6668:6674   */\n      dup6\n        /* \"#utility.yul\":6665:6666   */\n      dup2\n        /* \"#utility.yul\":6662:6675   */\n      lt\n        /* \"#utility.yul\":6643:7076   */\n      iszero\n      tag_352\n      jumpi\n        /* \"#utility.yul\":6739:6748   */\n      dup5\n        /* \"#utility.yul\":6733:6737   */\n      dup5\n        /* \"#utility.yul\":6729:6749   */\n      sub\n        /* \"#utility.yul\":6724:6727   */\n      dup10\n        /* \"#utility.yul\":6717:6750   */\n      mstore\n        /* \"#utility.yul\":6790:6796   */\n      dup2\n        /* \"#utility.yul\":6784:6797   */\n      mload\n        /* \"#utility.yul\":6818:6928   */\n      tag_353\n        /* \"#utility.yul\":6923:6927   */\n      dup6\n        /* \"#utility.yul\":6908:6921   */\n      dup3\n        /* \"#utility.yul\":6818:6928   */\n      tag_257\n      jump\t// in\n    tag_353:\n        /* \"#utility.yul\":6810:6928   */\n      swap5\n      pop\n        /* \"#utility.yul\":6951:7032   */\n      tag_354\n        /* \"#utility.yul\":7025:7031   */\n      dup4\n        /* \"#utility.yul\":6951:7032   */\n      tag_258\n      jump\t// in\n    tag_354:\n        /* \"#utility.yul\":6941:7032   */\n      swap3\n      pop\n        /* \"#utility.yul\":7061:7065   */\n      0x20\n        /* \"#utility.yul\":7056:7059   */\n      dup11\n        /* \"#utility.yul\":7052:7066   */\n      add\n        /* \"#utility.yul\":7045:7066   */\n      swap10\n      pop\n        /* \"#utility.yul\":6703:7076   */\n      pop\n        /* \"#utility.yul\":6690:6691   */\n      0x01\n        /* \"#utility.yul\":6687:6688   */\n      dup2\n        /* \"#utility.yul\":6683:6692   */\n      add\n        /* \"#utility.yul\":6678:6692   */\n      swap1\n      pop\n        /* \"#utility.yul\":6643:7076   */\n      jump(tag_350)\n    tag_352:\n        /* \"#utility.yul\":6647:6661   */\n      pop\n        /* \"#utility.yul\":7092:7096   */\n      dup3\n        /* \"#utility.yul\":7085:7096   */\n      swap8\n      pop\n        /* \"#utility.yul\":7112:7115   */\n      dup8\n        /* \"#utility.yul\":7105:7115   */\n      swap6\n      pop\n        /* \"#utility.yul\":6204:7121   */\n      pop\n      pop\n      pop\n      pop\n      pop\n        /* \"#utility.yul\":6038:7121   */\n      swap3\n      swap2\n      pop\n      pop\n      jump\t// out\n        /* \"#utility.yul\":7127:7584   */\n    tag_31:\n        /* \"#utility.yul\":7312:7316   */\n      0x00\n        /* \"#utility.yul\":7350:7352   */\n      0x20\n        /* \"#utility.yul\":7339:7348   */\n      dup3\n        /* \"#utility.yul\":7335:7353   */\n      add\n        /* \"#utility.yul\":7327:7353   */\n      swap1\n      pop\n        /* \"#utility.yul\":7399:7408   */\n      dup2\n        /* \"#utility.yul\":7393:7397   */\n      dup2\n        /* \"#utility.yul\":7389:7409   */\n      sub\n        /* \"#utility.yul\":7385:7386   */\n      0x00\n        /* \"#utility.yul\":7374:7383   */\n      dup4\n        /* \"#utility.yul\":7370:7387   */\n      add\n        /* \"#utility.yul\":7363:7410   */\n      mstore\n        /* \"#utility.yul\":7427:7577   */\n      tag_356\n        /* \"#utility.yul\":7572:7576   */\n      dup2\n        /* \"#utility.yul\":7563:7569   */\n      dup5\n        /* \"#utility.yul\":7427:7577   */\n      tag_259\n      jump\t// in\n    tag_356:\n        /* \"#utility.yul\":7419:7577   */\n      swap1\n      pop\n        /* \"#utility.yul\":7127:7584   */\n      swap3\n      swap2\n      pop\n      pop\n      jump\t// out\n        /* \"#utility.yul\":7590:7719   */\n    tag_260:\n        /* \"#utility.yul\":7680:7686   */\n      0x00\n        /* \"#utility.yul\":7708:7712   */\n      0x03\n        /* \"#utility.yul\":7698:7712   */\n      swap1\n      pop\n        /* \"#utility.yul\":7590:7719   */\n      swap2\n      swap1\n      pop\n      jump\t// out\n        /* \"#utility.yul\":7725:7893   */\n    tag_261:\n        /* \"#utility.yul\":7847:7858   */\n      0x00\n        /* \"#utility.yul\":7884:7887   */\n      dup2\n        /* \"#utility.yul\":7869:7887   */\n      swap1\n      pop\n        /* \"#utility.yul\":7725:7893   */\n      swap3\n      swap2\n      pop\n      pop\n      jump\t// out\n        /* \"#utility.yul\":7899:8022   */\n    tag_262:\n        /* \"#utility.yul\":7989:7993   */\n      0x00\n        /* \"#utility.yul\":8012:8015   */\n      dup2\n        /* \"#utility.yul\":8004:8015   */\n      swap1\n      pop\n        /* \"#utility.yul\":7899:8022   */\n      swap2\n      swap1\n      pop\n      jump\t// out\n        /* \"#utility.yul\":8092:9445   */\n    tag_263:\n        /* \"#utility.yul\":8201:8204   */\n      0x00\n        /* \"#utility.yul\":8237:8241   */\n      0xa0\n        /* \"#utility.yul\":8232:8235   */\n      dup4\n        /* \"#utility.yul\":8228:8242   */\n      add\n        /* \"#utility.yul\":8322:8326   */\n      0x00\n        /* \"#utility.yul\":8315:8320   */\n      dup4\n        /* \"#utility.yul\":8311:8327   */\n      add\n        /* \"#utility.yul\":8305:8328   */\n      mload\n        /* \"#utility.yul\":8341:8404   */\n      tag_361\n        /* \"#utility.yul\":8398:8402   */\n      0x00\n        /* \"#utility.yul\":8393:8396   */\n      dup7\n        /* \"#utility.yul\":8389:8403   */\n      add\n        /* \"#utility.yul\":8375:8387   */\n      dup3\n        /* \"#utility.yul\":8341:8404   */\n      tag_253\n      jump\t// in\n    tag_361:\n        /* \"#utility.yul\":8252:8414   */\n      pop\n        /* \"#utility.yul\":8496:8500   */\n      0x20\n        /* \"#utility.yul\":8489:8494   */\n      dup4\n        /* \"#utility.yul\":8485:8501   */\n      add\n        /* \"#utility.yul\":8479:8502   */\n      mload\n        /* \"#utility.yul\":8549:8552   */\n      dup5\n        /* \"#utility.yul\":8543:8547   */\n      dup3\n        /* \"#utility.yul\":8539:8553   */\n      sub\n        /* \"#utility.yul\":8532:8536   */\n      0x20\n        /* \"#utility.yul\":8527:8530   */\n      dup7\n        /* \"#utility.yul\":8523:8537   */\n      add\n        /* \"#utility.yul\":8516:8554   */\n      mstore\n        /* \"#utility.yul\":8575:8648   */\n      tag_362\n        /* \"#utility.yul\":8643:8647   */\n      dup3\n        /* \"#utility.yul\":8629:8641   */\n      dup3\n        /* \"#utility.yul\":8575:8648   */\n      tag_255\n      jump\t// in\n    tag_362:\n        /* \"#utility.yul\":8567:8648   */\n      swap2\n      pop\n        /* \"#utility.yul\":8424:8659   */\n      pop\n        /* \"#utility.yul\":8743:8747   */\n      0x40\n        /* \"#utility.yul\":8736:8741   */\n      dup4\n        /* \"#utility.yul\":8732:8748   */\n      add\n        /* \"#utility.yul\":8726:8749   */\n      mload\n        /* \"#utility.yul\":8796:8799   */\n      dup5\n        /* \"#utility.yul\":8790:8794   */\n      dup3\n        /* \"#utility.yul\":8786:8800   */\n      sub\n        /* \"#utility.yul\":8779:8783   */\n      0x40\n        /* \"#utility.yul\":8774:8777   */\n      dup7\n        /* \"#utility.yul\":8770:8784   */\n      add\n        /* \"#utility.yul\":8763:8801   */\n      mstore\n        /* \"#utility.yul\":8822:8895   */\n      tag_363\n        /* \"#utility.yul\":8890:8894   */\n      dup3\n        /* \"#utility.yul\":8876:8888   */\n      dup3\n        /* \"#utility.yul\":8822:8895   */\n      tag_255\n      jump\t// in\n    tag_363:\n        /* \"#utility.yul\":8814:8895   */\n      swap2\n      pop\n        /* \"#utility.yul\":8669:8906   */\n      pop\n        /* \"#utility.yul\":9001:9005   */\n      0x60\n        /* \"#utility.yul\":8994:8999   */\n      dup4\n        /* \"#utility.yul\":8990:9006   */\n      add\n        /* \"#utility.yul\":8984:9007   */\n      mload\n        /* \"#utility.yul\":9054:9057   */\n      dup5\n        /* \"#utility.yul\":9048:9052   */\n      dup3\n        /* \"#utility.yul\":9044:9058   */\n      sub\n        /* \"#utility.yul\":9037:9041   */\n      0x60\n        /* \"#utility.yul\":9032:9035   */\n      dup7\n        /* \"#utility.yul\":9028:9042   */\n      add\n        /* \"#utility.yul\":9021:9059   */\n      mstore\n        /* \"#utility.yul\":9080:9153   */\n      tag_364\n        /* \"#utility.yul\":9148:9152   */\n      dup3\n        /* \"#utility.yul\":9134:9146   */\n      dup3\n        /* \"#utility.yul\":9080:9153   */\n      tag_255\n      jump\t// in\n    tag_364:\n        /* \"#utility.yul\":9072:9153   */\n      swap2\n      pop\n        /* \"#utility.yul\":8916:9164   */\n      pop\n        /* \"#utility.yul\":9255:9259   */\n      0x80\n        /* \"#utility.yul\":9248:9253   */\n      dup4\n        /* \"#utility.yul\":9244:9260   */\n      add\n        /* \"#utility.yul\":9238:9261   */\n      mload\n        /* \"#utility.yul\":9308:9311   */\n      dup5\n        /* \"#utility.yul\":9302:9306   */\n      dup3\n        /* \"#utility.yul\":9298:9312   */\n      sub\n        /* \"#utility.yul\":9291:9295   */\n      0x80\n        /* \"#utility.yul\":9286:9289   */\n      dup7\n        /* \"#utility.yul\":9282:9296   */\n      add\n        /* \"#utility.yul\":9275:9313   */\n      mstore\n        /* \"#utility.yul\":9334:9407   */\n      tag_365\n        /* \"#utility.yul\":9402:9406   */\n      dup3\n        /* \"#utility.yul\":9388:9400   */\n      dup3\n        /* \"#utility.yul\":9334:9407   */\n      tag_255\n      jump\t// in\n    tag_365:\n        /* \"#utility.yul\":9326:9407   */\n      swap2\n      pop\n        /* \"#utility.yul\":9174:9418   */\n      pop\n        /* \"#utility.yul\":9435:9439   */\n      dup1\n        /* \"#utility.yul\":9428:9439   */\n      swap2\n      pop\n        /* \"#utility.yul\":8206:9445   */\n      pop\n        /* \"#utility.yul\":8092:9445   */\n      swap3\n      swap2\n      pop\n      pop\n      jump\t// out\n        /* \"#utility.yul\":9451:9707   */\n    tag_264:\n        /* \"#utility.yul\":9570:9580   */\n      0x00\n        /* \"#utility.yul\":9605:9701   */\n      tag_367\n        /* \"#utility.yul\":9697:9700   */\n      dup4\n        /* \"#utility.yul\":9689:9695   */\n      dup4\n        /* \"#utility.yul\":9605:9701   */\n      tag_263\n      jump\t// in\n    tag_367:\n        /* \"#utility.yul\":9591:9701   */\n      swap1\n      pop\n        /* \"#utility.yul\":9451:9707   */\n      swap3\n      swap2\n      pop\n      pop\n      jump\t// out\n        /* \"#utility.yul\":9713:9849   */\n    tag_265:\n        /* \"#utility.yul\":9806:9810   */\n      0x00\n        /* \"#utility.yul\":9838:9842   */\n      0x20\n        /* \"#utility.yul\":9833:9836   */\n      dup3\n        /* \"#utility.yul\":9829:9843   */\n      add\n        /* \"#utility.yul\":9821:9843   */\n      swap1\n      pop\n        /* \"#utility.yul\":9713:9849   */\n      swap2\n      swap1\n      pop\n      jump\t// out\n        /* \"#utility.yul\":9925:11024   */\n    tag_266:\n        /* \"#utility.yul\":10090:10093   */\n      0x00\n        /* \"#utility.yul\":10119:10196   */\n      tag_370\n        /* \"#utility.yul\":10190:10195   */\n      dup3\n        /* \"#utility.yul\":10119:10196   */\n      tag_260\n      jump\t// in\n    tag_370:\n        /* \"#utility.yul\":10212:10321   */\n      tag_371\n        /* \"#utility.yul\":10314:10320   */\n      dup2\n        /* \"#utility.yul\":10309:10312   */\n      dup6\n        /* \"#utility.yul\":10212:10321   */\n      tag_261\n      jump\t// in\n    tag_371:\n        /* \"#utility.yul\":10205:10321   */\n      swap4\n      pop\n        /* \"#utility.yul\":10347:10350   */\n      dup4\n        /* \"#utility.yul\":10392:10396   */\n      0x20\n        /* \"#utility.yul\":10384:10390   */\n      dup3\n        /* \"#utility.yul\":10380:10397   */\n      mul\n        /* \"#utility.yul\":10375:10378   */\n      dup6\n        /* \"#utility.yul\":10371:10398   */\n      add\n        /* \"#utility.yul\":10422:10501   */\n      tag_372\n        /* \"#utility.yul\":10495:10500   */\n      dup6\n        /* \"#utility.yul\":10422:10501   */\n      tag_262\n      jump\t// in\n    tag_372:\n        /* \"#utility.yul\":10524:10531   */\n      dup1\n        /* \"#utility.yul\":10555:10556   */\n      0x00\n        /* \"#utility.yul\":10540:10979   */\n    tag_373:\n        /* \"#utility.yul\":10565:10571   */\n      dup6\n        /* \"#utility.yul\":10562:10563   */\n      dup2\n        /* \"#utility.yul\":10559:10572   */\n      lt\n        /* \"#utility.yul\":10540:10979   */\n      iszero\n      tag_375\n      jumpi\n        /* \"#utility.yul\":10636:10645   */\n      dup5\n        /* \"#utility.yul\":10630:10634   */\n      dup5\n        /* \"#utility.yul\":10626:10646   */\n      sub\n        /* \"#utility.yul\":10621:10624   */\n      dup10\n        /* \"#utility.yul\":10614:10647   */\n      mstore\n        /* \"#utility.yul\":10687:10693   */\n      dup2\n        /* \"#utility.yul\":10681:10694   */\n      mload\n        /* \"#utility.yul\":10715:10829   */\n      tag_376\n        /* \"#utility.yul\":10824:10828   */\n      dup6\n        /* \"#utility.yul\":10809:10822   */\n      dup3\n        /* \"#utility.yul\":10715:10829   */\n      tag_264\n      jump\t// in\n    tag_376:\n        /* \"#utility.yul\":10707:10829   */\n      swap5\n      pop\n        /* \"#utility.yul\":10852:10935   */\n      tag_377\n        /* \"#utility.yul\":10928:10934   */\n      dup4\n        /* \"#utility.yul\":10852:10935   */\n      tag_265\n      jump\t// in\n    tag_377:\n        /* \"#utility.yul\":10842:10935   */\n      swap3\n      pop\n        /* \"#utility.yul\":10964:10968   */\n      0x20\n        /* \"#utility.yul\":10959:10962   */\n      dup11\n        /* \"#utility.yul\":10955:10969   */\n      add\n        /* \"#utility.yul\":10948:10969   */\n      swap10\n      pop\n        /* \"#utility.yul\":10600:10979   */\n      pop\n        /* \"#utility.yul\":10587:10588   */\n      0x01\n        /* \"#utility.yul\":10584:10585   */\n      dup2\n        /* \"#utility.yul\":10580:10589   */\n      add\n        /* \"#utility.yul\":10575:10589   */\n      swap1\n      pop\n        /* \"#utility.yul\":10540:10979   */\n      jump(tag_373)\n    tag_375:\n        /* \"#utility.yul\":10544:10558   */\n      pop\n        /* \"#utility.yul\":10995:10999   */\n      dup3\n        /* \"#utility.yul\":10988:10999   */\n      swap8\n      pop\n        /* \"#utility.yul\":11015:11018   */\n      dup8\n        /* \"#utility.yul\":11008:11018   */\n      swap6\n      pop\n        /* \"#utility.yul\":10095:11024   */\n      pop\n      pop\n      pop\n      pop\n      pop\n        /* \"#utility.yul\":9925:11024   */\n      swap3\n      swap2\n      pop\n      pop\n      jump\t// out\n        /* \"#utility.yul\":11030:11495   */\n    tag_36:\n        /* \"#utility.yul\":11219:11223   */\n      0x00\n        /* \"#utility.yul\":11257:11259   */\n      0x20\n        /* \"#utility.yul\":11246:11255   */\n      dup3\n        /* \"#utility.yul\":11242:11260   */\n      add\n        /* \"#utility.yul\":11234:11260   */\n      swap1\n      pop\n        /* \"#utility.yul\":11306:11315   */\n      dup2\n        /* \"#utility.yul\":11300:11304   */\n      dup2\n        /* \"#utility.yul\":11296:11316   */\n      sub\n        /* \"#utility.yul\":11292:11293   */\n      0x00\n        /* \"#utility.yul\":11281:11290   */\n      dup4\n        /* \"#utility.yul\":11277:11294   */\n      add\n        /* \"#utility.yul\":11270:11317   */\n      mstore\n        /* \"#utility.yul\":11334:11488   */\n      tag_379\n        /* \"#utility.yul\":11483:11487   */\n      dup2\n        /* \"#utility.yul\":11474:11480   */\n      dup5\n        /* \"#utility.yul\":11334:11488   */\n      tag_266\n      jump\t// in\n    tag_379:\n        /* \"#utility.yul\":11326:11488   */\n      swap1\n      pop\n        /* \"#utility.yul\":11030:11495   */\n      swap3\n      swap2\n      pop\n      pop\n      jump\t// out\n        /* \"#utility.yul\":11501:11618   */\n    tag_267:\n        /* \"#utility.yul\":11610:11611   */\n      0x00\n        /* \"#utility.yul\":11607:11608   */\n      dup1\n        /* \"#utility.yul\":11600:11612   */\n      revert\n        /* \"#utility.yul\":11624:11741   */\n    tag_268:\n        /* \"#utility.yul\":11733:11734   */\n      0x00\n        /* \"#utility.yul\":11730:11731   */\n      dup1\n        /* \"#utility.yul\":11723:11735   */\n      revert\n        /* \"#utility.yul\":11747:11864   */\n    tag_269:\n        /* \"#utility.yul\":11856:11857   */\n      0x00\n        /* \"#utility.yul\":11853:11854   */\n      dup1\n        /* \"#utility.yul\":11846:11858   */\n      revert\n        /* \"#utility.yul\":11884:12437   */\n    tag_270:\n        /* \"#utility.yul\":11942:11950   */\n      0x00\n        /* \"#utility.yul\":11952:11958   */\n      dup1\n        /* \"#utility.yul\":12002:12005   */\n      dup4\n        /* \"#utility.yul\":11995:11999   */\n      0x1f\n        /* \"#utility.yul\":11987:11993   */\n      dup5\n        /* \"#utility.yul\":11983:12000   */\n      add\n        /* \"#utility.yul\":11979:12006   */\n      slt\n        /* \"#utility.yul\":11969:12091   */\n      tag_384\n      jumpi\n        /* \"#utility.yul\":12010:12089   */\n      tag_385\n      tag_267\n      jump\t// in\n    tag_385:\n        /* \"#utility.yul\":11969:12091   */\n    tag_384:\n        /* \"#utility.yul\":12123:12129   */\n      dup3\n        /* \"#utility.yul\":12110:12130   */\n      calldataload\n        /* \"#utility.yul\":12100:12130   */\n      swap1\n      pop\n        /* \"#utility.yul\":12153:12171   */\n      0xffffffffffffffff\n        /* \"#utility.yul\":12145:12151   */\n      dup2\n        /* \"#utility.yul\":12142:12172   */\n      gt\n        /* \"#utility.yul\":12139:12256   */\n      iszero\n      tag_386\n      jumpi\n        /* \"#utility.yul\":12175:12254   */\n      tag_387\n      tag_268\n      jump\t// in\n    tag_387:\n        /* \"#utility.yul\":12139:12256   */\n    tag_386:\n        /* \"#utility.yul\":12289:12293   */\n      0x20\n        /* \"#utility.yul\":12281:12287   */\n      dup4\n        /* \"#utility.yul\":12277:12294   */\n      add\n        /* \"#utility.yul\":12265:12294   */\n      swap2\n      pop\n        /* \"#utility.yul\":12343:12346   */\n      dup4\n        /* \"#utility.yul\":12335:12339   */\n      0x01\n        /* \"#utility.yul\":12327:12333   */\n      dup3\n        /* \"#utility.yul\":12323:12340   */\n      mul\n        /* \"#utility.yul\":12313:12321   */\n      dup4\n        /* \"#utility.yul\":12309:12341   */\n      add\n        /* \"#utility.yul\":12306:12347   */\n      gt\n        /* \"#utility.yul\":12303:12431   */\n      iszero\n      tag_388\n      jumpi\n        /* \"#utility.yul\":12350:12429   */\n      tag_389\n      tag_269\n      jump\t// in\n    tag_389:\n        /* \"#utility.yul\":12303:12431   */\n    tag_388:\n        /* \"#utility.yul\":11884:12437   */\n      swap3\n      pop\n      swap3\n      swap1\n      pop\n      jump\t// out\n        /* \"#utility.yul\":12443:12972   */\n    tag_40:\n        /* \"#utility.yul\":12514:12520   */\n      0x00\n        /* \"#utility.yul\":12522:12528   */\n      dup1\n        /* \"#utility.yul\":12571:12573   */\n      0x20\n        /* \"#utility.yul\":12559:12568   */\n      dup4\n        /* \"#utility.yul\":12550:12557   */\n      dup6\n        /* \"#utility.yul\":12546:12569   */\n      sub\n        /* \"#utility.yul\":12542:12574   */\n      slt\n        /* \"#utility.yul\":12539:12658   */\n      iszero\n      tag_391\n      jumpi\n        /* \"#utility.yul\":12577:12656   */\n      tag_392\n      tag_239\n      jump\t// in\n    tag_392:\n        /* \"#utility.yul\":12539:12658   */\n    tag_391:\n        /* \"#utility.yul\":12725:12726   */\n      0x00\n        /* \"#utility.yul\":12714:12723   */\n      dup4\n        /* \"#utility.yul\":12710:12727   */\n      add\n        /* \"#utility.yul\":12697:12728   */\n      calldataload\n        /* \"#utility.yul\":12755:12773   */\n      0xffffffffffffffff\n        /* \"#utility.yul\":12747:12753   */\n      dup2\n        /* \"#utility.yul\":12744:12774   */\n      gt\n        /* \"#utility.yul\":12741:12858   */\n      iszero\n      tag_393\n      jumpi\n        /* \"#utility.yul\":12777:12856   */\n      tag_394\n      tag_240\n      jump\t// in\n    tag_394:\n        /* \"#utility.yul\":12741:12858   */\n    tag_393:\n        /* \"#utility.yul\":12890:12955   */\n      tag_395\n        /* \"#utility.yul\":12947:12954   */\n      dup6\n        /* \"#utility.yul\":12938:12944   */\n      dup3\n        /* \"#utility.yul\":12927:12936   */\n      dup7\n        /* \"#utility.yul\":12923:12945   */\n      add\n        /* \"#utility.yul\":12890:12955   */\n      tag_270\n      jump\t// in\n    tag_395:\n        /* \"#utility.yul\":12872:12955   */\n      swap3\n      pop\n      swap3\n      pop\n        /* \"#utility.yul\":12668:12965   */\n      pop\n        /* \"#utility.yul\":12443:12972   */\n      swap3\n      pop\n      swap3\n      swap1\n      pop\n      jump\t// out\n        /* \"#utility.yul\":12978:14689   */\n    tag_45:\n        /* \"#utility.yul\":13121:13127   */\n      0x00\n        /* \"#utility.yul\":13129:13135   */\n      dup1\n        /* \"#utility.yul\":13137:13143   */\n      0x00\n        /* \"#utility.yul\":13145:13151   */\n      dup1\n        /* \"#utility.yul\":13153:13159   */\n      0x00\n        /* \"#utility.yul\":13161:13167   */\n      dup1\n        /* \"#utility.yul\":13169:13175   */\n      0x00\n        /* \"#utility.yul\":13177:13183   */\n      dup1\n        /* \"#utility.yul\":13185:13191   */\n      0x00\n        /* \"#utility.yul\":13234:13237   */\n      0xa0\n        /* \"#utility.yul\":13222:13231   */\n      dup11\n        /* \"#utility.yul\":13213:13220   */\n      dup13\n        /* \"#utility.yul\":13209:13232   */\n      sub\n        /* \"#utility.yul\":13205:13238   */\n      slt\n        /* \"#utility.yul\":13202:13322   */\n      iszero\n      tag_397\n      jumpi\n        /* \"#utility.yul\":13241:13320   */\n      tag_398\n      tag_239\n      jump\t// in\n    tag_398:\n        /* \"#utility.yul\":13202:13322   */\n    tag_397:\n        /* \"#utility.yul\":13389:13390   */\n      0x00\n        /* \"#utility.yul\":13378:13387   */\n      dup11\n        /* \"#utility.yul\":13374:13391   */\n      add\n        /* \"#utility.yul\":13361:13392   */\n      calldataload\n        /* \"#utility.yul\":13419:13437   */\n      0xffffffffffffffff\n        /* \"#utility.yul\":13411:13417   */\n      dup2\n        /* \"#utility.yul\":13408:13438   */\n      gt\n        /* \"#utility.yul\":13405:13522   */\n      iszero\n      tag_399\n      jumpi\n        /* \"#utility.yul\":13441:13520   */\n      tag_400\n      tag_240\n      jump\t// in\n    tag_400:\n        /* \"#utility.yul\":13405:13522   */\n    tag_399:\n        /* \"#utility.yul\":13554:13619   */\n      tag_401\n        /* \"#utility.yul\":13611:13618   */\n      dup13\n        /* \"#utility.yul\":13602:13608   */\n      dup3\n        /* \"#utility.yul\":13591:13600   */\n      dup14\n        /* \"#utility.yul\":13587:13609   */\n      add\n        /* \"#utility.yul\":13554:13619   */\n      tag_270\n      jump\t// in\n    tag_401:\n        /* \"#utility.yul\":13536:13619   */\n      swap10\n      pop\n      swap10\n      pop\n        /* \"#utility.yul\":13332:13629   */\n      pop\n        /* \"#utility.yul\":13696:13698   */\n      0x20\n        /* \"#utility.yul\":13685:13694   */\n      dup11\n        /* \"#utility.yul\":13681:13699   */\n      add\n        /* \"#utility.yul\":13668:13700   */\n      calldataload\n        /* \"#utility.yul\":13727:13745   */\n      0xffffffffffffffff\n        /* \"#utility.yul\":13719:13725   */\n      dup2\n        /* \"#utility.yul\":13716:13746   */\n      gt\n        /* \"#utility.yul\":13713:13830   */\n      iszero\n      tag_402\n      jumpi\n        /* \"#utility.yul\":13749:13828   */\n      tag_403\n      tag_240\n      jump\t// in\n    tag_403:\n        /* \"#utility.yul\":13713:13830   */\n    tag_402:\n        /* \"#utility.yul\":13862:13927   */\n      tag_404\n        /* \"#utility.yul\":13919:13926   */\n      dup13\n        /* \"#utility.yul\":13910:13916   */\n      dup3\n        /* \"#utility.yul\":13899:13908   */\n      dup14\n        /* \"#utility.yul\":13895:13917   */\n      add\n        /* \"#utility.yul\":13862:13927   */\n      tag_270\n      jump\t// in\n    tag_404:\n        /* \"#utility.yul\":13844:13927   */\n      swap8\n      pop\n      swap8\n      pop\n        /* \"#utility.yul\":13639:13937   */\n      pop\n        /* \"#utility.yul\":14004:14006   */\n      0x40\n        /* \"#utility.yul\":13993:14002   */\n      dup11\n        /* \"#utility.yul\":13989:14007   */\n      add\n        /* \"#utility.yul\":13976:14008   */\n      calldataload\n        /* \"#utility.yul\":14035:14053   */\n      0xffffffffffffffff\n        /* \"#utility.yul\":14027:14033   */\n      dup2\n        /* \"#utility.yul\":14024:14054   */\n      gt\n        /* \"#utility.yul\":14021:14138   */\n      iszero\n      tag_405\n      jumpi\n        /* \"#utility.yul\":14057:14136   */\n      tag_406\n      tag_240\n      jump\t// in\n    tag_406:\n        /* \"#utility.yul\":14021:14138   */\n    tag_405:\n        /* \"#utility.yul\":14170:14235   */\n      tag_407\n        /* \"#utility.yul\":14227:14234   */\n      dup13\n        /* \"#utility.yul\":14218:14224   */\n      dup3\n        /* \"#utility.yul\":14207:14216   */\n      dup14\n        /* \"#utility.yul\":14203:14225   */\n      add\n        /* \"#utility.yul\":14170:14235   */\n      tag_270\n      jump\t// in\n    tag_407:\n        /* \"#utility.yul\":14152:14235   */\n      swap6\n      pop\n      swap6\n      pop\n        /* \"#utility.yul\":13947:14245   */\n      pop\n        /* \"#utility.yul\":14312:14314   */\n      0x60\n        /* \"#utility.yul\":14301:14310   */\n      dup11\n        /* \"#utility.yul\":14297:14315   */\n      add\n        /* \"#utility.yul\":14284:14316   */\n      calldataload\n        /* \"#utility.yul\":14343:14361   */\n      0xffffffffffffffff\n        /* \"#utility.yul\":14335:14341   */\n      dup2\n        /* \"#utility.yul\":14332:14362   */\n      gt\n        /* \"#utility.yul\":14329:14446   */\n      iszero\n      tag_408\n      jumpi\n        /* \"#utility.yul\":14365:14444   */\n      tag_409\n      tag_240\n      jump\t// in\n    tag_409:\n        /* \"#utility.yul\":14329:14446   */\n    tag_408:\n        /* \"#utility.yul\":14478:14543   */\n      tag_410\n        /* \"#utility.yul\":14535:14542   */\n      dup13\n        /* \"#utility.yul\":14526:14532   */\n      dup3\n        /* \"#utility.yul\":14515:14524   */\n      dup14\n        /* \"#utility.yul\":14511:14533   */\n      add\n        /* \"#utility.yul\":14478:14543   */\n      tag_270\n      jump\t// in\n    tag_410:\n        /* \"#utility.yul\":14460:14543   */\n      swap4\n      pop\n      swap4\n      pop\n        /* \"#utility.yul\":14255:14553   */\n      pop\n        /* \"#utility.yul\":14592:14595   */\n      0x80\n        /* \"#utility.yul\":14619:14672   */\n      tag_411\n        /* \"#utility.yul\":14664:14671   */\n      dup13\n        /* \"#utility.yul\":14655:14661   */\n      dup3\n        /* \"#utility.yul\":14644:14653   */\n      dup14\n        /* \"#utility.yul\":14640:14662   */\n      add\n        /* \"#utility.yul\":14619:14672   */\n      tag_243\n      jump\t// in\n    tag_411:\n        /* \"#utility.yul\":14609:14672   */\n      swap2\n      pop\n        /* \"#utility.yul\":14563:14682   */\n      pop\n        /* \"#utility.yul\":12978:14689   */\n      swap3\n      swap6\n      swap9\n      pop\n      swap3\n      swap6\n      swap9\n      pop\n      swap3\n      swap6\n      swap9\n      jump\t// out\n        /* \"#utility.yul\":14695:16260   */\n    tag_50:\n        /* \"#utility.yul\":14829:14835   */\n      0x00\n        /* \"#utility.yul\":14837:14843   */\n      dup1\n        /* \"#utility.yul\":14845:14851   */\n      0x00\n        /* \"#utility.yul\":14853:14859   */\n      dup1\n        /* \"#utility.yul\":14861:14867   */\n      0x00\n        /* \"#utility.yul\":14869:14875   */\n      dup1\n        /* \"#utility.yul\":14877:14883   */\n      0x00\n        /* \"#utility.yul\":14885:14891   */\n      dup1\n        /* \"#utility.yul\":14934:14937   */\n      0x80\n        /* \"#utility.yul\":14922:14931   */\n      dup10\n        /* \"#utility.yul\":14913:14920   */\n      dup12\n        /* \"#utility.yul\":14909:14932   */\n      sub\n        /* \"#utility.yul\":14905:14938   */\n      slt\n        /* \"#utility.yul\":14902:15022   */\n      iszero\n      tag_413\n      jumpi\n        /* \"#utility.yul\":14941:15020   */\n      tag_414\n      tag_239\n      jump\t// in\n    tag_414:\n        /* \"#utility.yul\":14902:15022   */\n    tag_413:\n        /* \"#utility.yul\":15089:15090   */\n      0x00\n        /* \"#utility.yul\":15078:15087   */\n      dup10\n        /* \"#utility.yul\":15074:15091   */\n      add\n        /* \"#utility.yul\":15061:15092   */\n      calldataload\n        /* \"#utility.yul\":15119:15137   */\n      0xffffffffffffffff\n        /* \"#utility.yul\":15111:15117   */\n      dup2\n        /* \"#utility.yul\":15108:15138   */\n      gt\n        /* \"#utility.yul\":15105:15222   */\n      iszero\n      tag_415\n      jumpi\n        /* \"#utility.yul\":15141:15220   */\n      tag_416\n      tag_240\n      jump\t// in\n    tag_416:\n        /* \"#utility.yul\":15105:15222   */\n    tag_415:\n        /* \"#utility.yul\":15254:15319   */\n      tag_417\n        /* \"#utility.yul\":15311:15318   */\n      dup12\n        /* \"#utility.yul\":15302:15308   */\n      dup3\n        /* \"#utility.yul\":15291:15300   */\n      dup13\n        /* \"#utility.yul\":15287:15309   */\n      add\n        /* \"#utility.yul\":15254:15319   */\n      tag_270\n      jump\t// in\n    tag_417:\n        /* \"#utility.yul\":15236:15319   */\n      swap9\n      pop\n      swap9\n      pop\n        /* \"#utility.yul\":15032:15329   */\n      pop\n        /* \"#utility.yul\":15396:15398   */\n      0x20\n        /* \"#utility.yul\":15385:15394   */\n      dup10\n        /* \"#utility.yul\":15381:15399   */\n      add\n        /* \"#utility.yul\":15368:15400   */\n      calldataload\n        /* \"#utility.yul\":15427:15445   */\n      0xffffffffffffffff\n        /* \"#utility.yul\":15419:15425   */\n      dup2\n        /* \"#utility.yul\":15416:15446   */\n      gt\n        /* \"#utility.yul\":15413:15530   */\n      iszero\n      tag_418\n      jumpi\n        /* \"#utility.yul\":15449:15528   */\n      tag_419\n      tag_240\n      jump\t// in\n    tag_419:\n        /* \"#utility.yul\":15413:15530   */\n    tag_418:\n        /* \"#utility.yul\":15562:15627   */\n      tag_420\n        /* \"#utility.yul\":15619:15626   */\n      dup12\n        /* \"#utility.yul\":15610:15616   */\n      dup3\n        /* \"#utility.yul\":15599:15608   */\n      dup13\n        /* \"#utility.yul\":15595:15617   */\n      add\n        /* \"#utility.yul\":15562:15627   */\n      tag_270\n      jump\t// in\n    tag_420:\n        /* \"#utility.yul\":15544:15627   */\n      swap7\n      pop\n      swap7\n      pop\n        /* \"#utility.yul\":15339:15637   */\n      pop\n        /* \"#utility.yul\":15704:15706   */\n      0x40\n        /* \"#utility.yul\":15693:15702   */\n      dup10\n        /* \"#utility.yul\":15689:15707   */\n      add\n        /* \"#utility.yul\":15676:15708   */\n      calldataload\n        /* \"#utility.yul\":15735:15753   */\n      0xffffffffffffffff\n        /* \"#utility.yul\":15727:15733   */\n      dup2\n        /* \"#utility.yul\":15724:15754   */\n      gt\n        /* \"#utility.yul\":15721:15838   */\n      iszero\n      tag_421\n      jumpi\n        /* \"#utility.yul\":15757:15836   */\n      tag_422\n      tag_240\n      jump\t// in\n    tag_422:\n        /* \"#utility.yul\":15721:15838   */\n    tag_421:\n        /* \"#utility.yul\":15870:15935   */\n      tag_423\n        /* \"#utility.yul\":15927:15934   */\n      dup12\n        /* \"#utility.yul\":15918:15924   */\n      dup3\n        /* \"#utility.yul\":15907:15916   */\n      dup13\n        /* \"#utility.yul\":15903:15925   */\n      add\n        /* \"#utility.yul\":15870:15935   */\n      tag_270\n      jump\t// in\n    tag_423:\n        /* \"#utility.yul\":15852:15935   */\n      swap5\n      pop\n      swap5\n      pop\n        /* \"#utility.yul\":15647:15945   */\n      pop\n        /* \"#utility.yul\":16012:16014   */\n      0x60\n        /* \"#utility.yul\":16001:16010   */\n      dup10\n        /* \"#utility.yul\":15997:16015   */\n      add\n        /* \"#utility.yul\":15984:16016   */\n      calldataload\n        /* \"#utility.yul\":16043:16061   */\n      0xffffffffffffffff\n        /* \"#utility.yul\":16035:16041   */\n      dup2\n        /* \"#utility.yul\":16032:16062   */\n      gt\n        /* \"#utility.yul\":16029:16146   */\n      iszero\n      tag_424\n      jumpi\n        /* \"#utility.yul\":16065:16144   */\n      tag_425\n      tag_240\n      jump\t// in\n    tag_425:\n        /* \"#utility.yul\":16029:16146   */\n    tag_424:\n        /* \"#utility.yul\":16178:16243   */\n      tag_426\n        /* \"#utility.yul\":16235:16242   */\n      dup12\n        /* \"#utility.yul\":16226:16232   */\n      dup3\n        /* \"#utility.yul\":16215:16224   */\n      dup13\n        /* \"#utility.yul\":16211:16233   */\n      add\n        /* \"#utility.yul\":16178:16243   */\n      tag_270\n      jump\t// in\n    tag_426:\n        /* \"#utility.yul\":16160:16243   */\n      swap3\n      pop\n      swap3\n      pop\n        /* \"#utility.yul\":15955:16253   */\n      pop\n        /* \"#utility.yul\":14695:16260   */\n      swap3\n      swap6\n      swap9\n      pop\n      swap3\n      swap6\n      swap9\n      swap1\n      swap4\n      swap7\n      pop\n      jump\t// out\n        /* \"#utility.yul\":16266:16579   */\n    tag_60:\n        /* \"#utility.yul\":16379:16383   */\n      0x00\n        /* \"#utility.yul\":16417:16419   */\n      0x20\n        /* \"#utility.yul\":16406:16415   */\n      dup3\n        /* \"#utility.yul\":16402:16420   */\n      add\n        /* \"#utility.yul\":16394:16420   */\n      swap1\n      pop\n        /* \"#utility.yul\":16466:16475   */\n      dup2\n        /* \"#utility.yul\":16460:16464   */\n      dup2\n        /* \"#utility.yul\":16456:16476   */\n      sub\n        /* \"#utility.yul\":16452:16453   */\n      0x00\n        /* \"#utility.yul\":16441:16450   */\n      dup4\n        /* \"#utility.yul\":16437:16454   */\n      add\n        /* \"#utility.yul\":16430:16477   */\n      mstore\n        /* \"#utility.yul\":16494:16572   */\n      tag_428\n        /* \"#utility.yul\":16567:16571   */\n      dup2\n        /* \"#utility.yul\":16558:16564   */\n      dup5\n        /* \"#utility.yul\":16494:16572   */\n      tag_249\n      jump\t// in\n    tag_428:\n        /* \"#utility.yul\":16486:16572   */\n      swap1\n      pop\n        /* \"#utility.yul\":16266:16579   */\n      swap3\n      swap2\n      pop\n      pop\n      jump\t// out\n        /* \"#utility.yul\":16585:16765   */\n    tag_271:\n        /* \"#utility.yul\":16633:16710   */\n      0x4e487b7100000000000000000000000000000000000000000000000000000000\n        /* \"#utility.yul\":16630:16631   */\n      0x00\n        /* \"#utility.yul\":16623:16711   */\n      mstore\n        /* \"#utility.yul\":16730:16734   */\n      0x22\n        /* \"#utility.yul\":16727:16728   */\n      0x04\n        /* \"#utility.yul\":16720:16735   */\n      mstore\n        /* \"#utility.yul\":16754:16758   */\n      0x24\n        /* \"#utility.yul\":16751:16752   */\n      0x00\n        /* \"#utility.yul\":16744:16759   */\n      revert\n        /* \"#utility.yul\":16771:17091   */\n    tag_91:\n        /* \"#utility.yul\":16815:16821   */\n      0x00\n        /* \"#utility.yul\":16852:16853   */\n      0x02\n        /* \"#utility.yul\":16846:16850   */\n      dup3\n        /* \"#utility.yul\":16842:16854   */\n      div\n        /* \"#utility.yul\":16832:16854   */\n      swap1\n      pop\n        /* \"#utility.yul\":16899:16900   */\n      0x01\n        /* \"#utility.yul\":16893:16897   */\n      dup3\n        /* \"#utility.yul\":16889:16901   */\n      and\n        /* \"#utility.yul\":16920:16938   */\n      dup1\n        /* \"#utility.yul\":16910:16991   */\n      tag_431\n      jumpi\n        /* \"#utility.yul\":16976:16980   */\n      0x7f\n        /* \"#utility.yul\":16968:16974   */\n      dup3\n        /* \"#utility.yul\":16964:16981   */\n      and\n        /* \"#utility.yul\":16954:16981   */\n      swap2\n      pop\n        /* \"#utility.yul\":16910:16991   */\n    tag_431:\n        /* \"#utility.yul\":17038:17040   */\n      0x20\n        /* \"#utility.yul\":17030:17036   */\n      dup3\n        /* \"#utility.yul\":17027:17041   */\n      lt\n        /* \"#utility.yul\":17007:17025   */\n      dup2\n        /* \"#utility.yul\":17004:17042   */\n      sub\n        /* \"#utility.yul\":17001:17085   */\n      tag_432\n      jumpi\n        /* \"#utility.yul\":17057:17075   */\n      tag_433\n      tag_271\n      jump\t// in\n    tag_433:\n        /* \"#utility.yul\":17001:17085   */\n    tag_432:\n        /* \"#utility.yul\":16822:17091   */\n      pop\n        /* \"#utility.yul\":16771:17091   */\n      swap2\n      swap1\n      pop\n      jump\t// out\n        /* \"#utility.yul\":17097:17331   */\n    tag_272:\n        /* \"#utility.yul\":17237:17271   */\n      0x596f7520646f206e6f74206861766520616e20617574686f72697479206f7665\n        /* \"#utility.yul\":17233:17234   */\n      0x00\n        /* \"#utility.yul\":17225:17231   */\n      dup3\n        /* \"#utility.yul\":17221:17235   */\n      add\n        /* \"#utility.yul\":17214:17272   */\n      mstore\n        /* \"#utility.yul\":17306:17323   */\n      0x72207468697320636f6e74726163740000000000000000000000000000000000\n        /* \"#utility.yul\":17301:17303   */\n      0x20\n        /* \"#utility.yul\":17293:17299   */\n      dup3\n        /* \"#utility.yul\":17289:17304   */\n      add\n        /* \"#utility.yul\":17282:17324   */\n      mstore\n        /* \"#utility.yul\":17097:17331   */\n      pop\n      jump\t// out\n        /* \"#utility.yul\":17337:17703   */\n    tag_273:\n        /* \"#utility.yul\":17479:17482   */\n      0x00\n        /* \"#utility.yul\":17500:17567   */\n      tag_436\n        /* \"#utility.yul\":17564:17566   */\n      0x2f\n        /* \"#utility.yul\":17559:17562   */\n      dup4\n        /* \"#utility.yul\":17500:17567   */\n      tag_246\n      jump\t// in\n    tag_436:\n        /* \"#utility.yul\":17493:17567   */\n      swap2\n      pop\n        /* \"#utility.yul\":17576:17669   */\n      tag_437\n        /* \"#utility.yul\":17665:17668   */\n      dup3\n        /* \"#utility.yul\":17576:17669   */\n      tag_272\n      jump\t// in\n    tag_437:\n        /* \"#utility.yul\":17694:17696   */\n      0x40\n        /* \"#utility.yul\":17689:17692   */\n      dup3\n        /* \"#utility.yul\":17685:17697   */\n      add\n        /* \"#utility.yul\":17678:17697   */\n      swap1\n      pop\n        /* \"#utility.yul\":17337:17703   */\n      swap2\n      swap1\n      pop\n      jump\t// out\n        /* \"#utility.yul\":17709:18128   */\n    tag_143:\n        /* \"#utility.yul\":17875:17879   */\n      0x00\n        /* \"#utility.yul\":17913:17915   */\n      0x20\n        /* \"#utility.yul\":17902:17911   */\n      dup3\n        /* \"#utility.yul\":17898:17916   */\n      add\n        /* \"#utility.yul\":17890:17916   */\n      swap1\n      pop\n        /* \"#utility.yul\":17962:17971   */\n      dup2\n        /* \"#utility.yul\":17956:17960   */\n      dup2\n        /* \"#utility.yul\":17952:17972   */\n      sub\n        /* \"#utility.yul\":17948:17949   */\n      0x00\n        /* \"#utility.yul\":17937:17946   */\n      dup4\n        /* \"#utility.yul\":17933:17950   */\n      add\n        /* \"#utility.yul\":17926:17973   */\n      mstore\n        /* \"#utility.yul\":17990:18121   */\n      tag_439\n        /* \"#utility.yul\":18116:18120   */\n      dup2\n        /* \"#utility.yul\":17990:18121   */\n      tag_273\n      jump\t// in\n    tag_439:\n        /* \"#utility.yul\":17982:18121   */\n      swap1\n      pop\n        /* \"#utility.yul\":17709:18128   */\n      swap2\n      swap1\n      pop\n      jump\t// out\n        /* \"#utility.yul\":18134:18308   */\n    tag_274:\n        /* \"#utility.yul\":18274:18300   */\n      0x4e6f74206d6f7265207468616e20332070726f6a656374730000000000000000\n        /* \"#utility.yul\":18270:18271   */\n      0x00\n        /* \"#utility.yul\":18262:18268   */\n      dup3\n        /* \"#utility.yul\":18258:18272   */\n      add\n        /* \"#utility.yul\":18251:18301   */\n      mstore\n        /* \"#utility.yul\":18134:18308   */\n      pop\n      jump\t// out\n        /* \"#utility.yul\":18314:18680   */\n    tag_275:\n        /* \"#utility.yul\":18456:18459   */\n      0x00\n        /* \"#utility.yul\":18477:18544   */\n      tag_442\n        /* \"#utility.yul\":18541:18543   */\n      0x18\n        /* \"#utility.yul\":18536:18539   */\n      dup4\n        /* \"#utility.yul\":18477:18544   */\n      tag_246\n      jump\t// in\n    tag_442:\n        /* \"#utility.yul\":18470:18544   */\n      swap2\n      pop\n        /* \"#utility.yul\":18553:18646   */\n      tag_443\n        /* \"#utility.yul\":18642:18645   */\n      dup3\n        /* \"#utility.yul\":18553:18646   */\n      tag_274\n      jump\t// in\n    tag_443:\n        /* \"#utility.yul\":18671:18673   */\n      0x20\n        /* \"#utility.yul\":18666:18669   */\n      dup3\n        /* \"#utility.yul\":18662:18674   */\n      add\n        /* \"#utility.yul\":18655:18674   */\n      swap1\n      pop\n        /* \"#utility.yul\":18314:18680   */\n      swap2\n      swap1\n      pop\n      jump\t// out\n        /* \"#utility.yul\":18686:19105   */\n    tag_155:\n        /* \"#utility.yul\":18852:18856   */\n      0x00\n        /* \"#utility.yul\":18890:18892   */\n      0x20\n        /* \"#utility.yul\":18879:18888   */\n      dup3\n        /* \"#utility.yul\":18875:18893   */\n      add\n        /* \"#utility.yul\":18867:18893   */\n      swap1\n      pop\n        /* \"#utility.yul\":18939:18948   */\n      dup2\n        /* \"#utility.yul\":18933:18937   */\n      dup2\n        /* \"#utility.yul\":18929:18949   */\n      sub\n        /* \"#utility.yul\":18925:18926   */\n      0x00\n        /* \"#utility.yul\":18914:18923   */\n      dup4\n        /* \"#utility.yul\":18910:18927   */\n      add\n        /* \"#utility.yul\":18903:18950   */\n      mstore\n        /* \"#utility.yul\":18967:19098   */\n      tag_445\n        /* \"#utility.yul\":19093:19097   */\n      dup2\n        /* \"#utility.yul\":18967:19098   */\n      tag_275\n      jump\t// in\n    tag_445:\n        /* \"#utility.yul\":18959:19098   */\n      swap1\n      pop\n        /* \"#utility.yul\":18686:19105   */\n      swap2\n      swap1\n      pop\n      jump\t// out\n        /* \"#utility.yul\":19111:19291   */\n    tag_158:\n        /* \"#utility.yul\":19159:19236   */\n      0x4e487b7100000000000000000000000000000000000000000000000000000000\n        /* \"#utility.yul\":19156:19157   */\n      0x00\n        /* \"#utility.yul\":19149:19237   */\n      mstore\n        /* \"#utility.yul\":19256:19260   */\n      0x32\n        /* \"#utility.yul\":19253:19254   */\n      0x04\n        /* \"#utility.yul\":19246:19261   */\n      mstore\n        /* \"#utility.yul\":19280:19284   */\n      0x24\n        /* \"#utility.yul\":19277:19278   */\n      0x00\n        /* \"#utility.yul\":19270:19285   */\n      revert\n        /* \"#utility.yul\":19297:19477   */\n    tag_276:\n        /* \"#utility.yul\":19345:19422   */\n      0x4e487b7100000000000000000000000000000000000000000000000000000000\n        /* \"#utility.yul\":19342:19343   */\n      0x00\n        /* \"#utility.yul\":19335:19423   */\n      mstore\n        /* \"#utility.yul\":19442:19446   */\n      0x41\n        /* \"#utility.yul\":19439:19440   */\n      0x04\n        /* \"#utility.yul\":19432:19447   */\n      mstore\n        /* \"#utility.yul\":19466:19470   */\n      0x24\n        /* \"#utility.yul\":19463:19464   */\n      0x00\n        /* \"#utility.yul\":19456:19471   */\n      revert\n        /* \"#utility.yul\":19483:19624   */\n    tag_277:\n        /* \"#utility.yul\":19532:19536   */\n      0x00\n        /* \"#utility.yul\":19555:19558   */\n      dup2\n        /* \"#utility.yul\":19547:19558   */\n      swap1\n      pop\n        /* \"#utility.yul\":19578:19581   */\n      dup2\n        /* \"#utility.yul\":19575:19576   */\n      0x00\n        /* \"#utility.yul\":19568:19582   */\n      mstore\n        /* \"#utility.yul\":19612:19616   */\n      0x20\n        /* \"#utility.yul\":19609:19610   */\n      0x00\n        /* \"#utility.yul\":19599:19617   */\n      keccak256\n        /* \"#utility.yul\":19591:19617   */\n      swap1\n      pop\n        /* \"#utility.yul\":19483:19624   */\n      swap2\n      swap1\n      pop\n      jump\t// out\n        /* \"#utility.yul\":19630:19723   */\n    tag_278:\n        /* \"#utility.yul\":19667:19673   */\n      0x00\n        /* \"#utility.yul\":19714:19716   */\n      0x20\n        /* \"#utility.yul\":19709:19711   */\n      0x1f\n        /* \"#utility.yul\":19702:19707   */\n      dup4\n        /* \"#utility.yul\":19698:19712   */\n      add\n        /* \"#utility.yul\":19694:19717   */\n      div\n        /* \"#utility.yul\":19684:19717   */\n      swap1\n      pop\n        /* \"#utility.yul\":19630:19723   */\n      swap2\n      swap1\n      pop\n      jump\t// out\n        /* \"#utility.yul\":19729:19836   */\n    tag_279:\n        /* \"#utility.yul\":19773:19781   */\n      0x00\n        /* \"#utility.yul\":19823:19828   */\n      dup3\n        /* \"#utility.yul\":19817:19821   */\n      dup3\n        /* \"#utility.yul\":19813:19829   */\n      shl\n        /* \"#utility.yul\":19792:19829   */\n      swap1\n      pop\n        /* \"#utility.yul\":19729:19836   */\n      swap3\n      swap2\n      pop\n      pop\n      jump\t// out\n        /* \"#utility.yul\":19842:20235   */\n    tag_280:\n        /* \"#utility.yul\":19911:19917   */\n      0x00\n        /* \"#utility.yul\":19961:19962   */\n      0x08\n        /* \"#utility.yul\":19949:19959   */\n      dup4\n        /* \"#utility.yul\":19945:19963   */\n      mul\n        /* \"#utility.yul\":19984:20081   */\n      tag_452\n        /* \"#utility.yul\":20014:20080   */\n      0xffffffffffffffffffffffffffffffffffffffffffffffffffffffffffffffff\n        /* \"#utility.yul\":20003:20012   */\n      dup3\n        /* \"#utility.yul\":19984:20081   */\n      tag_279\n      jump\t// in\n    tag_452:\n        /* \"#utility.yul\":20102:20141   */\n      tag_453\n        /* \"#utility.yul\":20132:20140   */\n      dup7\n        /* \"#utility.yul\":20121:20130   */\n      dup4\n        /* \"#utility.yul\":20102:20141   */\n      tag_279\n      jump\t// in\n    tag_453:\n        /* \"#utility.yul\":20090:20141   */\n      swap6\n      pop\n        /* \"#utility.yul\":20174:20178   */\n      dup1\n        /* \"#utility.yul\":20170:20179   */\n      not\n        /* \"#utility.yul\":20163:20168   */\n      dup5\n        /* \"#utility.yul\":20159:20180   */\n      and\n        /* \"#utility.yul\":20150:20180   */\n      swap4\n      pop\n        /* \"#utility.yul\":20223:20227   */\n      dup1\n        /* \"#utility.yul\":20213:20221   */\n      dup7\n        /* \"#utility.yul\":20209:20228   */\n      and\n        /* \"#utility.yul\":20202:20207   */\n      dup5\n        /* \"#utility.yul\":20199:20229   */\n      or\n        /* \"#utility.yul\":20189:20229   */\n      swap3\n      pop\n        /* \"#utility.yul\":19918:20235   */\n      pop\n      pop\n        /* \"#utility.yul\":19842:20235   */\n      swap4\n      swap3\n      pop\n      pop\n      pop\n      jump\t// out\n        /* \"#utility.yul\":20241:20301   */\n    tag_281:\n        /* \"#utility.yul\":20269:20272   */\n      0x00\n        /* \"#utility.yul\":20290:20295   */\n      dup2\n        /* \"#utility.yul\":20283:20295   */\n      swap1\n      pop\n        /* \"#utility.yul\":20241:20301   */\n      swap2\n      swap1\n      pop\n      jump\t// out\n        /* \"#utility.yul\":20307:20449   */\n    tag_282:\n        /* \"#utility.yul\":20357:20366   */\n      0x00\n        /* \"#utility.yul\":20390:20443   */\n      tag_456\n        /* \"#utility.yul\":20408:20442   */\n      tag_457\n        /* \"#utility.yul\":20417:20441   */\n      tag_458\n        /* \"#utility.yul\":20435:20440   */\n      dup5\n        /* \"#utility.yul\":20417:20441   */\n      tag_241\n      jump\t// in\n    tag_458:\n        /* \"#utility.yul\":20408:20442   */\n      tag_281\n      jump\t// in\n    tag_457:\n        /* \"#utility.yul\":20390:20443   */\n      tag_241\n      jump\t// in\n    tag_456:\n        /* \"#utility.yul\":20377:20443   */\n      swap1\n      pop\n        /* \"#utility.yul\":20307:20449   */\n      swap2\n      swap1\n      pop\n      jump\t// out\n        /* \"#utility.yul\":20455:20530   */\n    tag_283:\n        /* \"#utility.yul\":20498:20501   */\n      0x00\n        /* \"#utility.yul\":20519:20524   */\n      dup2\n        /* \"#utility.yul\":20512:20524   */\n      swap1\n      pop\n        /* \"#utility.yul\":20455:20530   */\n      swap2\n      swap1\n      pop\n      jump\t// out\n        /* \"#utility.yul\":20536:20805   */\n    tag_284:\n        /* \"#utility.yul\":20646:20685   */\n      tag_461\n        /* \"#utility.yul\":20677:20684   */\n      dup4\n        /* \"#utility.yul\":20646:20685   */\n      tag_282\n      jump\t// in\n    tag_461:\n        /* \"#utility.yul\":20707:20798   */\n      tag_462\n        /* \"#utility.yul\":20756:20797   */\n      tag_463\n        /* \"#utility.yul\":20780:20796   */\n      dup3\n        /* \"#utility.yul\":20756:20797   */\n      tag_283\n      jump\t// in\n    tag_463:\n        /* \"#utility.yul\":20748:20754   */\n      dup5\n        /* \"#utility.yul\":20741:20745   */\n      dup5\n        /* \"#utility.yul\":20735:20746   */\n      sload\n        /* \"#utility.yul\":20707:20798   */\n      tag_280\n      jump\t// in\n    tag_462:\n        /* \"#utility.yul\":20701:20705   */\n      dup3\n        /* \"#utility.yul\":20694:20799   */\n      sstore\n        /* \"#utility.yul\":20612:20805   */\n      pop\n        /* \"#utility.yul\":20536:20805   */\n      pop\n      pop\n      pop\n      jump\t// out\n        /* \"#utility.yul\":20811:20884   */\n    tag_285:\n        /* \"#utility.yul\":20856:20859   */\n      0x00\n        /* \"#utility.yul\":20811:20884   */\n      swap1\n      jump\t// out\n        /* \"#utility.yul\":20890:21079   */\n    tag_286:\n        /* \"#utility.yul\":20967:20999   */\n      tag_466\n      tag_285\n      jump\t// in\n    tag_466:\n        /* \"#utility.yul\":21008:21073   */\n      tag_467\n        /* \"#utility.yul\":21066:21072   */\n      dup2\n        /* \"#utility.yul\":21058:21064   */\n      dup5\n        /* \"#utility.yul\":21052:21056   */\n      dup5\n        /* \"#utility.yul\":21008:21073   */\n      tag_284\n      jump\t// in\n    tag_467:\n        /* \"#utility.yul\":20943:21079   */\n      pop\n        /* \"#utility.yul\":20890:21079   */\n      pop\n      pop\n      jump\t// out\n        /* \"#utility.yul\":21085:21271   */\n    tag_287:\n        /* \"#utility.yul\":21145:21265   */\n    tag_469:\n        /* \"#utility.yul\":21162:21165   */\n      dup2\n        /* \"#utility.yul\":21155:21160   */\n      dup2\n        /* \"#utility.yul\":21152:21166   */\n      lt\n        /* \"#utility.yul\":21145:21265   */\n      iszero\n      tag_471\n      jumpi\n        /* \"#utility.yul\":21216:21255   */\n      tag_472\n        /* \"#utility.yul\":21253:21254   */\n      0x00\n        /* \"#utility.yul\":21246:21251   */\n      dup3\n        /* \"#utility.yul\":21216:21255   */\n      tag_286\n      jump\t// in\n    tag_472:\n        /* \"#utility.yul\":21189:21190   */\n      0x01\n        /* \"#utility.yul\":21182:21187   */\n      dup2\n        /* \"#utility.yul\":21178:21191   */\n      add\n        /* \"#utility.yul\":21169:21191   */\n      swap1\n      pop\n        /* \"#utility.yul\":21145:21265   */\n      jump(tag_469)\n    tag_471:\n        /* \"#utility.yul\":21085:21271   */\n      pop\n      pop\n      jump\t// out\n        /* \"#utility.yul\":21277:21820   */\n    tag_288:\n        /* \"#utility.yul\":21378:21380   */\n      0x1f\n        /* \"#utility.yul\":21373:21376   */\n      dup3\n        /* \"#utility.yul\":21370:21381   */\n      gt\n        /* \"#utility.yul\":21367:21813   */\n      iszero\n      tag_474\n      jumpi\n        /* \"#utility.yul\":21412:21450   */\n      tag_475\n        /* \"#utility.yul\":21444:21449   */\n      dup2\n        /* \"#utility.yul\":21412:21450   */\n      tag_277\n      jump\t// in\n    tag_475:\n        /* \"#utility.yul\":21496:21525   */\n      tag_476\n        /* \"#utility.yul\":21514:21524   */\n      dup5\n        /* \"#utility.yul\":21496:21525   */\n      tag_278\n      jump\t// in\n    tag_476:\n        /* \"#utility.yul\":21486:21494   */\n      dup2\n        /* \"#utility.yul\":21482:21526   */\n      add\n        /* \"#utility.yul\":21679:21681   */\n      0x20\n        /* \"#utility.yul\":21667:21677   */\n      dup6\n        /* \"#utility.yul\":21664:21682   */\n      lt\n        /* \"#utility.yul\":21661:21710   */\n      iszero\n      tag_477\n      jumpi\n        /* \"#utility.yul\":21700:21708   */\n      dup2\n        /* \"#utility.yul\":21685:21708   */\n      swap1\n      pop\n        /* \"#utility.yul\":21661:21710   */\n    tag_477:\n        /* \"#utility.yul\":21723:21803   */\n      tag_478\n        /* \"#utility.yul\":21779:21801   */\n      tag_479\n        /* \"#utility.yul\":21797:21800   */\n      dup6\n        /* \"#utility.yul\":21779:21801   */\n      tag_278\n      jump\t// in\n    tag_479:\n        /* \"#utility.yul\":21769:21777   */\n      dup4\n        /* \"#utility.yul\":21765:21802   */\n      add\n        /* \"#utility.yul\":21752:21763   */\n      dup3\n        /* \"#utility.yul\":21723:21803   */\n      tag_287\n      jump\t// in\n    tag_478:\n        /* \"#utility.yul\":21382:21813   */\n      pop\n      pop\n        /* \"#utility.yul\":21367:21813   */\n    tag_474:\n        /* \"#utility.yul\":21277:21820   */\n      pop\n      pop\n      pop\n      jump\t// out\n        /* \"#utility.yul\":21826:21943   */\n    tag_289:\n        /* \"#utility.yul\":21880:21888   */\n      0x00\n        /* \"#utility.yul\":21930:21935   */\n      dup3\n        /* \"#utility.yul\":21924:21928   */\n      dup3\n        /* \"#utility.yul\":21920:21936   */\n      shr\n        /* \"#utility.yul\":21899:21936   */\n      swap1\n      pop\n        /* \"#utility.yul\":21826:21943   */\n      swap3\n      swap2\n      pop\n      pop\n      jump\t// out\n        /* \"#utility.yul\":21949:22118   */\n    tag_290:\n        /* \"#utility.yul\":21993:21999   */\n      0x00\n        /* \"#utility.yul\":22026:22077   */\n      tag_482\n        /* \"#utility.yul\":22074:22075   */\n      0x00\n        /* \"#utility.yul\":22070:22076   */\n      not\n        /* \"#utility.yul\":22062:22067   */\n      dup5\n        /* \"#utility.yul\":22059:22060   */\n      0x08\n        /* \"#utility.yul\":22055:22068   */\n      mul\n        /* \"#utility.yul\":22026:22077   */\n      tag_289\n      jump\t// in\n    tag_482:\n        /* \"#utility.yul\":22022:22078   */\n      not\n        /* \"#utility.yul\":22107:22111   */\n      dup1\n        /* \"#utility.yul\":22101:22105   */\n      dup4\n        /* \"#utility.yul\":22097:22112   */\n      and\n        /* \"#utility.yul\":22087:22112   */\n      swap2\n      pop\n        /* \"#utility.yul\":22000:22118   */\n      pop\n        /* \"#utility.yul\":21949:22118   */\n      swap3\n      swap2\n      pop\n      pop\n      jump\t// out\n        /* \"#utility.yul\":22123:22418   */\n    tag_291:\n        /* \"#utility.yul\":22199:22203   */\n      0x00\n        /* \"#utility.yul\":22345:22374   */\n      tag_484\n        /* \"#utility.yul\":22370:22373   */\n      dup4\n        /* \"#utility.yul\":22364:22368   */\n      dup4\n        /* \"#utility.yul\":22345:22374   */\n      tag_290\n      jump\t// in\n    tag_484:\n        /* \"#utility.yul\":22337:22374   */\n      swap2\n      pop\n        /* \"#utility.yul\":22407:22410   */\n      dup3\n        /* \"#utility.yul\":22404:22405   */\n      0x02\n        /* \"#utility.yul\":22400:22411   */\n      mul\n        /* \"#utility.yul\":22394:22398   */\n      dup3\n        /* \"#utility.yul\":22391:22412   */\n      or\n        /* \"#utility.yul\":22383:22412   */\n      swap1\n      pop\n        /* \"#utility.yul\":22123:22418   */\n      swap3\n      swap2\n      pop\n      pop\n      jump\t// out\n        /* \"#utility.yul\":22423:23818   */\n    tag_161:\n        /* \"#utility.yul\":22540:22577   */\n      tag_486\n        /* \"#utility.yul\":22573:22576   */\n      dup3\n        /* \"#utility.yul\":22540:22577   */\n      tag_245\n      jump\t// in\n    tag_486:\n        /* \"#utility.yul\":22642:22660   */\n      0xffffffffffffffff\n        /* \"#utility.yul\":22634:22640   */\n      dup2\n        /* \"#utility.yul\":22631:22661   */\n      gt\n        /* \"#utility.yul\":22628:22684   */\n      iszero\n      tag_487\n      jumpi\n        /* \"#utility.yul\":22664:22682   */\n      tag_488\n      tag_276\n      jump\t// in\n    tag_488:\n        /* \"#utility.yul\":22628:22684   */\n    tag_487:\n        /* \"#utility.yul\":22708:22746   */\n      tag_489\n        /* \"#utility.yul\":22740:22744   */\n      dup3\n        /* \"#utility.yul\":22734:22745   */\n      sload\n        /* \"#utility.yul\":22708:22746   */\n      tag_91\n      jump\t// in\n    tag_489:\n        /* \"#utility.yul\":22793:22860   */\n      tag_490\n        /* \"#utility.yul\":22853:22859   */\n      dup3\n        /* \"#utility.yul\":22845:22851   */\n      dup3\n        /* \"#utility.yul\":22839:22843   */\n      dup6\n        /* \"#utility.yul\":22793:22860   */\n      tag_288\n      jump\t// in\n    tag_490:\n        /* \"#utility.yul\":22887:22888   */\n      0x00\n        /* \"#utility.yul\":22911:22915   */\n      0x20\n        /* \"#utility.yul\":22898:22915   */\n      swap1\n      pop\n        /* \"#utility.yul\":22943:22945   */\n      0x1f\n        /* \"#utility.yul\":22935:22941   */\n      dup4\n        /* \"#utility.yul\":22932:22946   */\n      gt\n        /* \"#utility.yul\":22960:22961   */\n      0x01\n        /* \"#utility.yul\":22955:23573   */\n      dup2\n      eq\n      tag_492\n      jumpi\n        /* \"#utility.yul\":23617:23618   */\n      0x00\n        /* \"#utility.yul\":23634:23640   */\n      dup5\n        /* \"#utility.yul\":23631:23708   */\n      iszero\n      tag_493\n      jumpi\n        /* \"#utility.yul\":23683:23692   */\n      dup3\n        /* \"#utility.yul\":23678:23681   */\n      dup8\n        /* \"#utility.yul\":23674:23693   */\n      add\n        /* \"#utility.yul\":23668:23694   */\n      mload\n        /* \"#utility.yul\":23659:23694   */\n      swap1\n      pop\n        /* \"#utility.yul\":23631:23708   */\n    tag_493:\n        /* \"#utility.yul\":23734:23801   */\n      tag_494\n        /* \"#utility.yul\":23794:23800   */\n      dup6\n        /* \"#utility.yul\":23787:23792   */\n      dup3\n        /* \"#utility.yul\":23734:23801   */\n      tag_291\n      jump\t// in\n    tag_494:\n        /* \"#utility.yul\":23728:23732   */\n      dup7\n        /* \"#utility.yul\":23721:23802   */\n      sstore\n        /* \"#utility.yul\":23590:23812   */\n      pop\n        /* \"#utility.yul\":22925:23812   */\n      jump(tag_491)\n        /* \"#utility.yul\":22955:23573   */\n    tag_492:\n        /* \"#utility.yul\":23007:23011   */\n      0x1f\n        /* \"#utility.yul\":23003:23012   */\n      not\n        /* \"#utility.yul\":22995:23001   */\n      dup5\n        /* \"#utility.yul\":22991:23013   */\n      and\n        /* \"#utility.yul\":23041:23078   */\n      tag_495\n        /* \"#utility.yul\":23073:23077   */\n      dup7\n        /* \"#utility.yul\":23041:23078   */\n      tag_277\n      jump\t// in\n    tag_495:\n        /* \"#utility.yul\":23100:23101   */\n      0x00\n        /* \"#utility.yul\":23114:23322   */\n    tag_496:\n        /* \"#utility.yul\":23128:23135   */\n      dup3\n        /* \"#utility.yul\":23125:23126   */\n      dup2\n        /* \"#utility.yul\":23122:23136   */\n      lt\n        /* \"#utility.yul\":23114:23322   */\n      iszero\n      tag_498\n      jumpi\n        /* \"#utility.yul\":23207:23216   */\n      dup5\n        /* \"#utility.yul\":23202:23205   */\n      dup10\n        /* \"#utility.yul\":23198:23217   */\n      add\n        /* \"#utility.yul\":23192:23218   */\n      mload\n        /* \"#utility.yul\":23184:23190   */\n      dup3\n        /* \"#utility.yul\":23177:23219   */\n      sstore\n        /* \"#utility.yul\":23258:23259   */\n      0x01\n        /* \"#utility.yul\":23250:23256   */\n      dup3\n        /* \"#utility.yul\":23246:23260   */\n      add\n        /* \"#utility.yul\":23236:23260   */\n      swap2\n      pop\n        /* \"#utility.yul\":23305:23307   */\n      0x20\n        /* \"#utility.yul\":23294:23303   */\n      dup6\n        /* \"#utility.yul\":23290:23308   */\n      add\n        /* \"#utility.yul\":23277:23308   */\n      swap5\n      pop\n        /* \"#utility.yul\":23151:23155   */\n      0x20\n        /* \"#utility.yul\":23148:23149   */\n      dup2\n        /* \"#utility.yul\":23144:23156   */\n      add\n        /* \"#utility.yul\":23139:23156   */\n      swap1\n      pop\n        /* \"#utility.yul\":23114:23322   */\n      jump(tag_496)\n    tag_498:\n        /* \"#utility.yul\":23350:23356   */\n      dup7\n        /* \"#utility.yul\":23341:23348   */\n      dup4\n        /* \"#utility.yul\":23338:23357   */\n      lt\n        /* \"#utility.yul\":23335:23514   */\n      iszero\n      tag_499\n      jumpi\n        /* \"#utility.yul\":23408:23417   */\n      dup5\n        /* \"#utility.yul\":23403:23406   */\n      dup10\n        /* \"#utility.yul\":23399:23418   */\n      add\n        /* \"#utility.yul\":23393:23419   */\n      mload\n        /* \"#utility.yul\":23451:23499   */\n      tag_500\n        /* \"#utility.yul\":23493:23497   */\n      0x1f\n        /* \"#utility.yul\":23485:23491   */\n      dup10\n        /* \"#utility.yul\":23481:23498   */\n      and\n        /* \"#utility.yul\":23470:23479   */\n      dup3\n        /* \"#utility.yul\":23451:23499   */\n      tag_290\n      jump\t// in\n    tag_500:\n        /* \"#utility.yul\":23443:23449   */\n      dup4\n        /* \"#utility.yul\":23436:23500   */\n      sstore\n        /* \"#utility.yul\":23358:23514   */\n      pop\n        /* \"#utility.yul\":23335:23514   */\n    tag_499:\n        /* \"#utility.yul\":23560:23561   */\n      0x01\n        /* \"#utility.yul\":23556:23557   */\n      0x02\n        /* \"#utility.yul\":23548:23554   */\n      dup9\n        /* \"#utility.yul\":23544:23558   */\n      mul\n        /* \"#utility.yul\":23540:23562   */\n      add\n        /* \"#utility.yul\":23534:23538   */\n      dup9\n        /* \"#utility.yul\":23527:23563   */\n      sstore\n        /* \"#utility.yul\":22962:23573   */\n      pop\n      pop\n      pop\n        /* \"#utility.yul\":22925:23812   */\n    tag_491:\n      pop\n        /* \"#utility.yul\":22515:23818   */\n      pop\n      pop\n      pop\n        /* \"#utility.yul\":22423:23818   */\n      pop\n      pop\n      jump\t// out\n        /* \"#utility.yul\":23824:24004   */\n    tag_292:\n        /* \"#utility.yul\":23872:23949   */\n      0x4e487b7100000000000000000000000000000000000000000000000000000000\n        /* \"#utility.yul\":23869:23870   */\n      0x00\n        /* \"#utility.yul\":23862:23950   */\n      mstore\n        /* \"#utility.yul\":23969:23973   */\n      0x11\n        /* \"#utility.yul\":23966:23967   */\n      0x04\n        /* \"#utility.yul\":23959:23974   */\n      mstore\n        /* \"#utility.yul\":23993:23997   */\n      0x24\n        /* \"#utility.yul\":23990:23991   */\n      0x00\n        /* \"#utility.yul\":23983:23998   */\n      revert\n        /* \"#utility.yul\":24010:24243   */\n    tag_166:\n        /* \"#utility.yul\":24049:24052   */\n      0x00\n        /* \"#utility.yul\":24072:24096   */\n      tag_503\n        /* \"#utility.yul\":24090:24095   */\n      dup3\n        /* \"#utility.yul\":24072:24096   */\n      tag_241\n      jump\t// in\n    tag_503:\n        /* \"#utility.yul\":24063:24096   */\n      swap2\n      pop\n        /* \"#utility.yul\":24118:24184   */\n      0xffffffffffffffffffffffffffffffffffffffffffffffffffffffffffffffff\n        /* \"#utility.yul\":24111:24116   */\n      dup3\n        /* \"#utility.yul\":24108:24185   */\n      sub\n        /* \"#utility.yul\":24105:24208   */\n      tag_504\n      jumpi\n        /* \"#utility.yul\":24188:24206   */\n      tag_505\n      tag_292\n      jump\t// in\n    tag_505:\n        /* \"#utility.yul\":24105:24208   */\n    tag_504:\n        /* \"#utility.yul\":24235:24236   */\n      0x01\n        /* \"#utility.yul\":24228:24233   */\n      dup3\n        /* \"#utility.yul\":24224:24237   */\n      add\n        /* \"#utility.yul\":24217:24237   */\n      swap1\n      pop\n        /* \"#utility.yul\":24010:24243   */\n      swap2\n      swap1\n      pop\n      jump\t// out\n        /* \"#utility.yul\":24249:24419   */\n    tag_293:\n        /* \"#utility.yul\":24389:24411   */\n      0x496e76616c69642050726f6a656374436f756e74000000000000000000000000\n        /* \"#utility.yul\":24385:24386   */\n      0x00\n        /* \"#utility.yul\":24377:24383   */\n      dup3\n        /* \"#utility.yul\":24373:24387   */\n      add\n        /* \"#utility.yul\":24366:24412   */\n      mstore\n        /* \"#utility.yul\":24249:24419   */\n      pop\n      jump\t// out\n        /* \"#utility.yul\":24425:24791   */\n    tag_294:\n        /* \"#utility.yul\":24567:24570   */\n      0x00\n        /* \"#utility.yul\":24588:24655   */\n      tag_508\n        /* \"#utility.yul\":24652:24654   */\n      0x14\n        /* \"#utility.yul\":24647:24650   */\n      dup4\n        /* \"#utility.yul\":24588:24655   */\n      tag_246\n      jump\t// in\n    tag_508:\n        /* \"#utility.yul\":24581:24655   */\n      swap2\n      pop\n        /* \"#utility.yul\":24664:24757   */\n      tag_509\n        /* \"#utility.yul\":24753:24756   */\n      dup3\n        /* \"#utility.yul\":24664:24757   */\n      tag_293\n      jump\t// in\n    tag_509:\n        /* \"#utility.yul\":24782:24784   */\n      0x20\n        /* \"#utility.yul\":24777:24780   */\n      dup3\n        /* \"#utility.yul\":24773:24785   */\n      add\n        /* \"#utility.yul\":24766:24785   */\n      swap1\n      pop\n        /* \"#utility.yul\":24425:24791   */\n      swap2\n      swap1\n      pop\n      jump\t// out\n        /* \"#utility.yul\":24797:25216   */\n    tag_174:\n        /* \"#utility.yul\":24963:24967   */\n      0x00\n        /* \"#utility.yul\":25001:25003   */\n      0x20\n        /* \"#utility.yul\":24990:24999   */\n      dup3\n        /* \"#utility.yul\":24986:25004   */\n      add\n        /* \"#utility.yul\":24978:25004   */\n      swap1\n      pop\n        /* \"#utility.yul\":25050:25059   */\n      dup2\n        /* \"#utility.yul\":25044:25048   */\n      dup2\n        /* \"#utility.yul\":25040:25060   */\n      sub\n        /* \"#utility.yul\":25036:25037   */\n      0x00\n        /* \"#utility.yul\":25025:25034   */\n      dup4\n        /* \"#utility.yul\":25021:25038   */\n      add\n        /* \"#utility.yul\":25014:25061   */\n      mstore\n        /* \"#utility.yul\":25078:25209   */\n      tag_511\n        /* \"#utility.yul\":25204:25208   */\n      dup2\n        /* \"#utility.yul\":25078:25209   */\n      tag_294\n      jump\t// in\n    tag_511:\n        /* \"#utility.yul\":25070:25209   */\n      swap1\n      pop\n        /* \"#utility.yul\":24797:25216   */\n      swap2\n      swap1\n      pop\n      jump\t// out\n\n    auxdata: 0xa26469706673582212206eee8eb2fe4cdff7b8e41384a4e8a08b76b08de9e2536c220c9d5d06147e55c364736f6c634300081a0033\n}\n",
				"bytecode": {
					"linkReferences": {},
					"object": "60806040526040518060600160405280602e81526020016125aa602e9139601f908161002b9190610307565b5060405180608001604052806049815260200161253360499139602090816100539190610307565b506040518060600160405280602e815260200161257c602e91396021908161007b9190610307565b50348015610087575f80fd5b5033601e5f6101000a81548173ffffffffffffffffffffffffffffffffffffffff021916908373ffffffffffffffffffffffffffffffffffffffff1602179055506103d6565b5f81519050919050565b7f4e487b71000000000000000000000000000000000000000000000000000000005f52604160045260245ffd5b7f4e487b71000000000000000000000000000000000000000000000000000000005f52602260045260245ffd5b5f600282049050600182168061014857607f821691505b60208210810361015b5761015a610104565b5b50919050565b5f819050815f5260205f209050919050565b5f6020601f8301049050919050565b5f82821b905092915050565b5f600883026101bd7fffffffffffffffffffffffffffffffffffffffffffffffffffffffffffffffff82610182565b6101c78683610182565b95508019841693508086168417925050509392505050565b5f819050919050565b5f819050919050565b5f61020b610206610201846101df565b6101e8565b6101df565b9050919050565b5f819050919050565b610224836101f1565b61023861023082610212565b84845461018e565b825550505050565b5f90565b61024c610240565b61025781848461021b565b505050565b5b8181101561027a5761026f5f82610244565b60018101905061025d565b5050565b601f8211156102bf5761029081610161565b61029984610173565b810160208510156102a8578190505b6102bc6102b485610173565b83018261025c565b50505b505050565b5f82821c905092915050565b5f6102df5f19846008026102c4565b1980831691505092915050565b5f6102f783836102d0565b9150826002028217905092915050565b610310826100cd565b67ffffffffffffffff811115610329576103286100d7565b5b6103338254610131565b61033e82828561027e565b5f60209050601f83116001811461036f575f841561035d578287015190505b61036785826102ec565b8655506103ce565b601f19841661037d86610161565b5f5b828110156103a45784890151825560018201915060208501945060208101905061037f565b868310156103c157848901516103bd601f8916826102d0565b8355505b6001600288020188555050505b505050505050565b612150806103e35f395ff3fe6080604052600436106100e7575f3560e01c80637284e41611610089578063caf7b75911610058578063caf7b759146102db578063d3cedf1114610305578063e61204131461032d578063ed88c68e14610355576100e7565b80637284e4161461021f5780637aea95aa1461024957806398f831b614610289578063c24708f4146102b1576100e7565b8063598e7f37116100c5578063598e7f371461017f5780635b173a69146101a75780636426d4c3146101cf5780636fe8e0bd146101f7576100e7565b8063107046bd146100eb5780632adf13b21461012b5780635397c6ec14610155575b5f80fd5b3480156100f6575f80fd5b50610111600480360381019061010c9190611563565b61035f565b60405161012295949392919061160d565b60405180910390f35b348015610136575f80fd5b5061013f6105af565b60405161014c9190611808565b60405180910390f35b348015610160575f80fd5b50610169610848565b604051610176919061195f565b60405180910390f35b34801561018a575f80fd5b506101a560048036038101906101a091906119e0565b610853565b005b3480156101b2575f80fd5b506101cd60048036038101906101c89190611a2b565b6108e6565b005b3480156101da575f80fd5b506101f560048036038101906101f09190611b21565b610980565b005b348015610202575f80fd5b5061021d60048036038101906102189190611a2b565b610c26565b005b34801561022a575f80fd5b50610233610ebc565b6040516102409190611c05565b60405180910390f35b348015610254575f80fd5b5061026f600480360381019061026a9190611563565b610f48565b60405161028095949392919061160d565b60405180910390f35b348015610294575f80fd5b506102af60048036038101906102aa9190611b21565b611199565b005b3480156102bc575f80fd5b506102c5611232565b6040516102d29190611c05565b60405180910390f35b3480156102e6575f80fd5b506102ef6112be565b6040516102fc9190611c05565b60405180910390f35b348015610310575f80fd5b5061032b600480360381019061032691906119e0565b61134a565b005b348015610338575f80fd5b50610353600480360381019061034e91906119e0565b6113dd565b005b61035d611470565b005b5f816003811061036d575f80fd5b600502015f91509050805f01549080600101805461038a90611c52565b80601f01602080910402602001604051908101604052809291908181526020018280546103b690611c52565b80156104015780601f106103d857610100808354040283529160200191610401565b820191905f5260205f20905b8154815290600101906020018083116103e457829003601f168201915b50505050509080600201805461041690611c52565b80601f016020809104026020016040519081016040528092919081815260200182805461044290611c52565b801561048d5780601f106104645761010080835404028352916020019161048d565b820191905f5260205f20905b81548152906001019060200180831161047057829003601f168201915b5050505050908060030180546104a290611c52565b80601f01602080910402602001604051908101604052809291908181526020018280546104ce90611c52565b80156105195780601f106104f057610100808354040283529160200191610519565b820191905f5260205f20905b8154815290600101906020018083116104fc57829003601f168201915b50505050509080600401805461052e90611c52565b80601f016020809104026020016040519081016040528092919081815260200182805461055a90611c52565b80156105a55780601f1061057c576101008083540402835291602001916105a5565b820191905f5260205f20905b81548152906001019060200180831161058857829003601f168201915b5050505050905085565b6105b7611472565b5f600380602002604051908101604052809291905f905b8282101561083f578382600502016040518060a00160405290815f820154815260200160018201805461060090611c52565b80601f016020809104026020016040519081016040528092919081815260200182805461062c90611c52565b80156106775780601f1061064e57610100808354040283529160200191610677565b820191905f5260205f20905b81548152906001019060200180831161065a57829003601f168201915b5050505050815260200160028201805461069090611c52565b80601f01602080910402602001604051908101604052809291908181526020018280546106bc90611c52565b80156107075780601f106106de57610100808354040283529160200191610707565b820191905f5260205f20905b8154815290600101906020018083116106ea57829003601f168201915b5050505050815260200160038201805461072090611c52565b80601f016020809104026020016040519081016040528092919081815260200182805461074c90611c52565b80156107975780601f1061076e57610100808354040283529160200191610797565b820191905f5260205f20905b81548152906001019060200180831161077a57829003601f168201915b505050505081526020016004820180546107b090611c52565b80601f01602080910402602001604051908101604052809291908181526020018280546107dc90611c52565b80156108275780601f106107fe57610100808354040283529160200191610827565b820191905f5260205f20905b81548152906001019060200180831161080a57829003601f168201915b505050505081525050815260200190600101906105ce565b50505050905090565b61085061149f565b90565b3373ffffffffffffffffffffffffffffffffffffffff16601e5f9054906101000a900473ffffffffffffffffffffffffffffffffffffffff1673ffffffffffffffffffffffffffffffffffffffff16146108e2576040517f08c379a00000000000000000000000000000000000000000000000000000000081526004016108d990611cf2565b60405180910390fd5b5050565b3373ffffffffffffffffffffffffffffffffffffffff16601e5f9054906101000a900473ffffffffffffffffffffffffffffffffffffffff1673ffffffffffffffffffffffffffffffffffffffff1614610975576040517f08c379a000000000000000000000000000000000000000000000000000000000815260040161096c90611cf2565b60405180910390fd5b505050505050505050565b3373ffffffffffffffffffffffffffffffffffffffff16601e5f9054906101000a900473ffffffffffffffffffffffffffffffffffffffff1673ffffffffffffffffffffffffffffffffffffffff1614610a0f576040517f08c379a0000000000000000000000000000000000000000000000000000000008152600401610a0690611cf2565b60405180910390fd5b600360225410610a54576040517f08c379a0000000000000000000000000000000000000000000000000000000008152600401610a4b90611d5a565b60405180910390fd5b6040518060a00160405280602254815260200189898080601f0160208091040260200160405190810160405280939291908181526020018383808284375f81840152601f19601f82011690508083019250505050505050815260200187878080601f0160208091040260200160405190810160405280939291908181526020018383808284375f81840152601f19601f82011690508083019250505050505050815260200185858080601f0160208091040260200160405190810160405280939291908181526020018383808284375f81840152601f19601f82011690508083019250505050505050815260200183838080601f0160208091040260200160405190810160405280939291908181526020018383808284375f81840152601f19601f820116905080830192505050505050508152505f60225460038110610b9e57610b9d611d78565b5b600502015f820151815f01556020820151816001019081610bbf9190611f6f565b506040820151816002019081610bd59190611f6f565b506060820151816003019081610beb9190611f6f565b506080820151816004019081610c019190611f6f565b5090505060225f815480929190610c179061206b565b91905055505050505050505050565b3373ffffffffffffffffffffffffffffffffffffffff16601e5f9054906101000a900473ffffffffffffffffffffffffffffffffffffffff1673ffffffffffffffffffffffffffffffffffffffff1614610cb5576040517f08c379a0000000000000000000000000000000000000000000000000000000008152600401610cac90611cf2565b60405180910390fd5b5f8110158015610cc55750600381105b610d04576040517f08c379a0000000000000000000000000000000000000000000000000000000008152600401610cfb906120fc565b60405180910390fd5b6040518060a001604052808281526020018a8a8080601f0160208091040260200160405190810160405280939291908181526020018383808284375f81840152601f19601f82011690508083019250505050505050815260200188888080601f0160208091040260200160405190810160405280939291908181526020018383808284375f81840152601f19601f82011690508083019250505050505050815260200186868080601f0160208091040260200160405190810160405280939291908181526020018383808284375f81840152601f19601f82011690508083019250505050505050815260200184848080601f0160208091040260200160405190810160405280939291908181526020018383808284375f81840152601f19601f820116905080830192505050505050508152505f8260038110610e4a57610e49611d78565b5b600502015f820151815f01556020820151816001019081610e6b9190611f6f565b506040820151816002019081610e819190611f6f565b506060820151816003019081610e979190611f6f565b506080820151816004019081610ead9190611f6f565b50905050505050505050505050565b60208054610ec990611c52565b80601f0160208091040260200160405190810160405280929190818152602001828054610ef590611c52565b8015610f405780601f10610f1757610100808354040283529160200191610f40565b820191905f5260205f20905b815481529060010190602001808311610f2357829003601f168201915b505050505081565b600f8160038110610f57575f80fd5b600502015f91509050805f015490806001018054610f7490611c52565b80601f0160208091040260200160405190810160405280929190818152602001828054610fa090611c52565b8015610feb5780601f10610fc257610100808354040283529160200191610feb565b820191905f5260205f20905b815481529060010190602001808311610fce57829003601f168201915b50505050509080600201805461100090611c52565b80601f016020809104026020016040519081016040528092919081815260200182805461102c90611c52565b80156110775780601f1061104e57610100808354040283529160200191611077565b820191905f5260205f20905b81548152906001019060200180831161105a57829003601f168201915b50505050509080600301805461108c90611c52565b80601f01602080910402602001604051908101604052809291908181526020018280546110b890611c52565b80156111035780601f106110da57610100808354040283529160200191611103565b820191905f5260205f20905b8154815290600101906020018083116110e657829003601f168201915b50505050509080600401805461111890611c52565b80601f016020809104026020016040519081016040528092919081815260200182805461114490611c52565b801561118f5780601f106111665761010080835404028352916020019161118f565b820191905f5260205f20905b81548152906001019060200180831161117257829003601f168201915b5050505050905085565b3373ffffffffffffffffffffffffffffffffffffffff16601e5f9054906101000a900473ffffffffffffffffffffffffffffffffffffffff1673ffffffffffffffffffffffffffffffffffffffff1614611228576040517f08c379a000000000000000000000000000000000000000000000000000000000815260040161121f90611cf2565b60405180910390fd5b5050505050505050565b6021805461123f90611c52565b80601f016020809104026020016040519081016040528092919081815260200182805461126b90611c52565b80156112b65780601f1061128d576101008083540402835291602001916112b6565b820191905f5260205f20905b81548152906001019060200180831161129957829003601f168201915b505050505081565b601f80546112cb90611c52565b80601f01602080910402602001604051908101604052809291908181526020018280546112f790611c52565b80156113425780601f1061131957610100808354040283529160200191611342565b820191905f5260205f20905b81548152906001019060200180831161132557829003601f168201915b505050505081565b3373ffffffffffffffffffffffffffffffffffffffff16601e5f9054906101000a900473ffffffffffffffffffffffffffffffffffffffff1673ffffffffffffffffffffffffffffffffffffffff16146113d9576040517f08c379a00000000000000000000000000000000000000000000000000000000081526004016113d090611cf2565b60405180910390fd5b5050565b3373ffffffffffffffffffffffffffffffffffffffff16601e5f9054906101000a900473ffffffffffffffffffffffffffffffffffffffff1673ffffffffffffffffffffffffffffffffffffffff161461146c576040517f08c379a000000000000000000000000000000000000000000000000000000000815260040161146390611cf2565b60405180910390fd5b5050565b565b60405180606001604052806003905b6114896114cc565b8152602001906001900390816114815790505090565b60405180606001604052806003905b6114b66114fa565b8152602001906001900390816114ae5790505090565b6040518060a001604052805f8152602001606081526020016060815260200160608152602001606081525090565b6040518060a001604052805f8152602001606081526020016060815260200160608152602001606081525090565b5f80fd5b5f80fd5b5f819050919050565b61154281611530565b811461154c575f80fd5b50565b5f8135905061155d81611539565b92915050565b5f6020828403121561157857611577611528565b5b5f6115858482850161154f565b91505092915050565b61159781611530565b82525050565b5f81519050919050565b5f82825260208201905092915050565b8281835e5f83830152505050565b5f601f19601f8301169050919050565b5f6115df8261159d565b6115e981856115a7565b93506115f98185602086016115b7565b611602816115c5565b840191505092915050565b5f60a0820190506116205f83018861158e565b818103602083015261163281876115d5565b9050818103604083015261164681866115d5565b9050818103606083015261165a81856115d5565b9050818103608083015261166e81846115d5565b90509695505050505050565b5f60039050919050565b5f81905092915050565b5f819050919050565b6116a081611530565b82525050565b5f82825260208201905092915050565b5f6116c08261159d565b6116ca81856116a6565b93506116da8185602086016115b7565b6116e3816115c5565b840191505092915050565b5f60a083015f8301516117035f860182611697565b506020830151848203602086015261171b82826116b6565b9150506040830151848203604086015261173582826116b6565b9150506060830151848203606086015261174f82826116b6565b9150506080830151848203608086015261176982826116b6565b9150508091505092915050565b5f61178183836116ee565b905092915050565b5f602082019050919050565b5f61179f8261167a565b6117a98185611684565b9350836020820285016117bb8561168e565b805f5b858110156117f657848403895281516117d78582611776565b94506117e283611789565b925060208a019950506001810190506117be565b50829750879550505050505092915050565b5f6020820190508181035f8301526118208184611795565b905092915050565b5f60039050919050565b5f81905092915050565b5f819050919050565b5f60a083015f83015161185a5f860182611697565b506020830151848203602086015261187282826116b6565b9150506040830151848203604086015261188c82826116b6565b915050606083015184820360608601526118a682826116b6565b915050608083015184820360808601526118c082826116b6565b9150508091505092915050565b5f6118d88383611845565b905092915050565b5f602082019050919050565b5f6118f682611828565b6119008185611832565b9350836020820285016119128561183c565b805f5b8581101561194d578484038952815161192e85826118cd565b9450611939836118e0565b925060208a01995050600181019050611915565b50829750879550505050505092915050565b5f6020820190508181035f83015261197781846118ec565b905092915050565b5f80fd5b5f80fd5b5f80fd5b5f8083601f8401126119a05761199f61197f565b5b8235905067ffffffffffffffff8111156119bd576119bc611983565b5b6020830191508360018202830111156119d9576119d8611987565b5b9250929050565b5f80602083850312156119f6576119f5611528565b5b5f83013567ffffffffffffffff811115611a1357611a1261152c565b5b611a1f8582860161198b565b92509250509250929050565b5f805f805f805f805f60a08a8c031215611a4857611a47611528565b5b5f8a013567ffffffffffffffff811115611a6557611a6461152c565b5b611a718c828d0161198b565b995099505060208a013567ffffffffffffffff811115611a9457611a9361152c565b5b611aa08c828d0161198b565b975097505060408a013567ffffffffffffffff811115611ac357611ac261152c565b5b611acf8c828d0161198b565b955095505060608a013567ffffffffffffffff811115611af257611af161152c565b5b611afe8c828d0161198b565b93509350506080611b118c828d0161154f565b9150509295985092959850929598565b5f805f805f805f806080898b031215611b3d57611b3c611528565b5b5f89013567ffffffffffffffff811115611b5a57611b5961152c565b5b611b668b828c0161198b565b9850985050602089013567ffffffffffffffff811115611b8957611b8861152c565b5b611b958b828c0161198b565b9650965050604089013567ffffffffffffffff811115611bb857611bb761152c565b5b611bc48b828c0161198b565b9450945050606089013567ffffffffffffffff811115611be757611be661152c565b5b611bf38b828c0161198b565b92509250509295985092959890939650565b5f6020820190508181035f830152611c1d81846115d5565b905092915050565b7f4e487b71000000000000000000000000000000000000000000000000000000005f52602260045260245ffd5b5f6002820490506001821680611c6957607f821691505b602082108103611c7c57611c7b611c25565b5b50919050565b7f596f7520646f206e6f74206861766520616e20617574686f72697479206f76655f8201527f72207468697320636f6e74726163740000000000000000000000000000000000602082015250565b5f611cdc602f836115a7565b9150611ce782611c82565b604082019050919050565b5f6020820190508181035f830152611d0981611cd0565b9050919050565b7f4e6f74206d6f7265207468616e20332070726f6a6563747300000000000000005f82015250565b5f611d446018836115a7565b9150611d4f82611d10565b602082019050919050565b5f6020820190508181035f830152611d7181611d38565b9050919050565b7f4e487b71000000000000000000000000000000000000000000000000000000005f52603260045260245ffd5b7f4e487b71000000000000000000000000000000000000000000000000000000005f52604160045260245ffd5b5f819050815f5260205f209050919050565b5f6020601f8301049050919050565b5f82821b905092915050565b5f60088302611e2e7fffffffffffffffffffffffffffffffffffffffffffffffffffffffffffffffff82611df3565b611e388683611df3565b95508019841693508086168417925050509392505050565b5f819050919050565b5f611e73611e6e611e6984611530565b611e50565b611530565b9050919050565b5f819050919050565b611e8c83611e59565b611ea0611e9882611e7a565b848454611dff565b825550505050565b5f90565b611eb4611ea8565b611ebf818484611e83565b505050565b5b81811015611ee257611ed75f82611eac565b600181019050611ec5565b5050565b601f821115611f2757611ef881611dd2565b611f0184611de4565b81016020851015611f10578190505b611f24611f1c85611de4565b830182611ec4565b50505b505050565b5f82821c905092915050565b5f611f475f1984600802611f2c565b1980831691505092915050565b5f611f5f8383611f38565b9150826002028217905092915050565b611f788261159d565b67ffffffffffffffff811115611f9157611f90611da5565b5b611f9b8254611c52565b611fa6828285611ee6565b5f60209050601f831160018114611fd7575f8415611fc5578287015190505b611fcf8582611f54565b865550612036565b601f198416611fe586611dd2565b5f5b8281101561200c57848901518255600182019150602085019450602081019050611fe7565b868310156120295784890151612025601f891682611f38565b8355505b6001600288020188555050505b505050505050565b7f4e487b71000000000000000000000000000000000000000000000000000000005f52601160045260245ffd5b5f61207582611530565b91507fffffffffffffffffffffffffffffffffffffffffffffffffffffffffffffffff82036120a7576120a661203e565b5b600182019050919050565b7f496e76616c69642050726f6a656374436f756e740000000000000000000000005f82015250565b5f6120e66014836115a7565b91506120f1826120b2565b602082019050919050565b5f6020820190508181035f830152612113816120da565b905091905056fea26469706673582212206eee8eb2fe4cdff7b8e41384a4e8a08b76b08de9e2536c220c9d5d06147e55c364736f6c634300081a00336f7665722031206d6f6e746873206f662070726163746963616c20657870657269656e63652077697468206120676f6f64206b6e6f776c6564676520696e20626c6f636b636861696e516d653778564361526e77556342564879614b68734773473451466f673253444d4e3366484c5743547677414b7a516d4e566e3537564e417a47314755526550423854464a43623670324c354a7a7336396d757362705533744e5855",
					"opcodes": "PUSH1 0x80 PUSH1 0x40 MSTORE PUSH1 0x40 MLOAD DUP1 PUSH1 0x60 ADD PUSH1 0x40 MSTORE DUP1 PUSH1 0x2E DUP2 MSTORE PUSH1 0x20 ADD PUSH2 0x25AA PUSH1 0x2E SWAP2 CODECOPY PUSH1 0x1F SWAP1 DUP2 PUSH2 0x2B SWAP2 SWAP1 PUSH2 0x307 JUMP JUMPDEST POP PUSH1 0x40 MLOAD DUP1 PUSH1 0x80 ADD PUSH1 0x40 MSTORE DUP1 PUSH1 0x49 DUP2 MSTORE PUSH1 0x20 ADD PUSH2 0x2533 PUSH1 0x49 SWAP2 CODECOPY PUSH1 0x20 SWAP1 DUP2 PUSH2 0x53 SWAP2 SWAP1 PUSH2 0x307 JUMP JUMPDEST POP PUSH1 0x40 MLOAD DUP1 PUSH1 0x60 ADD PUSH1 0x40 MSTORE DUP1 PUSH1 0x2E DUP2 MSTORE PUSH1 0x20 ADD PUSH2 0x257C PUSH1 0x2E SWAP2 CODECOPY PUSH1 0x21 SWAP1 DUP2 PUSH2 0x7B SWAP2 SWAP1 PUSH2 0x307 JUMP JUMPDEST POP CALLVALUE DUP1 ISZERO PUSH2 0x87 JUMPI PUSH0 DUP1 REVERT JUMPDEST POP CALLER PUSH1 0x1E PUSH0 PUSH2 0x100 EXP DUP2 SLOAD DUP2 PUSH20 0xFFFFFFFFFFFFFFFFFFFFFFFFFFFFFFFFFFFFFFFF MUL NOT AND SWAP1 DUP4 PUSH20 0xFFFFFFFFFFFFFFFFFFFFFFFFFFFFFFFFFFFFFFFF AND MUL OR SWAP1 SSTORE POP PUSH2 0x3D6 JUMP JUMPDEST PUSH0 DUP2 MLOAD SWAP1 POP SWAP2 SWAP1 POP JUMP JUMPDEST PUSH32 0x4E487B7100000000000000000000000000000000000000000000000000000000 PUSH0 MSTORE PUSH1 0x41 PUSH1 0x4 MSTORE PUSH1 0x24 PUSH0 REVERT JUMPDEST PUSH32 0x4E487B7100000000000000000000000000000000000000000000000000000000 PUSH0 MSTORE PUSH1 0x22 PUSH1 0x4 MSTORE PUSH1 0x24 PUSH0 REVERT JUMPDEST PUSH0 PUSH1 0x2 DUP3 DIV SWAP1 POP PUSH1 0x1 DUP3 AND DUP1 PUSH2 0x148 JUMPI PUSH1 0x7F DUP3 AND SWAP2 POP JUMPDEST PUSH1 0x20 DUP3 LT DUP2 SUB PUSH2 0x15B JUMPI PUSH2 0x15A PUSH2 0x104 JUMP JUMPDEST JUMPDEST POP SWAP2 SWAP1 POP JUMP JUMPDEST PUSH0 DUP2 SWAP1 POP DUP2 PUSH0 MSTORE PUSH1 0x20 PUSH0 KECCAK256 SWAP1 POP SWAP2 SWAP1 POP JUMP JUMPDEST PUSH0 PUSH1 0x20 PUSH1 0x1F DUP4 ADD DIV SWAP1 POP SWAP2 SWAP1 POP JUMP JUMPDEST PUSH0 DUP3 DUP3 SHL SWAP1 POP SWAP3 SWAP2 POP POP JUMP JUMPDEST PUSH0 PUSH1 0x8 DUP4 MUL PUSH2 0x1BD PUSH32 0xFFFFFFFFFFFFFFFFFFFFFFFFFFFFFFFFFFFFFFFFFFFFFFFFFFFFFFFFFFFFFFFF DUP3 PUSH2 0x182 JUMP JUMPDEST PUSH2 0x1C7 DUP7 DUP4 PUSH2 0x182 JUMP JUMPDEST SWAP6 POP DUP1 NOT DUP5 AND SWAP4 POP DUP1 DUP7 AND DUP5 OR SWAP3 POP POP POP SWAP4 SWAP3 POP POP POP JUMP JUMPDEST PUSH0 DUP2 SWAP1 POP SWAP2 SWAP1 POP JUMP JUMPDEST PUSH0 DUP2 SWAP1 POP SWAP2 SWAP1 POP JUMP JUMPDEST PUSH0 PUSH2 0x20B PUSH2 0x206 PUSH2 0x201 DUP5 PUSH2 0x1DF JUMP JUMPDEST PUSH2 0x1E8 JUMP JUMPDEST PUSH2 0x1DF JUMP JUMPDEST SWAP1 POP SWAP2 SWAP1 POP JUMP JUMPDEST PUSH0 DUP2 SWAP1 POP SWAP2 SWAP1 POP JUMP JUMPDEST PUSH2 0x224 DUP4 PUSH2 0x1F1 JUMP JUMPDEST PUSH2 0x238 PUSH2 0x230 DUP3 PUSH2 0x212 JUMP JUMPDEST DUP5 DUP5 SLOAD PUSH2 0x18E JUMP JUMPDEST DUP3 SSTORE POP POP POP POP JUMP JUMPDEST PUSH0 SWAP1 JUMP JUMPDEST PUSH2 0x24C PUSH2 0x240 JUMP JUMPDEST PUSH2 0x257 DUP2 DUP5 DUP5 PUSH2 0x21B JUMP JUMPDEST POP POP POP JUMP JUMPDEST JUMPDEST DUP2 DUP2 LT ISZERO PUSH2 0x27A JUMPI PUSH2 0x26F PUSH0 DUP3 PUSH2 0x244 JUMP JUMPDEST PUSH1 0x1 DUP2 ADD SWAP1 POP PUSH2 0x25D JUMP JUMPDEST POP POP JUMP JUMPDEST PUSH1 0x1F DUP3 GT ISZERO PUSH2 0x2BF JUMPI PUSH2 0x290 DUP2 PUSH2 0x161 JUMP JUMPDEST PUSH2 0x299 DUP5 PUSH2 0x173 JUMP JUMPDEST DUP2 ADD PUSH1 0x20 DUP6 LT ISZERO PUSH2 0x2A8 JUMPI DUP2 SWAP1 POP JUMPDEST PUSH2 0x2BC PUSH2 0x2B4 DUP6 PUSH2 0x173 JUMP JUMPDEST DUP4 ADD DUP3 PUSH2 0x25C JUMP JUMPDEST POP POP JUMPDEST POP POP POP JUMP JUMPDEST PUSH0 DUP3 DUP3 SHR SWAP1 POP SWAP3 SWAP2 POP POP JUMP JUMPDEST PUSH0 PUSH2 0x2DF PUSH0 NOT DUP5 PUSH1 0x8 MUL PUSH2 0x2C4 JUMP JUMPDEST NOT DUP1 DUP4 AND SWAP2 POP POP SWAP3 SWAP2 POP POP JUMP JUMPDEST PUSH0 PUSH2 0x2F7 DUP4 DUP4 PUSH2 0x2D0 JUMP JUMPDEST SWAP2 POP DUP3 PUSH1 0x2 MUL DUP3 OR SWAP1 POP SWAP3 SWAP2 POP POP JUMP JUMPDEST PUSH2 0x310 DUP3 PUSH2 0xCD JUMP JUMPDEST PUSH8 0xFFFFFFFFFFFFFFFF DUP2 GT ISZERO PUSH2 0x329 JUMPI PUSH2 0x328 PUSH2 0xD7 JUMP JUMPDEST JUMPDEST PUSH2 0x333 DUP3 SLOAD PUSH2 0x131 JUMP JUMPDEST PUSH2 0x33E DUP3 DUP3 DUP6 PUSH2 0x27E JUMP JUMPDEST PUSH0 PUSH1 0x20 SWAP1 POP PUSH1 0x1F DUP4 GT PUSH1 0x1 DUP2 EQ PUSH2 0x36F JUMPI PUSH0 DUP5 ISZERO PUSH2 0x35D JUMPI DUP3 DUP8 ADD MLOAD SWAP1 POP JUMPDEST PUSH2 0x367 DUP6 DUP3 PUSH2 0x2EC JUMP JUMPDEST DUP7 SSTORE POP PUSH2 0x3CE JUMP JUMPDEST PUSH1 0x1F NOT DUP5 AND PUSH2 0x37D DUP7 PUSH2 0x161 JUMP JUMPDEST PUSH0 JUMPDEST DUP3 DUP2 LT ISZERO PUSH2 0x3A4 JUMPI DUP5 DUP10 ADD MLOAD DUP3 SSTORE PUSH1 0x1 DUP3 ADD SWAP2 POP PUSH1 0x20 DUP6 ADD SWAP5 POP PUSH1 0x20 DUP2 ADD SWAP1 POP PUSH2 0x37F JUMP JUMPDEST DUP7 DUP4 LT ISZERO PUSH2 0x3C1 JUMPI DUP5 DUP10 ADD MLOAD PUSH2 0x3BD PUSH1 0x1F DUP10 AND DUP3 PUSH2 0x2D0 JUMP JUMPDEST DUP4 SSTORE POP JUMPDEST PUSH1 0x1 PUSH1 0x2 DUP9 MUL ADD DUP9 SSTORE POP POP POP JUMPDEST POP POP POP POP POP POP JUMP JUMPDEST PUSH2 0x2150 DUP1 PUSH2 0x3E3 PUSH0 CODECOPY PUSH0 RETURN INVALID PUSH1 0x80 PUSH1 0x40 MSTORE PUSH1 0x4 CALLDATASIZE LT PUSH2 0xE7 JUMPI PUSH0 CALLDATALOAD PUSH1 0xE0 SHR DUP1 PUSH4 0x7284E416 GT PUSH2 0x89 JUMPI DUP1 PUSH4 0xCAF7B759 GT PUSH2 0x58 JUMPI DUP1 PUSH4 0xCAF7B759 EQ PUSH2 0x2DB JUMPI DUP1 PUSH4 0xD3CEDF11 EQ PUSH2 0x305 JUMPI DUP1 PUSH4 0xE6120413 EQ PUSH2 0x32D JUMPI DUP1 PUSH4 0xED88C68E EQ PUSH2 0x355 JUMPI PUSH2 0xE7 JUMP JUMPDEST DUP1 PUSH4 0x7284E416 EQ PUSH2 0x21F JUMPI DUP1 PUSH4 0x7AEA95AA EQ PUSH2 0x249 JUMPI DUP1 PUSH4 0x98F831B6 EQ PUSH2 0x289 JUMPI DUP1 PUSH4 0xC24708F4 EQ PUSH2 0x2B1 JUMPI PUSH2 0xE7 JUMP JUMPDEST DUP1 PUSH4 0x598E7F37 GT PUSH2 0xC5 JUMPI DUP1 PUSH4 0x598E7F37 EQ PUSH2 0x17F JUMPI DUP1 PUSH4 0x5B173A69 EQ PUSH2 0x1A7 JUMPI DUP1 PUSH4 0x6426D4C3 EQ PUSH2 0x1CF JUMPI DUP1 PUSH4 0x6FE8E0BD EQ PUSH2 0x1F7 JUMPI PUSH2 0xE7 JUMP JUMPDEST DUP1 PUSH4 0x107046BD EQ PUSH2 0xEB JUMPI DUP1 PUSH4 0x2ADF13B2 EQ PUSH2 0x12B JUMPI DUP1 PUSH4 0x5397C6EC EQ PUSH2 0x155 JUMPI JUMPDEST PUSH0 DUP1 REVERT JUMPDEST CALLVALUE DUP1 ISZERO PUSH2 0xF6 JUMPI PUSH0 DUP1 REVERT JUMPDEST POP PUSH2 0x111 PUSH1 0x4 DUP1 CALLDATASIZE SUB DUP2 ADD SWAP1 PUSH2 0x10C SWAP2 SWAP1 PUSH2 0x1563 JUMP JUMPDEST PUSH2 0x35F JUMP JUMPDEST PUSH1 0x40 MLOAD PUSH2 0x122 SWAP6 SWAP5 SWAP4 SWAP3 SWAP2 SWAP1 PUSH2 0x160D JUMP JUMPDEST PUSH1 0x40 MLOAD DUP1 SWAP2 SUB SWAP1 RETURN JUMPDEST CALLVALUE DUP1 ISZERO PUSH2 0x136 JUMPI PUSH0 DUP1 REVERT JUMPDEST POP PUSH2 0x13F PUSH2 0x5AF JUMP JUMPDEST PUSH1 0x40 MLOAD PUSH2 0x14C SWAP2 SWAP1 PUSH2 0x1808 JUMP JUMPDEST PUSH1 0x40 MLOAD DUP1 SWAP2 SUB SWAP1 RETURN JUMPDEST CALLVALUE DUP1 ISZERO PUSH2 0x160 JUMPI PUSH0 DUP1 REVERT JUMPDEST POP PUSH2 0x169 PUSH2 0x848 JUMP JUMPDEST PUSH1 0x40 MLOAD PUSH2 0x176 SWAP2 SWAP1 PUSH2 0x195F JUMP JUMPDEST PUSH1 0x40 MLOAD DUP1 SWAP2 SUB SWAP1 RETURN JUMPDEST CALLVALUE DUP1 ISZERO PUSH2 0x18A JUMPI PUSH0 DUP1 REVERT JUMPDEST POP PUSH2 0x1A5 PUSH1 0x4 DUP1 CALLDATASIZE SUB DUP2 ADD SWAP1 PUSH2 0x1A0 SWAP2 SWAP1 PUSH2 0x19E0 JUMP JUMPDEST PUSH2 0x853 JUMP JUMPDEST STOP JUMPDEST CALLVALUE DUP1 ISZERO PUSH2 0x1B2 JUMPI PUSH0 DUP1 REVERT JUMPDEST POP PUSH2 0x1CD PUSH1 0x4 DUP1 CALLDATASIZE SUB DUP2 ADD SWAP1 PUSH2 0x1C8 SWAP2 SWAP1 PUSH2 0x1A2B JUMP JUMPDEST PUSH2 0x8E6 JUMP JUMPDEST STOP JUMPDEST CALLVALUE DUP1 ISZERO PUSH2 0x1DA JUMPI PUSH0 DUP1 REVERT JUMPDEST POP PUSH2 0x1F5 PUSH1 0x4 DUP1 CALLDATASIZE SUB DUP2 ADD SWAP1 PUSH2 0x1F0 SWAP2 SWAP1 PUSH2 0x1B21 JUMP JUMPDEST PUSH2 0x980 JUMP JUMPDEST STOP JUMPDEST CALLVALUE DUP1 ISZERO PUSH2 0x202 JUMPI PUSH0 DUP1 REVERT JUMPDEST POP PUSH2 0x21D PUSH1 0x4 DUP1 CALLDATASIZE SUB DUP2 ADD SWAP1 PUSH2 0x218 SWAP2 SWAP1 PUSH2 0x1A2B JUMP JUMPDEST PUSH2 0xC26 JUMP JUMPDEST STOP JUMPDEST CALLVALUE DUP1 ISZERO PUSH2 0x22A JUMPI PUSH0 DUP1 REVERT JUMPDEST POP PUSH2 0x233 PUSH2 0xEBC JUMP JUMPDEST PUSH1 0x40 MLOAD PUSH2 0x240 SWAP2 SWAP1 PUSH2 0x1C05 JUMP JUMPDEST PUSH1 0x40 MLOAD DUP1 SWAP2 SUB SWAP1 RETURN JUMPDEST CALLVALUE DUP1 ISZERO PUSH2 0x254 JUMPI PUSH0 DUP1 REVERT JUMPDEST POP PUSH2 0x26F PUSH1 0x4 DUP1 CALLDATASIZE SUB DUP2 ADD SWAP1 PUSH2 0x26A SWAP2 SWAP1 PUSH2 0x1563 JUMP JUMPDEST PUSH2 0xF48 JUMP JUMPDEST PUSH1 0x40 MLOAD PUSH2 0x280 SWAP6 SWAP5 SWAP4 SWAP3 SWAP2 SWAP1 PUSH2 0x160D JUMP JUMPDEST PUSH1 0x40 MLOAD DUP1 SWAP2 SUB SWAP1 RETURN JUMPDEST CALLVALUE DUP1 ISZERO PUSH2 0x294 JUMPI PUSH0 DUP1 REVERT JUMPDEST POP PUSH2 0x2AF PUSH1 0x4 DUP1 CALLDATASIZE SUB DUP2 ADD SWAP1 PUSH2 0x2AA SWAP2 SWAP1 PUSH2 0x1B21 JUMP JUMPDEST PUSH2 0x1199 JUMP JUMPDEST STOP JUMPDEST CALLVALUE DUP1 ISZERO PUSH2 0x2BC JUMPI PUSH0 DUP1 REVERT JUMPDEST POP PUSH2 0x2C5 PUSH2 0x1232 JUMP JUMPDEST PUSH1 0x40 MLOAD PUSH2 0x2D2 SWAP2 SWAP1 PUSH2 0x1C05 JUMP JUMPDEST PUSH1 0x40 MLOAD DUP1 SWAP2 SUB SWAP1 RETURN JUMPDEST CALLVALUE DUP1 ISZERO PUSH2 0x2E6 JUMPI PUSH0 DUP1 REVERT JUMPDEST POP PUSH2 0x2EF PUSH2 0x12BE JUMP JUMPDEST PUSH1 0x40 MLOAD PUSH2 0x2FC SWAP2 SWAP1 PUSH2 0x1C05 JUMP JUMPDEST PUSH1 0x40 MLOAD DUP1 SWAP2 SUB SWAP1 RETURN JUMPDEST CALLVALUE DUP1 ISZERO PUSH2 0x310 JUMPI PUSH0 DUP1 REVERT JUMPDEST POP PUSH2 0x32B PUSH1 0x4 DUP1 CALLDATASIZE SUB DUP2 ADD SWAP1 PUSH2 0x326 SWAP2 SWAP1 PUSH2 0x19E0 JUMP JUMPDEST PUSH2 0x134A JUMP JUMPDEST STOP JUMPDEST CALLVALUE DUP1 ISZERO PUSH2 0x338 JUMPI PUSH0 DUP1 REVERT JUMPDEST POP PUSH2 0x353 PUSH1 0x4 DUP1 CALLDATASIZE SUB DUP2 ADD SWAP1 PUSH2 0x34E SWAP2 SWAP1 PUSH2 0x19E0 JUMP JUMPDEST PUSH2 0x13DD JUMP JUMPDEST STOP JUMPDEST PUSH2 0x35D PUSH2 0x1470 JUMP JUMPDEST STOP JUMPDEST PUSH0 DUP2 PUSH1 0x3 DUP2 LT PUSH2 0x36D JUMPI PUSH0 DUP1 REVERT JUMPDEST PUSH1 0x5 MUL ADD PUSH0 SWAP2 POP SWAP1 POP DUP1 PUSH0 ADD SLOAD SWAP1 DUP1 PUSH1 0x1 ADD DUP1 SLOAD PUSH2 0x38A SWAP1 PUSH2 0x1C52 JUMP JUMPDEST DUP1 PUSH1 0x1F ADD PUSH1 0x20 DUP1 SWAP2 DIV MUL PUSH1 0x20 ADD PUSH1 0x40 MLOAD SWAP1 DUP2 ADD PUSH1 0x40 MSTORE DUP1 SWAP3 SWAP2 SWAP1 DUP2 DUP2 MSTORE PUSH1 0x20 ADD DUP3 DUP1 SLOAD PUSH2 0x3B6 SWAP1 PUSH2 0x1C52 JUMP JUMPDEST DUP1 ISZERO PUSH2 0x401 JUMPI DUP1 PUSH1 0x1F LT PUSH2 0x3D8 JUMPI PUSH2 0x100 DUP1 DUP4 SLOAD DIV MUL DUP4 MSTORE SWAP2 PUSH1 0x20 ADD SWAP2 PUSH2 0x401 JUMP JUMPDEST DUP3 ADD SWAP2 SWAP1 PUSH0 MSTORE PUSH1 0x20 PUSH0 KECCAK256 SWAP1 JUMPDEST DUP2 SLOAD DUP2 MSTORE SWAP1 PUSH1 0x1 ADD SWAP1 PUSH1 0x20 ADD DUP1 DUP4 GT PUSH2 0x3E4 JUMPI DUP3 SWAP1 SUB PUSH1 0x1F AND DUP3 ADD SWAP2 JUMPDEST POP POP POP POP POP SWAP1 DUP1 PUSH1 0x2 ADD DUP1 SLOAD PUSH2 0x416 SWAP1 PUSH2 0x1C52 JUMP JUMPDEST DUP1 PUSH1 0x1F ADD PUSH1 0x20 DUP1 SWAP2 DIV MUL PUSH1 0x20 ADD PUSH1 0x40 MLOAD SWAP1 DUP2 ADD PUSH1 0x40 MSTORE DUP1 SWAP3 SWAP2 SWAP1 DUP2 DUP2 MSTORE PUSH1 0x20 ADD DUP3 DUP1 SLOAD PUSH2 0x442 SWAP1 PUSH2 0x1C52 JUMP JUMPDEST DUP1 ISZERO PUSH2 0x48D JUMPI DUP1 PUSH1 0x1F LT PUSH2 0x464 JUMPI PUSH2 0x100 DUP1 DUP4 SLOAD DIV MUL DUP4 MSTORE SWAP2 PUSH1 0x20 ADD SWAP2 PUSH2 0x48D JUMP JUMPDEST DUP3 ADD SWAP2 SWAP1 PUSH0 MSTORE PUSH1 0x20 PUSH0 KECCAK256 SWAP1 JUMPDEST DUP2 SLOAD DUP2 MSTORE SWAP1 PUSH1 0x1 ADD SWAP1 PUSH1 0x20 ADD DUP1 DUP4 GT PUSH2 0x470 JUMPI DUP3 SWAP1 SUB PUSH1 0x1F AND DUP3 ADD SWAP2 JUMPDEST POP POP POP POP POP SWAP1 DUP1 PUSH1 0x3 ADD DUP1 SLOAD PUSH2 0x4A2 SWAP1 PUSH2 0x1C52 JUMP JUMPDEST DUP1 PUSH1 0x1F ADD PUSH1 0x20 DUP1 SWAP2 DIV MUL PUSH1 0x20 ADD PUSH1 0x40 MLOAD SWAP1 DUP2 ADD PUSH1 0x40 MSTORE DUP1 SWAP3 SWAP2 SWAP1 DUP2 DUP2 MSTORE PUSH1 0x20 ADD DUP3 DUP1 SLOAD PUSH2 0x4CE SWAP1 PUSH2 0x1C52 JUMP JUMPDEST DUP1 ISZERO PUSH2 0x519 JUMPI DUP1 PUSH1 0x1F LT PUSH2 0x4F0 JUMPI PUSH2 0x100 DUP1 DUP4 SLOAD DIV MUL DUP4 MSTORE SWAP2 PUSH1 0x20 ADD SWAP2 PUSH2 0x519 JUMP JUMPDEST DUP3 ADD SWAP2 SWAP1 PUSH0 MSTORE PUSH1 0x20 PUSH0 KECCAK256 SWAP1 JUMPDEST DUP2 SLOAD DUP2 MSTORE SWAP1 PUSH1 0x1 ADD SWAP1 PUSH1 0x20 ADD DUP1 DUP4 GT PUSH2 0x4FC JUMPI DUP3 SWAP1 SUB PUSH1 0x1F AND DUP3 ADD SWAP2 JUMPDEST POP POP POP POP POP SWAP1 DUP1 PUSH1 0x4 ADD DUP1 SLOAD PUSH2 0x52E SWAP1 PUSH2 0x1C52 JUMP JUMPDEST DUP1 PUSH1 0x1F ADD PUSH1 0x20 DUP1 SWAP2 DIV MUL PUSH1 0x20 ADD PUSH1 0x40 MLOAD SWAP1 DUP2 ADD PUSH1 0x40 MSTORE DUP1 SWAP3 SWAP2 SWAP1 DUP2 DUP2 MSTORE PUSH1 0x20 ADD DUP3 DUP1 SLOAD PUSH2 0x55A SWAP1 PUSH2 0x1C52 JUMP JUMPDEST DUP1 ISZERO PUSH2 0x5A5 JUMPI DUP1 PUSH1 0x1F LT PUSH2 0x57C JUMPI PUSH2 0x100 DUP1 DUP4 SLOAD DIV MUL DUP4 MSTORE SWAP2 PUSH1 0x20 ADD SWAP2 PUSH2 0x5A5 JUMP JUMPDEST DUP3 ADD SWAP2 SWAP1 PUSH0 MSTORE PUSH1 0x20 PUSH0 KECCAK256 SWAP1 JUMPDEST DUP2 SLOAD DUP2 MSTORE SWAP1 PUSH1 0x1 ADD SWAP1 PUSH1 0x20 ADD DUP1 DUP4 GT PUSH2 0x588 JUMPI DUP3 SWAP1 SUB PUSH1 0x1F AND DUP3 ADD SWAP2 JUMPDEST POP POP POP POP POP SWAP1 POP DUP6 JUMP JUMPDEST PUSH2 0x5B7 PUSH2 0x1472 JUMP JUMPDEST PUSH0 PUSH1 0x3 DUP1 PUSH1 0x20 MUL PUSH1 0x40 MLOAD SWAP1 DUP2 ADD PUSH1 0x40 MSTORE DUP1 SWAP3 SWAP2 SWAP1 PUSH0 SWAP1 JUMPDEST DUP3 DUP3 LT ISZERO PUSH2 0x83F JUMPI DUP4 DUP3 PUSH1 0x5 MUL ADD PUSH1 0x40 MLOAD DUP1 PUSH1 0xA0 ADD PUSH1 0x40 MSTORE SWAP1 DUP2 PUSH0 DUP3 ADD SLOAD DUP2 MSTORE PUSH1 0x20 ADD PUSH1 0x1 DUP3 ADD DUP1 SLOAD PUSH2 0x600 SWAP1 PUSH2 0x1C52 JUMP JUMPDEST DUP1 PUSH1 0x1F ADD PUSH1 0x20 DUP1 SWAP2 DIV MUL PUSH1 0x20 ADD PUSH1 0x40 MLOAD SWAP1 DUP2 ADD PUSH1 0x40 MSTORE DUP1 SWAP3 SWAP2 SWAP1 DUP2 DUP2 MSTORE PUSH1 0x20 ADD DUP3 DUP1 SLOAD PUSH2 0x62C SWAP1 PUSH2 0x1C52 JUMP JUMPDEST DUP1 ISZERO PUSH2 0x677 JUMPI DUP1 PUSH1 0x1F LT PUSH2 0x64E JUMPI PUSH2 0x100 DUP1 DUP4 SLOAD DIV MUL DUP4 MSTORE SWAP2 PUSH1 0x20 ADD SWAP2 PUSH2 0x677 JUMP JUMPDEST DUP3 ADD SWAP2 SWAP1 PUSH0 MSTORE PUSH1 0x20 PUSH0 KECCAK256 SWAP1 JUMPDEST DUP2 SLOAD DUP2 MSTORE SWAP1 PUSH1 0x1 ADD SWAP1 PUSH1 0x20 ADD DUP1 DUP4 GT PUSH2 0x65A JUMPI DUP3 SWAP1 SUB PUSH1 0x1F AND DUP3 ADD SWAP2 JUMPDEST POP POP POP POP POP DUP2 MSTORE PUSH1 0x20 ADD PUSH1 0x2 DUP3 ADD DUP1 SLOAD PUSH2 0x690 SWAP1 PUSH2 0x1C52 JUMP JUMPDEST DUP1 PUSH1 0x1F ADD PUSH1 0x20 DUP1 SWAP2 DIV MUL PUSH1 0x20 ADD PUSH1 0x40 MLOAD SWAP1 DUP2 ADD PUSH1 0x40 MSTORE DUP1 SWAP3 SWAP2 SWAP1 DUP2 DUP2 MSTORE PUSH1 0x20 ADD DUP3 DUP1 SLOAD PUSH2 0x6BC SWAP1 PUSH2 0x1C52 JUMP JUMPDEST DUP1 ISZERO PUSH2 0x707 JUMPI DUP1 PUSH1 0x1F LT PUSH2 0x6DE JUMPI PUSH2 0x100 DUP1 DUP4 SLOAD DIV MUL DUP4 MSTORE SWAP2 PUSH1 0x20 ADD SWAP2 PUSH2 0x707 JUMP JUMPDEST DUP3 ADD SWAP2 SWAP1 PUSH0 MSTORE PUSH1 0x20 PUSH0 KECCAK256 SWAP1 JUMPDEST DUP2 SLOAD DUP2 MSTORE SWAP1 PUSH1 0x1 ADD SWAP1 PUSH1 0x20 ADD DUP1 DUP4 GT PUSH2 0x6EA JUMPI DUP3 SWAP1 SUB PUSH1 0x1F AND DUP3 ADD SWAP2 JUMPDEST POP POP POP POP POP DUP2 MSTORE PUSH1 0x20 ADD PUSH1 0x3 DUP3 ADD DUP1 SLOAD PUSH2 0x720 SWAP1 PUSH2 0x1C52 JUMP JUMPDEST DUP1 PUSH1 0x1F ADD PUSH1 0x20 DUP1 SWAP2 DIV MUL PUSH1 0x20 ADD PUSH1 0x40 MLOAD SWAP1 DUP2 ADD PUSH1 0x40 MSTORE DUP1 SWAP3 SWAP2 SWAP1 DUP2 DUP2 MSTORE PUSH1 0x20 ADD DUP3 DUP1 SLOAD PUSH2 0x74C SWAP1 PUSH2 0x1C52 JUMP JUMPDEST DUP1 ISZERO PUSH2 0x797 JUMPI DUP1 PUSH1 0x1F LT PUSH2 0x76E JUMPI PUSH2 0x100 DUP1 DUP4 SLOAD DIV MUL DUP4 MSTORE SWAP2 PUSH1 0x20 ADD SWAP2 PUSH2 0x797 JUMP JUMPDEST DUP3 ADD SWAP2 SWAP1 PUSH0 MSTORE PUSH1 0x20 PUSH0 KECCAK256 SWAP1 JUMPDEST DUP2 SLOAD DUP2 MSTORE SWAP1 PUSH1 0x1 ADD SWAP1 PUSH1 0x20 ADD DUP1 DUP4 GT PUSH2 0x77A JUMPI DUP3 SWAP1 SUB PUSH1 0x1F AND DUP3 ADD SWAP2 JUMPDEST POP POP POP POP POP DUP2 MSTORE PUSH1 0x20 ADD PUSH1 0x4 DUP3 ADD DUP1 SLOAD PUSH2 0x7B0 SWAP1 PUSH2 0x1C52 JUMP JUMPDEST DUP1 PUSH1 0x1F ADD PUSH1 0x20 DUP1 SWAP2 DIV MUL PUSH1 0x20 ADD PUSH1 0x40 MLOAD SWAP1 DUP2 ADD PUSH1 0x40 MSTORE DUP1 SWAP3 SWAP2 SWAP1 DUP2 DUP2 MSTORE PUSH1 0x20 ADD DUP3 DUP1 SLOAD PUSH2 0x7DC SWAP1 PUSH2 0x1C52 JUMP JUMPDEST DUP1 ISZERO PUSH2 0x827 JUMPI DUP1 PUSH1 0x1F LT PUSH2 0x7FE JUMPI PUSH2 0x100 DUP1 DUP4 SLOAD DIV MUL DUP4 MSTORE SWAP2 PUSH1 0x20 ADD SWAP2 PUSH2 0x827 JUMP JUMPDEST DUP3 ADD SWAP2 SWAP1 PUSH0 MSTORE PUSH1 0x20 PUSH0 KECCAK256 SWAP1 JUMPDEST DUP2 SLOAD DUP2 MSTORE SWAP1 PUSH1 0x1 ADD SWAP1 PUSH1 0x20 ADD DUP1 DUP4 GT PUSH2 0x80A JUMPI DUP3 SWAP1 SUB PUSH1 0x1F AND DUP3 ADD SWAP2 JUMPDEST POP POP POP POP POP DUP2 MSTORE POP POP DUP2 MSTORE PUSH1 0x20 ADD SWAP1 PUSH1 0x1 ADD SWAP1 PUSH2 0x5CE JUMP JUMPDEST POP POP POP POP SWAP1 POP SWAP1 JUMP JUMPDEST PUSH2 0x850 PUSH2 0x149F JUMP JUMPDEST SWAP1 JUMP JUMPDEST CALLER PUSH20 0xFFFFFFFFFFFFFFFFFFFFFFFFFFFFFFFFFFFFFFFF AND PUSH1 0x1E PUSH0 SWAP1 SLOAD SWAP1 PUSH2 0x100 EXP SWAP1 DIV PUSH20 0xFFFFFFFFFFFFFFFFFFFFFFFFFFFFFFFFFFFFFFFF AND PUSH20 0xFFFFFFFFFFFFFFFFFFFFFFFFFFFFFFFFFFFFFFFF AND EQ PUSH2 0x8E2 JUMPI PUSH1 0x40 MLOAD PUSH32 0x8C379A000000000000000000000000000000000000000000000000000000000 DUP2 MSTORE PUSH1 0x4 ADD PUSH2 0x8D9 SWAP1 PUSH2 0x1CF2 JUMP JUMPDEST PUSH1 0x40 MLOAD DUP1 SWAP2 SUB SWAP1 REVERT JUMPDEST POP POP JUMP JUMPDEST CALLER PUSH20 0xFFFFFFFFFFFFFFFFFFFFFFFFFFFFFFFFFFFFFFFF AND PUSH1 0x1E PUSH0 SWAP1 SLOAD SWAP1 PUSH2 0x100 EXP SWAP1 DIV PUSH20 0xFFFFFFFFFFFFFFFFFFFFFFFFFFFFFFFFFFFFFFFF AND PUSH20 0xFFFFFFFFFFFFFFFFFFFFFFFFFFFFFFFFFFFFFFFF AND EQ PUSH2 0x975 JUMPI PUSH1 0x40 MLOAD PUSH32 0x8C379A000000000000000000000000000000000000000000000000000000000 DUP2 MSTORE PUSH1 0x4 ADD PUSH2 0x96C SWAP1 PUSH2 0x1CF2 JUMP JUMPDEST PUSH1 0x40 MLOAD DUP1 SWAP2 SUB SWAP1 REVERT JUMPDEST POP POP POP POP POP POP POP POP POP JUMP JUMPDEST CALLER PUSH20 0xFFFFFFFFFFFFFFFFFFFFFFFFFFFFFFFFFFFFFFFF AND PUSH1 0x1E PUSH0 SWAP1 SLOAD SWAP1 PUSH2 0x100 EXP SWAP1 DIV PUSH20 0xFFFFFFFFFFFFFFFFFFFFFFFFFFFFFFFFFFFFFFFF AND PUSH20 0xFFFFFFFFFFFFFFFFFFFFFFFFFFFFFFFFFFFFFFFF AND EQ PUSH2 0xA0F JUMPI PUSH1 0x40 MLOAD PUSH32 0x8C379A000000000000000000000000000000000000000000000000000000000 DUP2 MSTORE PUSH1 0x4 ADD PUSH2 0xA06 SWAP1 PUSH2 0x1CF2 JUMP JUMPDEST PUSH1 0x40 MLOAD DUP1 SWAP2 SUB SWAP1 REVERT JUMPDEST PUSH1 0x3 PUSH1 0x22 SLOAD LT PUSH2 0xA54 JUMPI PUSH1 0x40 MLOAD PUSH32 0x8C379A000000000000000000000000000000000000000000000000000000000 DUP2 MSTORE PUSH1 0x4 ADD PUSH2 0xA4B SWAP1 PUSH2 0x1D5A JUMP JUMPDEST PUSH1 0x40 MLOAD DUP1 SWAP2 SUB SWAP1 REVERT JUMPDEST PUSH1 0x40 MLOAD DUP1 PUSH1 0xA0 ADD PUSH1 0x40 MSTORE DUP1 PUSH1 0x22 SLOAD DUP2 MSTORE PUSH1 0x20 ADD DUP10 DUP10 DUP1 DUP1 PUSH1 0x1F ADD PUSH1 0x20 DUP1 SWAP2 DIV MUL PUSH1 0x20 ADD PUSH1 0x40 MLOAD SWAP1 DUP2 ADD PUSH1 0x40 MSTORE DUP1 SWAP4 SWAP3 SWAP2 SWAP1 DUP2 DUP2 MSTORE PUSH1 0x20 ADD DUP4 DUP4 DUP1 DUP3 DUP5 CALLDATACOPY PUSH0 DUP2 DUP5 ADD MSTORE PUSH1 0x1F NOT PUSH1 0x1F DUP3 ADD AND SWAP1 POP DUP1 DUP4 ADD SWAP3 POP POP POP POP POP POP POP DUP2 MSTORE PUSH1 0x20 ADD DUP8 DUP8 DUP1 DUP1 PUSH1 0x1F ADD PUSH1 0x20 DUP1 SWAP2 DIV MUL PUSH1 0x20 ADD PUSH1 0x40 MLOAD SWAP1 DUP2 ADD PUSH1 0x40 MSTORE DUP1 SWAP4 SWAP3 SWAP2 SWAP1 DUP2 DUP2 MSTORE PUSH1 0x20 ADD DUP4 DUP4 DUP1 DUP3 DUP5 CALLDATACOPY PUSH0 DUP2 DUP5 ADD MSTORE PUSH1 0x1F NOT PUSH1 0x1F DUP3 ADD AND SWAP1 POP DUP1 DUP4 ADD SWAP3 POP POP POP POP POP POP POP DUP2 MSTORE PUSH1 0x20 ADD DUP6 DUP6 DUP1 DUP1 PUSH1 0x1F ADD PUSH1 0x20 DUP1 SWAP2 DIV MUL PUSH1 0x20 ADD PUSH1 0x40 MLOAD SWAP1 DUP2 ADD PUSH1 0x40 MSTORE DUP1 SWAP4 SWAP3 SWAP2 SWAP1 DUP2 DUP2 MSTORE PUSH1 0x20 ADD DUP4 DUP4 DUP1 DUP3 DUP5 CALLDATACOPY PUSH0 DUP2 DUP5 ADD MSTORE PUSH1 0x1F NOT PUSH1 0x1F DUP3 ADD AND SWAP1 POP DUP1 DUP4 ADD SWAP3 POP POP POP POP POP POP POP DUP2 MSTORE PUSH1 0x20 ADD DUP4 DUP4 DUP1 DUP1 PUSH1 0x1F ADD PUSH1 0x20 DUP1 SWAP2 DIV MUL PUSH1 0x20 ADD PUSH1 0x40 MLOAD SWAP1 DUP2 ADD PUSH1 0x40 MSTORE DUP1 SWAP4 SWAP3 SWAP2 SWAP1 DUP2 DUP2 MSTORE PUSH1 0x20 ADD DUP4 DUP4 DUP1 DUP3 DUP5 CALLDATACOPY PUSH0 DUP2 DUP5 ADD MSTORE PUSH1 0x1F NOT PUSH1 0x1F DUP3 ADD AND SWAP1 POP DUP1 DUP4 ADD SWAP3 POP POP POP POP POP POP POP DUP2 MSTORE POP PUSH0 PUSH1 0x22 SLOAD PUSH1 0x3 DUP2 LT PUSH2 0xB9E JUMPI PUSH2 0xB9D PUSH2 0x1D78 JUMP JUMPDEST JUMPDEST PUSH1 0x5 MUL ADD PUSH0 DUP3 ADD MLOAD DUP2 PUSH0 ADD SSTORE PUSH1 0x20 DUP3 ADD MLOAD DUP2 PUSH1 0x1 ADD SWAP1 DUP2 PUSH2 0xBBF SWAP2 SWAP1 PUSH2 0x1F6F JUMP JUMPDEST POP PUSH1 0x40 DUP3 ADD MLOAD DUP2 PUSH1 0x2 ADD SWAP1 DUP2 PUSH2 0xBD5 SWAP2 SWAP1 PUSH2 0x1F6F JUMP JUMPDEST POP PUSH1 0x60 DUP3 ADD MLOAD DUP2 PUSH1 0x3 ADD SWAP1 DUP2 PUSH2 0xBEB SWAP2 SWAP1 PUSH2 0x1F6F JUMP JUMPDEST POP PUSH1 0x80 DUP3 ADD MLOAD DUP2 PUSH1 0x4 ADD SWAP1 DUP2 PUSH2 0xC01 SWAP2 SWAP1 PUSH2 0x1F6F JUMP JUMPDEST POP SWAP1 POP POP PUSH1 0x22 PUSH0 DUP2 SLOAD DUP1 SWAP3 SWAP2 SWAP1 PUSH2 0xC17 SWAP1 PUSH2 0x206B JUMP JUMPDEST SWAP2 SWAP1 POP SSTORE POP POP POP POP POP POP POP POP POP JUMP JUMPDEST CALLER PUSH20 0xFFFFFFFFFFFFFFFFFFFFFFFFFFFFFFFFFFFFFFFF AND PUSH1 0x1E PUSH0 SWAP1 SLOAD SWAP1 PUSH2 0x100 EXP SWAP1 DIV PUSH20 0xFFFFFFFFFFFFFFFFFFFFFFFFFFFFFFFFFFFFFFFF AND PUSH20 0xFFFFFFFFFFFFFFFFFFFFFFFFFFFFFFFFFFFFFFFF AND EQ PUSH2 0xCB5 JUMPI PUSH1 0x40 MLOAD PUSH32 0x8C379A000000000000000000000000000000000000000000000000000000000 DUP2 MSTORE PUSH1 0x4 ADD PUSH2 0xCAC SWAP1 PUSH2 0x1CF2 JUMP JUMPDEST PUSH1 0x40 MLOAD DUP1 SWAP2 SUB SWAP1 REVERT JUMPDEST PUSH0 DUP2 LT ISZERO DUP1 ISZERO PUSH2 0xCC5 JUMPI POP PUSH1 0x3 DUP2 LT JUMPDEST PUSH2 0xD04 JUMPI PUSH1 0x40 MLOAD PUSH32 0x8C379A000000000000000000000000000000000000000000000000000000000 DUP2 MSTORE PUSH1 0x4 ADD PUSH2 0xCFB SWAP1 PUSH2 0x20FC JUMP JUMPDEST PUSH1 0x40 MLOAD DUP1 SWAP2 SUB SWAP1 REVERT JUMPDEST PUSH1 0x40 MLOAD DUP1 PUSH1 0xA0 ADD PUSH1 0x40 MSTORE DUP1 DUP3 DUP2 MSTORE PUSH1 0x20 ADD DUP11 DUP11 DUP1 DUP1 PUSH1 0x1F ADD PUSH1 0x20 DUP1 SWAP2 DIV MUL PUSH1 0x20 ADD PUSH1 0x40 MLOAD SWAP1 DUP2 ADD PUSH1 0x40 MSTORE DUP1 SWAP4 SWAP3 SWAP2 SWAP1 DUP2 DUP2 MSTORE PUSH1 0x20 ADD DUP4 DUP4 DUP1 DUP3 DUP5 CALLDATACOPY PUSH0 DUP2 DUP5 ADD MSTORE PUSH1 0x1F NOT PUSH1 0x1F DUP3 ADD AND SWAP1 POP DUP1 DUP4 ADD SWAP3 POP POP POP POP POP POP POP DUP2 MSTORE PUSH1 0x20 ADD DUP9 DUP9 DUP1 DUP1 PUSH1 0x1F ADD PUSH1 0x20 DUP1 SWAP2 DIV MUL PUSH1 0x20 ADD PUSH1 0x40 MLOAD SWAP1 DUP2 ADD PUSH1 0x40 MSTORE DUP1 SWAP4 SWAP3 SWAP2 SWAP1 DUP2 DUP2 MSTORE PUSH1 0x20 ADD DUP4 DUP4 DUP1 DUP3 DUP5 CALLDATACOPY PUSH0 DUP2 DUP5 ADD MSTORE PUSH1 0x1F NOT PUSH1 0x1F DUP3 ADD AND SWAP1 POP DUP1 DUP4 ADD SWAP3 POP POP POP POP POP POP POP DUP2 MSTORE PUSH1 0x20 ADD DUP7 DUP7 DUP1 DUP1 PUSH1 0x1F ADD PUSH1 0x20 DUP1 SWAP2 DIV MUL PUSH1 0x20 ADD PUSH1 0x40 MLOAD SWAP1 DUP2 ADD PUSH1 0x40 MSTORE DUP1 SWAP4 SWAP3 SWAP2 SWAP1 DUP2 DUP2 MSTORE PUSH1 0x20 ADD DUP4 DUP4 DUP1 DUP3 DUP5 CALLDATACOPY PUSH0 DUP2 DUP5 ADD MSTORE PUSH1 0x1F NOT PUSH1 0x1F DUP3 ADD AND SWAP1 POP DUP1 DUP4 ADD SWAP3 POP POP POP POP POP POP POP DUP2 MSTORE PUSH1 0x20 ADD DUP5 DUP5 DUP1 DUP1 PUSH1 0x1F ADD PUSH1 0x20 DUP1 SWAP2 DIV MUL PUSH1 0x20 ADD PUSH1 0x40 MLOAD SWAP1 DUP2 ADD PUSH1 0x40 MSTORE DUP1 SWAP4 SWAP3 SWAP2 SWAP1 DUP2 DUP2 MSTORE PUSH1 0x20 ADD DUP4 DUP4 DUP1 DUP3 DUP5 CALLDATACOPY PUSH0 DUP2 DUP5 ADD MSTORE PUSH1 0x1F NOT PUSH1 0x1F DUP3 ADD AND SWAP1 POP DUP1 DUP4 ADD SWAP3 POP POP POP POP POP POP POP DUP2 MSTORE POP PUSH0 DUP3 PUSH1 0x3 DUP2 LT PUSH2 0xE4A JUMPI PUSH2 0xE49 PUSH2 0x1D78 JUMP JUMPDEST JUMPDEST PUSH1 0x5 MUL ADD PUSH0 DUP3 ADD MLOAD DUP2 PUSH0 ADD SSTORE PUSH1 0x20 DUP3 ADD MLOAD DUP2 PUSH1 0x1 ADD SWAP1 DUP2 PUSH2 0xE6B SWAP2 SWAP1 PUSH2 0x1F6F JUMP JUMPDEST POP PUSH1 0x40 DUP3 ADD MLOAD DUP2 PUSH1 0x2 ADD SWAP1 DUP2 PUSH2 0xE81 SWAP2 SWAP1 PUSH2 0x1F6F JUMP JUMPDEST POP PUSH1 0x60 DUP3 ADD MLOAD DUP2 PUSH1 0x3 ADD SWAP1 DUP2 PUSH2 0xE97 SWAP2 SWAP1 PUSH2 0x1F6F JUMP JUMPDEST POP PUSH1 0x80 DUP3 ADD MLOAD DUP2 PUSH1 0x4 ADD SWAP1 DUP2 PUSH2 0xEAD SWAP2 SWAP1 PUSH2 0x1F6F JUMP JUMPDEST POP SWAP1 POP POP POP POP POP POP POP POP POP POP POP JUMP JUMPDEST PUSH1 0x20 DUP1 SLOAD PUSH2 0xEC9 SWAP1 PUSH2 0x1C52 JUMP JUMPDEST DUP1 PUSH1 0x1F ADD PUSH1 0x20 DUP1 SWAP2 DIV MUL PUSH1 0x20 ADD PUSH1 0x40 MLOAD SWAP1 DUP2 ADD PUSH1 0x40 MSTORE DUP1 SWAP3 SWAP2 SWAP1 DUP2 DUP2 MSTORE PUSH1 0x20 ADD DUP3 DUP1 SLOAD PUSH2 0xEF5 SWAP1 PUSH2 0x1C52 JUMP JUMPDEST DUP1 ISZERO PUSH2 0xF40 JUMPI DUP1 PUSH1 0x1F LT PUSH2 0xF17 JUMPI PUSH2 0x100 DUP1 DUP4 SLOAD DIV MUL DUP4 MSTORE SWAP2 PUSH1 0x20 ADD SWAP2 PUSH2 0xF40 JUMP JUMPDEST DUP3 ADD SWAP2 SWAP1 PUSH0 MSTORE PUSH1 0x20 PUSH0 KECCAK256 SWAP1 JUMPDEST DUP2 SLOAD DUP2 MSTORE SWAP1 PUSH1 0x1 ADD SWAP1 PUSH1 0x20 ADD DUP1 DUP4 GT PUSH2 0xF23 JUMPI DUP3 SWAP1 SUB PUSH1 0x1F AND DUP3 ADD SWAP2 JUMPDEST POP POP POP POP POP DUP2 JUMP JUMPDEST PUSH1 0xF DUP2 PUSH1 0x3 DUP2 LT PUSH2 0xF57 JUMPI PUSH0 DUP1 REVERT JUMPDEST PUSH1 0x5 MUL ADD PUSH0 SWAP2 POP SWAP1 POP DUP1 PUSH0 ADD SLOAD SWAP1 DUP1 PUSH1 0x1 ADD DUP1 SLOAD PUSH2 0xF74 SWAP1 PUSH2 0x1C52 JUMP JUMPDEST DUP1 PUSH1 0x1F ADD PUSH1 0x20 DUP1 SWAP2 DIV MUL PUSH1 0x20 ADD PUSH1 0x40 MLOAD SWAP1 DUP2 ADD PUSH1 0x40 MSTORE DUP1 SWAP3 SWAP2 SWAP1 DUP2 DUP2 MSTORE PUSH1 0x20 ADD DUP3 DUP1 SLOAD PUSH2 0xFA0 SWAP1 PUSH2 0x1C52 JUMP JUMPDEST DUP1 ISZERO PUSH2 0xFEB JUMPI DUP1 PUSH1 0x1F LT PUSH2 0xFC2 JUMPI PUSH2 0x100 DUP1 DUP4 SLOAD DIV MUL DUP4 MSTORE SWAP2 PUSH1 0x20 ADD SWAP2 PUSH2 0xFEB JUMP JUMPDEST DUP3 ADD SWAP2 SWAP1 PUSH0 MSTORE PUSH1 0x20 PUSH0 KECCAK256 SWAP1 JUMPDEST DUP2 SLOAD DUP2 MSTORE SWAP1 PUSH1 0x1 ADD SWAP1 PUSH1 0x20 ADD DUP1 DUP4 GT PUSH2 0xFCE JUMPI DUP3 SWAP1 SUB PUSH1 0x1F AND DUP3 ADD SWAP2 JUMPDEST POP POP POP POP POP SWAP1 DUP1 PUSH1 0x2 ADD DUP1 SLOAD PUSH2 0x1000 SWAP1 PUSH2 0x1C52 JUMP JUMPDEST DUP1 PUSH1 0x1F ADD PUSH1 0x20 DUP1 SWAP2 DIV MUL PUSH1 0x20 ADD PUSH1 0x40 MLOAD SWAP1 DUP2 ADD PUSH1 0x40 MSTORE DUP1 SWAP3 SWAP2 SWAP1 DUP2 DUP2 MSTORE PUSH1 0x20 ADD DUP3 DUP1 SLOAD PUSH2 0x102C SWAP1 PUSH2 0x1C52 JUMP JUMPDEST DUP1 ISZERO PUSH2 0x1077 JUMPI DUP1 PUSH1 0x1F LT PUSH2 0x104E JUMPI PUSH2 0x100 DUP1 DUP4 SLOAD DIV MUL DUP4 MSTORE SWAP2 PUSH1 0x20 ADD SWAP2 PUSH2 0x1077 JUMP JUMPDEST DUP3 ADD SWAP2 SWAP1 PUSH0 MSTORE PUSH1 0x20 PUSH0 KECCAK256 SWAP1 JUMPDEST DUP2 SLOAD DUP2 MSTORE SWAP1 PUSH1 0x1 ADD SWAP1 PUSH1 0x20 ADD DUP1 DUP4 GT PUSH2 0x105A JUMPI DUP3 SWAP1 SUB PUSH1 0x1F AND DUP3 ADD SWAP2 JUMPDEST POP POP POP POP POP SWAP1 DUP1 PUSH1 0x3 ADD DUP1 SLOAD PUSH2 0x108C SWAP1 PUSH2 0x1C52 JUMP JUMPDEST DUP1 PUSH1 0x1F ADD PUSH1 0x20 DUP1 SWAP2 DIV MUL PUSH1 0x20 ADD PUSH1 0x40 MLOAD SWAP1 DUP2 ADD PUSH1 0x40 MSTORE DUP1 SWAP3 SWAP2 SWAP1 DUP2 DUP2 MSTORE PUSH1 0x20 ADD DUP3 DUP1 SLOAD PUSH2 0x10B8 SWAP1 PUSH2 0x1C52 JUMP JUMPDEST DUP1 ISZERO PUSH2 0x1103 JUMPI DUP1 PUSH1 0x1F LT PUSH2 0x10DA JUMPI PUSH2 0x100 DUP1 DUP4 SLOAD DIV MUL DUP4 MSTORE SWAP2 PUSH1 0x20 ADD SWAP2 PUSH2 0x1103 JUMP JUMPDEST DUP3 ADD SWAP2 SWAP1 PUSH0 MSTORE PUSH1 0x20 PUSH0 KECCAK256 SWAP1 JUMPDEST DUP2 SLOAD DUP2 MSTORE SWAP1 PUSH1 0x1 ADD SWAP1 PUSH1 0x20 ADD DUP1 DUP4 GT PUSH2 0x10E6 JUMPI DUP3 SWAP1 SUB PUSH1 0x1F AND DUP3 ADD SWAP2 JUMPDEST POP POP POP POP POP SWAP1 DUP1 PUSH1 0x4 ADD DUP1 SLOAD PUSH2 0x1118 SWAP1 PUSH2 0x1C52 JUMP JUMPDEST DUP1 PUSH1 0x1F ADD PUSH1 0x20 DUP1 SWAP2 DIV MUL PUSH1 0x20 ADD PUSH1 0x40 MLOAD SWAP1 DUP2 ADD PUSH1 0x40 MSTORE DUP1 SWAP3 SWAP2 SWAP1 DUP2 DUP2 MSTORE PUSH1 0x20 ADD DUP3 DUP1 SLOAD PUSH2 0x1144 SWAP1 PUSH2 0x1C52 JUMP JUMPDEST DUP1 ISZERO PUSH2 0x118F JUMPI DUP1 PUSH1 0x1F LT PUSH2 0x1166 JUMPI PUSH2 0x100 DUP1 DUP4 SLOAD DIV MUL DUP4 MSTORE SWAP2 PUSH1 0x20 ADD SWAP2 PUSH2 0x118F JUMP JUMPDEST DUP3 ADD SWAP2 SWAP1 PUSH0 MSTORE PUSH1 0x20 PUSH0 KECCAK256 SWAP1 JUMPDEST DUP2 SLOAD DUP2 MSTORE SWAP1 PUSH1 0x1 ADD SWAP1 PUSH1 0x20 ADD DUP1 DUP4 GT PUSH2 0x1172 JUMPI DUP3 SWAP1 SUB PUSH1 0x1F AND DUP3 ADD SWAP2 JUMPDEST POP POP POP POP POP SWAP1 POP DUP6 JUMP JUMPDEST CALLER PUSH20 0xFFFFFFFFFFFFFFFFFFFFFFFFFFFFFFFFFFFFFFFF AND PUSH1 0x1E PUSH0 SWAP1 SLOAD SWAP1 PUSH2 0x100 EXP SWAP1 DIV PUSH20 0xFFFFFFFFFFFFFFFFFFFFFFFFFFFFFFFFFFFFFFFF AND PUSH20 0xFFFFFFFFFFFFFFFFFFFFFFFFFFFFFFFFFFFFFFFF AND EQ PUSH2 0x1228 JUMPI PUSH1 0x40 MLOAD PUSH32 0x8C379A000000000000000000000000000000000000000000000000000000000 DUP2 MSTORE PUSH1 0x4 ADD PUSH2 0x121F SWAP1 PUSH2 0x1CF2 JUMP JUMPDEST PUSH1 0x40 MLOAD DUP1 SWAP2 SUB SWAP1 REVERT JUMPDEST POP POP POP POP POP POP POP POP JUMP JUMPDEST PUSH1 0x21 DUP1 SLOAD PUSH2 0x123F SWAP1 PUSH2 0x1C52 JUMP JUMPDEST DUP1 PUSH1 0x1F ADD PUSH1 0x20 DUP1 SWAP2 DIV MUL PUSH1 0x20 ADD PUSH1 0x40 MLOAD SWAP1 DUP2 ADD PUSH1 0x40 MSTORE DUP1 SWAP3 SWAP2 SWAP1 DUP2 DUP2 MSTORE PUSH1 0x20 ADD DUP3 DUP1 SLOAD PUSH2 0x126B SWAP1 PUSH2 0x1C52 JUMP JUMPDEST DUP1 ISZERO PUSH2 0x12B6 JUMPI DUP1 PUSH1 0x1F LT PUSH2 0x128D JUMPI PUSH2 0x100 DUP1 DUP4 SLOAD DIV MUL DUP4 MSTORE SWAP2 PUSH1 0x20 ADD SWAP2 PUSH2 0x12B6 JUMP JUMPDEST DUP3 ADD SWAP2 SWAP1 PUSH0 MSTORE PUSH1 0x20 PUSH0 KECCAK256 SWAP1 JUMPDEST DUP2 SLOAD DUP2 MSTORE SWAP1 PUSH1 0x1 ADD SWAP1 PUSH1 0x20 ADD DUP1 DUP4 GT PUSH2 0x1299 JUMPI DUP3 SWAP1 SUB PUSH1 0x1F AND DUP3 ADD SWAP2 JUMPDEST POP POP POP POP POP DUP2 JUMP JUMPDEST PUSH1 0x1F DUP1 SLOAD PUSH2 0x12CB SWAP1 PUSH2 0x1C52 JUMP JUMPDEST DUP1 PUSH1 0x1F ADD PUSH1 0x20 DUP1 SWAP2 DIV MUL PUSH1 0x20 ADD PUSH1 0x40 MLOAD SWAP1 DUP2 ADD PUSH1 0x40 MSTORE DUP1 SWAP3 SWAP2 SWAP1 DUP2 DUP2 MSTORE PUSH1 0x20 ADD DUP3 DUP1 SLOAD PUSH2 0x12F7 SWAP1 PUSH2 0x1C52 JUMP JUMPDEST DUP1 ISZERO PUSH2 0x1342 JUMPI DUP1 PUSH1 0x1F LT PUSH2 0x1319 JUMPI PUSH2 0x100 DUP1 DUP4 SLOAD DIV MUL DUP4 MSTORE SWAP2 PUSH1 0x20 ADD SWAP2 PUSH2 0x1342 JUMP JUMPDEST DUP3 ADD SWAP2 SWAP1 PUSH0 MSTORE PUSH1 0x20 PUSH0 KECCAK256 SWAP1 JUMPDEST DUP2 SLOAD DUP2 MSTORE SWAP1 PUSH1 0x1 ADD SWAP1 PUSH1 0x20 ADD DUP1 DUP4 GT PUSH2 0x1325 JUMPI DUP3 SWAP1 SUB PUSH1 0x1F AND DUP3 ADD SWAP2 JUMPDEST POP POP POP POP POP DUP2 JUMP JUMPDEST CALLER PUSH20 0xFFFFFFFFFFFFFFFFFFFFFFFFFFFFFFFFFFFFFFFF AND PUSH1 0x1E PUSH0 SWAP1 SLOAD SWAP1 PUSH2 0x100 EXP SWAP1 DIV PUSH20 0xFFFFFFFFFFFFFFFFFFFFFFFFFFFFFFFFFFFFFFFF AND PUSH20 0xFFFFFFFFFFFFFFFFFFFFFFFFFFFFFFFFFFFFFFFF AND EQ PUSH2 0x13D9 JUMPI PUSH1 0x40 MLOAD PUSH32 0x8C379A000000000000000000000000000000000000000000000000000000000 DUP2 MSTORE PUSH1 0x4 ADD PUSH2 0x13D0 SWAP1 PUSH2 0x1CF2 JUMP JUMPDEST PUSH1 0x40 MLOAD DUP1 SWAP2 SUB SWAP1 REVERT JUMPDEST POP POP JUMP JUMPDEST CALLER PUSH20 0xFFFFFFFFFFFFFFFFFFFFFFFFFFFFFFFFFFFFFFFF AND PUSH1 0x1E PUSH0 SWAP1 SLOAD SWAP1 PUSH2 0x100 EXP SWAP1 DIV PUSH20 0xFFFFFFFFFFFFFFFFFFFFFFFFFFFFFFFFFFFFFFFF AND PUSH20 0xFFFFFFFFFFFFFFFFFFFFFFFFFFFFFFFFFFFFFFFF AND EQ PUSH2 0x146C JUMPI PUSH1 0x40 MLOAD PUSH32 0x8C379A000000000000000000000000000000000000000000000000000000000 DUP2 MSTORE PUSH1 0x4 ADD PUSH2 0x1463 SWAP1 PUSH2 0x1CF2 JUMP JUMPDEST PUSH1 0x40 MLOAD DUP1 SWAP2 SUB SWAP1 REVERT JUMPDEST POP POP JUMP JUMPDEST JUMP JUMPDEST PUSH1 0x40 MLOAD DUP1 PUSH1 0x60 ADD PUSH1 0x40 MSTORE DUP1 PUSH1 0x3 SWAP1 JUMPDEST PUSH2 0x1489 PUSH2 0x14CC JUMP JUMPDEST DUP2 MSTORE PUSH1 0x20 ADD SWAP1 PUSH1 0x1 SWAP1 SUB SWAP1 DUP2 PUSH2 0x1481 JUMPI SWAP1 POP POP SWAP1 JUMP JUMPDEST PUSH1 0x40 MLOAD DUP1 PUSH1 0x60 ADD PUSH1 0x40 MSTORE DUP1 PUSH1 0x3 SWAP1 JUMPDEST PUSH2 0x14B6 PUSH2 0x14FA JUMP JUMPDEST DUP2 MSTORE PUSH1 0x20 ADD SWAP1 PUSH1 0x1 SWAP1 SUB SWAP1 DUP2 PUSH2 0x14AE JUMPI SWAP1 POP POP SWAP1 JUMP JUMPDEST PUSH1 0x40 MLOAD DUP1 PUSH1 0xA0 ADD PUSH1 0x40 MSTORE DUP1 PUSH0 DUP2 MSTORE PUSH1 0x20 ADD PUSH1 0x60 DUP2 MSTORE PUSH1 0x20 ADD PUSH1 0x60 DUP2 MSTORE PUSH1 0x20 ADD PUSH1 0x60 DUP2 MSTORE PUSH1 0x20 ADD PUSH1 0x60 DUP2 MSTORE POP SWAP1 JUMP JUMPDEST PUSH1 0x40 MLOAD DUP1 PUSH1 0xA0 ADD PUSH1 0x40 MSTORE DUP1 PUSH0 DUP2 MSTORE PUSH1 0x20 ADD PUSH1 0x60 DUP2 MSTORE PUSH1 0x20 ADD PUSH1 0x60 DUP2 MSTORE PUSH1 0x20 ADD PUSH1 0x60 DUP2 MSTORE PUSH1 0x20 ADD PUSH1 0x60 DUP2 MSTORE POP SWAP1 JUMP JUMPDEST PUSH0 DUP1 REVERT JUMPDEST PUSH0 DUP1 REVERT JUMPDEST PUSH0 DUP2 SWAP1 POP SWAP2 SWAP1 POP JUMP JUMPDEST PUSH2 0x1542 DUP2 PUSH2 0x1530 JUMP JUMPDEST DUP2 EQ PUSH2 0x154C JUMPI PUSH0 DUP1 REVERT JUMPDEST POP JUMP JUMPDEST PUSH0 DUP2 CALLDATALOAD SWAP1 POP PUSH2 0x155D DUP2 PUSH2 0x1539 JUMP JUMPDEST SWAP3 SWAP2 POP POP JUMP JUMPDEST PUSH0 PUSH1 0x20 DUP3 DUP5 SUB SLT ISZERO PUSH2 0x1578 JUMPI PUSH2 0x1577 PUSH2 0x1528 JUMP JUMPDEST JUMPDEST PUSH0 PUSH2 0x1585 DUP5 DUP3 DUP6 ADD PUSH2 0x154F JUMP JUMPDEST SWAP2 POP POP SWAP3 SWAP2 POP POP JUMP JUMPDEST PUSH2 0x1597 DUP2 PUSH2 0x1530 JUMP JUMPDEST DUP3 MSTORE POP POP JUMP JUMPDEST PUSH0 DUP2 MLOAD SWAP1 POP SWAP2 SWAP1 POP JUMP JUMPDEST PUSH0 DUP3 DUP3 MSTORE PUSH1 0x20 DUP3 ADD SWAP1 POP SWAP3 SWAP2 POP POP JUMP JUMPDEST DUP3 DUP2 DUP4 MCOPY PUSH0 DUP4 DUP4 ADD MSTORE POP POP POP JUMP JUMPDEST PUSH0 PUSH1 0x1F NOT PUSH1 0x1F DUP4 ADD AND SWAP1 POP SWAP2 SWAP1 POP JUMP JUMPDEST PUSH0 PUSH2 0x15DF DUP3 PUSH2 0x159D JUMP JUMPDEST PUSH2 0x15E9 DUP2 DUP6 PUSH2 0x15A7 JUMP JUMPDEST SWAP4 POP PUSH2 0x15F9 DUP2 DUP6 PUSH1 0x20 DUP7 ADD PUSH2 0x15B7 JUMP JUMPDEST PUSH2 0x1602 DUP2 PUSH2 0x15C5 JUMP JUMPDEST DUP5 ADD SWAP2 POP POP SWAP3 SWAP2 POP POP JUMP JUMPDEST PUSH0 PUSH1 0xA0 DUP3 ADD SWAP1 POP PUSH2 0x1620 PUSH0 DUP4 ADD DUP9 PUSH2 0x158E JUMP JUMPDEST DUP2 DUP2 SUB PUSH1 0x20 DUP4 ADD MSTORE PUSH2 0x1632 DUP2 DUP8 PUSH2 0x15D5 JUMP JUMPDEST SWAP1 POP DUP2 DUP2 SUB PUSH1 0x40 DUP4 ADD MSTORE PUSH2 0x1646 DUP2 DUP7 PUSH2 0x15D5 JUMP JUMPDEST SWAP1 POP DUP2 DUP2 SUB PUSH1 0x60 DUP4 ADD MSTORE PUSH2 0x165A DUP2 DUP6 PUSH2 0x15D5 JUMP JUMPDEST SWAP1 POP DUP2 DUP2 SUB PUSH1 0x80 DUP4 ADD MSTORE PUSH2 0x166E DUP2 DUP5 PUSH2 0x15D5 JUMP JUMPDEST SWAP1 POP SWAP7 SWAP6 POP POP POP POP POP POP JUMP JUMPDEST PUSH0 PUSH1 0x3 SWAP1 POP SWAP2 SWAP1 POP JUMP JUMPDEST PUSH0 DUP2 SWAP1 POP SWAP3 SWAP2 POP POP JUMP JUMPDEST PUSH0 DUP2 SWAP1 POP SWAP2 SWAP1 POP JUMP JUMPDEST PUSH2 0x16A0 DUP2 PUSH2 0x1530 JUMP JUMPDEST DUP3 MSTORE POP POP JUMP JUMPDEST PUSH0 DUP3 DUP3 MSTORE PUSH1 0x20 DUP3 ADD SWAP1 POP SWAP3 SWAP2 POP POP JUMP JUMPDEST PUSH0 PUSH2 0x16C0 DUP3 PUSH2 0x159D JUMP JUMPDEST PUSH2 0x16CA DUP2 DUP6 PUSH2 0x16A6 JUMP JUMPDEST SWAP4 POP PUSH2 0x16DA DUP2 DUP6 PUSH1 0x20 DUP7 ADD PUSH2 0x15B7 JUMP JUMPDEST PUSH2 0x16E3 DUP2 PUSH2 0x15C5 JUMP JUMPDEST DUP5 ADD SWAP2 POP POP SWAP3 SWAP2 POP POP JUMP JUMPDEST PUSH0 PUSH1 0xA0 DUP4 ADD PUSH0 DUP4 ADD MLOAD PUSH2 0x1703 PUSH0 DUP7 ADD DUP3 PUSH2 0x1697 JUMP JUMPDEST POP PUSH1 0x20 DUP4 ADD MLOAD DUP5 DUP3 SUB PUSH1 0x20 DUP7 ADD MSTORE PUSH2 0x171B DUP3 DUP3 PUSH2 0x16B6 JUMP JUMPDEST SWAP2 POP POP PUSH1 0x40 DUP4 ADD MLOAD DUP5 DUP3 SUB PUSH1 0x40 DUP7 ADD MSTORE PUSH2 0x1735 DUP3 DUP3 PUSH2 0x16B6 JUMP JUMPDEST SWAP2 POP POP PUSH1 0x60 DUP4 ADD MLOAD DUP5 DUP3 SUB PUSH1 0x60 DUP7 ADD MSTORE PUSH2 0x174F DUP3 DUP3 PUSH2 0x16B6 JUMP JUMPDEST SWAP2 POP POP PUSH1 0x80 DUP4 ADD MLOAD DUP5 DUP3 SUB PUSH1 0x80 DUP7 ADD MSTORE PUSH2 0x1769 DUP3 DUP3 PUSH2 0x16B6 JUMP JUMPDEST SWAP2 POP POP DUP1 SWAP2 POP POP SWAP3 SWAP2 POP POP JUMP JUMPDEST PUSH0 PUSH2 0x1781 DUP4 DUP4 PUSH2 0x16EE JUMP JUMPDEST SWAP1 POP SWAP3 SWAP2 POP POP JUMP JUMPDEST PUSH0 PUSH1 0x20 DUP3 ADD SWAP1 POP SWAP2 SWAP1 POP JUMP JUMPDEST PUSH0 PUSH2 0x179F DUP3 PUSH2 0x167A JUMP JUMPDEST PUSH2 0x17A9 DUP2 DUP6 PUSH2 0x1684 JUMP JUMPDEST SWAP4 POP DUP4 PUSH1 0x20 DUP3 MUL DUP6 ADD PUSH2 0x17BB DUP6 PUSH2 0x168E JUMP JUMPDEST DUP1 PUSH0 JUMPDEST DUP6 DUP2 LT ISZERO PUSH2 0x17F6 JUMPI DUP5 DUP5 SUB DUP10 MSTORE DUP2 MLOAD PUSH2 0x17D7 DUP6 DUP3 PUSH2 0x1776 JUMP JUMPDEST SWAP5 POP PUSH2 0x17E2 DUP4 PUSH2 0x1789 JUMP JUMPDEST SWAP3 POP PUSH1 0x20 DUP11 ADD SWAP10 POP POP PUSH1 0x1 DUP2 ADD SWAP1 POP PUSH2 0x17BE JUMP JUMPDEST POP DUP3 SWAP8 POP DUP8 SWAP6 POP POP POP POP POP POP SWAP3 SWAP2 POP POP JUMP JUMPDEST PUSH0 PUSH1 0x20 DUP3 ADD SWAP1 POP DUP2 DUP2 SUB PUSH0 DUP4 ADD MSTORE PUSH2 0x1820 DUP2 DUP5 PUSH2 0x1795 JUMP JUMPDEST SWAP1 POP SWAP3 SWAP2 POP POP JUMP JUMPDEST PUSH0 PUSH1 0x3 SWAP1 POP SWAP2 SWAP1 POP JUMP JUMPDEST PUSH0 DUP2 SWAP1 POP SWAP3 SWAP2 POP POP JUMP JUMPDEST PUSH0 DUP2 SWAP1 POP SWAP2 SWAP1 POP JUMP JUMPDEST PUSH0 PUSH1 0xA0 DUP4 ADD PUSH0 DUP4 ADD MLOAD PUSH2 0x185A PUSH0 DUP7 ADD DUP3 PUSH2 0x1697 JUMP JUMPDEST POP PUSH1 0x20 DUP4 ADD MLOAD DUP5 DUP3 SUB PUSH1 0x20 DUP7 ADD MSTORE PUSH2 0x1872 DUP3 DUP3 PUSH2 0x16B6 JUMP JUMPDEST SWAP2 POP POP PUSH1 0x40 DUP4 ADD MLOAD DUP5 DUP3 SUB PUSH1 0x40 DUP7 ADD MSTORE PUSH2 0x188C DUP3 DUP3 PUSH2 0x16B6 JUMP JUMPDEST SWAP2 POP POP PUSH1 0x60 DUP4 ADD MLOAD DUP5 DUP3 SUB PUSH1 0x60 DUP7 ADD MSTORE PUSH2 0x18A6 DUP3 DUP3 PUSH2 0x16B6 JUMP JUMPDEST SWAP2 POP POP PUSH1 0x80 DUP4 ADD MLOAD DUP5 DUP3 SUB PUSH1 0x80 DUP7 ADD MSTORE PUSH2 0x18C0 DUP3 DUP3 PUSH2 0x16B6 JUMP JUMPDEST SWAP2 POP POP DUP1 SWAP2 POP POP SWAP3 SWAP2 POP POP JUMP JUMPDEST PUSH0 PUSH2 0x18D8 DUP4 DUP4 PUSH2 0x1845 JUMP JUMPDEST SWAP1 POP SWAP3 SWAP2 POP POP JUMP JUMPDEST PUSH0 PUSH1 0x20 DUP3 ADD SWAP1 POP SWAP2 SWAP1 POP JUMP JUMPDEST PUSH0 PUSH2 0x18F6 DUP3 PUSH2 0x1828 JUMP JUMPDEST PUSH2 0x1900 DUP2 DUP6 PUSH2 0x1832 JUMP JUMPDEST SWAP4 POP DUP4 PUSH1 0x20 DUP3 MUL DUP6 ADD PUSH2 0x1912 DUP6 PUSH2 0x183C JUMP JUMPDEST DUP1 PUSH0 JUMPDEST DUP6 DUP2 LT ISZERO PUSH2 0x194D JUMPI DUP5 DUP5 SUB DUP10 MSTORE DUP2 MLOAD PUSH2 0x192E DUP6 DUP3 PUSH2 0x18CD JUMP JUMPDEST SWAP5 POP PUSH2 0x1939 DUP4 PUSH2 0x18E0 JUMP JUMPDEST SWAP3 POP PUSH1 0x20 DUP11 ADD SWAP10 POP POP PUSH1 0x1 DUP2 ADD SWAP1 POP PUSH2 0x1915 JUMP JUMPDEST POP DUP3 SWAP8 POP DUP8 SWAP6 POP POP POP POP POP POP SWAP3 SWAP2 POP POP JUMP JUMPDEST PUSH0 PUSH1 0x20 DUP3 ADD SWAP1 POP DUP2 DUP2 SUB PUSH0 DUP4 ADD MSTORE PUSH2 0x1977 DUP2 DUP5 PUSH2 0x18EC JUMP JUMPDEST SWAP1 POP SWAP3 SWAP2 POP POP JUMP JUMPDEST PUSH0 DUP1 REVERT JUMPDEST PUSH0 DUP1 REVERT JUMPDEST PUSH0 DUP1 REVERT JUMPDEST PUSH0 DUP1 DUP4 PUSH1 0x1F DUP5 ADD SLT PUSH2 0x19A0 JUMPI PUSH2 0x199F PUSH2 0x197F JUMP JUMPDEST JUMPDEST DUP3 CALLDATALOAD SWAP1 POP PUSH8 0xFFFFFFFFFFFFFFFF DUP2 GT ISZERO PUSH2 0x19BD JUMPI PUSH2 0x19BC PUSH2 0x1983 JUMP JUMPDEST JUMPDEST PUSH1 0x20 DUP4 ADD SWAP2 POP DUP4 PUSH1 0x1 DUP3 MUL DUP4 ADD GT ISZERO PUSH2 0x19D9 JUMPI PUSH2 0x19D8 PUSH2 0x1987 JUMP JUMPDEST JUMPDEST SWAP3 POP SWAP3 SWAP1 POP JUMP JUMPDEST PUSH0 DUP1 PUSH1 0x20 DUP4 DUP6 SUB SLT ISZERO PUSH2 0x19F6 JUMPI PUSH2 0x19F5 PUSH2 0x1528 JUMP JUMPDEST JUMPDEST PUSH0 DUP4 ADD CALLDATALOAD PUSH8 0xFFFFFFFFFFFFFFFF DUP2 GT ISZERO PUSH2 0x1A13 JUMPI PUSH2 0x1A12 PUSH2 0x152C JUMP JUMPDEST JUMPDEST PUSH2 0x1A1F DUP6 DUP3 DUP7 ADD PUSH2 0x198B JUMP JUMPDEST SWAP3 POP SWAP3 POP POP SWAP3 POP SWAP3 SWAP1 POP JUMP JUMPDEST PUSH0 DUP1 PUSH0 DUP1 PUSH0 DUP1 PUSH0 DUP1 PUSH0 PUSH1 0xA0 DUP11 DUP13 SUB SLT ISZERO PUSH2 0x1A48 JUMPI PUSH2 0x1A47 PUSH2 0x1528 JUMP JUMPDEST JUMPDEST PUSH0 DUP11 ADD CALLDATALOAD PUSH8 0xFFFFFFFFFFFFFFFF DUP2 GT ISZERO PUSH2 0x1A65 JUMPI PUSH2 0x1A64 PUSH2 0x152C JUMP JUMPDEST JUMPDEST PUSH2 0x1A71 DUP13 DUP3 DUP14 ADD PUSH2 0x198B JUMP JUMPDEST SWAP10 POP SWAP10 POP POP PUSH1 0x20 DUP11 ADD CALLDATALOAD PUSH8 0xFFFFFFFFFFFFFFFF DUP2 GT ISZERO PUSH2 0x1A94 JUMPI PUSH2 0x1A93 PUSH2 0x152C JUMP JUMPDEST JUMPDEST PUSH2 0x1AA0 DUP13 DUP3 DUP14 ADD PUSH2 0x198B JUMP JUMPDEST SWAP8 POP SWAP8 POP POP PUSH1 0x40 DUP11 ADD CALLDATALOAD PUSH8 0xFFFFFFFFFFFFFFFF DUP2 GT ISZERO PUSH2 0x1AC3 JUMPI PUSH2 0x1AC2 PUSH2 0x152C JUMP JUMPDEST JUMPDEST PUSH2 0x1ACF DUP13 DUP3 DUP14 ADD PUSH2 0x198B JUMP JUMPDEST SWAP6 POP SWAP6 POP POP PUSH1 0x60 DUP11 ADD CALLDATALOAD PUSH8 0xFFFFFFFFFFFFFFFF DUP2 GT ISZERO PUSH2 0x1AF2 JUMPI PUSH2 0x1AF1 PUSH2 0x152C JUMP JUMPDEST JUMPDEST PUSH2 0x1AFE DUP13 DUP3 DUP14 ADD PUSH2 0x198B JUMP JUMPDEST SWAP4 POP SWAP4 POP POP PUSH1 0x80 PUSH2 0x1B11 DUP13 DUP3 DUP14 ADD PUSH2 0x154F JUMP JUMPDEST SWAP2 POP POP SWAP3 SWAP6 SWAP9 POP SWAP3 SWAP6 SWAP9 POP SWAP3 SWAP6 SWAP9 JUMP JUMPDEST PUSH0 DUP1 PUSH0 DUP1 PUSH0 DUP1 PUSH0 DUP1 PUSH1 0x80 DUP10 DUP12 SUB SLT ISZERO PUSH2 0x1B3D JUMPI PUSH2 0x1B3C PUSH2 0x1528 JUMP JUMPDEST JUMPDEST PUSH0 DUP10 ADD CALLDATALOAD PUSH8 0xFFFFFFFFFFFFFFFF DUP2 GT ISZERO PUSH2 0x1B5A JUMPI PUSH2 0x1B59 PUSH2 0x152C JUMP JUMPDEST JUMPDEST PUSH2 0x1B66 DUP12 DUP3 DUP13 ADD PUSH2 0x198B JUMP JUMPDEST SWAP9 POP SWAP9 POP POP PUSH1 0x20 DUP10 ADD CALLDATALOAD PUSH8 0xFFFFFFFFFFFFFFFF DUP2 GT ISZERO PUSH2 0x1B89 JUMPI PUSH2 0x1B88 PUSH2 0x152C JUMP JUMPDEST JUMPDEST PUSH2 0x1B95 DUP12 DUP3 DUP13 ADD PUSH2 0x198B JUMP JUMPDEST SWAP7 POP SWAP7 POP POP PUSH1 0x40 DUP10 ADD CALLDATALOAD PUSH8 0xFFFFFFFFFFFFFFFF DUP2 GT ISZERO PUSH2 0x1BB8 JUMPI PUSH2 0x1BB7 PUSH2 0x152C JUMP JUMPDEST JUMPDEST PUSH2 0x1BC4 DUP12 DUP3 DUP13 ADD PUSH2 0x198B JUMP JUMPDEST SWAP5 POP SWAP5 POP POP PUSH1 0x60 DUP10 ADD CALLDATALOAD PUSH8 0xFFFFFFFFFFFFFFFF DUP2 GT ISZERO PUSH2 0x1BE7 JUMPI PUSH2 0x1BE6 PUSH2 0x152C JUMP JUMPDEST JUMPDEST PUSH2 0x1BF3 DUP12 DUP3 DUP13 ADD PUSH2 0x198B JUMP JUMPDEST SWAP3 POP SWAP3 POP POP SWAP3 SWAP6 SWAP9 POP SWAP3 SWAP6 SWAP9 SWAP1 SWAP4 SWAP7 POP JUMP JUMPDEST PUSH0 PUSH1 0x20 DUP3 ADD SWAP1 POP DUP2 DUP2 SUB PUSH0 DUP4 ADD MSTORE PUSH2 0x1C1D DUP2 DUP5 PUSH2 0x15D5 JUMP JUMPDEST SWAP1 POP SWAP3 SWAP2 POP POP JUMP JUMPDEST PUSH32 0x4E487B7100000000000000000000000000000000000000000000000000000000 PUSH0 MSTORE PUSH1 0x22 PUSH1 0x4 MSTORE PUSH1 0x24 PUSH0 REVERT JUMPDEST PUSH0 PUSH1 0x2 DUP3 DIV SWAP1 POP PUSH1 0x1 DUP3 AND DUP1 PUSH2 0x1C69 JUMPI PUSH1 0x7F DUP3 AND SWAP2 POP JUMPDEST PUSH1 0x20 DUP3 LT DUP2 SUB PUSH2 0x1C7C JUMPI PUSH2 0x1C7B PUSH2 0x1C25 JUMP JUMPDEST JUMPDEST POP SWAP2 SWAP1 POP JUMP JUMPDEST PUSH32 0x596F7520646F206E6F74206861766520616E20617574686F72697479206F7665 PUSH0 DUP3 ADD MSTORE PUSH32 0x72207468697320636F6E74726163740000000000000000000000000000000000 PUSH1 0x20 DUP3 ADD MSTORE POP JUMP JUMPDEST PUSH0 PUSH2 0x1CDC PUSH1 0x2F DUP4 PUSH2 0x15A7 JUMP JUMPDEST SWAP2 POP PUSH2 0x1CE7 DUP3 PUSH2 0x1C82 JUMP JUMPDEST PUSH1 0x40 DUP3 ADD SWAP1 POP SWAP2 SWAP1 POP JUMP JUMPDEST PUSH0 PUSH1 0x20 DUP3 ADD SWAP1 POP DUP2 DUP2 SUB PUSH0 DUP4 ADD MSTORE PUSH2 0x1D09 DUP2 PUSH2 0x1CD0 JUMP JUMPDEST SWAP1 POP SWAP2 SWAP1 POP JUMP JUMPDEST PUSH32 0x4E6F74206D6F7265207468616E20332070726F6A656374730000000000000000 PUSH0 DUP3 ADD MSTORE POP JUMP JUMPDEST PUSH0 PUSH2 0x1D44 PUSH1 0x18 DUP4 PUSH2 0x15A7 JUMP JUMPDEST SWAP2 POP PUSH2 0x1D4F DUP3 PUSH2 0x1D10 JUMP JUMPDEST PUSH1 0x20 DUP3 ADD SWAP1 POP SWAP2 SWAP1 POP JUMP JUMPDEST PUSH0 PUSH1 0x20 DUP3 ADD SWAP1 POP DUP2 DUP2 SUB PUSH0 DUP4 ADD MSTORE PUSH2 0x1D71 DUP2 PUSH2 0x1D38 JUMP JUMPDEST SWAP1 POP SWAP2 SWAP1 POP JUMP JUMPDEST PUSH32 0x4E487B7100000000000000000000000000000000000000000000000000000000 PUSH0 MSTORE PUSH1 0x32 PUSH1 0x4 MSTORE PUSH1 0x24 PUSH0 REVERT JUMPDEST PUSH32 0x4E487B7100000000000000000000000000000000000000000000000000000000 PUSH0 MSTORE PUSH1 0x41 PUSH1 0x4 MSTORE PUSH1 0x24 PUSH0 REVERT JUMPDEST PUSH0 DUP2 SWAP1 POP DUP2 PUSH0 MSTORE PUSH1 0x20 PUSH0 KECCAK256 SWAP1 POP SWAP2 SWAP1 POP JUMP JUMPDEST PUSH0 PUSH1 0x20 PUSH1 0x1F DUP4 ADD DIV SWAP1 POP SWAP2 SWAP1 POP JUMP JUMPDEST PUSH0 DUP3 DUP3 SHL SWAP1 POP SWAP3 SWAP2 POP POP JUMP JUMPDEST PUSH0 PUSH1 0x8 DUP4 MUL PUSH2 0x1E2E PUSH32 0xFFFFFFFFFFFFFFFFFFFFFFFFFFFFFFFFFFFFFFFFFFFFFFFFFFFFFFFFFFFFFFFF DUP3 PUSH2 0x1DF3 JUMP JUMPDEST PUSH2 0x1E38 DUP7 DUP4 PUSH2 0x1DF3 JUMP JUMPDEST SWAP6 POP DUP1 NOT DUP5 AND SWAP4 POP DUP1 DUP7 AND DUP5 OR SWAP3 POP POP POP SWAP4 SWAP3 POP POP POP JUMP JUMPDEST PUSH0 DUP2 SWAP1 POP SWAP2 SWAP1 POP JUMP JUMPDEST PUSH0 PUSH2 0x1E73 PUSH2 0x1E6E PUSH2 0x1E69 DUP5 PUSH2 0x1530 JUMP JUMPDEST PUSH2 0x1E50 JUMP JUMPDEST PUSH2 0x1530 JUMP JUMPDEST SWAP1 POP SWAP2 SWAP1 POP JUMP JUMPDEST PUSH0 DUP2 SWAP1 POP SWAP2 SWAP1 POP JUMP JUMPDEST PUSH2 0x1E8C DUP4 PUSH2 0x1E59 JUMP JUMPDEST PUSH2 0x1EA0 PUSH2 0x1E98 DUP3 PUSH2 0x1E7A JUMP JUMPDEST DUP5 DUP5 SLOAD PUSH2 0x1DFF JUMP JUMPDEST DUP3 SSTORE POP POP POP POP JUMP JUMPDEST PUSH0 SWAP1 JUMP JUMPDEST PUSH2 0x1EB4 PUSH2 0x1EA8 JUMP JUMPDEST PUSH2 0x1EBF DUP2 DUP5 DUP5 PUSH2 0x1E83 JUMP JUMPDEST POP POP POP JUMP JUMPDEST JUMPDEST DUP2 DUP2 LT ISZERO PUSH2 0x1EE2 JUMPI PUSH2 0x1ED7 PUSH0 DUP3 PUSH2 0x1EAC JUMP JUMPDEST PUSH1 0x1 DUP2 ADD SWAP1 POP PUSH2 0x1EC5 JUMP JUMPDEST POP POP JUMP JUMPDEST PUSH1 0x1F DUP3 GT ISZERO PUSH2 0x1F27 JUMPI PUSH2 0x1EF8 DUP2 PUSH2 0x1DD2 JUMP JUMPDEST PUSH2 0x1F01 DUP5 PUSH2 0x1DE4 JUMP JUMPDEST DUP2 ADD PUSH1 0x20 DUP6 LT ISZERO PUSH2 0x1F10 JUMPI DUP2 SWAP1 POP JUMPDEST PUSH2 0x1F24 PUSH2 0x1F1C DUP6 PUSH2 0x1DE4 JUMP JUMPDEST DUP4 ADD DUP3 PUSH2 0x1EC4 JUMP JUMPDEST POP POP JUMPDEST POP POP POP JUMP JUMPDEST PUSH0 DUP3 DUP3 SHR SWAP1 POP SWAP3 SWAP2 POP POP JUMP JUMPDEST PUSH0 PUSH2 0x1F47 PUSH0 NOT DUP5 PUSH1 0x8 MUL PUSH2 0x1F2C JUMP JUMPDEST NOT DUP1 DUP4 AND SWAP2 POP POP SWAP3 SWAP2 POP POP JUMP JUMPDEST PUSH0 PUSH2 0x1F5F DUP4 DUP4 PUSH2 0x1F38 JUMP JUMPDEST SWAP2 POP DUP3 PUSH1 0x2 MUL DUP3 OR SWAP1 POP SWAP3 SWAP2 POP POP JUMP JUMPDEST PUSH2 0x1F78 DUP3 PUSH2 0x159D JUMP JUMPDEST PUSH8 0xFFFFFFFFFFFFFFFF DUP2 GT ISZERO PUSH2 0x1F91 JUMPI PUSH2 0x1F90 PUSH2 0x1DA5 JUMP JUMPDEST JUMPDEST PUSH2 0x1F9B DUP3 SLOAD PUSH2 0x1C52 JUMP JUMPDEST PUSH2 0x1FA6 DUP3 DUP3 DUP6 PUSH2 0x1EE6 JUMP JUMPDEST PUSH0 PUSH1 0x20 SWAP1 POP PUSH1 0x1F DUP4 GT PUSH1 0x1 DUP2 EQ PUSH2 0x1FD7 JUMPI PUSH0 DUP5 ISZERO PUSH2 0x1FC5 JUMPI DUP3 DUP8 ADD MLOAD SWAP1 POP JUMPDEST PUSH2 0x1FCF DUP6 DUP3 PUSH2 0x1F54 JUMP JUMPDEST DUP7 SSTORE POP PUSH2 0x2036 JUMP JUMPDEST PUSH1 0x1F NOT DUP5 AND PUSH2 0x1FE5 DUP7 PUSH2 0x1DD2 JUMP JUMPDEST PUSH0 JUMPDEST DUP3 DUP2 LT ISZERO PUSH2 0x200C JUMPI DUP5 DUP10 ADD MLOAD DUP3 SSTORE PUSH1 0x1 DUP3 ADD SWAP2 POP PUSH1 0x20 DUP6 ADD SWAP5 POP PUSH1 0x20 DUP2 ADD SWAP1 POP PUSH2 0x1FE7 JUMP JUMPDEST DUP7 DUP4 LT ISZERO PUSH2 0x2029 JUMPI DUP5 DUP10 ADD MLOAD PUSH2 0x2025 PUSH1 0x1F DUP10 AND DUP3 PUSH2 0x1F38 JUMP JUMPDEST DUP4 SSTORE POP JUMPDEST PUSH1 0x1 PUSH1 0x2 DUP9 MUL ADD DUP9 SSTORE POP POP POP JUMPDEST POP POP POP POP POP POP JUMP JUMPDEST PUSH32 0x4E487B7100000000000000000000000000000000000000000000000000000000 PUSH0 MSTORE PUSH1 0x11 PUSH1 0x4 MSTORE PUSH1 0x24 PUSH0 REVERT JUMPDEST PUSH0 PUSH2 0x2075 DUP3 PUSH2 0x1530 JUMP JUMPDEST SWAP2 POP PUSH32 0xFFFFFFFFFFFFFFFFFFFFFFFFFFFFFFFFFFFFFFFFFFFFFFFFFFFFFFFFFFFFFFFF DUP3 SUB PUSH2 0x20A7 JUMPI PUSH2 0x20A6 PUSH2 0x203E JUMP JUMPDEST JUMPDEST PUSH1 0x1 DUP3 ADD SWAP1 POP SWAP2 SWAP1 POP JUMP JUMPDEST PUSH32 0x496E76616C69642050726F6A656374436F756E74000000000000000000000000 PUSH0 DUP3 ADD MSTORE POP JUMP JUMPDEST PUSH0 PUSH2 0x20E6 PUSH1 0x14 DUP4 PUSH2 0x15A7 JUMP JUMPDEST SWAP2 POP PUSH2 0x20F1 DUP3 PUSH2 0x20B2 JUMP JUMPDEST PUSH1 0x20 DUP3 ADD SWAP1 POP SWAP2 SWAP1 POP JUMP JUMPDEST PUSH0 PUSH1 0x20 DUP3 ADD SWAP1 POP DUP2 DUP2 SUB PUSH0 DUP4 ADD MSTORE PUSH2 0x2113 DUP2 PUSH2 0x20DA JUMP JUMPDEST SWAP1 POP SWAP2 SWAP1 POP JUMP INVALID LOG2 PUSH5 0x6970667358 0x22 SLT KECCAK256 PUSH15 0xEE8EB2FE4CDFF7B8E41384A4E8A08B PUSH23 0xB08DE9E2536C220C9D5D06147E55C364736F6C63430008 BYTE STOP CALLER PUSH16 0x7665722031206D6F6E746873206F6620 PUSH17 0x726163746963616C20657870657269656E PUSH4 0x65207769 PUSH21 0x68206120676F6F64206B6E6F776C6564676520696E KECCAK256 PUSH3 0x6C6F63 PUSH12 0x636861696E516D6537785643 PUSH2 0x526E PUSH24 0x556342564879614B68734773473451466F673253444D4E33 PUSH7 0x484C5743547677 COINBASE 0x4B PUSH27 0x516D4E566E3537564E417A47314755526550423854464A43623670 ORIGIN 0x4C CALLDATALOAD BLOBBASEFEE PUSH27 0x7336396D757362705533744E585500000000000000000000000000 "
				},
				"gasEstimates": {
					"creation": {
						"codeDepositCost": "1705600",
						"executionCost": "infinite",
						"totalCost": "infinite"
					},
					"external": {
						"allEducationDetails()": "infinite",
						"allProjects()": "infinite",
						"changeDescription(string)": "3003",
						"changeEducation(string,string,string,string,uint256)": "infinite",
						"changeImageLink(string)": "2960",
						"changeProject(string,string,string,string,uint256)": "infinite",
						"changeResumeLink(string)": "2981",
						"description()": "infinite",
						"donate()": "207",
						"educationDetails(uint256)": "infinite",
						"imageLink()": "infinite",
						"insertEducation(string,string,string,string)": "infinite",
						"insertProject(string,string,string,string)": "infinite",
						"projects(uint256)": "infinite",
						"resumeLinks()": "infinite"
					}
				},
				"methodIdentifiers": {
					"allEducationDetails()": "5397c6ec",
					"allProjects()": "2adf13b2",
					"changeDescription(string)": "e6120413",
					"changeEducation(string,string,string,string,uint256)": "5b173a69",
					"changeImageLink(string)": "598e7f37",
					"changeProject(string,string,string,string,uint256)": "6fe8e0bd",
					"changeResumeLink(string)": "d3cedf11",
					"description()": "7284e416",
					"donate()": "ed88c68e",
					"educationDetails(uint256)": "7aea95aa",
					"imageLink()": "caf7b759",
					"insertEducation(string,string,string,string)": "98f831b6",
					"insertProject(string,string,string,string)": "6426d4c3",
					"projects(uint256)": "107046bd",
					"resumeLinks()": "c24708f4"
				}
			},
			"storageLayout": {
				"storage": [
					{
						"astId": 28,
						"contract": "contracts/artifacts/Portfolio.sol:Portfolio",
						"label": "projects",
						"offset": 0,
						"slot": "0",
						"type": "t_array(t_struct(Project)12_storage)3_storage"
					},
					{
						"astId": 33,
						"contract": "contracts/artifacts/Portfolio.sol:Portfolio",
						"label": "educationDetails",
						"offset": 0,
						"slot": "15",
						"type": "t_array(t_struct(Education)23_storage)3_storage"
					},
					{
						"astId": 35,
						"contract": "contracts/artifacts/Portfolio.sol:Portfolio",
						"label": "portfolioAuthority",
						"offset": 0,
						"slot": "30",
						"type": "t_address"
					},
					{
						"astId": 38,
						"contract": "contracts/artifacts/Portfolio.sol:Portfolio",
						"label": "imageLink",
						"offset": 0,
						"slot": "31",
						"type": "t_string_storage"
					},
					{
						"astId": 41,
						"contract": "contracts/artifacts/Portfolio.sol:Portfolio",
						"label": "description",
						"offset": 0,
						"slot": "32",
						"type": "t_string_storage"
					},
					{
						"astId": 44,
						"contract": "contracts/artifacts/Portfolio.sol:Portfolio",
						"label": "resumeLinks",
						"offset": 0,
						"slot": "33",
						"type": "t_string_storage"
					},
					{
						"astId": 46,
						"contract": "contracts/artifacts/Portfolio.sol:Portfolio",
						"label": "projectCount",
						"offset": 0,
						"slot": "34",
						"type": "t_uint256"
					},
					{
						"astId": 48,
						"contract": "contracts/artifacts/Portfolio.sol:Portfolio",
						"label": "educationCount",
						"offset": 0,
						"slot": "35",
						"type": "t_uint256"
					}
				],
				"types": {
					"t_address": {
						"encoding": "inplace",
						"label": "address",
						"numberOfBytes": "20"
					},
					"t_array(t_struct(Education)23_storage)3_storage": {
						"base": "t_struct(Education)23_storage",
						"encoding": "inplace",
						"label": "struct Portfolio.Education[3]",
						"numberOfBytes": "480"
					},
					"t_array(t_struct(Project)12_storage)3_storage": {
						"base": "t_struct(Project)12_storage",
						"encoding": "inplace",
						"label": "struct Portfolio.Project[3]",
						"numberOfBytes": "480"
					},
					"t_string_storage": {
						"encoding": "bytes",
						"label": "string",
						"numberOfBytes": "32"
					},
					"t_struct(Education)23_storage": {
						"encoding": "inplace",
						"label": "struct Portfolio.Education",
						"members": [
							{
								"astId": 14,
								"contract": "contracts/artifacts/Portfolio.sol:Portfolio",
								"label": "id",
								"offset": 0,
								"slot": "0",
								"type": "t_uint256"
							},
							{
								"astId": 16,
								"contract": "contracts/artifacts/Portfolio.sol:Portfolio",
								"label": "date",
								"offset": 0,
								"slot": "1",
								"type": "t_string_storage"
							},
							{
								"astId": 18,
								"contract": "contracts/artifacts/Portfolio.sol:Portfolio",
								"label": "degree",
								"offset": 0,
								"slot": "2",
								"type": "t_string_storage"
							},
							{
								"astId": 20,
								"contract": "contracts/artifacts/Portfolio.sol:Portfolio",
								"label": "knowledgeAcquired",
								"offset": 0,
								"slot": "3",
								"type": "t_string_storage"
							},
							{
								"astId": 22,
								"contract": "contracts/artifacts/Portfolio.sol:Portfolio",
								"label": "instutionName",
								"offset": 0,
								"slot": "4",
								"type": "t_string_storage"
							}
						],
						"numberOfBytes": "160"
					},
					"t_struct(Project)12_storage": {
						"encoding": "inplace",
						"label": "struct Portfolio.Project",
						"members": [
							{
								"astId": 3,
								"contract": "contracts/artifacts/Portfolio.sol:Portfolio",
								"label": "id",
								"offset": 0,
								"slot": "0",
								"type": "t_uint256"
							},
							{
								"astId": 5,
								"contract": "contracts/artifacts/Portfolio.sol:Portfolio",
								"label": "name",
								"offset": 0,
								"slot": "1",
								"type": "t_string_storage"
							},
							{
								"astId": 7,
								"contract": "contracts/artifacts/Portfolio.sol:Portfolio",
								"label": "description",
								"offset": 0,
								"slot": "2",
								"type": "t_string_storage"
							},
							{
								"astId": 9,
								"contract": "contracts/artifacts/Portfolio.sol:Portfolio",
								"label": "image",
								"offset": 0,
								"slot": "3",
								"type": "t_string_storage"
							},
							{
								"astId": 11,
								"contract": "contracts/artifacts/Portfolio.sol:Portfolio",
								"label": "githubLink",
								"offset": 0,
								"slot": "4",
								"type": "t_string_storage"
							}
						],
						"numberOfBytes": "160"
					},
					"t_uint256": {
						"encoding": "inplace",
						"label": "uint256",
						"numberOfBytes": "32"
					}
				}
			},
			"userdoc": {
				"kind": "user",
				"methods": {},
				"version": 1
			}
		}
	}
}